:020000040000FA
:10000000F9EF1FF0C96E12004DEF1BF0A9EC08F0DC
:100010005BEC18F0FDD7120072EF1DF0D9CFE5FFB1
:10002000E1CFD9FF00C0E5FF01C0E5FF02C0E5FF59
:1000300003C0E5FF04C0E5FF05C0E5FF06C0E5FF1E
:1000400007C0E5FF08C0E5FF09C0E5FF0AC0E5FFFE
:100050000BC0E5FF0CC0E5FF0DC0E5FF0EC0E5FFDE
:100060000FC0E5FF10C0E5FF11C0E5FF12C0E5FFBE
:1000700013C0E5FF14C0E5FF15C0E5FF16C0E5FF9E
:1000800017C0E5FF18C0E5FF19C0E5FF1AC0E5FF7E
:100090001BC0E5FF1CC0E5FF1DC0E5FF1EC0E5FF5E
:1000A000020EDBCF00F0030EDBCF01F0040EDBCF3E
:1000B00002F0050EDBCF03F0060EDBCF04F0070ED7
:1000C000DBCF05F0080EDBCF06F0090EDBCF07F023
:1000D0000A0EDBCF08F0096A0A6A02C00DF00D5063
:1000E000800A0DE102500301626F0150616F005000
:1000F000606F030E016E600E006E800E026E03C014
:10010000E9FF04C0F3FF055043EC20F00B6E0B50E9
:10011000D8B4C4EF03F00B50250A02E0ABEF03F0B4
:100120000C6A0D6A0E6A0F6A106A0A0E116E126A64
:10013000136A146A200E156E1668176A2B0E186E55
:10014000032A02E3044A052A03C0E9FF04C0F3FFBF
:10015000055043EC20F0196E250A13E11950E56EA5
:100160000250E56E0150E56E0050E56E46EC12F06F
:10017000040EE126094A0A2A032A02E3044A052A50
:10018000BED71950300A06E1300E156E032A02E37D
:10019000044A052A03C0E9FF04C0F3FF055043ECFD
:1001A00020F02D0A06E1010E146E032A02E3044A30
:1001B000052A03C0E9FF04C0F3FF055043EC20F01B
:1001C000200A08E1010E176E200E186E032A02E3C2
:1001D000044A052A03C0E9FF04C0F3FF055043ECBD
:1001E00020F02B0A06E1010E176E032A02E3044AEF
:1001F000052A03C0E9FF04C0F3FF055043EC20F0DB
:10020000196E310E195C2BE33A0E195C28E203C01B
:1002100019F004C01AF005C01BF019C0E9FF1AC09C
:10022000F3FF1B5043EC20F01C6E300E1C5C11E3FE
:100230003A0E1C5C0EE213500A0DF3CF1DF01C5059
:100240001D26D00E1D24136E192A02E31A4A1B2AFA
:10025000E4D719C003F01AC004F01BC005F003C0B6
:10026000E9FF04C0F3FF055043EC20F02E0A2DE116
:10027000032A02E3044A052A166A03C019F004C0DF
:100280001AF005C01BF019C0E9FF1AC0F3FF1B509C
:1002900043EC20F01C6E300E1C5C11E33A0E1C5C2B
:1002A0000EE216500A0DF3CF1DF01C501D26D00E85
:1002B0001D24166E192A02E31A4A1B2AE4D719C014
:1002C00003F01AC004F01BC005F003C0E9FF04C02E
:1002D000F3FF055043EC20F0196E6C0A07E1010EA4
:1002E0000C6E032A02E3044A052A09D01950680A51
:1002F00006E1010E0E6E032A02E3044A052A03C03A
:10030000E9FF04C0F3FF055043EC20F0750A06E155
:10031000010E106E032A02E3044A052A03C0E9FF16
:1003200004C0F3FF055043EC20F0196E730A05E199
:10033000010E0D6E200E156E3FD01950780A03E1A4
:10034000100E116E39D01950580A05E1100E116EB9
:10035000010E126E31D01950630A02E1116A2CD0DD
:1003600019506F0A03E1080E116E26D01950660A63
:1003700003E1010E0F6E20D01950640A1DE01950E0
:10038000690A1AE0105005E0FF0E03260422052238
:1003900013D01950E56E0250E56E0150E56E005025
:1003A000E56E46EC12F0040EE126094A0A2A032AF9
:1003B00002E3044A052AA3D60D5021E00650030F9C
:1003C0000D6E000E0720196E000E08201A6E0DC06B
:1003D00006F019C007F01AC008F0FD0E0D26FF0E3A
:1003E00019221A220DC0E9FF19C0F3FF1A50F9ECC7
:1003F0001EF00D6EF3CF19F0F4CF1AF0FDD00F50B0
:100400000DE0000E1A6E080E196E100E0D6E040E21
:100410000626000E072208221668EED016680C5039
:1004200023E00650040F0C6E000E07200F6E000E26
:1004300008201B6E0CC006F00FC007F01BC008F0B0
:10044000FC0E0C26FF0E0F221B220CC0E9FF0FC072
:10045000F3FF1B507FEC1EF00C6EF3CF0FF0F4CFC8
:100460001BF0E9CF1CF067D00E502FE00650020FB2
:100470000E6E000E07201D6E000E08201E6E0EC0B0
:1004800006F01DC007F01EC008F0FE0E0E26FF0E7F
:100490001D221E220EC0E9FF1DC0F3FF1E50B8EC46
:1004A0001FF00E6E0EC00CF00F6A1B6A1C6A115012
:1004B0000A0A03E11050D8B43ED00C500E6E0EC0A4
:1004C0000CF00F6A1B6A1C6A36D00650020F0E6EC3
:1004D000000E07201D6E000E08201E6E0EC006F0D6
:1004E0001DC007F01EC008F0FE0E0E26FF0E1D22D6
:1004F0001E220EC0E9FF1DC0F3FF1E50B8EC1FF016
:100500000E6EF3CF1DF00EC00CF01DC00FF0E86AA8
:100510001DBEFF0E1B6E1C6E11500A0A02E1105028
:100520000AE00C500E6E0F501D6E0EC00CF01DC078
:100530000FF01B6A1C6A040E196EF40E0D6E800E0D
:100540001A6E1150D8B440D0105013E01150E56E1F
:10055000040EE56EF40EE56E1C50E56E1B50E56E64
:100560000F50E56E0C50E56E63EC0DF0070EE126C2
:1005700012D01150E56E040EE56EF40EE56E1C50BF
:10058000E56E1B50E56E0F50E56E0C50E56E49ECC4
:1005900017F0070EE12617502FE00DC0E9FF19C034
:1005A000F3FF1A5043EC20F02D0A26E0FF0E0D2633
:1005B00019221A2218C0E5FF0DC0E9FF19C0F3FF88
:1005C0001A50BBEC20F018D00CC0E5FF0DC0E9FFBD
:1005D00019C0F3FF1A50BBEC20F00D50010F0C6E48
:1005E000000E19200E6E000E1A20E56A0CC0E9FFFD
:1005F0000EC0F3FFBBEC20F00DC00CF019C00EF0E4
:100600001AC00FF013C010F0105010E00CC0E9FF3A
:100610000EC0F3FF0F5043EC20F0176E175006E0AA
:100620000C2A02E30E4A0F2A1006EED710C013F070
:1006300014501EE109C00CF00AC00EF010C00FF0FB
:100640000F5010E01550E56E0250E56E0150E56E5A
:100650000050E56E46EC12F0040EE1260C4A0E2A1C
:100660000F06EED70CC009F00EC00AF00FC013F051
:1006700016C00CF00DC00DF019C00EF01AC00FF02E
:1006800009C010F00AC015F00DC0E9FF0EC0F3FF5D
:100690000F5043EC20F0166E1650D8B43ED00CC06C
:1006A00016F0176A161E171E1650171005E00CC01C
:1006B00016F00C06165031E00DC0E9FF0EC0F3FF36
:1006C0000F5043EC20F0116E125010E01150E56E07
:1006D00075EC1FF0166EE652165004E0DF0E111492
:1006E000166E02D011C016F016C011F01150E56E52
:1006F0000250E56E0150E56E0050E56E46EC12F0DA
:10070000040EE1260D2A02E30E4A0F2A104A152A8A
:100710001350D8B4B9D71306B7D710C009F015C015
:100720000AF014502BE010C00CF015C00DF013C0EF
:100730000EF00E501FE0200EE56E0250E56E0150E7
:10074000E56E0050E56E46EC12F0040EE1260C4A10
:100750000D2A0E06EED70B50E56E0250E56E0150E5
:10076000E56E0050E56E46EC12F0040EE126094AF3
:100770000A2A04D00CC009F00DC00AF0032A02E3D3
:10078000044A052A7FEF00F00AC0F3FF0950E4CFC6
:100790001EF0E4CF1DF0E4CF1CF0E4CF1BF0E4CF5B
:1007A0001AF0E4CF19F0E4CF18F0E4CF17F0E4CF5B
:1007B00016F0E4CF15F0E4CF14F0E4CF13F0E4CF5B
:1007C00012F0E4CF11F0E4CF10F0E4CF0FF0E4CF5B
:1007D0000EF0E4CF0DF0E4CF0CF0E4CF0BF0E4CF5B
:1007E0000AF0E4CF09F0E4CF08F0E4CF07F0E4CF5B
:1007F00006F0E4CF05F0E4CF04F0E4CF03F0E4CF5B
:1008000002F0E4CF01F0E4CF00F0E4CFD9FF120012
:100810003C4E4F20464C4F41543E000000C0E5FF87
:1008200001C0E5FF02C0E5FF03C0E5FF04C0E5FF2E
:1008300005C0E5FF06C0E5FF07C0E5FF08C0E5FF0E
:1008400009C0E5FF0AC0E5FFC2A204D004011651A9
:1008500047EF06F004011751D8B42FD10401165107
:10086000020DF450016EF3CF00F0E00E0026000EF2
:10087000012200C0E9FF01C0EAFFEECF00F0EFCF98
:1008800001F0230E1625026E036A0F0E032202C02A
:10089000E9FF03C0EAFFEFCF02F00250FF0A01E1D7
:1008A00066D002380F0B036E920E0324046E056AA5
:1008B0000F0E0522066A920E03260F0E062203C0B3
:1008C000E9FF06C0EAFFEFCF03F00250066E070E05
:1008D0000616010E076E06500DE006E6E86CD8908D
:1008E0000736010FFDE306D0D89007BED880073247
:1008F000010FFBE3071C066E0350061604C0E9FF58
:1009000005C0EAFF06C0EFFF02380F0B036E890E29
:100910000324046E056A0F0E0522066A890E03265B
:100920000F0E062203C0E9FF06C0EAFFEFCF03F077
:100930000250066E070E0616010E076E06500DE0F9
:1009400006E6E86CD8900736010FFDE306D0D89094
:1009500007BED8800732010FFBE3071C066E035069
:10096000061604C0E9FF05C0EAFF06C0EFFF040158
:100970001651020DF450046EF3CF03F0E00E03267F
:10098000000E042201340130066E0030056E06347C
:10099000063205320634063205320550005C056E1B
:1009A00006500158066EC3CF07F0086A07500526A7
:1009B00008500622C4CF07F0086A07500A6E096A79
:1009C000095005260A50062203C0E9FF04C0EAFFC9
:1009D00005C0EEFF06C0EFFF04011251010A01E05D
:1009E0006AD004011651020DF450046EF3CF03F0E7
:1009F000E00E0324056E000E0420066E05C0E9FF1C
:100A000006C0EAFFEECF00F0EFCF01F0B30E0326F1
:100A1000040E042203C0E9FF04C0EAFFEECF05F094
:100A2000EFCF06F09C0E0526D8A006060150800FD9
:100A3000F36E0650800FF35C02E10550005C0EE29D
:100A40000050640F056E000E0120066E03C0E9FF22
:100A500004C0EAFF05C0EEFF06C0EFFF0401165117
:100A6000020DF450046EF3CF03F0D30E0326040EF0
:100A7000042203C0E9FF04C0EAFFEECF05F0EFCF88
:100A800006F0640E0526D8B0062A0650800FF36ED5
:100A90000150800FF35C02E10050055C0CE29C0EFB
:100AA0000026D8A0010603C0E9FF04C0EAFF00C089
:100AB000EEFF01C0EFFF0401176B0401162B100EAF
:100AC000165D01E3166B04011639E8441F0B006E36
:100AD000016A690E0026030E012200C0E9FF01C071
:100AE000EAFFEFCF00F016C401F0070E0116010E69
:100AF000036E000E046E015006E0E86CD8900336D9
:100B00000436010FFCE3056A005003160550041675
:100B100003500410D880E866D890036A0336035067
:100B2000D8A4B3D0400E04011625006E016A030E4E
:100B3000012200C0E9FF01C0EAFFEFCF00F000444E
:100B4000E844FC0B016E0128C26E230E1625006ED0
:100B5000016A0F0E012200C0E9FF01C0EAFFEFCFDA
:100B600002F00250FF0A01E18CD002380F0B006E38
:100B7000920E0024016E036A0F0E0322046A920E85
:100B800000260F0E042200C0E9FF04C0EAFFEFCFE9
:100B900000F00250046E070E0416010E056E04509C
:100BA0000DE006E6E86CD8900536010FFDE306D0AF
:100BB000D89005BED8800532010FFBE30050051226
:100BC00001C0E9FF03C0EAFF05C0EFFF380E006E69
:100BD0000F0E016E02380F0B036E046A03500026DD
:100BE00004500122380E056E0F0E066E05500326C6
:100BF0000650042203C0E9FF04C0EAFFEFCF03F070
:100C0000070E0216010E046E02500DE006E6E86CB7
:100C1000D8900436010FFDE306D0D89004BED880EA
:100C20000432010FFBE30350041200C0E9FF01C0CE
:100C3000EAFF04C0EFFF0F01458300000000459369
:100C40000F0144930BC0E5FFF2CF0BF0F29E4481FD
:100C50000000000000000000000000000000000094
:100C60000000000000000000000000000000000084
:100C7000000000000000000044910BBEF28EE4CFA3
:100C80000BF0C282010E0401176F04011651E4CF6C
:100C90000AF0E4CF09F0E4CF08F0E4CF07F0E4CFA6
:100CA00006F0E4CF05F0E4CF04F0E4CF03F0E4CFA6
:100CB00002F0E4CF01F0E4CF00F0120000C0E5FF45
:100CC00001C0E5FF02C0E5FF03C0E5FF04C0E5FF8A
:100CD00005C0E5FF06C0E5FF07C0E5FF08C0E5FF6A
:100CE00009C0E5FF0AC0E5FF0BC0E5FF0CC0E5FF4A
:100CF000006A016A026A040E025CD8B0ECD101C03D
:100D000003F0012A100E035CD8B0E5D10401182BC2
:100D1000100E185D01E3186B04011839E8441F0B2D
:100D2000036E046A690E0326030E042203C0E9FF62
:100D300004C0EAFFEFCF03F018C404F0070E041656
:100D4000010E056E000E066E045006E0E86CD890A9
:100D500005360636010FFCE3076A035005160750F7
:100D6000061605500610D880E866D890056A053644
:100D70000550D8A4C0D704011851020DF450046ED8
:100D8000F3CF03F0E00E0324056E000E0420066E80
:100D900005C0E9FF06C0EAFFEECF05F0EFCF06F091
:100DA00015C407F007A09DD0B30E0324076E040EF0
:100DB0000420086E07C0E9FF08C0EAFFEECF07F085
:100DC000EFCF08F00650800FF36E0850800FF35CF1
:100DD00002E10750055C03E2056A066A60D0D30EA3
:100DE0000326040E042203C0E9FF04C0EAFFEECF8D
:100DF00003F0EFCF04F00450800FF36E0650800F25
:100E0000F35C02E10550035C04E205683F0E066EE8
:100E100046D00750055C096E085006580A6EE86A0D
:100E20000ABEFF0E0B6EE56E0B50E56E0A50E56EC6
:100E30000950E56EE56AE56A400EE56E000EE56A6A
:100E400059EC0CF0096EF3CF0AF0F4CF0BF0E9CFB8
:100E50000CF0080EE1260750035C076E085004589A
:100E6000086EE86A08BEFF0E036EE56E0350E56E7D
:100E70000850E56E0750E56E0C50E56E0B50E56EC0
:100E80000A50E56E0950E56E9CEC10F0036EF3CF4E
:100E900004F0080EE1260350056E0450066E0401AE
:100EA0001451800FF36E0650800FF35C02E1055081
:100EB000135D03E3056A066A14D004011351FF08A9
:100EC000036E3F0E1455046E0650800FF36E0450EF
:100ED000800FF35C02E10350055C03E305683F0EFD
:100EE000066E04011851020DF450046EF3CF03F0A6
:100EF000930E0326040E042203C0E9FF04C0EAFF98
:100F0000EECF03F0EFCF04F00350055C036E045006
:100F10000658046ED88004AED89004E3041E036C17
:100F2000D8B4042A022A04011451800FF36E04502D
:100F3000800FF35C02E10350135DD8B0DCD60401EE
:100F40001851020DF450086EF3CF07F0930E0726E8
:100F5000040E082207C0E9FF08C0EAFF05C0EEFF43
:100F600006C0EFFF15C407F007A459D01851020DB1
:100F7000F450086EF3CF07F0000E0724096E030E3D
:100F800008200A6E09C0E9FF0AC0EAFFEECF0BF0A5
:100F9000EFCF0CF00B500C10D8B441D05C0E0726EC
:100FA000040E082207C0E9FF08C0EAFFEECF07F0F1
:100FB000EFCF08F00750055C036E08500658046E2A
:100FC00003101CE00450800F800F02E1010E035C4F
:100FD000076A07360C50800F800F02E1010E0B5C90
:100FE0000B6A0B3607500B1809E109C0E9FF0AC06C
:100FF000EAFF03C0EEFF04C0EFFF7DD604011851E5
:10100000020DF450046EF3CF03F0000E0326030E1E
:10101000042203C0E9FF04C0EAFFEE6AEF6A15C4C8
:1010200003F003A244D000500EE100C003F0002AF8
:10103000046A190E0326040E042203C0E9FF04C04B
:10104000EAFF420EEF6E00C003F0002A046A190E98
:101050000326040E042204011851076E640E0726AD
:1010600003C0E9FF04C0EAFF07C0EFFF00C003F0C0
:10107000002A046A190E0326040E04220650076E85
:1010800003C0E9FF04C0EAFF07C0EFFF00C003F0A0
:10109000002A046A190E0326040E04220550076E66
:1010A00003C0E9FF04C0EAFF07C0EFFF24D618C45D
:1010B00003F00650E56E0550E56EE56A0350E56EF7
:1010C000000EE56E270EE56EA40EE56E1AEC1AF022
:1010D000070EE12610D602C001F000501EE015C434
:1010E00002F002A21AD000C002F0002A036A190E10
:1010F0000226040E032202C0E9FF03C0EAFF0A0E23
:10110000EF6E0050E56E800EE56E040EE56E190E72
:10111000E56ED2EC12F0040EE1260150E4CF0CF0A3
:10112000E4CF0BF0E4CF0AF0E4CF09F0E4CF08F00D
:10113000E4CF07F0E4CF06F0E4CF05F0E4CF04F00D
:10114000E4CF03F0E4CF02F0E4CF01F0E4CF00F00D
:10115000120000C0E5FF01C0E5FF02C0E5FF03C0CB
:10116000E5FF04C0E5FFF6EC20F01EEC1DF0F3CF28
:1011700001F0F4CF02F0E9CF03F0880F04017C6F97
:10118000130E01207D6F000E02207E6F000E0320E3
:101190007F6F55EC13F05FEC1CF094948B8494906B
:1011A0008B8093968A96929E899E948A820E006E78
:1011B0000F0E016E0F0E036E380E00260350012233
:1011C0000F0E036E800E005E0350015A820E026EF7
:1011D0000F0E036E0F0E046E380E0226045003220B
:1011E0000F0E046E800E025E0450035A02C0E9FF27
:1011F00003C0EAFFEFCF02F0029A00C0E9FF01C08E
:10120000EAFF02C0EFFF948C820E006E0F0E016E9B
:101210000F0E036E380E0026035001220F0E036ED0
:10122000800E005E0350015A820E026E0F0E036E96
:101230000F0E046E380E0226045003220F0E046EA9
:10124000800E025E0450035A02C0E9FF03C0EAFFA9
:10125000EFCF02F0029C00C0E9FF01C0EAFF02C02C
:10126000EFFF948E820E006E0F0E016E0F0E036E56
:10127000380E0026035001220F0E036E800E005E12
:101280000350015A820E026E0F0E036E0F0E046E93
:10129000380E0226045003220F0E046E800E025EEA
:1012A0000450035A02C0E9FF03C0EAFFEFCF02F087
:1012B000029E00C0E9FF01C0EAFF02C0EFFF938079
:1012C000810E006E0F0E016E0F0E036E380E00269B
:1012D000035001220F0E036E800E005E0350015A70
:1012E000810E026E0F0E036E0F0E046E380E022674
:1012F000045003220F0E046E800E025E0450035A47
:1013000002C0E9FF03C0EAFFEFCF02F0029000C085
:10131000E9FF01C0EAFF02C0EFFF9382810E006E79
:101320000F0E016E0F0E036E380E002603500122C1
:101330000F0E036E800E005E0350015A810E026E86
:101340000F0E036E0F0E046E380E02260450032299
:101350000F0E046E800E025E0450035A02C0E9FFB5
:1013600003C0EAFFEFCF02F0029200C0E9FF01C024
:10137000EAFF02C0EFFF9384810E006E0F0E016E34
:101380000F0E036E380E0026035001220F0E036E5F
:10139000800E005E0350015A810E026E0F0E036E26
:1013A0000F0E046E380E0226045003220F0E046E38
:1013B000800E025E0450035A02C0E9FF03C0EAFF38
:1013C000EFCF02F0029400C0E9FF01C0EAFF02C0C3
:1013D000EFFFE4CF04F0E4CF03F0E4CF02F0E4CF7A
:1013E00001F0E4CF00F01200430025630000800EFE
:1013F000E56E040EE56ED30EE56EA9EC18F0030E53
:10140000E126800EE56E040EE56EB30EE56EA9ECE6
:1014100018F0030EE126800EE56E040EE56ED50E83
:10142000E56EA9EC18F0030EE126800EE56E040EC1
:10143000E56EB50EE56EA9EC18F0030EE126800E00
:10144000E56E040EE56ED70EE56EA9EC18F0030EFE
:10145000E126800EE56E040EE56EB70EE56EA9EC92
:1014600018F0030EE126800EE56E040EE56ED90E2F
:10147000E56EA9EC18F0030EE126800EE56E040E71
:10148000E56EB90EE56EA9EC18F0030EE126800EAC
:10149000E56E040EE56EDB0EE56EA9EC18F0030EAA
:1014A000E126800EE56E040EE56EBB0EE56EA9EC3E
:1014B00018F0030EE126800EE56E040EE56EDD0EDB
:1014C000E56EA9EC18F0030EE126800EE56E040E21
:1014D000E56EBD0EE56EA9EC18F0030EE126800E58
:1014E000E56E040EE56EDF0EE56EA9EC18F0030E56
:1014F000E126800EE56E040EE56EBF0EE56EA9ECEA
:1015000018F0030EE126800EE56E040EE56EE10E86
:10151000E56EA9EC18F0030EE126800EE56E040ED0
:10152000E56EC10EE56EA9EC18F0030EE126800E03
:10153000E56E040EE56EE30EE56EA9EC18F0030E01
:10154000E126800EE56E040EE56EC30EE56EA9EC95
:1015500018F0030EE126800EE56E040EE56EE50E32
:10156000E56EA9EC18F0030EE126800EE56E040E80
:10157000E56EC50EE56EA9EC18F0030EE126800EAF
:10158000E56E040EE56EE70EE56EA9EC18F0030EAD
:10159000E126800EE56E040EE56EC70EE56EA9EC41
:1015A00018F0030EE126800EE56E040EE56EE90EDE
:1015B000E56EA9EC18F0030EE126800EE56E040E30
:1015C000E56EC90EE56EA9EC18F0030EE126800E5B
:1015D000E56E040EE56EEB0EE56EA9EC18F0030E59
:1015E000E126800EE56E040EE56ECB0EE56EA9ECED
:1015F00018F0030EE126800EE56E040EE56EED0E8A
:10160000E56EA9EC18F0030EE126800EE56E040EDF
:10161000E56ECD0EE56EA9EC18F0030EE126800E06
:10162000E56E040EE56EEF0EE56EA9EC18F0030E04
:10163000E126800EE56E040EE56ECF0EE56EA9EC98
:1016400018F0030EE126800EE56E040EE56EF10E35
:10165000E56EA9EC18F0030EE126800EE56E040E8F
:10166000E56ED10EE56EA9EC18F0030EE12612002E
:1016700000C0E5FF01C0E5FF02C0E5FF03C0E5FFD4
:1016800004010F51D8B40CD1A3A81DD0A4A81BD01D
:101690000301825103017F1905E171EC20F0030180
:1016A0007F6BFED0000E03018225006E016A0F0ED3
:1016B000012200C0E9FF01C0EAFFEFCF7BF3822BDC
:1016C0007BC373FFEDD0A3AAEBD0A4AAE9D071A28B
:1016D00005D00301808171EC20F0E2D071A405D027
:1016E0000301808371EC20F0DBD071A048D074CF6F
:1016F0007BF310C400F0016A008E7BC302F0036A22
:101700000250001803E10350011801E004D0030166
:1017100080897196C5D003017B5104E07B5104019F
:10172000101929E103018099719603017B5103E0AF
:101730000301809702D0030180877BC384F37DC3BC
:1017400085F303017D51006E00040301866F600E76
:1017500003018525006E016A000E012200C0E9FF29
:1017600001C0EAFF7BC3EFFF852B8551800A02E1B0
:101770000301856B95D003018099718691D074CF58
:101780007BF3030180A921D010C400F0016A008E10
:101790007BC302F0036A0250001803E103500118F2
:1017A00001E011D0A39A7198929A03017F5104E14C
:1017B000736A71EC20F007D000CF73FF010E0301B4
:1017C000826FA3886DD071866BD003017B510301BA
:1017D000842703018551030186191BE1030184510C
:1017E0000CE185C37DF3030180B712D0A39A7198F1
:1017F000929A736A71EC20F00BD00301808580B758
:1018000007D0A39A7198929A010E736E71EC20F032
:1018100047D00301855103017E1908E103017E5180
:1018200003017D1903E071EC20F03AD07DC300F094
:10183000016A004A012AE56A800EE56E0150E56EF4
:101840000050E56E35EC15F0006E040EE1260050F8
:1018500003017C6F030185190FE17BC300F01F0EAC
:1018600000140301866F006E020E0024866F0301D0
:101870007D5103018627869F85C300F00301852BD8
:10188000016A600E0026000E012200C0E9FF01C0BF
:10189000EAFF7BC3EFFF8551800A02E10301856BFC
:1018A000E4CF03F0E4CF02F0E4CF01F0E4CF00F0A6
:1018B0001200D9CFE5FFE1CFD9FF00C0E5FF01C09D
:1018C000E5FF02C0E5FF03C0E5FF04C0E5FF05C07A
:1018D000E5FF06C0E5FF07C0E5FF020EDBCF00F025
:1018E000030EDBCF01F0040EDBCF02F0050EDBCFE1
:1018F00003F0060EDBCF04F0070EDBCF05F0080E79
:10190000DBCF06F0090EDBCF07F000500401856F36
:101910000150866F0250876F0350886F0450040196
:101920008A6F05508B6F06508C6F07508D6F0401C6
:10193000855104018C03F4CF01F0F3CF00F0005087
:101940000401906F0150916F0401855104018A03D5
:10195000F4CF01F0F3CF00F0005004018E6F01507E
:101960008F6F0401885104018A03F3CF00F0040152
:10197000915100260050916F0401875104018B039F
:10198000F3CF01F00150002600500401916F0401D3
:10199000875104018A03F4CF01F0F3CF00F0040172
:1019A00090510026915101220050906F0150916F8B
:1019B0000401865104018B03F4CF03F0F3CF02F04E
:1019C000025000260350012200500401906F015084
:1019D000916F0401865104018C03F3CF00F0005095
:1019E00004012C6F0401865104018A03F4CF01F035
:1019F000F3CF00F0005004012A6F01502B6F040157
:101A0000855104018D03F3CF00F000500401306FC5
:101A10000401855104018B03F4CF01F0F3CF00F0F2
:101A2000005004012E6F01502F6F0401296B040137
:101A30002D6B0401295104018E25006E04012A51E9
:101A400004018F21016E04012B5104019021026ECB
:101A500004012C5104019121036E00508E6F01503E
:101A60008F6F0250906F0350916F04012D5104014C
:101A70008E25006E04012E5104018F21016E040198
:101A80002F5104019021026E040130510401912173
:101A9000036E03C0E9FF02C0F4FF01C0F3FF005072
:101AA000E4CF07F0E4CF06F0E4CF05F0E4CF04F094
:101AB000E4CF03F0E4CF02F0E4CF01F0E4CF00F094
:101AC000E4CFD9FF1200D9CFE5FFE1CFD9FF00C0A5
:101AD000E5FF01C0E5FF02C0E5FF03C0E5FF04C06C
:101AE000E5FF05C0E5FF06C0E5FF07C0E5FF08C04C
:101AF000E5FF09C0E5FF0AC0E5FF0BC0E5FF0CC02C
:101B0000E5FF0DC0E5FF0EC0E5FF0FC0E5FF020ECB
:101B1000DBCF00F0030EDBCF01F0040EDBCF02F0D1
:101B2000050EDBCF03F0060EDBCF04F0070EDBCF94
:101B300005F0080EDBCF06F0200E076E086A06C01F
:101B400009F00A6A0B6A0C6AE56AE56AE56A0950F7
:101B5000E56E0350E56E0250E56E0150E56E0050F3
:101B6000E56E3FEC0EF00D6E080EE126300E0D26F0
:101B70003A0E0D5C05E30D500E6E270E0E240D6E11
:101B8000FF0E07260822200E07240E6E030E0820E3
:101B90000F6E0EC0E9FF0FC0EAFF0DC0EFFF0C5043
:101BA000E56E0B50E56E0A50E56E0950E56E035088
:101BB000E56E0250E56E0150E56E0050E56E9CEC5E
:101BC00010F0006EF3CF01F0F4CF02F0E9CF03F094
:101BD000080EE1260050011002100310D8A4AFD760
:101BE00007C000F008C001F004C002F005C003F017
:101BF00000C004F001C005F0004A012A200E0426AE
:101C0000030E052204C0E9FF05C0EAFFEFCF04F090
:101C100002C0E9FF03C0EAFF04C0EFFF024A032A43
:101C2000000E015C02E1200E005CE2E302C0E9FF6D
:101C300003C0EAFF000EEF6AE4CF0FF0E4CF0EF02E
:101C4000E4CF0DF0E4CF0CF0E4CF0BF0E4CF0AF0DA
:101C5000E4CF09F0E4CF08F0E4CF07F0E4CF06F0DA
:101C6000E4CF05F0E4CF04F0E4CF03F0E4CF02F0DA
:101C7000E4CF01F0E4CF00F0E4CFD9FF1200D9CFD8
:101C8000E5FFE1CFD9FF00C0E5FF01C0E5FF02C0DD
:101C9000E5FF03C0E5FF04C0E5FF05C0E5FF06C0A2
:101CA000E5FF07C0E5FF08C0E5FF09C0E5FF0AC082
:101CB000E5FF020EDBCF00F0030EDBCF01F0040ED8
:101CC000DBCF02F0050EDBCF03F0060EDBCF04F016
:101CD000070EDBCF05F0080EDBCF06F0090EDBCFD9
:101CE00007F0086A045005100610071005E1E968BE
:101CF000F468F368E86847D0096A0750800BE84445
:101D00000A6E0A501BE104500426053606360736D3
:101D10000750035C08E10650025C05E10550015CD8
:101D200002E10450005C06E2D89007320632053228
:101D3000043204D0092A09C008F0DFD70750035C39
:101D400008E10650025C05E10550015C02E1045027
:101D5000005C08E30450005E0550015A0650025A28
:101D60000750035AD890073206320532043208C0B1
:101D700009F008060950E2E103C0E9FF02C0F4FFE0
:101D800001C0F3FF0050E4CF0AF0E4CF09F0E4CF44
:101D900008F0E4CF07F0E4CF06F0E4CF05F0E4CF9D
:101DA00004F0E4CF03F0E4CF02F0E4CF01F0E4CF9D
:101DB00000F0E4CFD9FF120000C0E5FF01C0E5FF4D
:101DC00002C0E5FF03C0E5FF04C0E5FF03017E514B
:101DD00003017D1901E16AD07EC300F00050016E5D
:101DE0000128006E009E600E0024016E026A000E43
:101DF000022201C0E9FF02C0EAFFEFCF88F31F0E05
:101E0000030188177EC387F3885103018727875111
:101E1000016E020E0124876F879F48EC1DF0016E52
:101E2000015003E1016A012A01D0016A48EC1DF06A
:101E30000301886F88C302F0800E021688C303F086
:101E40001F0E031603C004F003C088F3045003E11F
:101E50007DC37EF33ED001501EE0025025E048ECE9
:101E60001DF0006E03018851016E0104886F00505F
:101E7000420A1AE000504E0A03E1D8EC19F014D0DF
:101E80000050460A03E1A5EC20F00ED00050490AAC
:101E90000BE1FF0009D07EC389F3025003E0C1ECDF
:101EA0001BF002D0E1EC20F087C37EF304010C515B
:101EB00004010D1906E003017F5103E174EC0FF0FA
:101EC00008D092BA06D003017F5103E172B271ECDF
:101ED00020F0E4CF04F0E4CF03F0E4CF02F0E4CF4D
:101EE00001F0E4CF00F0120000C0E5FF01C0E5FF03
:101EF00002C0E5FF03C0E5FF04C0E5FF72A27ED08B
:101F00009FEC1EF0006E005005E104010D6B040112
:101F10000C6B74D00DC401F0005001269FEC1EF034
:101F2000026E0050036E0304006E0250230A1FE18C
:101F3000010E005CD8A060D09FEC1EF0026E690A12
:101F400003E1C2EC1CF058D00250720A03E171ECBC
:101F500020F052D00250730A01E04ED0928A71866E
:101F6000A38AA398745074507198718845D0025018
:101F7000430A05E00250420A01E03ED006D000C00C
:101F800003F0046A038E0350006E00C081F300501A
:101F90000F01006F010E0301826F04010D51011842
:101FA00014E09FEC1EF0026E03018127000E030176
:101FB0008225006E036A0F0E032200C0E9FF03C0F2
:101FC000EAFF02C0EFFF822BE8D7000E0301822553
:101FD000006E026A0F0E02220301811D036E032AA6
:101FE00000C0E9FF02C0EAFF03C0EFFF0301822B3C
:101FF00082C37FF30301796B01C00DF4E4CF04F0D9
:10200000E4CF03F0E4CF02F0E4CF01F0E4CF00F03E
:102010001200D9CFE5FFE1CFD9FF00C0E5FF01C035
:10202000E5FF02C0E5FF03C0E5FF04C0E5FF05C012
:10203000E5FF06C0E5FF07C0E5FF08C0E5FF09C0F2
:10204000E5FF0AC0E5FF020EDBCF00F0030EDBCF99
:1020500001F0040EDBCF02F0050EDBCF03F0060E1D
:10206000DBCF04F0070EDBCF05F00038E8441F0B90
:10207000066E076A690E0626030E072206C0E9FFF0
:1020800007C0EAFFEFCF08F00050096E070E0916EF
:10209000010E0A6E09500DE006E6E86CD8900A368B
:1020A000010FFDE306D0D8900ABED8800A32010F96
:1020B000FBE308500A1206C0E9FF07C0EAFF0AC0A6
:1020C000EFFF400E0024066E076A030E072206C0CB
:1020D000E9FF07C0EAFF01C0EFFF016A230E0026F7
:1020E0000F0E0122800E025E070E02160238F00B60
:1020F000036E070E05160550032600C0E9FF01C058
:10210000EAFF03C0EFFFE4CF0AF0E4CF09F0E4CF29
:1021100008F0E4CF07F0E4CF06F0E4CF05F0E4CF19
:1021200004F0E4CF03F0E4CF02F0E4CF01F0E4CF19
:1021300000F0E4CFD9FF1200D9CFE5FFE1CFD9FFFE
:1021400000C0E5FF01C0E5FF02C0E5FF03C0E5FFF9
:1021500004C0E5FF05C0E5FF06C0E5FF07C0E5FFD9
:1021600008C0E5FF09C0E5FF0AC0E5FF0BC0E5FFB9
:102170000CC0E5FF0DC0E5FF020EDBCF00F0030E43
:10218000DBCF01F0040EDBCF02F0050EDBCF03F056
:10219000060EDBCF04F0070EDBCF05F0080EDBCF19
:1021A00006F0090EDBCF07F0086A096A0A6A0B6AB3
:1021B000200E0C6E0350800BE8440D6E005000267C
:1021C0000136023603360850082609360A360B3621
:1021D0000D50D8A4088007500B5C08E106500A5C3B
:1021E00005E10550095C02E10450085C09E3045074
:1021F000085E0550095A06500A5A07500B5A0080CB
:102200000C040D6E0DC00CF00D50D4E103C0E9FFBD
:1022100002C0F4FF01C0F3FF0050E4CF0DF0E4CFA3
:102220000CF0E4CF0BF0E4CF0AF0E4CF09F0E4CFF8
:1022300008F0E4CF07F0E4CF06F0E4CF05F0E4CFF8
:1022400004F0E4CF03F0E4CF02F0E4CF01F0E4CFF8
:1022500000F0E4CFD9FF120000C0E5FF01C0E5FFA8
:1022600003C0E5FF04C0E5FF05C0E5FF06C0E5FFCC
:1022700007C0E5FF08C0E5FF09C0E5FF0AC0E5FFAC
:102280000BC0E5FF67C300F068C301F00301673FBF
:1022900001D0682B0050E56E63EC20F0E652076E2B
:1022A000046A056A066A67C300F068C301F00301A7
:1022B000673F01D0682B0050E56E63EC20F0E652DA
:1022C0000B6A0A6E086A0850041205120A500612B8
:1022D0000B50071267C300F068C301F00301673FAA
:1022E00001D0682B0050E56E63EC20F0E652036EDF
:1022F000006A03C001F0E86A03BEFF0E086E096EB3
:10230000005004120150051208500612095007121D
:1023100067C300F068C301F00301673F01D0682B79
:102320000050E56E63EC20F0E652016A04120150A1
:1023300005120612071207C0E9FF06C0F4FF05C028
:10234000F3FF0450E4CF0BF0E4CF0AF0E4CF09F040
:10235000E4CF08F0E4CF07F0E4CF06F0E4CF05F0D7
:10236000E4CF04F0E4CF03F0E4CF01F0E4CF00F0D9
:102370001200D9CFE5FFE1CFD9FF00C0E5FF01C0D2
:10238000E5FF02C0E5FF03C0E5FF04C0E5FF05C0AF
:10239000E5FF06C0E5FF07C0E5FF020EDBCF00F05A
:1023A000030EDBCF01F0040EDBCF02F0050EDBCF16
:1023B00003F003C004F0056A0350D8B454D000C041
:1023C000E9FF01C0F3FF025043EC20F0066E430A20
:1023D00008E1010E056E03C006F0076A068E06507E
:1023E000036E0406002A02E3014A022AA39A7198A6
:1023F000929AA398A4A8FED77280736A0000A4A83A
:10240000FED7729003C073FF0000A4A8FED705504A
:1024100004E0420E736E032604D0620E736E620EE9
:102420000326045015E00000A4A8FED700C0E9FF71
:1024300001C0F3FF025043EC20F0056E05C073FFAE
:10244000055003260406002A02E3014A022AE9D7BE
:102450000000A4A8FED7031C736E732A0000A4A872
:10246000FED771EC20F0E4CF07F0E4CF06F0E4CF24
:1024700005F0E4CF04F0E4CF03F0E4CF02F0E4CFC2
:1024800001F0E4CF00F0E4CFD9FF1200D9CFE5FF8F
:10249000E1CFD9FF00C0E5FF01C0E5FF02C0E5FFC5
:1024A00003C0E5FF04C0E5FF05C0E5FF06C0E5FF8A
:1024B00007C0E5FF020EDBCF00F0030EDBCF01F01B
:1024C000040EDBCF02F0050EDBCF03F002C006F0F6
:1024D0000650046E800A33E100C0E9FF01C0F3FF3B
:1024E0000250F9EC1EF0056EF3CF06F0F4CF07F0C2
:1024F00003C0E5FF05C0E9FF06C0F3FF0750BBECD2
:1025000020F000C0E9FF01C0F3FF0250F9EC1EF01B
:10251000056EF3CF06F0F4CF07F0052A02E3064A72
:10252000072A05C0E5FF06C0F4FF07C0F6FF00C09C
:10253000E9FF01C0F3FF025054EC20F020D004C0AA
:1025400000F000AA1CD0007A0050046E04E1035091
:10255000FBEC20F014D00450010A04E1035002EC1B
:1025600000F00DD004500F0A04E1035091EC1CF070
:1025700006D004500E0A03E1035011EC21F0E4CF21
:1025800007F0E4CF06F0E4CF05F0E4CF04F0E4CFA9
:1025900003F0E4CF02F0E4CF01F0E4CF00F0E4CFA9
:1025A000D9FF1200D9CFE5FFE1CFD9FF00C0E5FF89
:1025B00001C0E5FF02C0E5FF03C0E5FF04C0E5FF81
:1025C00005C0E5FF06C0E5FF07C0E5FF020EDBCF53
:1025D00000F0030EDBCF01F0040EDBCF02F0050E9E
:1025E000DBCF03F00DC40EF404010C5104010E5FA7
:1025F0000E51046E04040E6F03C004F0056A030E4E
:102600000426D8B0052A0EC406F0076A0750800FCA
:10261000F36E0550800FF35C02E10450065C02E2A9
:10262000E86830D0020E035C02E2E86A2BD0035067
:10263000046E0404036EE56ED6EC1AF0E652046AEA
:102640000350045C14E204500024056EE86A012083
:10265000066EE86A022005C0E9FF06C0F3FF43ECFE
:1026600020F0042AE56ED6EC1AF0E652E9D70DC444
:102670000EF404010C5104010E5F0E51006E0004B3
:102680000E6FE86AE4CF07F0E4CF06F0E4CF05F080
:10269000E4CF04F0E4CF03F0E4CF02F0E4CF01F0A4
:1026A000E4CF00F0E4CFD9FF120000C0E5FF01C085
:1026B000E5FF02C0E5FF03C0E5FF04C0E5FF006AD7
:1026C000690E0024016E026A030E022201C0E9FFB6
:1026D00002C0EAFFEF6A002A020E005CF1E3006A22
:1026E0000050020DF450026EF3CF01F0E00E012411
:1026F000036E000E0220046E03C0E9FF04C0EAFF6F
:10270000EE6AEF6A5C0E0124036E040E0220046E72
:1027100003C0E9FF04C0EAFFEE6AEF6A930E0124EA
:10272000036E040E0220046E03C0E9FF04C0EAFF3A
:10273000EE6AEF6AB30E0124036E040E0220046EEB
:1027400003C0E9FF04C0EAFFEE6AEF6AD30E012678
:10275000040E022201C0E9FF02C0EAFFEE687F0E0C
:10276000EF6E230E0024016E026A0F0E022201C0DA
:10277000E9FF02C0EAFFEF68002A100E005CD8A053
:10278000AFD7AF0EC06EC16A010EC26EC282E4CF77
:1027900004F0E4CF03F0E4CF02F0E4CF01F0E4CFA3
:1027A00000F012004320412025642025640A000027
:1027B000D9CFE5FFE1CFD9FF00C0E5FF01C0E5FFBC
:1027C00002C0E5FF03C0E5FF04C0E5FF05C0E5FF6B
:1027D000020EDBCF00F0030EDBCF01F0040EDBCFE7
:1027E00002F00050020DF450036EF3CF00F05C0EC7
:1027F0000024046E040E0320056E04C0E9FF05C02A
:10280000EAFF01C0EEFF02C0EFFF930E0024046E4A
:10281000040E0320056E04C0E9FF05C0EAFFEECFF9
:1028200004F0EFCF05F00150045C016E0250055832
:10283000026E000E0026030E032200C0E9FF03C053
:10284000EAFF01C0EEFF02C0EFFFD88002AED890D1
:1028500004E3021E016CD8B4022A0250800F800FDC
:1028600002E1030E015C02E2016A026A01500210F9
:1028700007E100C0E9FF03C0EAFF000EEE6AEF6A5D
:10288000E4CF05F0E4CF04F0E4CF03F0E4CF02F0AE
:10289000E4CF01F0E4CF00F0E4CFD9FF120000C094
:1028A000E5FF01C0E5FF7EA26AD004012651271191
:1028B00003E12669030E276FFF0E04012627272355
:1028C0002651006E2751016E03015151015C02E156
:1028D0005051005C02E2898601D08996040126519C
:1028E000006E2751016E03015351015C02E1525108
:1028F000005C02E2898401D0899404012651006EB3
:102900002751016E03015551015C02E15451005CF5
:1029100002E2898201D0899204012651006E27517A
:10292000016E03015751015C02E15651005C02E265
:10293000898001D0899004012651006E2751016ED3
:1029400003015951015C02E15851005C02E28A889E
:1029500001D08A9804012651006E2751016E0301AF
:102960005B51015C02E15A51005C02E2898C01D0AA
:10297000899C0F015069F30E0F014F6F7E92E4CFD7
:1029800001F0E4CF00F0120000C0E5FF006A82BA57
:10299000002A00C037F403016B510401371908E025
:1029A00037C46BF304013751010A02E10301722BB2
:1029B000006A82BC002A00C037F403016C51040194
:1029C000371908E037C46CF304013751010A02E1FA
:1029D0000301732B006A82BE002A00C037F4030192
:1029E0006D510401371908E037C46DF30401375104
:1029F000010A02E10301742B006A81B0002A00C0C1
:102A000037F403016E510401371908E037C46EF33F
:102A100004013751010A02E10301752B006A81B2FA
:102A2000002A00C037F403016F510401371908E090
:102A300037C46FF304013751010A02E10301762B19
:102A4000006A81B4002A00C037F403017051040108
:102A5000371908E037C470F304013751010A02E165
:102A60000301772BE4CF00F01200D9CFE5FFE1CFCF
:102A7000D9FF00C0E5FF01C0E5FF02C0E5FF03C0CC
:102A8000E5FF04C0E5FF05C0E5FF06C0E5FF020E57
:102A9000DBCF00F0030EDBCF01F0040EDBCF02F042
:102AA000050EDBCF03F0D88001AED890046A04365F
:102AB000045007E0011C066E001C056E054A062A3C
:102AC00004D000C005F001C006F0D88003AED89055
:102AD00007E3031C016E021C006E004A012A04D0A9
:102AE00002C000F003C001F00150E56E0050E56E39
:102AF0000650E56E0550E56EACEC17F0006EF3CFB6
:102B000001F0040EE12604500AE0011C036E001CD3
:102B1000026E024A032A03C0F3FF025003D001C031
:102B2000F3FF0050E4CF06F0E4CF05F0E4CF04F06B
:102B3000E4CF03F0E4CF02F0E4CF01F0E4CF00F003
:102B4000E4CFD9FF1200D9CFE5FFE1CFD9FF00C014
:102B5000E5FF01C0E5FF02C0E5FF03C0E5FF04C0DB
:102B6000E5FF05C0E5FF020EDBCF00F0030EDBCF73
:102B700001F0040EDBCF02F0050EDBCF03F067C3DC
:102B800004F068C305F00301673F01D0682B0350D0
:102B9000E56E0450E56E5BEC1EF0E652E65267C34C
:102BA00004F068C305F00301673F01D0682B0250B1
:102BB000056EE56E0450E56E5BEC1EF0E652E652E3
:102BC00067C304F068C305F00301673F01D0682BB9
:102BD0000150E56E0450E56E5BEC1EF0E652E652E5
:102BE00067C304F068C305F00301673F01D0682B99
:102BF0000050E56E0450E56E5BEC1EF0E652E652C6
:102C0000E4CF05F0E4CF04F0E4CF03F0E4CF02F02A
:102C1000E4CF01F0E4CF00F0E4CFD9FF1200D9CF28
:102C2000E5FFE1CFD9FF00C0E5FF01C0E5FF02C02D
:102C3000E5FF03C0E5FF04C0E5FF05C0E5FF06C0F2
:102C4000E5FF020EDBCF00F0030EDBCF01F0003812
:102C5000E8441F0B026E036A690E0226030E03226C
:102C600002C0E9FF03C0EAFFEFCF04F00050056E99
:102C7000070E0516010E066E05500DE006E6E86C1F
:102C8000D8900636010FFDE306D0D89006BED88056
:102C90000632010FFBE30450061202C0E9FF03C035
:102CA000EAFF06C0EFFF400E0024026E036A030E27
:102CB000032202C0E9FF03C0EAFF01C0EFFF016A7F
:102CC000230E00260F0E012200C0E9FF01C0EAFF1B
:102CD000FF0EEF68E4CF06F0E4CF05F0E4CF04F098
:102CE000E4CF03F0E4CF02F0E4CF01F0E4CF00F052
:102CF000E4CFD9FF120000C0E5FF01C0E5FF02C02C
:102D0000E5FF03C0E5FF72C300F0016A73C302F080
:102D1000036A025000260350012274C302F00250DD
:102D200000260350012275C302F002500026035012
:102D3000012276C302F0025000240301636F0350A6
:102D40000120646F63510301651906E103016451B9
:102D50000301661901E12ED063C365F364C366F312
:102D6000030172510401026F030173510401036FE7
:102D7000030174510401046F030175510401056FCF
:102D8000030176510401066F030177510401076FB7
:102D9000090E0301716F0A0E0401086F090EE56E3A
:102DA000800EE56E040EE56E000EE56ED2EC12F0BC
:102DB000040EE126E4CF03F0E4CF02F0E4CF01F00B
:102DC000E4CF00F01200D9CFE5FFE1CFD9FF00C07A
:102DD000E5FF01C0E5FF02C0E5FF03C0E5FF04C059
:102DE000E5FF05C0E5FF06C0E5FF020EDBCF00F002
:102DF000030EDBCF01F0040EDBCF02F003017851AC
:102E000019E12CEC11F0036EF3CF04F0F4CF05F0D0
:102E1000E9CF06F003C0E5FF04C0F4FF05C0F6FFEC
:102E200006C0F7FF00C0E9FF01C0F3FF025032EC1B
:102E300020F01ED003017851010A1AE100C0E9FF19
:102E400001C0F3FF02507FEC1EF0006EF3CF01F0E3
:102E5000F4CF02F0E9CF03F00350E56E0250E56EC7
:102E60000150E56E0050E56EA3EC15F0040EE1266E
:102E7000E4CF06F0E4CF05F0E4CF04F0E4CF03F0B4
:102E8000E4CF02F0E4CF01F0E4CF00F0E4CFD9FFCB
:102E90001200D9CFE5FFE1CFD9FF00C0E5FF01C0A7
:102EA000E5FF02C0E5FF03C0E5FF04C0E5FF05C084
:102EB000E5FF06C0E5FF020EDBCF00F0030EDBCF1F
:102EC00001F0040EDBCF02F0050EDBCF03F0060E9F
:102ED000DBCF04F0070EDBCF05F0080EDBCF06F0EA
:102EE000D88003AED89015E306500A0A12E104C058
:102EF000E9FF05C0EAFF2D0EEF6E044A052A031E06
:102F0000021E011E006C05E1012A03E1022AD8B469
:102F1000032A0650E56E0550E56E0450E56E035039
:102F2000E56E0250E56E0150E56E0050E56E63EC13
:102F30000DF0070EE126E4CF06F0E4CF05F0E4CF74
:102F400004F0E4CF03F0E4CF02F0E4CF01F0E4CFEB
:102F500000F0E4CFD9FF1200D9CFE5FFE1CFD9FFD0
:102F600000C0E5FF01C0E5FF02C0E5FF03C0E5FFCB
:102F700004C0E5FF05C0E5FF06C0E5FF020EDBCF9C
:102F800000F0030EDBCF01F0040EDBCF02F0050EE4
:102F9000DBCF03F0046A056A0350800BE844066E39
:102FA000065011E10250022603360350015C02E193
:102FB0000250005C04E2D8900332023204D0052AA9
:102FC00005C004F0E9D70350015C02E10250005C47
:102FD00004E30250005E0350015AD89003320232DB
:102FE00004C005F004060550EEE101C0F3FF0050F7
:102FF000E4CF06F0E4CF05F0E4CF04F0E4CF03F033
:10300000E4CF02F0E4CF01F0E4CF00F0E4CFD9FF49
:10301000120000C0E5FF01C0E5FF02C0E5FF03C0EC
:10302000E5FF7EC300F0016A89C302F0036A025023
:10303000005E0350015AE56A800EE56E0150E56EB0
:103040000050E56E35EC15F0006E040EE12600062A
:1030500089C301F0430E91EC1CF0200E91EC1CF0A2
:10306000005020E0600E0124026E036A000E03226D
:1030700002C0E9FF03C0EAFFEFCF02F0E56A0250A9
:10308000E56E000EE56E400EE56EFA0EE56E1AEC8A
:103090001AF0050EE126012A0150800A01E1016AB9
:1030A0000006DED7E4CF03F0E4CF02F0E4CF01F076
:1030B000E4CF00F0120000C0E5FF01C0E5FF02C050
:1030C000E5FF03C0E5FFDCEC0EF00EEC04F0C4EC11
:1030D00014F01EEC1DF0006EF3CF01F0F4CF02F0FF
:1030E000E9CF03F004017C51005E7D51015A7E510D
:1030F000025A7F51035A039E3F0E035C08E1FF0E04
:10310000025C05E1FF0E015C02E1FF0E005C18E2CB
:103110001EEC1DF0F3CF01F0F4CF02F0E9CF03F085
:10312000880F04017C6F130E01207D6F000E0220BA
:103130007E6F000E03207F6F5EEC06F07BEC16F0D6
:10314000E4CF03F0E4CF02F0E4CF01F0E4CF00F0ED
:103150001200D9CFE5FFE1CFD9FF00C0E5FF01C0E4
:10316000E5FF02C0E5FF03C0E5FF04C0E5FF020E76
:10317000DBCF00F0030EDBCF01F0040EDBCF02F05B
:103180000301785111E1F9EC1BF0036EF3CF04F069
:1031900003C0E5FF04C0F4FF00C0E9FF01C0F3FF76
:1031A00002508DEC20F016D003017851010A12E193
:1031B00000C0E9FF01C0F3FF0250B8EC1FF0006E41
:1031C000F3CF01F00150E56E0050E56E99EC1AF076
:1031D000E652E652E4CF04F0E4CF03F0E4CF02F08D
:1031E000E4CF01F0E4CF00F0E4CFD9FF1200DE0E0F
:1031F000F66E410EF76E000EF86E0900F550056E82
:103200000900F550066E04E1056702D044EF19F09D
:103210000900F550006E0900F550016E0900F550E7
:10322000026E09000900F550E96E0900F550EA6EDA
:10323000090009000900F550036E0900F550046EFD
:1032400009000900F6CF07F0F7CF08F0F8CF09F032
:1032500000C0F6FF01C0F7FF02C0F8FF035002E113
:10326000045007E00900F550EE6E0306F8E204068C
:10327000F9D707C0F6FF08C0F7FF09C0F8FF050639
:1032800001E2060603EF19F01200D9CFE5FFE1CF06
:10329000D9FF00C0E5FF01C0E5FF02C0E5FF03C0A4
:1032A000E5FF04C0E5FF020EDBCF00F00038E84484
:1032B0001F0B016E026A690E0126030E022201C075
:1032C000E9FF02C0EAFFEFCF03F0070E0016010E80
:1032D000046E00500DE006E6E86CD8900436010F4D
:1032E000FDE306D0D89004BED8800432010FFBE382
:1032F000041C006E0350001601C0E9FF02C0EAFF83
:1033000000C0EFFFE4CF04F0E4CF03F0E4CF02F01D
:10331000E4CF01F0E4CF00F0E4CFD9FF1200D9CF21
:10332000E5FFE1CFD9FF00C0E5FF01C0E5FF02C026
:10333000E5FF03C0E5FF04C0E5FF05C0E5FF020EA1
:10334000DBCF00F00050010A22E1016A0150020DBA
:10335000F450036EF3CF02F0B30E0224046E040E99
:103360000320056E04C0E9FF05C0EAFFEE687F0E8A
:10337000EF6ED30E0226040E032202C0E9FF03C043
:10338000EAFFEE6AEF6A012A100E015CDFE300C07B
:1033900012F4E4CF05F0E4CF04F0E4CF03F0E4CF7F
:1033A00002F0E4CF01F0E4CF00F0E4CFD9FF120047
:1033B00000C0E5FF01C0E5FF02C0E5FF48EC1DF0DD
:1033C000006E48EC1DF0016E0050026ED00E02241B
:1033D000006E0A0E005C05E30050026EF90E022436
:1033E000006E0150026ED00E0224016E0A0E015CC6
:1033F00005E30150026EF90E0224016E080E005C16
:1034000012E2100E015CD8B00ED00038F00B01248F
:10341000006E87EC1BF0016E015005E10050E56E77
:103420002EEC1FF0E652E4CF02F0E4CF01F0E4CF3F
:1034300000F01200D9CFE5FFE1CFD9FF00C0E5FFD2
:1034400001C0E5FF02C0E5FF020ED924006E000EA8
:10345000DA20016E800E026E030E0026000E01229D
:1034600002220250E56E0150E56E0050E56E040E3A
:10347000DBCFE5FF030EDBCFE5FF020EDBCFE5FF81
:1034800004013351E56E3251E56E3151E56E0EECBB
:1034900000F0006EF3CF01F0090EE12601C0F3FF4A
:1034A0000050E4CF02F0E4CF01F0E4CF00F0E4CF2D
:1034B000D9FF1200D9CFE5FFE1CFD9FF00C0E5FF6A
:1034C00001C0E5FF02C0E5FF03C0E5FF020EDBCF50
:1034D00000F0030EDBCF01F0040EDBCF02F003019E
:1034E00078510DE18CEC1FF0036E03C0E5FF00C0C6
:1034F000E9FF01C0F3FF0250BBEC20F00FD0030145
:103500007851010A0BE100C0E9FF01C0F3FF02504E
:1035100043EC20F0E56E35EC1EF0E652E4CF03F00C
:10352000E4CF02F0E4CF01F0E4CF00F0E4CFD9FF24
:103530001200D9CFE5FFE1CFD9FF00C0E5FF01C000
:10354000E5FF02C0E5FF03C0E5FF020EDBCF00F0A0
:10355000030EDBCF01F067C302F068C303F0030181
:10356000673F01D0682B0150E56E0250E56E5BECC1
:103570001EF0E652E65267C302F068C303F003018F
:10358000673F01D0682B0050E56E0250E56E5BECA2
:103590001EF0E652E652E4CF03F0E4CF02F0E4CFAF
:1035A00001F0E4CF00F0E4CFD9FF1200D9CFE5FF5E
:1035B000E1CFD9FF00C0E5FF01C0E5FF02C0E5FF94
:1035C00003C0E5FF04C0E5FF020EDBCF00F00CC432
:1035D00001F0026A014A022A0DC403F0046A015094
:1035E000031803E10250041801E001D00ED0000ED0
:1035F00004010C25016E026A010E022201C0E9FFDE
:1036000002C0EAFF00C0EFFF0C2BE4CF04F0E4CFD0
:1036100003F0E4CF02F0E4CF01F0E4CF00F0E4CF18
:10362000D9FF1200D9CFE5FFE1CFD9FF00C0E5FFF8
:1036300001C0E5FF02C0E5FF03C0E5FF020EDBCFDE
:1036400000F0016A89C302F0036A025000260350A9
:103650000122E56A800EE56E0150E56E0050E56ED0
:1036600035EC15F0006EF3CF01F0040EE126600E8C
:103670000026000E012200C0E9FF01C0EAFFEFCFE3
:1036800000F00050E4CF03F0E4CF02F0E4CF01F00B
:10369000E4CF00F0E4CFD9FF1200F3CFE5FFF4CF81
:1036A000E5FFE9CFE5FFEACFE5FFFACFE5FFFBCF86
:1036B000E5FF04010A510F01356F04010B510F01A1
:1036C000366FD650336FD750346FF2A411D0040147
:1036D0000A3F01D00B2BF29404010A510F01356F00
:1036E00004010B510F01366FD650336FD750346F32
:1036F00005EC21F0E4CFFBFFE4CFFAFFE4CFEAFFD3
:10370000E4CFE9FFE4CFF4FFE4CFF3FF110000C002
:10371000E5FF01C0E5FF02C0E5FF010E006E48ECC9
:103720001DF0016E01C002F0015023E00050E56E73
:1037300063EC20F0016EE652015010E10A0E005CCD
:103740000BE20A0E006EE56E63EC20F0016EE652AD
:10375000015004E1E8680ED0E8680CD0015002186E
:1037600002E0E86807D0002A1B0E005CD8E3E86896
:1037700001D0E86AE4CF02F0E4CF01F0E4CF00F03A
:10378000120000C0E5FF01C0E5FF48EC1DF0006E2F
:103790004C0A03E148EC1DF027D00050450A24E113
:1037A000000EE56E130EE56EE80EE56E1AEC1AF0EB
:1037B000030EE1260BEC21F0006E00C001F00006C4
:1037C00001500FE048EC1DF0E56AE56E000EE56E75
:1037D000130EE56EEA0EE56E1AEC1AF0050EE12600
:1037E000ECD70A0E91EC1CF0E4CF01F0E4CF00F02E
:1037F000120000C0E5FF01C0E5FF02C0E5FF03C005
:10380000E5FF67C300F068C301F00301673F01D023
:10381000682B0050E56E63EC20F0E652036E026AFE
:1038200067C300F068C301F00301673F01D0682B54
:103830000050E56E63EC20F0E652016A021201507E
:10384000031203C0F3FF0250E4CF03F0E4CF02F011
:10385000E4CF01F0E4CF00F01200D9CFE5FFE1CFD3
:10386000D9FF00C0E5FF01C0E5FF02C0E5FF03C0CE
:10387000E5FF020EDBCF00F0030EDBCF01F0040EFC
:10388000DBCF02F00050020DF450036EF3CF00F0D6
:10389000500E0026030E032200C0E9FF03C0EAFF1A
:1038A00001C0EEFF02C0EFFFE4CF03F0E4CF02F06F
:1038B000E4CF01F0E4CF00F0E4CFD9FF120000C064
:1038C000E5FF01C0E5FF02C0E5FF006A0050020D00
:1038D000F450026EF3CF01F0500E0126030E0222C7
:1038E00001C0E9FF02C0EAFFEE6AEF6A002A080E93
:1038F000005CECE30F014E6B0F014E894E8B4E8343
:103900007F824E817E927D82929692949292929044
:103910009398929CE4CF02F0E4CF01F0E4CF00F062
:10392000120000C0E5FF01C0E5FF02C0E5FF006E28
:10393000390E04011125016E026A040E022201C033
:10394000E9FF02C0EAFF00C0EFFF220E115D01E2B5
:10395000112B00500A0A0FE104011151E56E800E8F
:10396000E56E040EE56E390EE56ED2EC12F0040E33
:10397000E1260401116BE4CF02F0E4CF01F0E4CFC3
:1039800000F0120004010C6B04010D6B04010E69C0
:10399000928A899A928A766A3F0E756E7086728ACA
:1039A0007284728C7290718C718E0301806B030132
:1039B0007A6B03017D6B03017E6B03017F6B000E4D
:1039C000E56A63EC20F00401106FE652A598A59A11
:1039D000010E04010F6F0401316B326B2F0E336F38
:1039E00071EC20F0120000C0E5FF01C0E5FF02C04D
:1039F000E5FF04C0E5FF48EC1DF0006E080E005C1A
:103A000014E248EC1DF0016A026E48EC1DF0046AF5
:103A10000126045002220250E56E0150E56E00506E
:103A2000E56E2DEC1CF0030EE126E4CF04F0E4CFAC
:103A300002F0E4CF01F0E4CF00F0120004010A51DB
:103A40000401836F04010B510401846FD650816F10
:103A5000D750826F835104010A1905E10401845192
:103A600004010B190CE004010A510401836F0401E5
:103A70000B510401846FD650816FD750826F84C47C
:103A8000E9FF83C4F4FF82C4F3FF040181511200F3
:103A900000C0E5FF01C0E5FF03017E510301871966
:103AA00005E003017E5103017D1902E1E86A15D0AA
:103AB0007EC300F003017E2B016A600E0026000E1B
:103AC000012200C0E9FF01C0EAFFEFCF00F07E5104
:103AD000800A02E103017E6B0050E4CF01F0E4CFE5
:103AE00000F01200D8CFE5FFE0CFE5FFE56EF3CFA1
:103AF000E5FFF4CFE5FFE9CFE5FFEACFE5FFFACF39
:103B0000E5FFFBCFE5FF38EC0BF002EC21F0E4CF52
:103B1000FBFFE4CFFAFFE4CFEAFFE4CFE9FFE4CF15
:103B2000F4FFE4CFF3FFE450E4CFE0FFE4CFD8FFAD
:103B3000100000C0E5FFFFEC20F00401896B806BF2
:103B40008983006A89B3002A0050010BE844F46EAF
:103B50008051FD0BF410806FD58ED59CD59AD588F9
:103B6000D596D594D582D580F28AF184D08EF28E06
:103B7000F28CBA80FF0EBB68BA84E4CF00F012006A
:103B8000D9CFE5FFE1CFD9FF00C0E5FF01C0E5FFD8
:103B9000020EDBCF00F00050020DF450016EF3CFA7
:103BA00000F0000E0026030E012200C0E9FF01C054
:103BB000EAFFEECF00F0EFCF01F001C0F3FF0050BD
:103BC000E4CF01F0E4CF00F0E4CFD9FF1200D9CF69
:103BD000E5FFE1CFD9FF00C0E5FF01C0E5FF020E20
:103BE000DBCF00F00050020DF450016EF3CF00F077
:103BF000E00E0026000E012200C0E9FF01C0EAFF2E
:103C0000EECF00F0EFCF01F001C0F3FF0050E4CFA2
:103C100001F0E4CF00F0E4CFD9FF1200D9CFE5FFE7
:103C2000E1CFD9FF00C0E5FF01C0E5FF020EDBCF09
:103C300000F00050020DF450016EF3CF00F0500E72
:103C40000026030E012200C0E9FF01C0EAFFEECF0B
:103C500000F0EFCF01F001C0F3FF0050E4CF01F01E
:103C6000E4CF00F0E4CFD9FF1200D9CFE5FFE1CFD8
:103C7000D9FF00C0E5FF01C0E5FF02C0E5FF020E6D
:103C8000DBCF00F067C301F068C302F00301673FB8
:103C900001D0682B0050E56E0150E56E5BEC1EF024
:103CA000E652E652E4CF02F0E4CF01F0E4CF00F0B8
:103CB000E4CFD9FF1200D9CFE5FFE1CFD9FF00C093
:103CC000E5FF020EDBCF00F0030EDBCFA8FF00C044
:103CD000A9FFA69EA69CA684F29EF29C550EA76EF6
:103CE000AA0EA76EA682A6A202D00000FCD7A694B8
:103CF000F28EF28CE4CF00F0E4CFD9FF1200E8AEF0
:103D00000AD0F3CFEAFFEE50EECFF3FFEECFF4FF91
:103D1000EECFE9FF1200E8BC18EF21F0E9CFF6FF83
:103D2000F3CFF7FFF86E0900F5500900F5CFF3FF68
:103D30000900F5CFF4FF0900F5CFE9FF120000C03C
:103D4000E5FF01C0E5FF04010C5104010D1902E17A
:103D5000E86A0FD0000E04010D25006E016A010E05
:103D6000012200C0E9FF01C0EAFFEFCF00F00D2BF8
:103D70000050E4CF01F0E4CF00F01200F2CFEAFFF0
:103D8000F29EA69EA69CA684E9CFA9FFF3CFAAFF28
:103D9000E4CFA8FFD0EC20F0F4CFA8FFD0EC20F0C7
:103DA000F6CFA8FFD0EC20F0F7CFA8FFD0EC20F0A2
:103DB000A694EABEF28E1200F2CFF6FFF29EA69E05
:103DC000A69CE9CFA9FFF3CFAAFFA680A850A94AD5
:103DD000AA2AA680A8CFF3FFA94AAA2AA680A8CF1C
:103DE000F4FFA94AAA2AA680A8CFEAFFF6BEF28E5F
:103DF0001200E8AE08D0F3CFEAFFEE50EECFF3FFAB
:103E0000EECFF4FF1200E8BC20EF21F0E9CFF6FF7F
:103E1000F3CFF7FFF86E0900F5500900F5CFF3FF77
:103E20000900F5CFF4FF1200F2CFEAFFF29EA69E42
:103E3000A69CA684E9CFA9FFF3CFAAFFE4CFA8FFF1
:103E4000D0EC20F0F4CFA8FFD0EC20F0F6CFA8FF04
:103E5000D0EC20F0A694EABEF28E1200D9CFE5FF96
:103E6000E1CFD9FF00C0E5FF020EDBCF00F000C0BC
:103E700010F40050E56E000EE56A5BEC1EF0E652B1
:103E8000E652E4CF00F0E4CFD9FF1200F2CFF6FF04
:103E9000F29EA69EA69CE9CFA9FFF3CFAAFFA6801B
:103EA000A850A94AAA2AA680A8CFF3FFA94AAA2AFD
:103EB000A680A8CFF4FFF6BEF28E120000C0E5FF88
:103EC00001C0E5FF600E03017E25006E016A000E51
:103ED000012200C0E9FF01C0EAFFEFCF00F000506F
:103EE000E4CF01F0E4CF00F01200D9CFE5FFE1CF3D
:103EF000D9FF00C0E5FF020EDBCF00F0610E005CD1
:103F000005E37B0E005C02E2010E01D0E86AE4CF1B
:103F100000F0E4CFD9FF120000C0E5FF01C0E5FFCB
:103F200067C300F068C301F00301673F01D0682B4D
:103F30000050E56E63EC20F0E652E4CF01F0E4CFF0
:103F400000F01200D9CFE5FFE1CFD9FF00C0E5FFB7
:103F5000020EDBCF00F000C00FF4005004E171EC62
:103F600020F0A39AA398E4CF00F0E4CFD9FF120089
:103F7000E8AE06D0F3CFEAFFEE50EECFF3FF12002B
:103F8000E8BC16EF21F0E9CFF6FFF3CFF7FFF86EAC
:103F90000900F5500900F5CFF3FF1200F2CFEAFF58
:103FA000F29EA69EA69CA684E9CFA9FFF3CFAAFF06
:103FB000E4CFA8FFD0EC20F0F4CFA8FFD0EC20F0A5
:103FC000A694EABEF28E1200420A00000000000031
:103FD000000000000000FF000000000200020000DE
:103FE0000042000000000000000000000000FF038D
:103FF000000012EEFFF022EEFFF0F86AA68EA69CFB
:10400000E9680E0EEA6E0068000EED6A0050FDE1F0
:10401000F7EC18F006EC00F0FFD7F2CFF6FFF29EB7
:10402000A69EA69CE9CFA9FFF3CFAAFFA680A85021
:10403000A94AAA2AA680A8CFF3FFF6BEF28E1200E4
:10404000F2CFEAFFF29EA69EA69CA684E9CFA9FF26
:10405000F3CFAAFFE4CFA8FFD0EC20F0A694EABEED
:10406000F28E1200E8AE0BD0F3CFEAFFE4CFEEFF02
:10407000F4CFEEFFF6CFEEFFF7CFEEFF1200E8BC75
:104080001AEF21F01200E8AE04D0F3CFEAFFEE50B1
:104090001200E8BC14EF21F0E9CFF6FFF3CFF7FFF1
:1040A000F86E0900F5501200E8AE09D0F3CFEAFF30
:1040B000E4CFEEFFF4CFEEFFF6CFEEFF1200E8BC48
:1040C00022EF21F01200D9CFE5FFE1CFD9FF020E98
:1040D000DBCFA9FFA69CA69EA680A850E4CFD9FF5F
:1040E000120072A2FED7928A745000007450719828
:1040F00071887186A38AA398120025642000F2CFEC
:10410000F6FFF29EA69EA69CE9CFA9FFF3CFAAFFD9
:10411000A680A850F6BEF28E1200E8AE07D0F3CF0C
:10412000EAFFE4CFEEFFF4CFEEFF1200E8BC1EEF93
:1041300021F01200700ED36E9B8CFF0E9268936874
:1041400094689668626AF19E120000C0E5FF87ECF1
:104150001BF0006E005001E1FF00E4CF00F0120000
:104160000F01456B900E0F01446F030E0F01436F5B
:104170000F01458F1200E8AE05D0F3CFEAFFE4CF80
:10418000EEFF1200E8BC1CEF21F01200D9CFE5FFD2
:10419000E1CFD9FF020EDBCF15F4E4CFD9FF120037
:1041A000550EA76EAA0EA76EA682A6B2FED7A94A82
:1041B000AA2A010E0301786F1C0E0301676F686B5A
:1041C000120048EC1DF0320A02E1F3EC1CF0120080
:1041D0000301786B1C0E0301676F686B120001000E
:1041E000C83F0000000400002900000099EC1DF009
:1041F000C2EC1CF01200ACA2FED7AD6E12009AEC1D
:1042000020F0120024EC21F012004FEC14F0120008
:1042100003017E51120003018851120004010F5165
:104220001200E8CF7FFF12007FEF20F00DEF20F0AB
:10423000DCEF1EF0BEEF1EF020EF20F0CEEF1FF0FF
:0A42400046EF1FF014EF1FF012000C
:020000040030CA
:010006008574
:00000001FF
