:020000040000FA
:10000000E6EF1FF0C96E12003AEF1BF0A9EC08F002
:1000100048EC18F0FDD712005FEF1DF0D9CFE5FFD7
:10002000E1CFD9FF00C0E5FF01C0E5FF02C0E5FF59
:1000300003C0E5FF04C0E5FF05C0E5FF06C0E5FF1E
:1000400007C0E5FF08C0E5FF09C0E5FF0AC0E5FFFE
:100050000BC0E5FF0CC0E5FF0DC0E5FF0EC0E5FFDE
:100060000FC0E5FF10C0E5FF11C0E5FF12C0E5FFBE
:1000700013C0E5FF14C0E5FF15C0E5FF16C0E5FF9E
:1000800017C0E5FF18C0E5FF19C0E5FF1AC0E5FF7E
:100090001BC0E5FF1CC0E5FF1DC0E5FF1EC0E5FF5E
:1000A000020EDBCF00F0030EDBCF01F0040EDBCF3E
:1000B00002F0050EDBCF03F0060EDBCF04F0070ED7
:1000C000DBCF05F0080EDBCF06F0090EDBCF07F023
:1000D0000A0EDBCF08F0096A0A6A02C00DF00D5063
:1000E000800A0DE102500301626F0150616F005000
:1000F000606F030E016E600E006E800E026E03C014
:10010000E9FF04C0F3FF055030EC20F00B6E0B50FC
:10011000D8B4C4EF03F00B50250A02E0ABEF03F0B4
:100120000C6A0D6A0E6A0F6A106A0A0E116E126A64
:10013000136A146A200E156E1668176A2B0E186E55
:10014000032A02E3044A052A03C0E9FF04C0F3FFBF
:10015000055030EC20F0196E250A13E11950E56EB8
:100160000250E56E0150E56E0050E56E46EC12F06F
:10017000040EE126094A0A2A032A02E3044A052A50
:10018000BED71950300A06E1300E156E032A02E37D
:10019000044A052A03C0E9FF04C0F3FF055030EC10
:1001A00020F02D0A06E1010E146E032A02E3044A30
:1001B000052A03C0E9FF04C0F3FF055030EC20F02E
:1001C000200A08E1010E176E200E186E032A02E3C2
:1001D000044A052A03C0E9FF04C0F3FF055030ECD0
:1001E00020F02B0A06E1010E176E032A02E3044AEF
:1001F000052A03C0E9FF04C0F3FF055030EC20F0EE
:10020000196E310E195C2BE33A0E195C28E203C01B
:1002100019F004C01AF005C01BF019C0E9FF1AC09C
:10022000F3FF1B5030EC20F01C6E300E1C5C11E311
:100230003A0E1C5C0EE213500A0DF3CF1DF01C5059
:100240001D26D00E1D24136E192A02E31A4A1B2AFA
:10025000E4D719C003F01AC004F01BC005F003C0B6
:10026000E9FF04C0F3FF055030EC20F02E0A2DE129
:10027000032A02E3044A052A166A03C019F004C0DF
:100280001AF005C01BF019C0E9FF1AC0F3FF1B509C
:1002900030EC20F01C6E300E1C5C11E33A0E1C5C3E
:1002A0000EE216500A0DF3CF1DF01C501D26D00E85
:1002B0001D24166E192A02E31A4A1B2AE4D719C014
:1002C00003F01AC004F01BC005F003C0E9FF04C02E
:1002D000F3FF055030EC20F0196E6C0A07E1010EB7
:1002E0000C6E032A02E3044A052A09D01950680A51
:1002F00006E1010E0E6E032A02E3044A052A03C03A
:10030000E9FF04C0F3FF055030EC20F0750A06E168
:10031000010E106E032A02E3044A052A03C0E9FF16
:1003200004C0F3FF055030EC20F0196E730A05E1AC
:10033000010E0D6E200E156E3FD01950780A03E1A4
:10034000100E116E39D01950580A05E1100E116EB9
:10035000010E126E31D01950630A02E1116A2CD0DD
:1003600019506F0A03E1080E116E26D01950660A63
:1003700003E1010E0F6E20D01950640A1DE01950E0
:10038000690A1AE0105005E0FF0E03260422052238
:1003900013D01950E56E0250E56E0150E56E005025
:1003A000E56E46EC12F0040EE126094A0A2A032AF9
:1003B00002E3044A052AA3D60D5021E00650030F9C
:1003C0000D6E000E0720196E000E08201A6E0DC06B
:1003D00006F019C007F01AC008F0FD0E0D26FF0E3A
:1003E00019221A220DC0E9FF19C0F3FF1A50E6ECDA
:1003F0001EF00D6EF3CF19F0F4CF1AF0FDD00F50B0
:100400000DE0000E1A6E080E196E100E0D6E040E21
:100410000626000E072208221668EED016680C5039
:1004200023E00650040F0C6E000E07200F6E000E26
:1004300008201B6E0CC006F00FC007F01BC008F0B0
:10044000FC0E0C26FF0E0F221B220CC0E9FF0FC072
:10045000F3FF1B506CEC1EF00C6EF3CF0FF0F4CFDB
:100460001BF0E9CF1CF067D00E502FE00650020FB2
:100470000E6E000E07201D6E000E08201E6E0EC0B0
:1004800006F01DC007F01EC008F0FE0E0E26FF0E7F
:100490001D221E220EC0E9FF1DC0F3FF1E50A5EC59
:1004A0001FF00E6E0EC00CF00F6A1B6A1C6A115012
:1004B0000A0A03E11050D8B43ED00C500E6E0EC0A4
:1004C0000CF00F6A1B6A1C6A36D00650020F0E6EC3
:1004D000000E07201D6E000E08201E6E0EC006F0D6
:1004E0001DC007F01EC008F0FE0E0E26FF0E1D22D6
:1004F0001E220EC0E9FF1DC0F3FF1E50A5EC1FF029
:100500000E6EF3CF1DF00EC00CF01DC00FF0E86AA8
:100510001DBEFF0E1B6E1C6E11500A0A02E1105028
:100520000AE00C500E6E0F501D6E0EC00CF01DC078
:100530000FF01B6A1C6A040E196EF40E0D6E800E0D
:100540001A6E1150D8B440D0105013E01150E56E1F
:10055000040EE56EF40EE56E1C50E56E1B50E56E64
:100560000F50E56E0C50E56E63EC0DF0070EE126C2
:1005700012D01150E56E040EE56EF40EE56E1C50BF
:10058000E56E1B50E56E0F50E56E0C50E56EE1EC2C
:1005900016F0070EE12617502FE00DC0E9FF19C035
:1005A000F3FF1A5030EC20F02D0A26E0FF0E0D2646
:1005B00019221A2218C0E5FF0DC0E9FF19C0F3FF88
:1005C0001A50A8EC20F018D00CC0E5FF0DC0E9FFD0
:1005D00019C0F3FF1A50A8EC20F00D50010F0C6E5B
:1005E000000E19200E6E000E1A20E56A0CC0E9FFFD
:1005F0000EC0F3FFA8EC20F00DC00CF019C00EF0F7
:100600001AC00FF013C010F0105010E00CC0E9FF3A
:100610000EC0F3FF0F5030EC20F0176E175006E0BD
:100620000C2A02E30E4A0F2A1006EED710C013F070
:1006300014501EE109C00CF00AC00EF010C00FF0FB
:100640000F5010E01550E56E0250E56E0150E56E5A
:100650000050E56E46EC12F0040EE1260C4A0E2A1C
:100660000F06EED70CC009F00EC00AF00FC013F051
:1006700016C00CF00DC00DF019C00EF01AC00FF02E
:1006800009C010F00AC015F00DC0E9FF0EC0F3FF5D
:100690000F5030EC20F0166E1650D8B43ED00CC07F
:1006A00016F0176A161E171E1650171005E00CC01C
:1006B00016F00C06165031E00DC0E9FF0EC0F3FF36
:1006C0000F5030EC20F0116E125010E01150E56E1A
:1006D00062EC1FF0166EE652165004E0DF0E1114A5
:1006E000166E02D011C016F016C011F01150E56E52
:1006F0000250E56E0150E56E0050E56E46EC12F0DA
:10070000040EE1260D2A02E30E4A0F2A104A152A8A
:100710001350D8B4B9D71306B7D710C009F015C015
:100720000AF014502BE010C00CF015C00DF013C0EF
:100730000EF00E501FE0200EE56E0250E56E0150E7
:10074000E56E0050E56E46EC12F0040EE1260C4A10
:100750000D2A0E06EED70B50E56E0250E56E0150E5
:10076000E56E0050E56E46EC12F0040EE126094AF3
:100770000A2A04D00CC009F00DC00AF0032A02E3D3
:10078000044A052A7FEF00F00AC0F3FF0950E4CFC6
:100790001EF0E4CF1DF0E4CF1CF0E4CF1BF0E4CF5B
:1007A0001AF0E4CF19F0E4CF18F0E4CF17F0E4CF5B
:1007B00016F0E4CF15F0E4CF14F0E4CF13F0E4CF5B
:1007C00012F0E4CF11F0E4CF10F0E4CF0FF0E4CF5B
:1007D0000EF0E4CF0DF0E4CF0CF0E4CF0BF0E4CF5B
:1007E0000AF0E4CF09F0E4CF08F0E4CF07F0E4CF5B
:1007F00006F0E4CF05F0E4CF04F0E4CF03F0E4CF5B
:1008000002F0E4CF01F0E4CF00F0E4CFD9FF120012
:100810003C4E4F20464C4F41543E000000C0E5FF87
:1008200001C0E5FF02C0E5FF03C0E5FF04C0E5FF2E
:1008300005C0E5FF06C0E5FF07C0E5FF08C0E5FF0E
:1008400009C0E5FF0AC0E5FFC2A204D004011651A9
:1008500047EF06F004011751D8B42FD10401165107
:10086000020DF450016EF3CF00F0E00E0026000EF2
:10087000012200C0E9FF01C0EAFFEECF00F0EFCF98
:1008800001F0230E1625026E036A0F0E032202C02A
:10089000E9FF03C0EAFFEFCF02F00250FF0A01E1D7
:1008A00066D002380F0B036E920E0324046E056AA5
:1008B0000F0E0522066A920E03260F0E062203C0B3
:1008C000E9FF06C0EAFFEFCF03F00250066E070E05
:1008D0000616010E076E06500DE006E6E86CD8908D
:1008E0000736010FFDE306D0D89007BED880073247
:1008F000010FFBE3071C066E0350061604C0E9FF58
:1009000005C0EAFF06C0EFFF02380F0B036E890E29
:100910000324046E056A0F0E0522066A890E03265B
:100920000F0E062203C0E9FF06C0EAFFEFCF03F077
:100930000250066E070E0616010E076E06500DE0F9
:1009400006E6E86CD8900736010FFDE306D0D89094
:1009500007BED8800732010FFBE3071C066E035069
:10096000061604C0E9FF05C0EAFF06C0EFFF040158
:100970001651020DF450046EF3CF03F0E00E03267F
:10098000000E042201340130066E0030056E06347C
:10099000063205320634063205320550005C056E1B
:1009A00006500158066EC3CF07F0086A07500526A7
:1009B00008500622C4CF07F0086A07500A6E096A79
:1009C000095005260A50062203C0E9FF04C0EAFFC9
:1009D00005C0EEFF06C0EFFF04011251010A01E05D
:1009E0006AD004011651020DF450046EF3CF03F0E7
:1009F000E00E0324056E000E0420066E05C0E9FF1C
:100A000006C0EAFFEECF00F0EFCF01F0B30E0326F1
:100A1000040E042203C0E9FF04C0EAFFEECF05F094
:100A2000EFCF06F09C0E0526D8A006060150800FD9
:100A3000F36E0650800FF35C02E10550005C0EE29D
:100A40000050640F056E000E0120066E03C0E9FF22
:100A500004C0EAFF05C0EEFF06C0EFFF0401165117
:100A6000020DF450046EF3CF03F0D30E0326040EF0
:100A7000042203C0E9FF04C0EAFFEECF05F0EFCF88
:100A800006F0640E0526D8B0062A0650800FF36ED5
:100A90000150800FF35C02E10050055C0CE29C0EFB
:100AA0000026D8A0010603C0E9FF04C0EAFF00C089
:100AB000EEFF01C0EFFF0401176B0401162B100EAF
:100AC000165D01E3166B04011639E8441F0B006E36
:100AD000016A690E0026030E012200C0E9FF01C071
:100AE000EAFFEFCF00F016C401F0070E0116010E69
:100AF000036E000E046E015006E0E86CD8900336D9
:100B00000436010FFCE3056A005003160550041675
:100B100003500410D880E866D890036A0336035067
:100B2000D8A4B3D0400E04011625006E016A030E4E
:100B3000012200C0E9FF01C0EAFFEFCF00F000444E
:100B4000E844FC0B016E0128C26E230E1625006ED0
:100B5000016A0F0E012200C0E9FF01C0EAFFEFCFDA
:100B600002F00250FF0A01E18CD002380F0B006E38
:100B7000920E0024016E036A0F0E0322046A920E85
:100B800000260F0E042200C0E9FF04C0EAFFEFCFE9
:100B900000F00250046E070E0416010E056E04509C
:100BA0000DE006E6E86CD8900536010FFDE306D0AF
:100BB000D89005BED8800532010FFBE30050051226
:100BC00001C0E9FF03C0EAFF05C0EFFF380E006E69
:100BD0000F0E016E02380F0B036E046A03500026DD
:100BE00004500122380E056E0F0E066E05500326C6
:100BF0000650042203C0E9FF04C0EAFFEFCF03F070
:100C0000070E0216010E046E02500DE006E6E86CB7
:100C1000D8900436010FFDE306D0D89004BED880EA
:100C20000432010FFBE30350041200C0E9FF01C0CE
:100C3000EAFF04C0EFFF0F01458300000000459369
:100C40000F0144930BC0E5FFF2CF0BF0F29E4481FD
:100C50000000000000000000000000000000000094
:100C60000000000000000000000000000000000084
:100C7000000000000000000044910BBEF28EE4CFA3
:100C80000BF0C282010E0401176F04011651E4CF6C
:100C90000AF0E4CF09F0E4CF08F0E4CF07F0E4CFA6
:100CA00006F0E4CF05F0E4CF04F0E4CF03F0E4CFA6
:100CB00002F0E4CF01F0E4CF00F0120000C0E5FF45
:100CC00001C0E5FF02C0E5FF03C0E5FF04C0E5FF8A
:100CD00005C0E5FF06C0E5FF07C0E5FF08C0E5FF6A
:100CE00009C0E5FF0AC0E5FF0BC0E5FF0CC0E5FF4A
:100CF000006A016A026A040E025CD8B0ECD101C03D
:100D000003F0012A100E035CD8B0E5D10401182BC2
:100D1000100E185D01E3186B04011839E8441F0B2D
:100D2000036E046A690E0326030E042203C0E9FF62
:100D300004C0EAFFEFCF03F018C404F0070E041656
:100D4000010E056E000E066E045006E0E86CD890A9
:100D500005360636010FFCE3076A035005160750F7
:100D6000061605500610D880E866D890056A053644
:100D70000550D8A4C0D704011851020DF450046ED8
:100D8000F3CF03F0E00E0324056E000E0420066E80
:100D900005C0E9FF06C0EAFFEECF05F0EFCF06F091
:100DA00015C407F007A09DD0B30E0324076E040EF0
:100DB0000420086E07C0E9FF08C0EAFFEECF07F085
:100DC000EFCF08F00650800FF36E0850800FF35CF1
:100DD00002E10750055C03E2056A066A60D0D30EA3
:100DE0000326040E042203C0E9FF04C0EAFFEECF8D
:100DF00003F0EFCF04F00450800FF36E0650800F25
:100E0000F35C02E10550035C04E205683F0E066EE8
:100E100046D00750055C096E085006580A6EE86A0D
:100E20000ABEFF0E0B6EE56E0B50E56E0A50E56EC6
:100E30000950E56EE56AE56A400EE56E000EE56A6A
:100E400059EC0CF0096EF3CF0AF0F4CF0BF0E9CFB8
:100E50000CF0080EE1260750035C076E085004589A
:100E6000086EE86A08BEFF0E036EE56E0350E56E7D
:100E70000850E56E0750E56E0C50E56E0B50E56EC0
:100E80000A50E56E0950E56E9CEC10F0036EF3CF4E
:100E900004F0080EE1260350056E0450066E0401AE
:100EA0001451800FF36E0650800FF35C02E1055081
:100EB000135D03E3056A066A14D004011351FF08A9
:100EC000036E3F0E1455046E0650800FF36E0450EF
:100ED000800FF35C02E10350055C03E305683F0EFD
:100EE000066E04011851020DF450046EF3CF03F0A6
:100EF000930E0326040E042203C0E9FF04C0EAFF98
:100F0000EECF03F0EFCF04F00350055C036E045006
:100F10000658046ED88004AED89004E3041E036C17
:100F2000D8B4042A022A04011451800FF36E04502D
:100F3000800FF35C02E10350135DD8B0DCD60401EE
:100F40001851020DF450086EF3CF07F0930E0726E8
:100F5000040E082207C0E9FF08C0EAFF05C0EEFF43
:100F600006C0EFFF15C407F007A459D01851020DB1
:100F7000F450086EF3CF07F0000E0724096E030E3D
:100F800008200A6E09C0E9FF0AC0EAFFEECF0BF0A5
:100F9000EFCF0CF00B500C10D8B441D05C0E0726EC
:100FA000040E082207C0E9FF08C0EAFFEECF07F0F1
:100FB000EFCF08F00750055C036E08500658046E2A
:100FC00003101CE00450800F800F02E1010E035C4F
:100FD000076A07360C50800F800F02E1010E0B5C90
:100FE0000B6A0B3607500B1809E109C0E9FF0AC06C
:100FF000EAFF03C0EEFF04C0EFFF7DD604011851E5
:10100000020DF450046EF3CF03F0000E0326030E1E
:10101000042203C0E9FF04C0EAFFEE6AEF6A15C4C8
:1010200003F003A244D000500EE100C003F0002AF8
:10103000046A190E0326040E042203C0E9FF04C04B
:10104000EAFF420EEF6E00C003F0002A046A190E98
:101050000326040E042204011851076E640E0726AD
:1010600003C0E9FF04C0EAFF07C0EFFF00C003F0C0
:10107000002A046A190E0326040E04220650076E85
:1010800003C0E9FF04C0EAFF07C0EFFF00C003F0A0
:10109000002A046A190E0326040E04220550076E66
:1010A00003C0E9FF04C0EAFF07C0EFFF24D618C45D
:1010B00003F00650E56E0550E56EE56A0350E56EF7
:1010C000000EE56E270EE56EA40EE56E07EC1AF035
:1010D000070EE12610D602C001F000501EE015C434
:1010E00002F002A21AD000C002F0002A036A190E10
:1010F0000226040E032202C0E9FF03C0EAFF0A0E23
:10110000EF6E0050E56E800EE56E040EE56E190E72
:10111000E56ED2EC12F0040EE1260150E4CF0CF0A3
:10112000E4CF0BF0E4CF0AF0E4CF09F0E4CF08F00D
:10113000E4CF07F0E4CF06F0E4CF05F0E4CF04F00D
:10114000E4CF03F0E4CF02F0E4CF01F0E4CF00F00D
:10115000120000C0E5FF01C0E5FF02C0E5FF03C0CB
:10116000E5FF04C0E5FFE3EC20F00BEC1DF0F3CF4E
:1011700001F0F4CF02F0E9CF03F0880F04017C6F97
:10118000130E01207D6F000E02207E6F000E0320E3
:101190007F6F55EC13F04CEC1CF094948B8494907E
:1011A0008B8093968A96929E899E948A820E006E78
:1011B0000F0E016E0F0E036E380E00260350012233
:1011C0000F0E036E800E005E0350015A820E026EF7
:1011D0000F0E036E0F0E046E380E0226045003220B
:1011E0000F0E046E800E025E0450035A02C0E9FF27
:1011F00003C0EAFFEFCF02F0029A00C0E9FF01C08E
:10120000EAFF02C0EFFF948C820E006E0F0E016E9B
:101210000F0E036E380E0026035001220F0E036ED0
:10122000800E005E0350015A820E026E0F0E036E96
:101230000F0E046E380E0226045003220F0E046EA9
:10124000800E025E0450035A02C0E9FF03C0EAFFA9
:10125000EFCF02F0029C00C0E9FF01C0EAFF02C02C
:10126000EFFF948E820E006E0F0E016E0F0E036E56
:10127000380E0026035001220F0E036E800E005E12
:101280000350015A820E026E0F0E036E0F0E046E93
:10129000380E0226045003220F0E046E800E025EEA
:1012A0000450035A02C0E9FF03C0EAFFEFCF02F087
:1012B000029E00C0E9FF01C0EAFF02C0EFFF938079
:1012C000810E006E0F0E016E0F0E036E380E00269B
:1012D000035001220F0E036E800E005E0350015A70
:1012E000810E026E0F0E036E0F0E046E380E022674
:1012F000045003220F0E046E800E025E0450035A47
:1013000002C0E9FF03C0EAFFEFCF02F0029000C085
:10131000E9FF01C0EAFF02C0EFFF9382810E006E79
:101320000F0E016E0F0E036E380E002603500122C1
:101330000F0E036E800E005E0350015A810E026E86
:101340000F0E036E0F0E046E380E02260450032299
:101350000F0E046E800E025E0450035A02C0E9FFB5
:1013600003C0EAFFEFCF02F0029200C0E9FF01C024
:10137000EAFF02C0EFFF9384810E006E0F0E016E34
:101380000F0E036E380E0026035001220F0E036E5F
:10139000800E005E0350015A810E026E0F0E036E26
:1013A0000F0E046E380E0226045003220F0E046E38
:1013B000800E025E0450035A02C0E9FF03C0EAFF38
:1013C000EFCF02F0029400C0E9FF01C0EAFF02C0C3
:1013D000EFFFE4CF04F0E4CF03F0E4CF02F0E4CF7A
:1013E00001F0E4CF00F01200430025630000800EFE
:1013F000E56E040EE56ED30EE56E96EC18F0030E66
:10140000E126800EE56E040EE56EB30EE56E96ECF9
:1014100018F0030EE126800EE56E040EE56ED50E83
:10142000E56E96EC18F0030EE126800EE56E040ED4
:10143000E56EB50EE56E96EC18F0030EE126800E13
:10144000E56E040EE56ED70EE56E96EC18F0030E11
:10145000E126800EE56E040EE56EB70EE56E96ECA5
:1014600018F0030EE126800EE56E040EE56ED90E2F
:10147000E56E96EC18F0030EE126800EE56E040E84
:10148000E56EB90EE56E96EC18F0030EE126800EBF
:10149000E56E040EE56EDB0EE56E96EC18F0030EBD
:1014A000E126800EE56E040EE56EBB0EE56E96EC51
:1014B00018F0030EE126800EE56E040EE56EDD0EDB
:1014C000E56E96EC18F0030EE126800EE56E040E34
:1014D000E56EBD0EE56E96EC18F0030EE126800E6B
:1014E000E56E040EE56EDF0EE56E96EC18F0030E69
:1014F000E126800EE56E040EE56EBF0EE56E96ECFD
:1015000018F0030EE126800EE56E040EE56EE10E86
:10151000E56E96EC18F0030EE126800EE56E040EE3
:10152000E56EC10EE56E96EC18F0030EE126800E16
:10153000E56E040EE56EE30EE56E96EC18F0030E14
:10154000E126800EE56E040EE56EC30EE56E96ECA8
:1015500018F0030EE126800EE56E040EE56EE50E32
:10156000E56E96EC18F0030EE126800EE56E040E93
:10157000E56EC50EE56E96EC18F0030EE126800EC2
:10158000E56E040EE56EE70EE56E96EC18F0030EC0
:10159000E126800EE56E040EE56EC70EE56E96EC54
:1015A00018F0030EE126800EE56E040EE56EE90EDE
:1015B000E56E96EC18F0030EE126800EE56E040E43
:1015C000E56EC90EE56E96EC18F0030EE126800E6E
:1015D000E56E040EE56EEB0EE56E96EC18F0030E6C
:1015E000E126800EE56E040EE56ECB0EE56E96EC00
:1015F00018F0030EE126800EE56E040EE56EED0E8A
:10160000E56E96EC18F0030EE126800EE56E040EF2
:10161000E56ECD0EE56E96EC18F0030EE126800E19
:10162000E56E040EE56EEF0EE56E96EC18F0030E17
:10163000E126800EE56E040EE56ECF0EE56E96ECAB
:1016400018F0030EE126800EE56E040EE56EF10E35
:10165000E56E96EC18F0030EE126800EE56E040EA2
:10166000E56ED10EE56E96EC18F0030EE126120041
:1016700000C0E5FF01C0E5FF02C0E5FF03C0E5FFD4
:1016800004010F51D8B40CD1A3A81DD0A4A81BD01D
:101690000301815103017E1905E15EEC20F0030195
:1016A0007E6BFED0000E03018125006E016A0F0ED5
:1016B000012200C0E9FF01C0EAFFEFCF7AF3812BDE
:1016C0007AC373FFEDD0A3AAEBD0A4AAE9D071A28C
:1016D00005D003017F815EEC20F0E2D071A405D03B
:1016E00003017F835EEC20F0DBD071A048D074CF83
:1016F0007AF310C400F0016A008E7AC302F0036A24
:101700000250001803E10350011801E004D0030166
:101710007F897196C5D003017A5104E07A510401A2
:10172000101929E103017F99719603017A5103E0B1
:1017300003017F9702D003017F877AC383F37CC3C1
:1017400084F303017C51006E00040301856F600E79
:1017500003018425006E016A000E012200C0E9FF2A
:1017600001C0EAFF7AC3EFFF842B8451800A02E1B3
:101770000301846B95D003017F99718691D074CF5A
:101780007AF303017FA921D010C400F0016A008E12
:101790007AC302F0036A0250001803E103500118F3
:1017A00001E011D0A39A7198929A03017E5104E14D
:1017B000736A5EEC20F007D000CF73FF010E0301C7
:1017C000816FA3886DD071866BD003017A510301BC
:1017D000832703018451030185191BE10301835110
:1017E0000CE184C37CF303017FB712D0A39A7198F4
:1017F000929A736A5EEC20F00BD003017F857FB76D
:1018000007D0A39A7198929A010E736E5EEC20F045
:1018100047D00301845103017D1908E103017D5183
:1018200003017C1903E05EEC20F03AD07CC300F0A9
:10183000016A004A012AE56A800EE56E0150E56EF4
:101840000050E56E35EC15F0006E040EE1260050F8
:1018500003017B6F030184190FE17AC300F01F0EAF
:1018600000140301856F006E020E0024856F0301D2
:101870007C5103018527859F84C300F00301842BDD
:10188000016A600E0026000E012200C0E9FF01C0BF
:10189000EAFF7AC3EFFF8451800A02E10301846BFF
:1018A000E4CF03F0E4CF02F0E4CF01F0E4CF00F0A6
:1018B0001200D9CFE5FFE1CFD9FF00C0E5FF01C09D
:1018C000E5FF02C0E5FF03C0E5FF04C0E5FF05C07A
:1018D000E5FF06C0E5FF07C0E5FF020EDBCF00F025
:1018E000030EDBCF01F0040EDBCF02F0050EDBCFE1
:1018F00003F0060EDBCF04F0070EDBCF05F0080E79
:10190000DBCF06F0090EDBCF07F000500401856F36
:101910000150866F0250876F0350886F0450040196
:101920008A6F05508B6F06508C6F07508D6F0401C6
:10193000855104018C03F4CF01F0F3CF00F0005087
:101940000401906F0150916F0401855104018A03D5
:10195000F4CF01F0F3CF00F0005004018E6F01507E
:101960008F6F0401885104018A03F3CF00F0040152
:10197000915100260050916F0401875104018B039F
:10198000F3CF01F00150002600500401916F0401D3
:10199000875104018A03F4CF01F0F3CF00F0040172
:1019A00090510026915101220050906F0150916F8B
:1019B0000401865104018B03F4CF03F0F3CF02F04E
:1019C000025000260350012200500401906F015084
:1019D000916F0401865104018C03F3CF00F0005095
:1019E00004012C6F0401865104018A03F4CF01F035
:1019F000F3CF00F0005004012A6F01502B6F040157
:101A0000855104018D03F3CF00F000500401306FC5
:101A10000401855104018B03F4CF01F0F3CF00F0F2
:101A2000005004012E6F01502F6F0401296B040137
:101A30002D6B0401295104018E25006E04012A51E9
:101A400004018F21016E04012B5104019021026ECB
:101A500004012C5104019121036E00508E6F01503E
:101A60008F6F0250906F0350916F04012D5104014C
:101A70008E25006E04012E5104018F21016E040198
:101A80002F5104019021026E040130510401912173
:101A9000036E03C0E9FF02C0F4FF01C0F3FF005072
:101AA000E4CF07F0E4CF06F0E4CF05F0E4CF04F094
:101AB000E4CF03F0E4CF02F0E4CF01F0E4CF00F094
:101AC000E4CFD9FF1200D9CFE5FFE1CFD9FF00C0A5
:101AD000E5FF01C0E5FF02C0E5FF03C0E5FF04C06C
:101AE000E5FF05C0E5FF06C0E5FF07C0E5FF08C04C
:101AF000E5FF09C0E5FF0AC0E5FF0BC0E5FF0CC02C
:101B0000E5FF0DC0E5FF0EC0E5FF0FC0E5FF020ECB
:101B1000DBCF00F0030EDBCF01F0040EDBCF02F0D1
:101B2000050EDBCF03F0060EDBCF04F0070EDBCF94
:101B300005F0080EDBCF06F0200E076E086A06C01F
:101B400009F00A6A0B6A0C6AE56AE56AE56A0950F7
:101B5000E56E0350E56E0250E56E0150E56E0050F3
:101B6000E56E3FEC0EF00D6E080EE126300E0D26F0
:101B70003A0E0D5C05E30D500E6E270E0E240D6E11
:101B8000FF0E07260822200E07240E6E030E0820E3
:101B90000F6E0EC0E9FF0FC0EAFF0DC0EFFF0C5043
:101BA000E56E0B50E56E0A50E56E0950E56E035088
:101BB000E56E0250E56E0150E56E0050E56E9CEC5E
:101BC00010F0006EF3CF01F0F4CF02F0E9CF03F094
:101BD000080EE1260050011002100310D8A4AFD760
:101BE00007C000F008C001F004C002F005C003F017
:101BF00000C004F001C005F0004A012A200E0426AE
:101C0000030E052204C0E9FF05C0EAFFEFCF04F090
:101C100002C0E9FF03C0EAFF04C0EFFF024A032A43
:101C2000000E015C02E1200E005CE2E302C0E9FF6D
:101C300003C0EAFF000EEF6AE4CF0FF0E4CF0EF02E
:101C4000E4CF0DF0E4CF0CF0E4CF0BF0E4CF0AF0DA
:101C5000E4CF09F0E4CF08F0E4CF07F0E4CF06F0DA
:101C6000E4CF05F0E4CF04F0E4CF03F0E4CF02F0DA
:101C7000E4CF01F0E4CF00F0E4CFD9FF1200D9CFD8
:101C8000E5FFE1CFD9FF00C0E5FF01C0E5FF02C0DD
:101C9000E5FF03C0E5FF04C0E5FF05C0E5FF06C0A2
:101CA000E5FF07C0E5FF08C0E5FF09C0E5FF0AC082
:101CB000E5FF020EDBCF00F0030EDBCF01F0040ED8
:101CC000DBCF02F0050EDBCF03F0060EDBCF04F016
:101CD000070EDBCF05F0080EDBCF06F0090EDBCFD9
:101CE00007F0086A045005100610071005E1E968BE
:101CF000F468F368E86847D0096A0750800BE84445
:101D00000A6E0A501BE104500426053606360736D3
:101D10000750035C08E10650025C05E10550015CD8
:101D200002E10450005C06E2D89007320632053228
:101D3000043204D0092A09C008F0DFD70750035C39
:101D400008E10650025C05E10550015C02E1045027
:101D5000005C08E30450005E0550015A0650025A28
:101D60000750035AD890073206320532043208C0B1
:101D700009F008060950E2E103C0E9FF02C0F4FFE0
:101D800001C0F3FF0050E4CF0AF0E4CF09F0E4CF44
:101D900008F0E4CF07F0E4CF06F0E4CF05F0E4CF9D
:101DA00004F0E4CF03F0E4CF02F0E4CF01F0E4CF9D
:101DB00000F0E4CFD9FF120000C0E5FF01C0E5FF4D
:101DC00002C0E5FF03C0E5FF04C0E5FF03017D514C
:101DD00003017C1901E16AD07DC300F00050016E5F
:101DE0000128006E009E600E0024016E026A000E43
:101DF000022201C0E9FF02C0EAFFEFCF87F31F0E06
:101E0000030187177DC386F3875103018627865117
:101E1000016E020E0124866F869F35EC1DF0016E67
:101E2000015003E1016A012A01D0016A35EC1DF07D
:101E30000301876F87C302F0800E021687C303F089
:101E40001F0E031603C004F003C087F3045003E120
:101E50007CC37DF33ED001501EE0025025E035ECFE
:101E60001DF0006E03018751016E0104876F005061
:101E7000420A1AE000504E0A03E1C5EC19F014D0F2
:101E80000050460A03E192EC20F00ED00050490ABF
:101E90000BE1FF0009D07DC388F3025003E0AEECF4
:101EA0001BF002D0CEEC20F086C37DF304010C5170
:101EB00004010D1906E003017E5103E174EC0FF0FB
:101EC00008D092BA06D003017E5103E172B25EECF3
:101ED00020F0E4CF04F0E4CF03F0E4CF02F0E4CF4D
:101EE00001F0E4CF00F0120000C0E5FF01C0E5FF03
:101EF00002C0E5FF03C0E5FF04C0E5FF72A27ED08B
:101F00008CEC1EF0006E005005E104010D6B040125
:101F10000C6B74D00DC401F0005001268CEC1EF047
:101F2000026E0050036E0304006E0250230A1FE18C
:101F3000010E005CD8A060D08CEC1EF0026E690A25
:101F400003E1AFEC1CF058D00250720A03E15EECE2
:101F500020F052D00250730A01E04ED0928A71866E
:101F6000A38AA398745074507198718845D0025018
:101F7000430A05E00250420A01E03ED006D000C00C
:101F800003F0046A038E0350006E00C080F300501B
:101F90000F01006F010E0301816F04010D51011843
:101FA00014E08CEC1EF0026E03018027000E03018A
:101FB0008125006E036A0F0E032200C0E9FF03C0F3
:101FC000EAFF02C0EFFF812BE8D7000E0301812555
:101FD000006E026A0F0E02220301801D036E032AA7
:101FE00000C0E9FF02C0EAFF03C0EFFF0301812B3D
:101FF00081C37EF30301786B01C00DF4E4CF04F0DC
:10200000E4CF03F0E4CF02F0E4CF01F0E4CF00F03E
:102010001200D9CFE5FFE1CFD9FF00C0E5FF01C035
:10202000E5FF02C0E5FF03C0E5FF04C0E5FF05C012
:10203000E5FF06C0E5FF07C0E5FF08C0E5FF09C0F2
:10204000E5FF0AC0E5FF020EDBCF00F0030EDBCF99
:1020500001F0040EDBCF02F0050EDBCF03F0060E1D
:10206000DBCF04F0070EDBCF05F00038E8441F0B90
:10207000066E076A690E0626030E072206C0E9FFF0
:1020800007C0EAFFEFCF08F00050096E070E0916EF
:10209000010E0A6E09500DE006E6E86CD8900A368B
:1020A000010FFDE306D0D8900ABED8800A32010F96
:1020B000FBE308500A1206C0E9FF07C0EAFF0AC0A6
:1020C000EFFF400E0024066E076A030E072206C0CB
:1020D000E9FF07C0EAFF01C0EFFF016A230E0026F7
:1020E0000F0E0122800E025E070E02160238F00B60
:1020F000036E070E05160550032600C0E9FF01C058
:10210000EAFF03C0EFFFE4CF0AF0E4CF09F0E4CF29
:1021100008F0E4CF07F0E4CF06F0E4CF05F0E4CF19
:1021200004F0E4CF03F0E4CF02F0E4CF01F0E4CF19
:1021300000F0E4CFD9FF1200D9CFE5FFE1CFD9FFFE
:1021400000C0E5FF01C0E5FF02C0E5FF03C0E5FFF9
:1021500004C0E5FF05C0E5FF06C0E5FF07C0E5FFD9
:1021600008C0E5FF09C0E5FF0AC0E5FF0BC0E5FFB9
:102170000CC0E5FF0DC0E5FF020EDBCF00F0030E43
:10218000DBCF01F0040EDBCF02F0050EDBCF03F056
:10219000060EDBCF04F0070EDBCF05F0080EDBCF19
:1021A00006F0090EDBCF07F0086A096A0A6A0B6AB3
:1021B000200E0C6E0350800BE8440D6E005000267C
:1021C0000136023603360850082609360A360B3621
:1021D0000D50D8A4088007500B5C08E106500A5C3B
:1021E00005E10550095C02E10450085C09E3045074
:1021F000085E0550095A06500A5A07500B5A0080CB
:102200000C040D6E0DC00CF00D50D4E103C0E9FFBD
:1022100002C0F4FF01C0F3FF0050E4CF0DF0E4CFA3
:102220000CF0E4CF0BF0E4CF0AF0E4CF09F0E4CFF8
:1022300008F0E4CF07F0E4CF06F0E4CF05F0E4CFF8
:1022400004F0E4CF03F0E4CF02F0E4CF01F0E4CFF8
:1022500000F0E4CFD9FF120000C0E5FF01C0E5FFA8
:1022600003C0E5FF04C0E5FF05C0E5FF06C0E5FFCC
:1022700007C0E5FF08C0E5FF09C0E5FF0AC0E5FFAC
:102280000BC0E5FF67C300F068C301F00301673FBF
:1022900001D0682B0050E56E50EC20F0E652076E3E
:1022A000046A056A066A67C300F068C301F00301A7
:1022B000673F01D0682B0050E56E50EC20F0E652ED
:1022C0000B6A0A6E086A0850041205120A500612B8
:1022D0000B50071267C300F068C301F00301673FAA
:1022E00001D0682B0050E56E50EC20F0E652036EF2
:1022F000006A03C001F0E86A03BEFF0E086E096EB3
:10230000005004120150051208500612095007121D
:1023100067C300F068C301F00301673F01D0682B79
:102320000050E56E50EC20F0E652016A04120150B4
:1023300005120612071207C0E9FF06C0F4FF05C028
:10234000F3FF0450E4CF0BF0E4CF0AF0E4CF09F040
:10235000E4CF08F0E4CF07F0E4CF06F0E4CF05F0D7
:10236000E4CF04F0E4CF03F0E4CF01F0E4CF00F0D9
:102370001200D9CFE5FFE1CFD9FF00C0E5FF01C0D2
:10238000E5FF02C0E5FF03C0E5FF04C0E5FF05C0AF
:10239000E5FF06C0E5FF07C0E5FF020EDBCF00F05A
:1023A000030EDBCF01F0040EDBCF02F0050EDBCF16
:1023B00003F003C004F0056A0350D8B454D000C041
:1023C000E9FF01C0F3FF025030EC20F0066E430A33
:1023D00008E1010E056E03C006F0076A068E06507E
:1023E000036E0406002A02E3014A022AA39A7198A6
:1023F000929AA398A4A8FED77280736A0000A4A83A
:10240000FED7729003C073FF0000A4A8FED705504A
:1024100004E0420E736E032604D0620E736E620EE9
:102420000326045015E00000A4A8FED700C0E9FF71
:1024300001C0F3FF025030EC20F0056E05C073FFC1
:10244000055003260406002A02E3014A022AE9D7BE
:102450000000A4A8FED7031C736E732A0000A4A872
:10246000FED75EEC20F0E4CF07F0E4CF06F0E4CF37
:1024700005F0E4CF04F0E4CF03F0E4CF02F0E4CFC2
:1024800001F0E4CF00F0E4CFD9FF1200D9CFE5FF8F
:10249000E1CFD9FF00C0E5FF01C0E5FF02C0E5FFC5
:1024A00003C0E5FF04C0E5FF05C0E5FF06C0E5FF8A
:1024B00007C0E5FF020EDBCF00F0030EDBCF01F01B
:1024C000040EDBCF02F0050EDBCF03F002C006F0F6
:1024D0000650046E800A33E100C0E9FF01C0F3FF3B
:1024E0000250E6EC1EF0056EF3CF06F0F4CF07F0D5
:1024F00003C0E5FF05C0E9FF06C0F3FF0750A8ECE5
:1025000020F000C0E9FF01C0F3FF0250E6EC1EF02E
:10251000056EF3CF06F0F4CF07F0052A02E3064A72
:10252000072A05C0E5FF06C0F4FF07C0F6FF00C09C
:10253000E9FF01C0F3FF025041EC20F020D004C0BD
:1025400000F000AA1CD0007A0050046E04E1035091
:10255000E8EC20F014D00450010A04E1035002EC2E
:1025600000F00DD004500F0A04E103507EEC1CF083
:1025700006D004500E0A03E10350FEEC20F0E4CF35
:1025800007F0E4CF06F0E4CF05F0E4CF04F0E4CFA9
:1025900003F0E4CF02F0E4CF01F0E4CF00F0E4CFA9
:1025A000D9FF1200D9CFE5FFE1CFD9FF00C0E5FF89
:1025B00001C0E5FF02C0E5FF03C0E5FF04C0E5FF81
:1025C00005C0E5FF06C0E5FF07C0E5FF020EDBCF53
:1025D00000F0030EDBCF01F0040EDBCF02F0050E9E
:1025E000DBCF03F00DC40EF404010C5104010E5FA7
:1025F0000E51046E04040E6F03C004F0056A030E4E
:102600000426D8B0052A0EC406F0076A0750800FCA
:10261000F36E0550800FF35C02E10450065C02E2A9
:10262000E86830D0020E035C02E2E86A2BD0035067
:10263000046E0404036EE56EC3EC1AF0E652046AFD
:102640000350045C14E204500024056EE86A012083
:10265000066EE86A022005C0E9FF06C0F3FF30EC11
:1026600020F0042AE56EC3EC1AF0E652E9D70DC457
:102670000EF404010C5104010E5F0E51006E0004B3
:102680000E6FE86AE4CF07F0E4CF06F0E4CF05F080
:10269000E4CF04F0E4CF03F0E4CF02F0E4CF01F0A4
:1026A000E4CF00F0E4CFD9FF120000C0E5FF01C085
:1026B000E5FF02C0E5FF03C0E5FF04C0E5FF006AD7
:1026C000690E0024016E026A030E022201C0E9FFB6
:1026D00002C0EAFFEF6A002A020E005CF1E3006A22
:1026E0000050020DF450026EF3CF01F0E00E012411
:1026F000036E000E0220046E03C0E9FF04C0EAFF6F
:10270000EE6AEF6A5C0E0124036E040E0220046E72
:1027100003C0E9FF04C0EAFFEE6AEF6A930E0124EA
:10272000036E040E0220046E03C0E9FF04C0EAFF3A
:10273000EE6AEF6AB30E0124036E040E0220046EEB
:1027400003C0E9FF04C0EAFFEE6AEF6AD30E012678
:10275000040E022201C0E9FF02C0EAFFEE687F0E0C
:10276000EF6E230E0024016E026A0F0E022201C0DA
:10277000E9FF02C0EAFFEF68002A100E005CD8A053
:10278000AFD7AF0EC06EC16A010EC26EC282E4CF77
:1027900004F0E4CF03F0E4CF02F0E4CF01F0E4CFA3
:1027A00000F012004320412025642025640A000027
:1027B000D9CFE5FFE1CFD9FF00C0E5FF01C0E5FFBC
:1027C00002C0E5FF03C0E5FF04C0E5FF05C0E5FF6B
:1027D000020EDBCF00F0030EDBCF01F0040EDBCFE7
:1027E00002F00050020DF450036EF3CF00F05C0EC7
:1027F0000024046E040E0320056E04C0E9FF05C02A
:10280000EAFF01C0EEFF02C0EFFF930E0024046E4A
:10281000040E0320056E04C0E9FF05C0EAFFEECFF9
:1028200004F0EFCF05F00150045C016E0250055832
:10283000026E000E0026030E032200C0E9FF03C053
:10284000EAFF01C0EEFF02C0EFFFD88002AED890D1
:1028500004E3021E016CD8B4022A0250800F800FDC
:1028600002E1030E015C02E2016A026A01500210F9
:1028700007E100C0E9FF03C0EAFF000EEE6AEF6A5D
:10288000E4CF05F0E4CF04F0E4CF03F0E4CF02F0AE
:10289000E4CF01F0E4CF00F0E4CFD9FF120000C094
:1028A000E5FF01C0E5FF7EA26AD004012651271191
:1028B00003E12669030E276FFF0E04012627272355
:1028C0002651006E2751016E03015151015C02E156
:1028D0005051005C02E2898601D08996040126519C
:1028E000006E2751016E03015351015C02E1525108
:1028F000005C02E2898401D0899404012651006EB3
:102900002751016E03015551015C02E15451005CF5
:1029100002E2898201D0899204012651006E27517A
:10292000016E03015751015C02E15651005C02E265
:10293000898001D0899004012651006E2751016ED3
:1029400003015951015C02E15851005C02E28A889E
:1029500001D08A9804012651006E2751016E0301AF
:102960005B51015C02E15A51005C02E2898C01D0AA
:10297000899C0F015069F30E0F014F6F7E92E4CFD7
:1029800001F0E4CF00F0120000C0E5FF006A82BA57
:10299000002A00C037F403016B510401371908E025
:1029A00037C46BF304013751010A02E10301712BB3
:1029B000006A82BC002A00C037F403016C51040194
:1029C000371908E037C46CF304013751010A02E1FA
:1029D0000301722B006A82BE002A00C037F4030193
:1029E0006D510401371908E037C46DF30401375104
:1029F000010A02E10301732B006A81B0002A00C0C2
:102A000037F403016E510401371908E037C46EF33F
:102A100004013751010A02E10301742B006A81B2FB
:102A2000002A00C037F403016F510401371908E090
:102A300037C46FF304013751010A02E10301752B1A
:102A4000006A81B4002A00C037F403017051040108
:102A5000371908E037C470F304013751010A02E165
:102A60000301762BE4CF00F01200D9CFE5FFE1CFD0
:102A7000D9FF00C0E5FF01C0E5FF02C0E5FF03C0CC
:102A8000E5FF04C0E5FF05C0E5FF06C0E5FF020E57
:102A9000DBCF00F0030EDBCF01F0040EDBCF02F042
:102AA000050EDBCF03F0D88001AED890046A04365F
:102AB000045007E0011C066E001C056E054A062A3C
:102AC00004D000C005F001C006F0D88003AED89055
:102AD00007E3031C016E021C006E004A012A04D0A9
:102AE00002C000F003C001F00150E56E0050E56E39
:102AF0000650E56E0550E56E44EC17F0006EF3CF1E
:102B000001F0040EE12604500AE0011C036E001CD3
:102B1000026E024A032A03C0F3FF025003D001C031
:102B2000F3FF0050E4CF06F0E4CF05F0E4CF04F06B
:102B3000E4CF03F0E4CF02F0E4CF01F0E4CF00F003
:102B4000E4CFD9FF1200D9CFE5FFE1CFD9FF00C014
:102B5000E5FF01C0E5FF02C0E5FF03C0E5FF04C0DB
:102B6000E5FF05C0E5FF020EDBCF00F0030EDBCF73
:102B700001F0040EDBCF02F0050EDBCF03F067C3DC
:102B800004F068C305F00301673F01D0682B0350D0
:102B9000E56E0450E56E48EC1EF0E652E65267C35F
:102BA00004F068C305F00301673F01D0682B0250B1
:102BB000056EE56E0450E56E48EC1EF0E652E652F6
:102BC00067C304F068C305F00301673F01D0682BB9
:102BD0000150E56E0450E56E48EC1EF0E652E652F8
:102BE00067C304F068C305F00301673F01D0682B99
:102BF0000050E56E0450E56E48EC1EF0E652E652D9
:102C0000E4CF05F0E4CF04F0E4CF03F0E4CF02F02A
:102C1000E4CF01F0E4CF00F0E4CFD9FF1200D9CF28
:102C2000E5FFE1CFD9FF00C0E5FF01C0E5FF02C02D
:102C3000E5FF03C0E5FF04C0E5FF05C0E5FF06C0F2
:102C4000E5FF020EDBCF00F0030EDBCF01F0003812
:102C5000E8441F0B026E036A690E0226030E03226C
:102C600002C0E9FF03C0EAFFEFCF04F00050056E99
:102C7000070E0516010E066E05500DE006E6E86C1F
:102C8000D8900636010FFDE306D0D89006BED88056
:102C90000632010FFBE30450061202C0E9FF03C035
:102CA000EAFF06C0EFFF400E0024026E036A030E27
:102CB000032202C0E9FF03C0EAFF01C0EFFF016A7F
:102CC000230E00260F0E012200C0E9FF01C0EAFF1B
:102CD000FF0EEF68E4CF06F0E4CF05F0E4CF04F098
:102CE000E4CF03F0E4CF02F0E4CF01F0E4CF00F052
:102CF000E4CFD9FF1200D9CFE5FFE1CFD9FF00C063
:102D0000E5FF01C0E5FF02C0E5FF03C0E5FF04C029
:102D1000E5FF05C0E5FF06C0E5FF020EDBCF00F0D2
:102D2000030EDBCF01F0040EDBCF02F0030177517D
:102D300019E12CEC11F0036EF3CF04F0F4CF05F0A1
:102D4000E9CF06F003C0E5FF04C0F4FF05C0F6FFBD
:102D500006C0F7FF00C0E9FF01C0F3FF02501FECFF
:102D600020F01ED003017751010A1AE100C0E9FFEB
:102D700001C0F3FF02506CEC1EF0006EF3CF01F0C7
:102D8000F4CF02F0E9CF03F00350E56E0250E56E98
:102D90000150E56E0050E56EA3EC15F0040EE1263F
:102DA000E4CF06F0E4CF05F0E4CF04F0E4CF03F085
:102DB000E4CF02F0E4CF01F0E4CF00F0E4CFD9FF9C
:102DC0001200D9CFE5FFE1CFD9FF00C0E5FF01C078
:102DD000E5FF02C0E5FF03C0E5FF04C0E5FF05C055
:102DE000E5FF06C0E5FF020EDBCF00F0030EDBCFF0
:102DF00001F0040EDBCF02F0050EDBCF03F0060E70
:102E0000DBCF04F0070EDBCF05F0080EDBCF06F0BA
:102E1000D88003AED89015E306500A0A12E104C028
:102E2000E9FF05C0EAFF2D0EEF6E044A052A031ED6
:102E3000021E011E006C05E1012A03E1022AD8B43A
:102E4000032A0650E56E0550E56E0450E56E03500A
:102E5000E56E0250E56E0150E56E0050E56E63ECE4
:102E60000DF0070EE126E4CF06F0E4CF05F0E4CF45
:102E700004F0E4CF03F0E4CF02F0E4CF01F0E4CFBC
:102E800000F0E4CFD9FF1200D9CFE5FFE1CFD9FFA1
:102E900000C0E5FF01C0E5FF02C0E5FF03C0E5FF9C
:102EA00004C0E5FF05C0E5FF06C0E5FF020EDBCF6D
:102EB00000F0030EDBCF01F0040EDBCF02F0050EB5
:102EC000DBCF03F0046A056A0350800BE844066E0A
:102ED000065011E10250022603360350015C02E164
:102EE0000250005C04E2D8900332023204D0052A7A
:102EF00005C004F0E9D70350015C02E10250005C18
:102F000004E30250005E0350015AD89003320232AB
:102F100004C005F004060550EEE101C0F3FF0050C7
:102F2000E4CF06F0E4CF05F0E4CF04F0E4CF03F003
:102F3000E4CF02F0E4CF01F0E4CF00F0E4CFD9FF1A
:102F4000120000C0E5FF01C0E5FF02C0E5FF03C0BD
:102F5000E5FF71C300F0016A72C302F0036A025018
:102F600000260350012273C302F0025000260350D2
:102F7000012274C302F0025000260350012275C3DF
:102F800002F0025000240301636F03500120646FBC
:102F900063510301651905E10301645103016619D9
:102FA0001CE063C365F364C366F30301715104015C
:102FB000026F030172510401036F03017351040195
:102FC000046F030174510401056F0301755104017D
:102FD000066F030176510401076FE4CF03F0E4CFDD
:102FE00002F0E4CF01F0E4CF00F0120000C0E5FFF2
:102FF00001C0E5FF02C0E5FF03C0E5FF7DC300F0AF
:10300000016A88C302F0036A0250005E0350015A4D
:10301000E56A800EE56E0150E56E0050E56E35EC18
:1030200015F0006E040EE126000688C301F0430E81
:103030007EEC1CF0200E7EEC1CF0005020E0600EB8
:103040000124026E036A000E032202C0E9FF03C0DE
:10305000EAFFEFCF02F0E56A0250E56E000EE56E82
:10306000400EE56ED40EE56E07EC1AF0050EE12673
:10307000012A0150800A01E1016A0006DED7E4CF8F
:1030800003F0E4CF02F0E4CF01F0E4CF00F012004F
:1030900000C0E5FF01C0E5FF02C0E5FF03C0E5FF9A
:1030A000DCEC0EF00EEC04F0C4EC14F00BEC1DF0B4
:1030B000006EF3CF01F0F4CF02F0E9CF03F004018A
:1030C0007C51005E7D51015A7E51025A7F51035A54
:1030D000039E3F0E035C08E1FF0E025C05E1FF0E5C
:1030E000015C02E1FF0E005C18E20BEC1DF0F3CF77
:1030F00001F0F4CF02F0E9CF03F0880F04017C6FF8
:10310000130E01207D6F000E02207E6F000E032043
:103110007F6F5EEC06F0A1EC17F0E4CF03F0E4CF94
:1031200002F0E4CF01F0E4CF00F01200D9CFE5FFC8
:10313000E1CFD9FF00C0E5FF01C0E5FF02C0E5FF18
:1031400003C0E5FF04C0E5FF020EDBCF00F0030E75
:10315000DBCF01F0040EDBCF02F00301775111E168
:10316000E6EC1BF0036EF3CF04F003C0E5FF04C0F0
:10317000F4FF00C0E9FF01C0F3FF02507AEC20F039
:1031800016D003017751010A12E100C0E9FF01C026
:10319000F3FF0250A5EC1FF0006EF3CF01F00150D9
:1031A000E56E0050E56E86EC1AF0E652E652E4CF8A
:1031B00004F0E4CF03F0E4CF02F0E4CF01F0E4CF79
:1031C00000F0E4CFD9FF1200B80EF66E410EF76E94
:1031D000000EF86E0900F550056E0900F550066EF8
:1031E00004E1056702D031EF19F00900F550006ED7
:1031F0000900F550016E0900F550026E0900090042
:10320000F550E96E0900F550EA6E09000900090061
:10321000F550036E0900F550046E09000900F6CF61
:1032200007F0F7CF08F0F8CF09F000C0F6FF01C0B3
:10323000F7FF02C0F8FF035002E1045007E0090065
:10324000F550EE6E0306F8E20406F9D707C0F6FF64
:1032500008C0F7FF09C0F8FF050601E20606F0EF17
:1032600018F01200D9CFE5FFE1CFD9FF00C0E5FF8C
:1032700001C0E5FF02C0E5FF03C0E5FF04C0E5FFB4
:10328000020EDBCF00F00038E8441F0B016E026A2B
:10329000690E0126030E022201C0E9FF02C0EAFF07
:1032A000EFCF03F0070E0016010E046E00500DE084
:1032B00006E6E86CD8900436010FFDE306D0D890FE
:1032C00004BED8800432010FFBE3041C006E0350DF
:1032D000001601C0E9FF02C0EAFF00C0EFFFE4CF23
:1032E00004F0E4CF03F0E4CF02F0E4CF01F0E4CF48
:1032F00000F0E4CFD9FF1200D9CFE5FFE1CFD9FF2D
:1033000000C0E5FF01C0E5FF02C0E5FF03C0E5FF27
:1033100004C0E5FF05C0E5FF020EDBCF00F0005062
:10332000010A22E1016A0150020DF450036EF3CF4D
:1033300002F0B30E0224046E040E0320056E04C0D6
:10334000E9FF05C0EAFFEE687F0EEF6ED30E02269E
:10335000040E032202C0E9FF03C0EAFFEE6AEF6A2F
:10336000012A100E015CDFE300C012F4E4CF05F087
:10337000E4CF04F0E4CF03F0E4CF02F0E4CF01F0B7
:10338000E4CF00F0E4CFD9FF120000C0E5FF01C098
:10339000E5FF02C0E5FF35EC1DF0006E35EC1DF0D9
:1033A000016E0050026ED00E0224006E0A0E005C08
:1033B00005E30050026EF90E0224006E0150026E09
:1033C000D00E0224016E0A0E015C05E30150026E6C
:1033D000F90E0224016E080E005C12E2100E015C70
:1033E000D8B00ED00038F00B0124006E74EC1BF046
:1033F000016E015005E10050E56E1BEC1FF0E65236
:10340000E4CF02F0E4CF01F0E4CF00F01200D9CF16
:10341000E5FFE1CFD9FF00C0E5FF01C0E5FF02C035
:10342000E5FF020ED924006E000EDA20016E800E38
:10343000026E030E0026000E012202220250E56EEB
:103440000150E56E0050E56E040EDBCFE5FF030E84
:10345000DBCFE5FF020EDBCFE5FF04013351E56E64
:103460003251E56E3151E56E0EEC00F0006EF3CF97
:1034700001F0090EE12601C0F3FF0050E4CF02F095
:10348000E4CF01F0E4CF00F0E4CFD9FF1200D9CFB0
:10349000E5FFE1CFD9FF00C0E5FF01C0E5FF02C0B5
:1034A000E5FF03C0E5FF020EDBCF00F0030EDBCF2C
:1034B00001F0040EDBCF02F0030177510DE179EC4E
:1034C0001FF0036E03C0E5FF00C0E9FF01C0F3FF7A
:1034D0000250A8EC20F00FD003017751010A0BE154
:1034E00000C0E9FF01C0F3FF025030EC20F0E56EB0
:1034F00022EC1EF0E652E4CF03F0E4CF02F0E4CF7A
:1035000001F0E4CF00F0E4CFD9FF1200D9CFE5FFFE
:10351000E1CFD9FF00C0E5FF01C0E5FF02C0E5FF34
:1035200003C0E5FF020EDBCF00F0030EDBCF01F09E
:1035300067C302F068C303F00301673F01D0682B43
:103540000150E56E0250E56E48EC1EF0E652E65280
:1035500067C302F068C303F00301673F01D0682B23
:103560000050E56E0250E56E48EC1EF0E652E65261
:10357000E4CF03F0E4CF02F0E4CF01F0E4CF00F0B9
:10358000E4CFD9FF1200D9CFE5FFE1CFD9FF00C0CA
:10359000E5FF01C0E5FF02C0E5FF03C0E5FF04C091
:1035A000E5FF020EDBCF00F00CC401F0026A014A15
:1035B000022A0DC403F0046A0150031803E102500B
:1035C000041801E001D00ED0000E04010C25016E9C
:1035D000026A010E022201C0E9FF02C0EAFF00C038
:1035E000EFFF0C2BE4CF04F0E4CF03F0E4CF02F0C4
:1035F000E4CF01F0E4CF00F0E4CFD9FF1200D9CF3F
:10360000E5FFE1CFD9FF00C0E5FF01C0E5FF02C043
:10361000E5FF03C0E5FF020EDBCF00F0016A88C3BF
:1036200002F0036A0250002603500122E56A800E70
:10363000E56E0150E56E0050E56E35EC15F0006E5C
:10364000F3CF01F0040EE126600E0026000E0122E9
:1036500000C0E9FF01C0EAFFEFCF00F00050E4CF67
:1036600003F0E4CF02F0E4CF01F0E4CF00F0E4CFC8
:10367000D9FF1200F3CFE5FFF4CFE5FFE9CFE5FF77
:10368000EACFE5FFFACFE5FFFBCFE5FF04010A51E2
:103690000F01356F04010B510F01366FD650336F98
:1036A000D750346FF2A411D004010A3F01D00B2B84
:1036B000F29404010A510F01356F04010B510F01FF
:1036C000366FD650336FD750346FF2EC20F0E4CF22
:1036D000FBFFE4CFFAFFE4CFEAFFE4CFE9FFE4CF5A
:1036E000F4FFE4CFF3FF110000C0E5FF01C0E5FFE8
:1036F00002C0E5FF010E006E35EC1DF0016E01C049
:1037000002F0015023E00050E56E50EC20F0016E15
:10371000E652015010E10A0E005C0BE20A0E006E48
:10372000E56E50EC20F0016EE652015004E1E868CD
:103730000ED0E8680CD00150021802E0E86807D00B
:10374000002A1B0E005CD8E3E86801D0E86AE4CFE9
:1037500002F0E4CF01F0E4CF00F0120000C0E5FF7A
:1037600001C0E5FF35EC1DF0006E4C0A03E135ECBD
:103770001DF027D00050450A24E1000EE56E130E1F
:10378000E56EE80EE56E07EC1AF0030EE126F8ECA4
:1037900020F0006E00C001F0000601500FE035EC93
:1037A0001DF0E56AE56E000EE56E130EE56EEA0E9D
:1037B000E56E07EC1AF0050EE126ECD70A0E7EEC5A
:1037C0001CF0E4CF01F0E4CF00F0120000C0E5FFF0
:1037D00001C0E5FF02C0E5FF03C0E5FF67C300F0DD
:1037E00068C301F00301673F01D0682B0050E56E0C
:1037F00050EC20F0E652036E026A67C300F068C323
:1038000001F00301673F01D0682B0050E56E50ECDA
:1038100020F0E652016A02120150031203C0F3FFC6
:103820000250E4CF03F0E4CF02F0E4CF01F0E4CFA4
:1038300000F01200D9CFE5FFE1CFD9FF00C0E5FFCE
:1038400001C0E5FF02C0E5FF03C0E5FF020EDBCFCC
:1038500000F0030EDBCF01F0040EDBCF02F00050CE
:10386000020DF450036EF3CF00F0500E0026030E4D
:10387000032200C0E9FF03C0EAFF01C0EEFF02C05F
:10388000EFFFE4CF03F0E4CF02F0E4CF01F0E4CFA8
:1038900000F0E4CFD9FF120000C0E5FF01C0E5FF52
:1038A00002C0E5FF006A0050020DF450026EF3CF33
:1038B00001F0500E0126030E022201C0E9FF02C0F2
:1038C000EAFFEE6AEF6A002A080E005CECE30F01E3
:1038D0004E6B0F014E894E8B4E837F824E817E92BE
:1038E0007D8292969294929292909398929CE4CF39
:1038F00002F0E4CF01F0E4CF00F0120000C0E5FFD9
:1039000001C0E5FF02C0E5FF006E390E040111257C
:10391000016E026A040E022201C0E9FF02C0EAFF42
:1039200000C0EFFF220E115D01E2112B00500A0AC8
:103930000FE104011151E56E800EE56E040EE56E97
:10394000390EE56ED2EC12F0040EE1260401116B83
:10395000E4CF02F0E4CF01F0E4CF00F01200040164
:103960000C6B04010D6B04010E69928A899A928A8C
:10397000766A3F0E756E7086728A7284728C72904F
:10398000718C718E03017F6B0301796B03017C6B7A
:1039900003017D6B03017E6B000EE56A50EC20F0A5
:1039A0000401106FE652A598A59A010E04010F6F4D
:1039B0000401316B326B2F0E336F5EEC20F012007E
:1039C00000C0E5FF01C0E5FF02C0E5FF04C0E5FF60
:1039D00035EC1DF0006E080E005C14E235EC1DF0B5
:1039E000016A026E35EC1DF0046A012604500222C1
:1039F0000250E56E0150E56E0050E56E1AEC1CF0C9
:103A0000030EE126E4CF04F0E4CF02F0E4CF01F0AE
:103A1000E4CF00F0120004010A510401836F040195
:103A20000B510401846FD650816FD750826F835140
:103A300004010A1905E10401845104010B190CE089
:103A400004010A510401836F04010B510401846FC6
:103A5000D650816FD750826F84C4E9FF83C4F4FFCE
:103A600082C4F3FF04018151120000C0E5FF01C0D0
:103A7000E5FF03017D510301861905E003017D5136
:103A800003017C1902E1E86A15D07DC300F003014F
:103A90007D2B016A600E0026000E012200C0E9FFA6
:103AA00001C0EAFFEFCF00F07D51800A02E103017F
:103AB0007D6B0050E4CF01F0E4CF00F01200D8CFCE
:103AC000E5FFE0CFE5FFE56EF3CFE5FFF4CFE5FFDF
:103AD000E9CFE5FFEACFE5FFFACFE5FFFBCFE5FF52
:103AE00038EC0BF0EFEC20F0E4CFFBFFE4CFFAFF73
:103AF000E4CFEAFFE4CFE9FFE4CFF4FFE4CFF3FF44
:103B0000E450E4CFE0FFE4CFD8FF100000C0E5FFB1
:103B1000ECEC20F00401896B806B8983006A89B327
:103B2000002A0050010BE844F46E8051FD0BF410A4
:103B3000806FD58ED59CD59AD588D596D594D582CB
:103B4000D580F28AF184D08EF28EF28CBA80FF0E8C
:103B5000BB68BA84E4CF00F01200D9CFE5FFE1CF13
:103B6000D9FF00C0E5FF01C0E5FF020EDBCF00F08A
:103B70000050020DF450016EF3CF00F0000E00264D
:103B8000030E012200C0E9FF01C0EAFFEECF00F002
:103B9000EFCF01F001C0F3FF0050E4CF01F0E4CF1C
:103BA00000F0E4CFD9FF1200D9CFE5FFE1CFD9FF74
:103BB00000C0E5FF01C0E5FF020EDBCF00F00050C2
:103BC000020DF450016EF3CF00F0E00E0026000E5F
:103BD000012200C0E9FF01C0EAFFEECF00F0EFCF05
:103BE00001F001C0F3FF0050E4CF01F0E4CF00F09A
:103BF000E4CFD9FF1200D9CFE5FFE1CFD9FF00C054
:103C0000E5FF01C0E5FF020EDBCF00F00050020D22
:103C1000F450016EF3CF00F0500E0026030E012287
:103C200000C0E9FF01C0EAFFEECF00F0EFCF01F0E6
:103C300001C0F3FF0050E4CF01F0E4CF00F0E4CF87
:103C4000D9FF1200D9CFE5FFE1CFD9FF00C0E5FFD2
:103C500001C0E5FF02C0E5FF020EDBCF00F067C345
:103C600001F068C302F00301673F01D0682B0050E8
:103C7000E56E0150E56E48EC1EF0E652E652E4CFE8
:103C800002F0E4CF01F0E4CF00F0E4CFD9FF12005E
:103C9000D9CFE5FFE1CFD9FF00C0E5FF020EDBCFB2
:103CA00000F0030EDBCFA8FF00C0A9FFA69EA69CD4
:103CB000A684F29EF29C550EA76EAA0EA76EA6824F
:103CC000A6A202D00000FCD7A694F28EF28CE4CF1C
:103CD00000F0E4CFD9FF1200E8AE0AD0F3CFEAFF3C
:103CE000EE50EECFF3FFEECFF4FFEECFE9FF120080
:103CF000E8BC05EF21F0E9CFF6FFF3CFF7FFF86E50
:103D00000900F5500900F5CFF3FF0900F5CFF4FFE6
:103D10000900F5CFE9FF120000C0E5FF01C0E5FF93
:103D200004010C5104010D1902E1E86A0FD0000EE4
:103D300004010D25006E016A010E012200C0E9FF99
:103D400001C0EAFFEFCF00F00D2B0050E4CF01F0EF
:103D5000E4CF00F01200F2CFEAFFF29EA69EA69CEE
:103D6000A684E9CFA9FFF3CFAAFFE4CFA8FFBDEC5B
:103D700020F0F4CFA8FFBDEC20F0F6CFA8FFBDECFB
:103D800020F0F7CFA8FFBDEC20F0A694EABEF28E9B
:103D90001200F2CFF6FFF29EA69EA69CE9CFA9FFE5
:103DA000F3CFAAFFA680A850A94AAA2AA680A8CF26
:103DB000F3FFA94AAA2AA680A8CFF4FFA94AAA2AF3
:103DC000A680A8CFEAFFF6BEF28E1200E8AE08D0B9
:103DD000F3CFEAFFEE50EECFF3FFEECFF4FF120089
:103DE000E8BC0DEF21F0E9CFF6FFF3CFF7FFF86E57
:103DF0000900F5500900F5CFF3FF0900F5CFF4FFF6
:103E00001200F2CFEAFFF29EA69EA69CA684E9CFFE
:103E1000A9FFF3CFAAFFE4CFA8FFBDEC20F0F4CFB9
:103E2000A8FFBDEC20F0F6CFA8FFBDEC20F0A694D3
:103E3000EABEF28E1200D9CFE5FFE1CFD9FF00C074
:103E4000E5FF020EDBCF00F000C010F40050E56E7D
:103E5000000EE56A48EC1EF0E652E652E4CF00F0B0
:103E6000E4CFD9FF1200F2CFF6FFF29EA69EA69CE9
:103E7000E9CFA9FFF3CFAAFFA680A850A94AAA2A92
:103E8000A680A8CFF3FFA94AAA2AA680A8CFF4FF4C
:103E9000F6BEF28E120000C0E5FF01C0E5FF600E25
:103EA00003017D25006E016A000E012200C0E9FFBA
:103EB00001C0EAFFEFCF00F00050E4CF01F0E4CF03
:103EC00000F01200D9CFE5FFE1CFD9FF00C0E5FF38
:103ED000020EDBCF00F0610E005C05E37B0E005CA0
:103EE00002E2010E01D0E86AE4CF00F0E4CFD9FF8E
:103EF000120000C0E5FF01C0E5FF67C300F068C322
:103F000001F00301673F01D0682B0050E56E50ECD3
:103F100020F0E652E4CF01F0E4CF00F01200D9CF58
:103F2000E5FFE1CFD9FF00C0E5FF020EDBCF00F0D7
:103F300000C00FF4005004E15EEC20F0A39AA398B7
:103F4000E4CF00F0E4CFD9FF1200E8AE06D0F3CF03
:103F5000EAFFEE50EECFF3FF1200E8BC03EF21F0D2
:103F6000E9CFF6FFF3CFF7FFF86E0900F55009002F
:103F7000F5CFF3FF1200F2CFEAFFF29EA69EA69CB9
:103F8000A684E9CFA9FFF3CFAAFFE4CFA8FFBDEC39
:103F900020F0F4CFA8FFBDEC20F0A694EABEF28E8C
:103FA000120042320000000000000000000000008B
:103FB000FF000000000200020000004200000000BC
:103FC0000000000000000000FF03000012EEFFF000
:103FD00022EEFFF0F86AA68EA69CE9680E0EEA6E45
:103FE0000068000EED6A0050FDE1E4EC18F006EC0C
:103FF00000F0FFD7F2CFF6FFF29EA69EA69CE9CF77
:10400000A9FFF3CFAAFFA680A850A94AAA2AA68092
:10401000A8CFF3FFF6BEF28E1200F2CFEAFFF29EB7
:10402000A69EA69CA684E9CFA9FFF3CFAAFFE4CF62
:10403000A8FFBDEC20F0A694EABEF28E1200E8AE16
:104040000BD0F3CFEAFFE4CFEEFFF4CFEEFFF6CFD5
:10405000EEFFF7CFEEFF1200E8BC07EF21F01200F1
:10406000E8AE04D0F3CFEAFFEE501200E8BC01EF57
:1040700021F0E9CFF6FFF3CFF7FFF86E0900F55016
:104080001200E8AE09D0F3CFEAFFE4CFEEFFF4CFA1
:10409000EEFFF6CFEEFF1200E8BC0FEF21F01200AA
:1040A000D9CFE5FFE1CFD9FF020EDBCFA9FFA69C58
:1040B000A69EA680A850E4CFD9FF120072A2FED718
:1040C000928A745000007450719871887186A38A26
:1040D000A398120025642000F2CFF6FFF29EA69E60
:1040E000A69CE9CFA9FFF3CFAAFFA680A850F6BEF1
:1040F000F28E1200E8AE07D0F3CFEAFFE4CFEEFF76
:10410000F4CFEEFF1200E8BC0BEF21F01200700EAE
:10411000D36E9B8CFF0E9268936894689668626A6F
:10412000F19E120000C0E5FF74EC1BF0006E005021
:1041300001E1FF00E4CF00F012000F01456B900E8B
:104140000F01446F030E0F01436F0F01458F1200E3
:10415000E8AE05D0F3CFEAFFE4CFEEFF1200E8BCF3
:1041600009EF21F01200D9CFE5FFE1CFD9FF020E10
:10417000DBCF15F4E4CFD9FF1200550EA76EAA0EBF
:10418000A76EA682A6B2FED7A94AAA2A010E0301EB
:10419000776F1C0E0301676F686B120035EC1DF022
:1041A000320A02E1E0EC1CF012000301776B1C0EF6
:1041B0000301676F686B12000100A23F000000045A
:1041C00000002900000086EC1DF0AFEC1CF012008E
:1041D000ACA2FED7AD6E120087EC20F0120011ECFD
:1041E00021F012004FEC14F0120003017D51120077
:1041F00003018751120004010F511200E8CF7FFF25
:1042000012006CEF20F0FAEF1FF0C9EF1EF0ABEFD9
:104210001EF00DEF20F0BBEF1FF033EF1FF001EFAA
:044220001FF0120079
:020000040030CA
:010006008574
:00000001FF
