:020000040000FA
:1000000070EF38F0C96E120035EF34F0F8EC17F0ED
:1000100089EC19F0FDD7120095EF36F0D9CFE5FF46
:10002000E1CFD9FF00C0E5FF01C0E5FF02C0E5FF59
:1000300003C0E5FF04C0E5FF05C0E5FF06C0E5FF1E
:1000400007C0E5FF08C0E5FF09C0E5FF0AC0E5FFFE
:100050000BC0E5FF0CC0E5FF0DC0E5FF0EC0E5FFDE
:100060000FC0E5FF10C0E5FF11C0E5FF12C0E5FFBE
:1000700013C0E5FF14C0E5FF15C0E5FF16C0E5FF9E
:1000800017C0E5FF18C0E5FF19C0E5FF1AC0E5FF7E
:100090001BC0E5FF1CC0E5FF1DC0E5FF1EC0E5FF5E
:1000A0001FC0E5FF20C0E5FF21C0E5FF22C0E5FF3E
:1000B00023C0E5FF24C0E5FF25C0E5FF26C0E5FF1E
:1000C00027C0E5FF020EDBCF00F0030EDBCF01F00F
:1000D000040EDBCF02F00250086E0150076E005094
:1000E000066EE56A100EE56E0850E56E0750E56E87
:1000F0000650E56E800EE56E050EE56E100EE56E9F
:10010000CFEC29F0080EE12618C503F019C504F05C
:100110001AC505F01BC506F003C007F004C008F0BF
:1001200005C009F006C00AF0D8800AAED8900AE3EC
:100130000A1E091E081E076C05E1082A03E1092AA8
:10014000D8B40A2A10C50BF011C50CF0E86A0501F5
:1001500011BFFF0E0D6E0E6ED8901431106E13315C
:100160000F6ED89010320F321551E840E840C00BA6
:1001700010121541E8403F0BE8BAC009116E126A2F
:1001800011BE12680F500B5C0F6E10500C58106EA1
:1001900011500D58116E12500E58126ED89012AEAA
:1001A000D880D8A04ED01250800F800F08E1000EEA
:1001B000115C05E1000E105C02E1010E0F5CD8B08D
:1001C00040D00A340A30166E0930156E0830146EAD
:1001D0000730136E1EC517F01FC518F0E86A050139
:1001E0001FBFFF0E196E800FF36E1650800FF35C69
:1001F00008E11550195C05E11450185C02E1135038
:10020000175C1FE30C50156E15260D34166ED89032
:10021000153616360B44E844FC0B146E0B50E844BC
:10022000E844030B15120501126B1450136F15509F
:10023000146F1650156F186B196B1A6B1B6BEBEF65
:1002400004F0D89009300C6E08300B6ED8900C3248
:100250000B32D8900C320B320A50E838E844E00BED
:100260000C120A38E8441F0BE8B8E0090E6A08507F
:10027000076E0950086ED89008320732D8900832BD
:1002800007320A50E840E840C00B08120A40E84034
:100290003F0B0BC009F00CC00AF0E86A0CBEFF0E61
:1002A0000D6E0E6E07C013F008C014F0E86A08BEA9
:1002B000FF0E156EE56E1550E56E1450E56E135089
:1002C000E56E0E50E56E0D50E56E0A50E56E095074
:1002D000E56E6DEC1EF0096EF3CF0AF0F4CF0DF071
:1002E000E9CF0EF0080EE1261EC513F01FC514F06D
:1002F000E86A05011FBFFF0E156E166EE56E1550FC
:10030000E56E1450E56E1350E56E0E50E56E0D501F
:10031000E56E0A50E56E0950E56E53EC20F0096E6B
:10032000F3CF0AF0080EE12616C50DF017C50EF042
:10033000E86A050117BFFF0E176E0E501B6E1B26D5
:1003400017341C6ED8901B361C360D44E844FC0B49
:100350001A6E0D50E844E844030B1B12196AD8804A
:1003600006AED890D8B07AD109C00DF00AC00EF010
:10037000E86A0ABEFF0E176E800FF36E1250800FF0
:10038000F35C08E11150175C05E110500E5C02E1CE
:100390000F500D5CD8B03AD10650800FF36E1C5050
:1003A000800FF35C08E11B50055C05E11A50045C0A
:1003B00002E11950035CD8B002D11CC50DF01DC577
:1003C0000EF0E86A05011DBFFF0E176E186E035090
:1003D0000D2604500E2205501722065018220D50EB
:1003E0000501186F0E50196F17501A6F18501B6FB8
:1003F0001EC50DF01FC50EF01CC517F01DC518F069
:100400000E50800FF36E1850800FF35C02E117500E
:100410000D5CD8B0B8D018C51DF019C51EF01AC5AE
:100420001FF01BC520F0D8901F30226E1E30216EA9
:10043000D89022322132D890223221322050E8380E
:10044000E844E00B22122038E8441F0BE8B8E0092A
:10045000246A21500B6E22500C6ED8901F30226EF1
:100460001E30216ED890223221322050E840E840E0
:10047000C00B22122040E8403F0B2150076E225053
:10048000086E0BC021F00CC022F0E86A0CBEFF0E13
:10049000236E246E07C025F008C026F0E86A08BE67
:1004A000FF0E276EE56E2750E56E2650E56E25504F
:1004B000E56E2450E56E2350E56E2250E56E215026
:1004C000E56E6DEC1EF0216EF3CF22F0F4CF23F039
:1004D000E9CF24F0080EE1260DC025F00EC026F06D
:1004E000E86A0EBEFF0E276EE56E2750E56E2650B9
:1004F000E56E2550E56E2450E56E2350E56E2250E2
:10050000E56E2150E56E53EC20F0216EF3CF22F022
:10051000080EE1262150096E22500A6E09C021F012
:100520000AC022F0E86A0ABEFF0E236E246E125043
:10053000800FF36E2450800FF35C08E12350115CB0
:1005400005E12250105C02E121500F5C1CE20D50CD
:10055000175C0D6E0E5018580E6EE86A0EBEFF0E38
:10056000176E186E0D501D5E0E501E5A17501F5AF2
:100570001850205A1D500501186F1E50196F1F503A
:100580001A6F20501B6F1C50800FF36E05011B511A
:10059000800FF35C08E11A511B5C05E119511A5CEC
:1005A00002E11851195CD8B0EFD119500501186F4C
:1005B0001A50196F1B501A6F1C501B6FE5D11C503D
:1005C000800FF36E0650800FF35C08E105501B5C52
:1005D00005E104501A5C02E10350195CD8B0D4D193
:1005E0001350035C0D6E145004580E6E15500558D0
:1005F000176E16500658186E0D500501186F0E50E4
:10060000196F17501A6F18501B6FBED11CC50DF013
:100610001DC50EF0E86A05011DBFFF0E176E186EAE
:1006200013500D2614500E22155017221650182262
:100630000D50035C0D6E0E5004580E6E1750055889
:10064000176E18500658186E0D500501186F0E5091
:10065000196F17501A6F18501B6F96D10A1E096C2C
:10066000D8B40A2A09C00DF00AC00EF0E86A0ABE22
:10067000FF0E176E186E1250800FF36E1850800F19
:10068000F35C08E11750115C05E10E50105C02E1CB
:100690000D500F5CD8B055D11C1C186E1B1C176E6A
:1006A0001A1C0E6E191C0D6E0D2A04E10E2A02E1B1
:1006B000174A182A1850800FF36E0650800FF35C0B
:1006C00008E10550175C05E104500E5C02E103509F
:1006D0000D5CD8B00FD11CC519F01DC51AF0E86A21
:1006E00005011DBFFF0E1B6E1C6E1950035C196EB9
:1006F0001A5004581A6E1B5005581B6E1C50065891
:100700001C6E19500501186F1A50196F1B501A6F83
:100710001C501B6F1EC519F01FC51AF01CC51BF01D
:100720001DC51CF01A50800FF36E1C50800FF35C37
:1007300002E11B50195CD8B0C1D018C51DF019C515
:100740001EF01AC51FF01BC520F0D8901F30226E76
:100750001E30216ED89022322132D890223221329E
:100760002050E838E844E00B22122038E8441F0B00
:10077000E8B8E009236E246A23BE2468241E231EE1
:10078000221E216C05E1222A03E1232AD8B4242A5F
:1007900021500B6E22500C6ED8901F30226E1E30EE
:1007A000216ED890223221322050E840E840C00B20
:1007B00022122040E8403F0B221E216C02E1222A37
:1007C00000E12150076E2250086EE86A0CBEFF0E51
:1007D000216E226EE86A08BEFF0E236EE56E23507E
:1007E000E56E0850E56E0750E56E2250E56E21502B
:1007F000E56E0C50E56E0B50E56E6DEC1EF0076E6D
:10080000F3CF08F0F4CF0BF0E9CF0CF0080EE1269F
:1008100019C021F01AC022F0E86A1ABEFF0E236E3A
:10082000E56E2350E56E2250E56E2150E56E0C50CA
:10083000E56E0B50E56E0850E56E0750E56E53EC23
:1008400020F0076EF3CF08F0080EE126081E076CB3
:1008500002E1082A00E10750096E08500A6EE86AB2
:100860000ABEFF0E076E800FF36E1250800FF35C0E
:1008700008E11150075C05E110500A5C02E10F50DD
:10088000095C1CE219501B5C196E1A501C581A6E38
:10089000E86A1ABEFF0E076E086E19501D261A5020
:1008A0001E2207501F22085020221D500501186FDC
:1008B0001E50196F1F501A6F20501B6F05011B51DE
:1008C000800FF36E1850800FF35C08E117501A5D2B
:1008D00005E10E50195D02E10D50185DD8B054D0FD
:1008E0000D500501186F0E50196F17501A6F1850E0
:1008F0001B6F4AD00650800FF36E1850800FF35CC8
:1009000008E11750055C05E10E50045C02E10D5052
:10091000035CD8B039D013500324076E1450042060
:10092000086E15500520096E165006200A6E0750F5
:100930000501186F0850196F09501A6F0A501B6F84
:1009400023D01CC507F01DC508F0E86A05011DBFCE
:10095000FF0E096E0A6E0750132608501422095024
:1009600015220A5016221350032614500422155043
:1009700005221650062203500501186F0450196F06
:1009800005501A6F06501B6FD89005011A31046E7E
:100990001931036ED890043203321B51E840E8400D
:1009A000C00B04121B41E8403F0BE8BAC009056EBA
:1009B000066A05BE0668125103261351042214511B
:1009C0000522155106220350126F0450136F055073
:1009D000146F0650156FE56A100EE56E800EE56E19
:1009E000050EE56E100EE56E0250E56E0150E56EE7
:1009F0000050E56ECFEC29F0080EE126E4CF27F099
:100A0000E4CF26F0E4CF25F0E4CF24F0E4CF23F0C8
:100A1000E4CF22F0E4CF21F0E4CF20F0E4CF1FF0C8
:100A2000E4CF1EF0E4CF1DF0E4CF1CF0E4CF1BF0C8
:100A3000E4CF1AF0E4CF19F0E4CF18F0E4CF17F0C8
:100A4000E4CF16F0E4CF15F0E4CF14F0E4CF13F0C8
:100A5000E4CF12F0E4CF11F0E4CF10F0E4CF0FF0C8
:100A6000E4CF0EF0E4CF0DF0E4CF0CF0E4CF0BF0C8
:100A7000E4CF0AF0E4CF09F0E4CF08F0E4CF07F0C8
:100A8000E4CF06F0E4CF05F0E4CF04F0E4CF03F0C8
:100A9000E4CF02F0E4CF01F0E4CF00F0E4CFD9FFDF
:100AA0001200D9CFE5FFE1CFD9FF00C0E5FF01C0BB
:100AB000E5FF02C0E5FF03C0E5FF04C0E5FF05C098
:100AC000E5FF06C0E5FF07C0E5FF08C0E5FF09C078
:100AD000E5FF0AC0E5FF0BC0E5FF0CC0E5FF0DC058
:100AE000E5FF0EC0E5FF0FC0E5FF10C0E5FF11C038
:100AF000E5FF12C0E5FF13C0E5FF14C0E5FF15C018
:100B0000E5FF16C0E5FF17C0E5FF18C0E5FF19C0F7
:100B1000E5FF1AC0E5FF1BC0E5FF1CC0E5FF1DC0D7
:100B2000E5FF1EC0E5FF020EDBCF00F0030EDBCFBA
:100B300001F0040EDBCF02F0050EDBCF03F0060E52
:100B4000DBCF04F0070EDBCF05F0080EDBCF06F09D
:100B5000090EDBCF07F00A0EDBCF08F0096A0A6A3C
:100B600002C00DF00D50800A0DE102500501936F97
:100B70000150926F0050916F050E016E910E006E44
:100B8000800E026E03C0E9FF04C0F3FF0550BAEC0B
:100B900038F00B6E0B50D8B407EF09F00B50250A54
:100BA00002E0EEEF08F00C6A0D6A0E6A0F6A106A36
:100BB0000A0E116E126A136A146A200E156E1668F8
:100BC000176A2B0E186E032A02E3044A052A03C093
:100BD000E9FF04C0F3FF0550BAEC38F0196E250A9E
:100BE00013E11950E56E0250E56E0150E56E0050BC
:100BF000E56EB6EC27F0040EE126094A0A2A032A1C
:100C000002E3044A052ABED71950300A06E1300E25
:100C1000156E032A02E3044A052A03C0E9FF04C053
:100C2000F3FF0550BAEC38F02D0A06E1010E146E00
:100C3000032A02E3044A052A03C0E9FF04C0F3FFC4
:100C40000550BAEC38F0200A08E1010E176E200EAC
:100C5000186E032A02E3044A052A03C0E9FF04C010
:100C6000F3FF0550BAEC38F02B0A06E1010E176EBF
:100C7000032A02E3044A052A03C0E9FF04C0F3FF84
:100C80000550BAEC38F0196E310E195C2BE33A0EB0
:100C9000195C28E203C019F004C01AF005C01BF06B
:100CA00019C0E9FF1AC0F3FF1B50BAEC38F01C6EF4
:100CB000300E1C5C11E33A0E1C5C0EE213500A0D60
:100CC000F3CF1DF01C501D26D00E1D24136E192AC3
:100CD00002E31A4A1B2AE4D719C003F01AC004F031
:100CE0001BC005F003C0E9FF04C0F3FF0550BAECD8
:100CF00038F02E0A2DE1032A02E3044A052A166A77
:100D000003C019F004C01AF005C01BF019C0E9FFB8
:100D10001AC0F3FF1B50BAEC38F01C6E300E1C5C8E
:100D200011E33A0E1C5C0EE216500A0DF3CF1DF0D3
:100D30001C501D26D00E1D24166E192A02E31A4AD5
:100D40001B2AE4D719C003F01AC004F01BC005F039
:100D500003C0E9FF04C0F3FF0550BAEC38F0196E88
:100D60006C0A07E1010E0C6E032A02E3044A052A0D
:100D700009D01950680A06E1010E0E6E032A02E33B
:100D8000044A052A03C0E9FF04C0F3FF0550BAEC8A
:100D900038F0750A06E1010E106E032A02E3044AD8
:100DA000052A03C0E9FF04C0F3FF0550BAEC38F090
:100DB000196E730A05E1010E0D6E200E156E3FD0FF
:100DC0001950780A03E1100E116E39D01950580AE3
:100DD00005E1100E116E010E126E31D01950630A2A
:100DE00002E1116A2CD019506F0A03E1080E116E4E
:100DF00026D01950660A03E1010E0F6E20D019505B
:100E0000640A1DE01950690A1AE0105005E0FF0E4F
:100E100003260422052213D01950E56E0250E56E18
:100E20000150E56E0050E56EB6EC27F0040EE126A9
:100E3000094A0A2A032A02E3044A052AA3D60D50C6
:100E400021E00650030F0D6E000E0720196E000EF4
:100E500008201A6E0DC006F019C007F01AC008F07D
:100E6000FD0E0D26FF0E19221A220DC0E9FF19C032
:100E7000F3FF1A5058EC37F00D6EF3CF19F0F4CFA2
:100E80001AF0FDD00F500DE0000E1A6E120E196E02
:100E9000960E0D6E040E0626000E07220822166816
:100EA000EED016680C5023E00650040F0C6E000EB6
:100EB00007200F6E000E08201B6E0CC006F00FC03E
:100EC00007F01BC008F0FC0E0C26FF0E0F221B22A1
:100ED0000CC0E9FF0FC0F3FF1B50DEEC36F00C6EC8
:100EE000F3CF0FF0F4CF1BF0E9CF1CF067D00E501A
:100EF0002FE00650020F0E6E000E07201D6E000E32
:100F000008201E6E0EC006F01DC007F01EC008F0BF
:100F1000FE0E0E26FF0E1D221E220EC0E9FF1DC072
:100F2000F3FF1E5030EC38F00E6E0EC00CF00F6A5E
:100F30001B6A1C6A11500A0A03E11050D8B43ED053
:100F40000C500E6E0EC00CF00F6A1B6A1C6A36D075
:100F50000650020F0E6E000E07201D6E000E0820B8
:100F60001E6E0EC006F01DC007F01EC008F0FE0E7B
:100F70000E26FF0E1D221E220EC0E9FF1DC0F3FF2C
:100F80001E5030EC38F00E6EF3CF1DF00EC00CF09A
:100F90001DC00FF0E86A1DBEFF0E1B6E1C6E1150C7
:100FA0000A0A02E110500AE00C500E6E0F501D6E3E
:100FB0000EC00CF01DC00FF01B6A1C6A050E196EE6
:100FC0004B0E0D6E800E1A6E1150D8B440D01050DA
:100FD00013E01150E56E050EE56E4B0EE56E1C50EC
:100FE000E56E1B50E56E0F50E56E0C50E56E77EC2C
:100FF0001FF0070EE12612D01150E56E050EE56ECA
:101000004B0EE56E1C50E56E1B50E56E0F50E56E05
:101010000C50E56E0FEC2EF0070EE12617502FE076
:101020000DC0E9FF19C0F3FF1A50BAEC38F02D0AD1
:1010300026E0FF0E0D2619221A2218C0E5FF0DC06A
:10104000E9FF19C0F3FF1A504BEC39F018D00CC06F
:10105000E5FF0DC0E9FF19C0F3FF1A504BEC39F062
:101060000D50010F0C6E000E19200E6E000E1A208E
:10107000E56A0CC0E9FF0EC0F3FF4BEC39F00DC080
:101080000CF019C00EF01AC00FF013C010F0105081
:1010900010E00CC0E9FF0EC0F3FF0F50BAEC38F0BF
:1010A000176E175006E00C2A02E30E4A0F2A1006AC
:1010B000EED710C013F014501EE109C00CF00AC0A6
:1010C0000EF010C00FF00F5010E01550E56E0250FA
:1010D000E56E0150E56E0050E56EB6EC27F0040EAB
:1010E000E1260C4A0E2A0F06EED70CC009F00EC0FE
:1010F0000AF00FC013F016C00CF00DC00DF019C0AF
:101100000EF01AC00FF009C010F00AC015F00DC0A3
:10111000E9FF0EC0F3FF0F50BAEC38F0166E165010
:10112000D8B43ED00CC016F0176A161E171E165003
:10113000171005E00CC016F00C06165031E00DC07B
:10114000E9FF0EC0F3FF0F50BAEC38F0116E1250E9
:1011500010E01150E56EEDEC37F0166EE6521650C9
:1011600004E0DF0E1114166E02D011C016F016C086
:1011700011F01150E56E0250E56E0150E56E005021
:10118000E56EB6EC27F0040EE1260D2A02E30E4AC6
:101190000F2A104A152A1350D8B4B9D71306B7D757
:1011A00010C009F015C00AF014502BE010C00CF06C
:1011B00015C00DF013C00EF00E501FE0200EE56EAE
:1011C0000250E56E0150E56E0050E56EB6EC27F07A
:1011D000040EE1260C4A0D2A0E06EED70B50E56EE2
:1011E0000250E56E0150E56E0050E56EB6EC27F05A
:1011F000040EE126094A0A2A04D00CC009F00DC0E9
:101200000AF0032A02E3044A052AC2EF05F00AC0E5
:10121000F3FF0950E4CF1EF0E4CF1DF0E4CF1CF043
:10122000E4CF1BF0E4CF1AF0E4CF19F0E4CF18F0CC
:10123000E4CF17F0E4CF16F0E4CF15F0E4CF14F0CC
:10124000E4CF13F0E4CF12F0E4CF11F0E4CF10F0CC
:10125000E4CF0FF0E4CF0EF0E4CF0DF0E4CF0CF0CC
:10126000E4CF0BF0E4CF0AF0E4CF09F0E4CF08F0CC
:10127000E4CF07F0E4CF06F0E4CF05F0E4CF04F0CC
:10128000E4CF03F0E4CF02F0E4CF01F0E4CF00F0CC
:10129000E4CFD9FF12003C4E4F20464C4F41543E04
:1012A0000000D9CFE5FFE1CFD9FF00C0E5FF01C0C5
:1012B000E5FF02C0E5FF03C0E5FF04C0E5FF05C090
:1012C000E5FF06C0E5FF07C0E5FF08C0E5FF09C070
:1012D000E5FF0AC0E5FF0BC0E5FF0CC0E5FF0DC050
:1012E000E5FF020EDBCF00F0030EDBCF01F0040EB2
:1012F000DBCF02F00050090F066E000E0120076ED2
:10130000000E0220086E0B6E07500A6E0650096E22
:10131000E56A0D0EE56E0B50E56E0A50E56E09505C
:10132000E56E800EE56E050EE56E300EE56ECFECD7
:1013300029F0080EE12600C009F001C00AF002C041
:101340000BF0E56AE56E0B50E56E0A50E56E09504C
:10135000E56E800EE56E040EE56E810EE56ECFEC57
:1013600029F0080EE12681C403F00350010A04E0CD
:101370000350030A01E018D105014551036E46519F
:10138000046E05013851056E3951096E0550035C34
:1013900005019C6F095004589D6F050145510501D9
:1013A000386F050146510501396F050147510501A7
:1013B0003A6F0501485105013B6F05019C519D1194
:1013C000D8A47ED0A6EC35F0036EF3CF04F0F4CFB2
:1013D00005F0E9CF09F005013D510A6E3E510B6E53
:1013E0003F510C6E40510D6E0A50035E0B50045A73
:1013F0000C50055A0D50095A035005015B6F0450FB
:101400005C6F05505D6F7F0E09145E6F05013CB186
:1014100025D005015C355E31046E5D31036E043408
:1014200004320332000E04BEFF0E096E056E86C440
:101430000AF00B6A0C6A0D6A0D50800FF36E0950AA
:10144000800FF35C08E105500C5C05E104500B5C77
:1014500002E103500A5C02E205013C8105013CB156
:1014600049D034C503F035C504F036C505F037C59D
:1014700009F005015E51800FF36E0950800FF35C97
:1014800008E105505D5D05E104505C5D02E103503B
:101490005B5D08E203C05BF504C05CF505C05DF56B
:1014A00009C05EF5050149A304D0010E036E046A6C
:1014B00002D00368046803C09CF504C09DF51AD0EF
:1014C00005013C9141C55BF542C55CF543C55DF541
:1014D00044C55EF505015B510501346F05015C51A2
:1014E0000501356F05015D510501366F05015E513E
:1014F0000501376F05015E51800F800F08E1000E76
:101500005D5D05E1000E5C5D02E1010E5B5D06E2E2
:1015100005015F6B606B616B626B46D005015B51CF
:10152000036E5C51046E5D51056E5E51E56E0550B3
:10153000E56E0450E56E0350E56E010EE56E000E9B
:10154000E56AE56AE56A7FEC25F0036EF3CF04F007
:10155000F4CF05F0E9CF09F0080EE1269CC50AF0AA
:101560009DC50BF0E86A05019DBFFF0E0C6E0D6E68
:101570000950E56E0550E56E0450E56E0350E56ECA
:101580000D50E56E0C50E56E0B50E56E0A50E56EA1
:101590006DEC1EF005015F6FF3CF60F5F4CF61F5E0
:1015A000E9CF62F5080EE126020E0401815DD8A0A4
:1015B00045D1050149A142D10050230F036E000E11
:1015C0000120046E000E0220E56E0450E56E03500B
:1015D000E56E0EEC00F0030EE1260050230F036EC3
:1015E000000E0120046E000E0220056E020E03267E
:1015F000000E0422052203C0E9FF04C0F3FF0550DA
:10160000DEEC36F0F3CF04F0F4CF05F0E9CF09F0CB
:101610000450036E0550046ED89004320332D89003
:10162000043203320950E840E840C00B041209407C
:10163000E8403F0BE8BAC009056E096A05BE0968B3
:1016400005014551035C0501636F050146510458CE
:101650000501646F0501475105580501656F0501D6
:10166000485109580501666FD88066AFD89022E3CB
:101670000401831D046E821D036E034A042AE86A76
:1016800004BEFF0E056E096E05016651800FF36EF4
:101690000950800FF35C08E10550655D05E10450D9
:1016A000645D02E10350635D05E30501636B646BF8
:1016B000656B666B05016651800F800F08E1000EB7
:1016C000655D05E1000E645D02E1010E635D1EE3F0
:1016D00082C403F083C404F0E86A040183BFFF0EF0
:1016E000056E800FF36E05016651800FF35C08E113
:1016F0006551055C05E16451045C02E16351035CE2
:1017000005E30501636B646B656B666B04018751D0
:1017100009E0E86CD89005016337643765376637B0
:10172000010FF9E305016651800F800F08E1000EFB
:10173000655D05E1800E645D02E1000E635D07E317
:10174000050163697F0E646F656B666B14D00501DC
:101750006651800F810F08E1FF0E655D05E1800E87
:10176000645D02E1000E635D06E20501636B800EBD
:10177000646F656966690050330F036E000E0120C7
:10178000046E000E0220056E05016351096E64515E
:10179000E56E0950E56E0550E56E0450E56E0350A8
:1017A000E56EDCEC0CF0050EE12604018151030A24
:1017B00023E10050330F036E000E0120046E000E73
:1017C0000220056E0B0E0326000E0422052203C024
:1017D000E9FF04C0F3FF0550DEEC36F0F3CF04F070
:1017E000F4CF05F00450036E0550046E035005015C
:1017F000306F0450316F22D00050330F036E000E53
:101800000120046E000E0220056E0B0E0326000E52
:101810000422052203C0E9FF04C0F3FF0550DEECFB
:1018200036F0F3CF04F0F4CF05F00450036E05500A
:10183000046E03500501326F0450336F81C403F00E
:101840000350010A04E00350030A01E07DD030C5D3
:1018500003F031C504F0E86A050131BFFF0E056EE3
:10186000096E05015F51035C0501636F050160515D
:1018700004580501646F0501615105580501656F44
:101880000501625109580501666F800F800F08E15C
:10189000000E655D05E1800E645D02E1000E635D92
:1018A00007E3050163697F0E646F656B666B14D097
:1018B00005016651800F810F08E1FF0E655D05E1AE
:1018C000800E645D02E1000E635D06E20501636B5C
:1018D000800E646F656966690050440F036E000EE8
:1018E0000120046E000E0220056E05016351096E91
:1018F0006451E56E0950E56E0550E56E0450E56EE5
:101900000350E56EDCEC0CF0050EE126440E0026DB
:10191000000E012202220B0E0026000E01220222DE
:1019200000C0E9FF01C0F3FF0250DEEC36F0F3CF58
:1019300001F0F4CF02F00150006E0250016E005031
:101940000501326F0150336F0850086EE56A0D0EC5
:10195000E56E800EE56E050EE56E300EE56E085004
:10196000E56E0750E56E0650E56ECFEC29F0080EE7
:10197000E126E4CF0DF0E4CF0CF0E4CF0BF0E4CFA0
:101980000AF0E4CF09F0E4CF08F0E4CF07F0E4CFA9
:1019900006F0E4CF05F0E4CF04F0E4CF03F0E4CFA9
:1019A00002F0E4CF01F0E4CF00F0E4CFD9FF120061
:1019B00025642025640A0000D9CFE5FFE1CFD9FFD7
:1019C00000C0E5FF01C0E5FF02C0E5FF03C0E5FF81
:1019D00004C0E5FF05C0E5FF06C0E5FF07C0E5FF61
:1019E00008C0E5FF09C0E5FF0AC0E5FF0BC0E5FF41
:1019F0000CC0E5FF0DC0E5FF0EC0E5FF020EDBCF1A
:101A000000F0030EDBCF01F0040EDBCF02F0050E79
:101A1000DBCF03F0060EDBCF04F002500A6E01505C
:101A2000096E0050086EE56A110EE56E0A50E56E0B
:101A30000950E56E0850E56E800EE56E0F0EE56EFE
:101A4000230EE56ECFEC29F0080EE12632CF05F02B
:101A500033CF06F0E86A0F0133BFFF0E076E0501B2
:101A60006E6F06506D6F05506C6F6B6B03C005F0A9
:101A700004C006F0E86A04BEFF0E076E086E23CFAE
:101A800009F0E56AE56AE56A0950E56E0850E56E19
:101A90000750E56E0650E56E0550E56E6DEC1EF0E4
:101AA0000501676FF3CF68F5F4CF69F5E9CF6AF503
:101AB000080EE1260F012451D8B4E3D00450800F62
:101AC000800F02E1010E035C25E30F012951800F15
:101AD0007C0F08E1000E285D05E1000E275D02E1A4
:101AE000000E265D17E20F013151800FF36E0501E4
:101AF0006E51800FF35C0DE16D510F01305D09E116
:101B000005016C510F012F5D04E105016B510F01BF
:101B10002E5D33E3D88004AED890D8A043D00F0117
:101B20002951800F840F08E1000E285D05E1000EA9
:101B3000275D02E1010E265D35E305016E1D0C6E89
:101B40006D1D0B6E6C1D0A6E6B1D096E092A04E17A
:101B50000A2A02E10B4A0C2A0C50800FF36E0F0187
:101B60003151800FF35C08E130510B5C05E12F51DE
:101B70000A5C02E12E51095C15E205500F01262591
:101B8000096E065027210A6E075028210B6E085057
:101B900029210C6E0950266F0A50276F0B50286FB1
:101BA0000C50296F0350041031E126CF03F027CFEA
:101BB00004F028CF09F029CF0AF0E56AE56AE56A62
:101BC000100EE56E0A50E56E0950E56E0450E56EA4
:101BD0000350E56E53EC20F00B6EF3CF0CF0F4CF16
:101BE0000DF0E9CF0EF0080EE1260B50035E0C500D
:101BF000045A0D50095A0E500A5A03500F01266F0D
:101C00000450276F0950286F0A50296F0F01263999
:101C10000F0B036E2739046EF00B041A03262851AC
:101C2000E838F00B041228390F0B096E29390A6EB7
:101C3000F00B0A1A0926F00E0AB60A2624CF0BF07A
:101C4000E56AE56AE56A0B50E56E0A50E56E0950F3
:101C5000E56E0450E56E0350E56E6DEC1EF0036E0C
:101C6000F3CF04F0F4CF09F0E9CF0AF0080EE12633
:101C700003500501672704506823095069230A505F
:101C80006A230F012551D8B465D02A51055C05019E
:101C90006F6F0F012B5106580501706F0F012C510A
:101CA00007580501716F0F012D5108580501726F1A
:101CB000800F800F08E1010E715D05E1000E705D7F
:101CC00002E1000E6F5D06E305016F697069716BDB
:101CD000726B13D005017251800F810F08E1FF0E66
:101CE000715D05E1000E705D02E1000E6F5D05E2C1
:101CF00005016F6B706B7169726905016F516F251A
:101D0000036E7035046E7135096E72350A6E25CF1B
:101D10000BF0E56AE56AE56A0B50E56E0A50E56E80
:101D20000950E56E0450E56E0350E56E6DEC1EF053
:101D3000036EF3CF04F0F4CF09F0E9CF0AF0080EF8
:101D4000E1260350050167270450682309506923E1
:101D50000A506A2305500F012A6F06502B6F075057
:101D60002C6F08502D6F05016E51800FF36E050129
:101D70006A51800FF35C0DE1695105016D5D09E168
:101D80000501685105016C5D04E10501675105011C
:101D90006B5D11E205016B510F012E6F05016C5156
:101DA0000F012F6F05016D510F01306F05016E514D
:101DB0000F01316F3AD005016E1D066E6D1D056E67
:101DC0006C1D046E6B1D036E032A04E1042A02E1FC
:101DD000054A062A05016A51800FF36E0650800FEE
:101DE000F35C08E10550695D05E10450685D02E1BE
:101DF0000350675D0AE203500F012E6F04502F6FEE
:101E00000550306F0650316F10D0050167510F013A
:101E10002E6F050168510F012F6F050169510F01E8
:101E2000306F05016A510F01316FE56A110EE56EE1
:101E3000800EE56E0F0EE56E230EE56E0250E56E28
:101E40000150E56E0050E56ECFEC29F0080EE1265A
:101E5000E4CF0EF0E4CF0DF0E4CF0CF0E4CF0BF0C4
:101E6000E4CF0AF0E4CF09F0E4CF08F0E4CF07F0C4
:101E7000E4CF06F0E4CF05F0E4CF04F0E4CF03F0C4
:101E8000E4CF02F0E4CF01F0E4CF00F0E4CFD9FFDB
:101E90001200D9CFE5FFE1CFD9FF00C0E5FF01C0B7
:101EA000E5FF02C0E5FF03C0E5FF04C0E5FF05C094
:101EB000E5FF06C0E5FF07C0E5FF08C0E5FF09C074
:101EC000E5FF0AC0E5FF0BC0E5FF0CC0E5FF020E11
:101ED000DBCF00F0030EDBCF01F0040EDBCF02F00E
:101EE000036A046AD0EC35F0056EFE0A01E077D093
:101EF0003FEC31F0D0EC35F0066E030E065CD8A056
:101F00005AD0060E065CD8B056D0FD0E0624076ED9
:101F1000FA6AFB6A0734FA36E834FA36FC0B2E0FFD
:101F2000E56E1F0EFA22000EFB22E450F96E9DEFC3
:101F30000FF0AFEF0FF0C8EF0FF00050090F076E72
:101F4000000E0120086E000E022007C0E9FF08C045
:101F5000F3FF30EC38F0036EF3CF04F02CD00050D8
:101F6000090F076E000E0120086E000E0220096E98
:101F7000020E0726000E0822092207C0E9FF08C04A
:101F8000F3FF095030EC38F0036EF3CF04F013D0B8
:101F90000050070F076E000E0120086E000E022091
:101FA00007C0E9FF08C0F3FFBAEC38F0010B076E79
:101FB00007C003F0046A06C007F00450E56E035042
:101FC000E56EE56A0750E56E000EE56E190EE56EEA
:101FD000B00EE56E02EC33F0070EE1269AD1080E42
:101FE000055CD8B096D1FA6AFB6A0534FA36E83453
:101FF000FA36FC0B040FE56E200EFA22000EFB22CF
:10200000E450F96E12EF10F02DEF10F03FEF10F0EA
:1020100051EF10F083EF10F0B9EF10F0D8EF10F09F
:1020200035EF11F00050230F056E000E0120076EF2
:10203000000E0220E56E0750E56E0550E56E41EC9E
:1020400016F0030EE126020EE56E00C0E9FF01C0A6
:10205000F3FF02504BEC39F05CD10050330F056EAA
:10206000000E0120076E000E0220E56E0750E56E9F
:102070000550E56E0EEC1CF0030EE1264AD100502F
:10208000440F056E000E0120076E000E0220E56E63
:102090000750E56E0550E56E0EEC1CF0030EE126D0
:1020A00038D10050090F056E000E0120076E000E9A
:1020B0000220086ED0EC35F00C6E0B6AE56A0CC09D
:1020C000F4FF05C0E9FF07C0F3FF085012EC39F038
:1020D000D0EC35F00A6A0B260A500C220BC0E5FF43
:1020E0000CC0F4FF05C0E9FF07C0F3FF085012EC75
:1020F00039F0010EE56E00C0E9FF01C0F3FF0250A8
:102100004BEC39F006D10050090F056E000E01208E
:10211000076E000E0220086E020E0526000E072232
:102120000822D0EC35F00C6E0B6AE56A0CC0F4FFA7
:1021300005C0E9FF07C0F3FF085012EC39F0D0ECFE
:1021400035F00A6A0B260A500C220BC0E5FF0CC0C2
:10215000F4FF05C0E9FF07C0F3FF085012EC39F0A7
:10216000E56A00C0E9FF01C0F3FF02504BEC39F013
:10217000D0D00050070F056E000E0120076E000E34
:102180000220086ED0EC35F0010BF46E05C0E9FFBB
:1021900007C0F3FF0850BAEC38F0FE0BF410E56E00
:1021A00005C0E9FF07C0F3FF08504BEC39F0B1D090
:1021B000D0EC35F0066E0050160F056E000E0120B3
:1021C000076E000E0220086E05500C0F096E000EFF
:1021D00007200A6E000E08200B6E0650D880E866B5
:1021E000D8900C6A0C360C50D880E866D8900C6AEF
:1021F0000C360C50010BF46E09C0E9FF0AC0F3FF66
:102200000B50BAEC38F0FE0BF410E56E09C0E9FF94
:102210000AC0F3FF0B504BEC39F00650010A01E005
:1022200078D0080E0526000E07220822E56AF46A17
:10223000F66AF76A05C0E9FF07C0F3FF0850A9EC8A
:1022400038F00050230F056E000E0120066E000EC0
:102250000220E56AE56AE56E0650E56E0550E56E1A
:1022600029EC27F0050EE12654D0D0EC35F0046EB1
:10227000036AD0EC35F0066A0326065004220050AB
:10228000160F056E000E0120066E000E0220076E6E
:1022900005500C0F086E000E0620096E000E072078
:1022A0000A6E08C0E9FF09C0F3FFBAEC38F0E88015
:1022B000E56E08C0E9FF09C0F3FF0A504BEC39F0A6
:1022C000080E0526000E0622072203C008F004C0EF
:1022D00009F008C0E5FF09C0F4FFF66AF76A05C017
:1022E000E9FF06C0F3FF0750A9EC38F0230E0026E3
:1022F000000E012202220450E56E0350E56E0250EA
:10230000E56E0150E56E0050E56E0EEC2CF0050E0A
:10231000E126E4CF0CF0E4CF0BF0E4CF0AF0E4CFF9
:1023200009F0E4CF08F0E4CF07F0E4CF06F0E4CF03
:1023300005F0E4CF04F0E4CF03F0E4CF02F0E4CF03
:1023400001F0E4CF00F0E4CFD9FF120000C0E5FFB8
:1023500001C0E5FF02C0E5FF03C0E5FF04C0E5FFE3
:1023600005C0E5FF06C0E5FF07C0E5FF08C0E5FFC3
:1023700009C0E5FF0AC0E5FFC2A204D0040116515E
:10238000DFEF13F004011751D8B42FD10401165117
:10239000020DF450016EF3CF00F0E00E0026000EA7
:1023A000012200C0E9FF01C0EAFFEECF00F0EFCF4D
:1023B00001F0280E1625026E036A040E032202C0E5
:1023C000E9FF03C0EAFFEFCF02F00250FF0A01E18C
:1023D00066D002380F0B036E920E0324046E056A5A
:1023E0000F0E0522066A920E03260F0E062203C068
:1023F000E9FF06C0EAFFEFCF03F00250066E070EBA
:102400000616010E076E06500DE006E6E86CD89041
:102410000736010FFDE306D0D89007BED8800732FB
:10242000010FFBE3071C066E0350061604C0E9FF0C
:1024300005C0EAFF06C0EFFF02380F0B036E890EDE
:102440000324046E056A0F0E0522066A890E032610
:102450000F0E062203C0E9FF06C0EAFFEFCF03F02C
:102460000250066E070E0616010E076E06500DE0AE
:1024700006E6E86CD8900736010FFDE306D0D89049
:1024800007BED8800732010FFBE3071C066E03501E
:10249000061604C0E9FF05C0EAFF06C0EFFF04010D
:1024A0001651020DF450046EF3CF03F0E00E032634
:1024B000000E042201340130066E0030056E063431
:1024C000063205320634063205320550005C056ED0
:1024D00006500158066EC3CF07F0086A075005265C
:1024E00008500622C4CF07F0086A07500A6E096A2E
:1024F000095005260A50062203C0E9FF04C0EAFF7E
:1025000005C0EEFF06C0EFFF04011251010A01E011
:102510006AD004011651020DF450046EF3CF03F09B
:10252000E00E0324056E000E0420066E05C0E9FFD0
:1025300006C0EAFFEECF00F0EFCF01F0750E0326E4
:10254000030E042203C0E9FF04C0EAFFEECF05F04A
:10255000EFCF06F09C0E0526D8A006060150800F8E
:10256000F36E0650800FF35C02E10550005C0EE252
:102570000050640F056E000E0120066E03C0E9FFD7
:1025800004C0EAFF05C0EEFF06C0EFFF04011651CC
:10259000020DF450046EF3CF03F0950E0326030EE4
:1025A000042203C0E9FF04C0EAFFEECF05F0EFCF3D
:1025B00006F0640E0526D8B0062A0650800FF36E8A
:1025C0000150800FF35C02E10050055C0CE29C0EB0
:1025D0000026D8A0010603C0E9FF04C0EAFF00C03E
:1025E000EEFF01C0EFFF0401176B0401162B100E64
:1025F000165D01E3166B04011639E8441F0B006EEB
:10260000016A980E0026050E012200C0E9FF01C0F4
:10261000EAFFEFCF00F016C401F0070E0116010E1D
:10262000036E000E046E015006E0E86CD89003368D
:102630000436010FFCE3056A00500316055004162A
:1026400003500410D880E866D890036A033603501C
:10265000D8A4B3D0000E04011625006E016A050E41
:10266000012200C0E9FF01C0EAFFEFCF00F0004403
:10267000E844FC0B016E0128C26E280E1625006E80
:10268000016A040E012200C0E9FF01C0EAFFEFCF9A
:1026900002F00250FF0A01E18CD002380F0B006EED
:1026A000920E0024016E036A0F0E0322046A920E3A
:1026B00000260F0E042200C0E9FF04C0EAFFEFCF9E
:1026C00000F00250046E070E0416010E056E045051
:1026D0000DE006E6E86CD8900536010FFDE306D064
:1026E000D89005BED8800532010FFBE300500512DB
:1026F00001C0E9FF03C0EAFF05C0EFFF380E006E1E
:102700000F0E016E02380F0B036E046A0350002691
:1027100004500122380E056E0F0E066E055003267A
:102720000650042203C0E9FF04C0EAFFEFCF03F024
:10273000070E0216010E046E02500DE006E6E86C6C
:10274000D8900436010FFDE306D0D89004BED8809F
:102750000432010FFBE30350041200C0E9FF01C083
:10276000EAFF04C0EFFF0F0145830000000045931E
:102770000F0144930BC0E5FFF2CF0BF0F29E4481B2
:102780000000000000000000000000000000000049
:102790000000000000000000000000000000000039
:1027A000000000000000000044910BBEF28EE4CF58
:1027B0000BF0C282010E0401176F04011651E4CF21
:1027C0000AF0E4CF09F0E4CF08F0E4CF07F0E4CF5B
:1027D00006F0E4CF05F0E4CF04F0E4CF03F0E4CF5B
:1027E00002F0E4CF01F0E4CF00F0120000C0E5FFFA
:1027F00001C0E5FF02C0E5FF03C0E5FF04C0E5FF3F
:1028000005C0E5FF06C0E5FF07C0E5FF08C0E5FF1E
:1028100009C0E5FF0AC0E5FF0BC0E5FF0CC0E5FFFE
:10282000006A016A026A040E025CD8B0ECD101C0F1
:1028300003F0012A100E035CD8B0E5D10401182B77
:10284000100E185D01E3186B04011839E8441F0BE2
:10285000036E046A980E0326050E042203C0E9FFE6
:1028600004C0EAFFEFCF03F018C404F0070E04160B
:10287000010E056E000E066E045006E0E86CD8905E
:1028800005360636010FFCE3076A035005160750AC
:10289000061605500610D880E866D890056A0536F9
:1028A0000550D8A4C0D704011851020DF450046E8D
:1028B000F3CF03F0E00E0324056E000E0420066E35
:1028C00005C0E9FF06C0EAFFEECF05F0EFCF06F046
:1028D00015C407F007A09DD0750E0324076E030EE4
:1028E0000420086E07C0E9FF08C0EAFFEECF07F03A
:1028F000EFCF08F00650800FF36E0850800FF35CA6
:1029000002E10750055C03E2056A066A60D0950E95
:102910000326030E042203C0E9FF04C0EAFFEECF42
:1029200003F0EFCF04F00450800FF36E0650800FD9
:10293000F35C02E10550035C04E205683F0E066E9D
:1029400046D00750055C096E085006580A6EE86AC2
:102950000ABEFF0E0B6EE56E0B50E56E0A50E56E7B
:102960000950E56EE56AE56A400EE56E000EE56A1F
:102970006DEC1EF0096EF3CF0AF0F4CF0BF0E9CF47
:102980000CF0080EE1260750035C076E085004584F
:10299000086EE86A08BEFF0E036EE56E0350E56E32
:1029A0000850E56E0750E56E0C50E56E0B50E56E75
:1029B0000A50E56E0950E56E7FEC25F0036EF3CF0B
:1029C00004F0080EE1260350056E0450066E040163
:1029D0001451800FF36E0650800FF35C02E1055036
:1029E000135D03E3056A066A14D004011351FF085E
:1029F000036E3F0E1455046E0650800FF36E0450A4
:102A0000800FF35C02E10350055C03E305683F0EB1
:102A1000066E04011851020DF450046EF3CF03F05A
:102A2000550E0326030E042203C0E9FF04C0EAFF8B
:102A3000EECF03F0EFCF04F00350055C036E0450BB
:102A40000658046ED88004AED89004E3041E036CCC
:102A5000D8B4042A022A04011451800FF36E0450E2
:102A6000800FF35C02E10350135DD8B0DCD60401A3
:102A70001851020DF450086EF3CF07F0550E0726DB
:102A8000030E082207C0E9FF08C0EAFF05C0EEFFF9
:102A900006C0EFFF15C407F007A459D01851020D66
:102AA000F450086EF3CF07F0B50E0724096E030E3D
:102AB00008200A6E09C0E9FF0AC0EAFFEECF0BF05A
:102AC000EFCF0CF00B500C10D8B441D05C0E0726A1
:102AD000040E082207C0E9FF08C0EAFFEECF07F0A6
:102AE000EFCF08F00750055C036E08500658046EDF
:102AF00003101CE00450800F800F02E1010E035C04
:102B0000076A07360C50800F800F02E1010E0B5C44
:102B10000B6A0B3607500B1809E109C0E9FF0AC020
:102B2000EAFF03C0EEFF04C0EFFF7DD60401185199
:102B3000020DF450046EF3CF03F0B50E0326030E1E
:102B4000042203C0E9FF04C0EAFFEE6AEF6A15C47D
:102B500003F003A244D000500EE100C003F0002AAD
:102B6000046A190E0326040E042203C0E9FF04C000
:102B7000EAFF420EEF6E00C003F0002A046A190E4D
:102B80000326040E042204011851076E640E072662
:102B900003C0E9FF04C0EAFF07C0EFFF00C003F075
:102BA000002A046A190E0326040E04220650076E3A
:102BB00003C0E9FF04C0EAFF07C0EFFF00C003F055
:102BC000002A046A190E0326040E04220550076E1B
:102BD00003C0E9FF04C0EAFF07C0EFFF24D618C412
:102BE00003F00650E56E0550E56EE56A0350E56EAC
:102BF000000EE56E530EE56E920EE56E02EC33F0BC
:102C0000070EE12610D602C001F000501EE015C4E8
:102C100002F002A21AD000C002F0002A036A190EC4
:102C20000226040E032202C0E9FF03C0EAFF0A0ED7
:102C3000EF6E0050E56E800EE56E040EE56E190E27
:102C4000E56EC9EC28F0040EE1260150E4CF0CF04B
:102C5000E4CF0BF0E4CF0AF0E4CF09F0E4CF08F0C2
:102C6000E4CF07F0E4CF06F0E4CF05F0E4CF04F0C2
:102C7000E4CF03F0E4CF02F0E4CF01F0E4CF00F0C2
:102C80001200D9CFE5FFE1CFD9FF00C0E5FF01C0B9
:102C9000E5FF02C0E5FF03C0E5FF04C0E5FF05C096
:102CA000E5FF06C0E5FF07C0E5FF08C0E5FF09C076
:102CB000E5FF0AC0E5FF0BC0E5FF020EDBCF00F029
:102CC000030EDBCF01F0040EDBCF02F0036A046ACF
:102CD000D0EC35F0056EFE0A01E094D03FEC31F007
:102CE000D0EC35F0066E06500EE00650010A1DE0ED
:102CF0000650020A2CE006500A0A3BE006500B0A76
:102D000001E142D06DD00050060F076E000E012089
:102D1000086E000E022007C0E9FF08C0F3FF30EC88
:102D200038F0036EF3CF04F05BD000500C0F076E49
:102D3000000E0120086E000E022007C0E9FF08C047
:102D4000F3FF30EC38F0036EF3CF04F049D00050BD
:102D50000E0F076E000E0120086E000E022007C045
:102D6000E9FF08C0F3FF30EC38F0036EF3CF04F056
:102D700037D000C0E9FF01C0F3FF025030EC38F05B
:102D8000036EF3CF04F02CD00050020F076E000E3C
:102D90000120086E000E0220096E07C0E9FF08C07E
:102DA000F3FF0950DEEC36F0F3CF08F0F4CF09F072
:102DB000E9CF0AF00850076E0950086ED890083223
:102DC0000732D890083207320A50E840E840C00B7A
:102DD00008120A40E8403F0B0750036E0850046E8B
:102DE0000450E56E0350E56EE56A0650E56E000E90
:102DF000E56E620EE56E760EE56E02EC33F0070EC0
:102E0000E126DBD0055014E00550010A3AE00550F8
:102E1000020A01E15FD005500A0A01E184D00550A1
:102E20000B0A01E199D005500C0A01E1AED0C5D0E2
:102E30000050060F056E000E0120066E000E0220E7
:102E4000076ED0EC35F00B6E0A6AE56A0BC0F4FF32
:102E500005C0E9FF06C0F3FF075012EC39F0D0ECD3
:102E600035F0096A0A2609500B220AC0E5FF0BC09B
:102E7000F4FF05C0E9FF06C0F3FF075012EC39F07C
:102E80009CD000500C0F056E000E0120066E000E47
:102E90000220076ED0EC35F00B6E0A6AE56A0BC0B3
:102EA000F4FF05C0E9FF06C0F3FF075012EC39F04C
:102EB000D0EC35F0096A0A2609500B220AC0E5FF5A
:102EC0000BC0F4FF05C0E9FF06C0F3FF075012EC8A
:102ED00039F073D000500E0F056E000E0120066E03
:102EE000000E0220076ED0EC35F00B6E0A6AE56A20
:102EF0000BC0F4FF05C0E9FF06C0F3FF075012EC5A
:102F000039F0D0EC35F0096A0A2609500B220AC0C4
:102F1000E5FF0BC0F4FF05C0E9FF06C0F3FF075053
:102F200012EC39F04AD0D0EC35F0046E036AD0ECE4
:102F300035F0066A0326065004220450E56E03505D
:102F4000E56E0250E56E0150E56E0050E56EA9ECAD
:102F500034F0050EE12631D0D0EC35F0046E036A72
:102F6000D0EC35F0066A0326065004220450E56EC4
:102F70000350E56E0250E56E0150E56E0050E56EBF
:102F800029EC27F0050EE12618D0D0EC35F0046EC0
:102F9000036AD0EC35F0066A03260650042204507A
:102FA000E56E0350E56E0250E56E0150E56E00508F
:102FB000E56E0EEC2CF0050EE126E4CF0BF0E4CF2D
:102FC0000AF0E4CF09F0E4CF08F0E4CF07F0E4CF53
:102FD00006F0E4CF05F0E4CF04F0E4CF03F0E4CF53
:102FE00002F0E4CF01F0E4CF00F0E4CFD9FF12000B
:102FF00000C0E5FF01C0E5FF02C0E5FF03C0E5FF3B
:1030000005C0E5FF83EC39F0929E899EA6EC35F071
:10301000F3CF01F0F4CF02F0E9CF03F0880F040101
:103020007C6F130E01207D6F000E02207E6F000E5C
:1030300003207F6F4CEC29F03EEC30F08B9A949A91
:10304000200EE56E800EE56E0F0EE56E8B0EE56EC2
:10305000000EE56AACEC2DF0050EE12689988A9AFF
:103060008A86040189839298939A93960401929395
:103070009283800E006E040E016E0F0E036E380EEA
:103080000026035001220F0E036E800E005E0350D7
:10309000015A800E026E040E036E0F0E056E380E7E
:1030A0000226055003220F0E056E800E025E0550AB
:1030B000035A02C0E9FF03C0EAFFEFCF02F0029219
:1030C00000C0E9FF01C0EAFF02C0EFFF928A800E54
:1030D000006E0F0E016E0F0E036E380E00260350A9
:1030E0000122800E026E0F0E036E800E005E0350F2
:1030F000015A0F0E056E380E0226055003220F0EE0
:10310000056E800E025E0550035A02C0E9FF03C03F
:10311000EAFFEFCF02F0029A00C0E9FF01C0EAFF28
:1031200002C0EFFF9283800E006E040E016E0F0E40
:10313000036E380E0026035001220F0E036E800E20
:10314000005E0350015A800E026E040E036E0F0ED5
:10315000056E380E0226055003220F0E056E800EF6
:10316000025E0550035A02C0E9FF03C0EAFFEFCF39
:1031700002F0029200C0E9FF01C0EAFF02C0EFFFC7
:103180000C0E0F01546F0F01549B54990F01556B96
:103190000301006B020E016F026B0A0E036F046BDA
:1031A000100E056F070E066F07910783800EE56E00
:1031B000030EE56E230EE56EECEC30F0030EE12617
:1031C000800EE56E030EE56E440EE56E58EC24F0BD
:1031D000030EE126800EE56E030EE56E330EE56EFE
:1031E00058EC24F0030EE12603011E6B1F6B206BCD
:1031F000216B22912295096B0A6B0B6B0C6B116B87
:10320000126B136B146B9486820E006E0F0E016EA0
:103210000F0E036E380E0026035001220F0E036EB0
:10322000800E005E0350015A820E026E0F0E036E76
:103230000F0E056E380E0226055003220F0E056E86
:10324000800E025E0550035A02C0E9FF03C0EAFF88
:10325000EFCF02F0029600C0E9FF01C0EAFF02C012
:10326000EFFF9488820E006E0F0E016E0F0E036E3C
:10327000380E0026035001220F0E036E800E005EF2
:103280000350015A820E026E0F0E036E0F0E056E72
:10329000380E0226055003220F0E056E800E025EC8
:1032A0000550035A02C0E9FF03C0EAFFEFCF02F066
:1032B000029800C0E9FF01C0EAFF02C0EFFF8A8860
:1032C000939893900C0E0F01576F9392B96AB9843B
:1032D000BD6E0F01579B57990F01586BBD9ABD9852
:1032E000BE6A010E0301016F026B960E036F046B41
:1032F0006AEC39F0330ECD6E9D809F80E4CF05F0EF
:10330000E4CF03F0E4CF02F0E4CF01F0E4CF00F02B
:10331000120000C0E5FF01C0E5FF02C0E5FF03C0E9
:10332000E5FF2BEC23F0A6EC11F0E1EC21F0A6EC8C
:1033300035F0006EF3CF01F0F4CF02F0E9CF03F0E7
:1033400004017C51005E7D51015A7E51025A7F5129
:10335000035A039E3F0E035C08E1FF0E025C05E189
:10336000FF0E015C02E1FF0E005CD8B00DD1A6ECAF
:1033700035F0F3CF01F0F4CF02F0E9CF03F0100FF6
:1033800004017C6F270E01207D6F000E02207E6FEE
:10339000000E03207F6FF6EC13F02BEC23F08DEC86
:1033A00037F004C0E5FFF2CF04F0F29E030116519E
:1033B00005013D6F0301175105013E6F03011851CF
:1033C00005013F6F030119510501406F03011A51B7
:1033D0000501416F03011B510501426F03011C519F
:1033E0000501436F03011D510501446F03011E5187
:1033F0000501456F03011F510501466F030120516F
:103400000501476F030121510501486F0301225156
:103410000501496F03011A6B1B6B1C6B1D6B04BE0E
:10342000F28EE4CF04F0800EE56E030EE56E000E22
:10343000E56E51EC09F0030EE1260BC39EF50CC3BB
:103440009FF505019F51800F7C0F02E1000E9E5DEC
:1034500004E305019E69030E9F6F05019F51800FD4
:10346000840F02E1010E9E5D05E2010E05019E6FD3
:10347000FC0E9F6F05019F51800F800F02E1010E2E
:103480009E5D10E305019F51800FF36E030104510F
:10349000800FF35C03E1035105019E5D03E205012A
:1034A0009E6B9F6BD88005019FAFD89015E30301F9
:1034B000041D016E031D006E004A012A0150800F99
:1034C000F36E05019F51800FF35C02E19E51005C99
:1034D00003E205019E6B9F6B030107A309D022A5A0
:1034E00007D0D88005019FAFD89002E39E6B9F6BF9
:1034F000D88005019FAFD89007E39E51FF0F006E63
:10350000030E9F21016E04D09EC500F09FC501F0FF
:1035100000C0A0F501C0A1F50501A051020BE840D3
:10352000010BE838E844F46E0F015451DF0BF4103E
:10353000546F0501A051010B010BE838F46E0F0127
:103540005451EF0BF410546F0501A135A131016EF8
:10355000A031006E01340132003200500F01556F6E
:10356000D88005019FAFD89002E38A8A01D08A9A59
:10357000D88005019FAFD89003E30301229302D0C6
:1035800003012283E5EC2FF0E4CF03F0E4CF02F057
:10359000E4CF01F0E4CF00F01200800EE56E030EE0
:1035A000E56E950EE56E91EC31F0030EE126800E8E
:1035B000E56E030EE56E750EE56E91EC31F0030ECF
:1035C000E126800EE56E030EE56E970EE56E91EC3A
:1035D00031F0030EE126800EE56E030EE56E770EE8
:1035E000E56E91EC31F0030EE126800EE56E030EE0
:1035F000E56E990EE56E91EC31F0030EE126800E3A
:10360000E56E030EE56E790EE56E91EC31F0030E7A
:10361000E126800EE56E030EE56E9B0EE56E91ECE5
:1036200031F0030EE126800EE56E030EE56E7B0E93
:10363000E56E91EC31F0030EE126800EE56E030E8F
:10364000E56E9D0EE56E91EC31F0030EE126800EE5
:10365000E56E030EE56E7D0EE56E91EC31F0030E26
:10366000E126800EE56E030EE56E9F0EE56E91EC91
:1036700031F0030EE126800EE56E030EE56E7F0E3F
:10368000E56E91EC31F0030EE126800EE56E030E3F
:10369000E56EA10EE56E91EC31F0030EE126800E91
:1036A000E56E030EE56E810EE56E91EC31F0030ED2
:1036B000E126800EE56E030EE56EA30EE56E91EC3D
:1036C00031F0030EE126800EE56E030EE56E830EEB
:1036D000E56E91EC31F0030EE126800EE56E030EEF
:1036E000E56EA50EE56E91EC31F0030EE126800E3D
:1036F000E56E030EE56E850EE56E91EC31F0030E7E
:10370000E126800EE56E030EE56EA70EE56E91ECE8
:1037100031F0030EE126800EE56E030EE56E870E96
:10372000E56E91EC31F0030EE126800EE56E030E9E
:10373000E56EA90EE56E91EC31F0030EE126800EE8
:10374000E56E030EE56E890EE56E91EC31F0030E29
:10375000E126800EE56E030EE56EAB0EE56E91EC94
:1037600031F0030EE126800EE56E030EE56E8B0E42
:10377000E56E91EC31F0030EE126800EE56E030E4E
:10378000E56EAD0EE56E91EC31F0030EE126800E94
:10379000E56E030EE56E8D0EE56E91EC31F0030ED5
:1037A000E126800EE56E030EE56EAF0EE56E91EC40
:1037B00031F0030EE126800EE56E030EE56E8F0EEE
:1037C000E56E91EC31F0030EE126800EE56E030EFE
:1037D000E56EB10EE56E91EC31F0030EE126800E40
:1037E000E56E030EE56E910EE56E91EC31F0030E81
:1037F000E126800EE56E030EE56EB30EE56E91ECEC
:1038000031F0030EE126800EE56E030EE56E930E99
:10381000E56E91EC31F0030EE1261200D9CFE5FF01
:10382000E1CFD9FF00C0E5FF01C0E5FF02C0E5FF21
:1038300003C0E5FF04C0E5FF05C0E5FF06C0E5FFE6
:1038400007C0E5FF08C0E5FF020EDBCF00F0030E66
:10385000DBCF01F0040EDBCF02F0036A046AD0EC88
:1038600035F0056EFE0A01E075D03FEC31F0D0EC8A
:1038700035F0066E040E065CD8B05AD0FA6AFB6AC0
:103880000634FA36E834FA36FC0B9A0FE56E380E39
:10389000FA22000EFB22E450F96E55EF1CF061EFA6
:1038A0001CF074EF1CF087EF1CF000C0E9FF01C0B2
:1038B000F3FF0250BAEC38F0076E07C003F0046A59
:1038C00037D00050010F076E000E0120086E000E69
:1038D000022007C0E9FF08C0F3FFBAEC38F0076E1A
:1038E00007C003F0046A24D00050020F076E000ED8
:1038F0000120086E000E022007C0E9FF08C0F3FF98
:10390000BAEC38F0076E07C003F0046A11D000501B
:103910000F0F076E000E0120086E000E022007C078
:10392000E9FF08C0F3FF30EC38F0036EF3CF04F08A
:103930000450E56E0350E56EE56A0650E56E000E34
:10394000E56E490EE56ED00EE56E02EC33F0070E23
:10395000E1268DD0040E055CD8B089D0FA6AFB6AE6
:103960000534FA36E834FA36FC0B7A0FE56E390E78
:10397000FA22000EFB22E450F96EC5EF1CF0D2EFE4
:103980001CF0FDEF1CF013EF1DF0D0EC35F0036ED2
:1039900003C0E5FF00C0E9FF01C0F3FF02504BEC9C
:1039A00039F065D00050010F036E000E0120046E47
:1039B000000E0220056ED0EC35F0066E06C0E5FF65
:1039C00003C0E9FF04C0F3FF05504BEC39F006508B
:1039D000D8A44DD00050030F036E000E0120046EDA
:1039E000000E0220E56AF46AF66AF76A03C0E9FF8E
:1039F00004C0F3FFA9EC38F03AD00050020F036E78
:103A0000000E0120046E000E0220056ED0EC35F091
:103A1000066E06C0E5FF03C0E9FF04C0F3FF0550D2
:103A20004BEC39F024D00F0E0026000E01220222AA
:103A3000D0EC35F0066E056AE56A06C0F4FF00C0FA
:103A4000E9FF01C0F3FF025012EC39F0D0EC35F081
:103A5000046A05260450062205C0E5FF06C0F4FFEF
:103A600000C0E9FF01C0F3FF025012EC39F0E4CFCF
:103A700008F0E4CF07F0E4CF06F0E4CF05F0E4CFA0
:103A800004F0E4CF03F0E4CF02F0E4CF01F0E4CFA0
:103A900000F0E4CFD9FF120000C0E5FF01C0E5FF50
:103AA00002C0E5FF03C0E5FF04010F51D8B40CD1FB
:103AB000A3A81DD0A4A81BD00501AC510501A919CC
:103AC00005E1E8EC38F00501A96BFED0000E050118
:103AD000AC25006E016A0F0E012200C0E9FF01C093
:103AE000EAFFEFCFA5F5AC2BA5C573FFEDD0A3AAD8
:103AF000EBD0A4AAE9D071A205D00501AA81E8EC17
:103B000038F0E2D071A405D00501AA83E8EC38F0C2
:103B1000DBD071A048D074CFA5F510C400F0016AC5
:103B2000008EA5C502F0036A0250001803E103509D
:103B3000011801E004D00501AA897196C5D00501DC
:103B4000A55104E0A5510401101929E10501AA9924
:103B500071960501A55103E00501AA9702D0050160
:103B6000AA87A5C5AEF5A7C5AFF50501A751006E9B
:103B700000040501B06F600E0501AF25006E016AFB
:103B8000000E012200C0E9FF01C0EAFFA5C5EFFF5A
:103B9000AF2BAF51800A02E10501AF6B95D0050153
:103BA000AA99718691D074CFA5F50501AAA921D053
:103BB00010C400F0016A008EA5C502F0036A02502D
:103BC000001803E10350011801E011D0A39A719885
:103BD000929C0501A95104E1736AE8EC38F007D022
:103BE00000CF73FF010E0501AC6FA3886DD0718605
:103BF0006BD00501A5510501AE270501AF510501A7
:103C0000B0191BE10501AE510CE1AFC5A7F50501E7
:103C1000AAB712D0A39A7198929C736AE8EC38F014
:103C20000BD00501AA85AAB707D0A39A7198929CD8
:103C3000010E736EE8EC38F047D00501AF51050175
:103C4000A81908E10501A8510501A71903E0E8EC4E
:103C500038F03AD0A7C500F0016A004A012AE56AA7
:103C6000800EE56E0150E56E0050E56EC8EC2AF05E
:103C7000006E040EE12600500501A66F0501AF1984
:103C80000FE1A5C500F01F0E00140501B06F006E16
:103C9000020E0024B06F0501A7510501B027B09FA7
:103CA000AFC500F00501AF2B016A600E0026000EC3
:103CB000012200C0E9FF01C0EAFFA5C5EFFFAF5137
:103CC000800A02E10501AF6BE4CF03F0E4CF02F01C
:103CD000E4CF01F0E4CF00F01200D9CFE5FFE1CF4F
:103CE000D9FF00C0E5FF01C0E5FF02C0E5FF03C04A
:103CF000E5FF04C0E5FF05C0E5FF06C0E5FF07C01E
:103D0000E5FF020EDBCF00F0030EDBCF01F0040E67
:103D1000DBCF02F0050EDBCF03F0060EDBCF04F0A5
:103D2000070EDBCF05F0080EDBCF06F0090EDBCF68
:103D300007F000500501776F0150786F0250796FDE
:103D400003507A6F045005017B6F05507C6F06505D
:103D50007D6F07507E6F0501775105017D03F4CF1C
:103D600001F0F3CF00F000500501816F0150826F28
:103D70000501775105017B03F4CF01F0F3CF00F08B
:103D8000005005017F6F0150806F05017A510501D8
:103D90007B03F3CF00F00501825100260050826FB3
:103DA0000501795105017C03F3CF01F00150002694
:103DB00000500501826F0501795105017B03F4CFA5
:103DC00001F0F3CF00F0050181510026825101225C
:103DD0000050816F0150826F0501785105017C030D
:103DE000F4CF03F0F3CF02F002500026035001227B
:103DF00000500501816F0150826F05017851050166
:103E00007D03F3CF00F000500501866F0501785166
:103E100005017B03F4CF01F0F3CF00F00050050162
:103E2000846F0150856F0501775105017E03F3CF43
:103E300000F0005005018A6F0501775105017C03F0
:103E4000F4CF01F0F3CF00F000500501886F01506E
:103E5000896F0501836B0501876B0501835105019E
:103E60007F25006E0501845105018021016E050149
:103E7000855105018121026E0501865105018221CE
:103E8000036E00507F6F0150806F0250816F0350AE
:103E9000826F0501875105017F25006E050188515C
:103EA00005018021016E0501895105018121026E04
:103EB00005018A5105018221036E03C0E9FF02C09A
:103EC000F4FF01C0F3FF0050E4CF07F0E4CF06F0A9
:103ED000E4CF05F0E4CF04F0E4CF03F0E4CF02F048
:103EE000E4CF01F0E4CF00F0E4CFD9FF1200D9CF46
:103EF000E5FFE1CFD9FF00C0E5FF01C0E5FF02C04B
:103F0000E5FF03C0E5FF04C0E5FF05C0E5FF06C00F
:103F1000E5FF07C0E5FF08C0E5FF09C0E5FF0AC0EF
:103F2000E5FF0BC0E5FF0CC0E5FF0DC0E5FF0EC0CF
:103F3000E5FF0FC0E5FF020EDBCF00F0030EDBCF85
:103F400001F0040EDBCF02F0050EDBCF03F0060E0E
:103F5000DBCF04F0070EDBCF05F0080EDBCF06F059
:103F6000200E076E086A06C009F00A6A0B6A0C6A1E
:103F7000E56AE56AE56A0950E56E0350E56E0250B0
:103F8000E56E0150E56E0050E56E8EEC22F00D6E90
:103F9000080EE126300E0D263A0E0D5C05E30D509D
:103FA0000E6E270E0E240D6EFF0E07260822D50E6C
:103FB00007240E6E030E08200F6E0EC0E9FF0FC01F
:103FC000EAFF0DC0EFFF0C50E56E0B50E56E0A5096
:103FD000E56E0950E56E0350E56E0250E56E015046
:103FE000E56E0050E56E7FEC25F0006EF3CF01F03A
:103FF000F4CF02F0E9CF03F0080EE12600500110E3
:1040000002100310D8A4AFD707C000F008C001F019
:1040100004C002F005C003F000C004F001C005F0C8
:10402000004A012AD50E0426030E052204C0E9FF2A
:1040300005C0EAFFEFCF04F002C0E9FF03C0EAFFCA
:1040400004C0EFFF024A032A000E015C02E1200EC9
:10405000005CE2E302C0E9FF03C0EAFF000EEF6A82
:10406000E4CF0FF0E4CF0EF0E4CF0DF0E4CF0CF08E
:10407000E4CF0BF0E4CF0AF0E4CF09F0E4CF08F08E
:10408000E4CF07F0E4CF06F0E4CF05F0E4CF04F08E
:10409000E4CF03F0E4CF02F0E4CF01F0E4CF00F08E
:1040A000E4CFD9FF1200D9CFE5FFE1CFD9FF00C09F
:1040B000E5FF01C0E5FF02C0E5FF03C0E5FF04C066
:1040C000E5FF05C0E5FF06C0E5FF07C0E5FF08C046
:1040D000E5FF09C0E5FF0AC0E5FF0BC0E5FF0CC026
:1040E000E5FF0DC0E5FF020EDBCF00F0030EDBCFD6
:1040F00001F0040EDBCF02F0050EDBCF03F0060E5D
:10410000DBCF04F0070EDBCF05F0080EDBCF06F0A7
:10411000090EDBCF07F0D88003AED890086A0836C6
:1041200008500FE0031C0C6E021C0B6E011C0A6E83
:10413000001C096E092A0DE10A2A0BE10B4A0C2A20
:1041400008D000C009F001C00AF002C00BF003C0A3
:104150000CF0D88007AED890006A003600500FE00F
:10416000071C0D6E061C036E051C026E041C016EFE
:10417000012A0DE1022A0BE1034A0D2A08D004C0EE
:1041800001F005C002F006C003F007C00DF00D50AD
:10419000E56E0350E56E0250E56E0150E56E0C5081
:1041A000E56E0B50E56E0A50E56E0950E56E7FEC4A
:1041B00025F0016EF3CF02F0F4CF03F0E9CF04F065
:1041C000080EE1260050081A085016E0041C076E7D
:1041D000031C066E021C056E011C006E002A04E121
:1041E000052A02E1064A072A07C0E9FF06C0F4FFD4
:1041F00005C0F3FF005007D004C0E9FF03C0F4FF7F
:1042000002C0F3FF0150E4CF0DF0E4CF0CF0E4CF97
:104210000BF0E4CF0AF0E4CF09F0E4CF08F0E4CFEC
:1042200007F0E4CF06F0E4CF05F0E4CF04F0E4CFEC
:1042300003F0E4CF02F0E4CF01F0E4CF00F0E4CFEC
:10424000D9FF120000C0E5FF01C0E5FF02C0E5FF95
:1042500003C0E5FF9EA0A7D0006A80BA002A0050E4
:10426000010BF46E03010851FE0BF410086F0401FA
:1042700080B308D003011E6B1F6B206B216B228162
:10428000228502D003012295006A030108B1002AA9
:10429000016A08B5012A0050011801E180D0006AC6
:1042A000030108B1002A0050010BE844E844F46E11
:1042B0000851FB0BF410086F16511A5D006E175170
:1042C0001B59016E18511C59026E19511D59036E6C
:1042D00000501A6F01501B6F02501C6F03501D6F6E
:1042E0000F0134510301166F0F0135510301176F90
:1042F0000F0136510301186F0F0137510301196F78
:104300000F01345100263551012236510222375116
:104310000322005003011A6F01501B6F02501C6FE3
:1043200003501D6F006A040180B3002A0050010B86
:10433000E844F46E03010851FD0BF410086F22A34A
:1043400018D01EC300F01FC301F020C302F021C328
:1043500003F0002A04E3012A02E3024A032A005080
:1043600003011E6F01501F6F0250206F0350216F19
:1043700016D01EC300F01FC301F020C302F021C3FA
:1043800003F0FF0E00260122022203220050030147
:104390001E6F01501F6F0250206F0350216FCF68B6
:1043A0009B0ECE6E9E90F6EC38F0E4CF03F0E4CF97
:1043B00002F0E4CF01F0E4CF00F0120043002563E7
:1043C000000000C0E5FF01C0E5FF02C0E5FF03C03B
:1043D000E5FFA6EC35F0006EF3CF01F0F4CF02F06C
:1043E000E9CF03F005017351005E7451015A755114
:1043F000025A7651035A039E3F0E035C08E1FF0EFA
:10440000025C05E1FF0E015C02E1FF0E005C16E2BA
:1044100098EC39F0A6EC35F0F3CF01F0F4CF02F0D0
:10442000E9CF03F0500F0501736F460E0120746F42
:10443000000E0220756F000E0320766F080E040137
:10444000265DD8B062D00F014EB15FD00401265175
:10445000020DF450016EF3CF00F0200E0026050E81
:10446000012200C0E9FF01C0EAFFEECF02F0EFCF6A
:1044700003F00250031002E1262B47D0040126511D
:10448000030DF450036EF3CF02F0E80E0226040E83
:10449000032202C0E9FF03C0EAFFEECFFDF3EECF37
:1044A000FEF3EFCFFFF38A0E2625026E036A040E99
:1044B000032202C0E9FF03C0EAFFEFCFB4F500C05A
:1044C000E9FF01C0EAFFEECF00F0EFCF01F0001EE0
:1044D000011E01500F01506F00500F014F6F7E926F
:1044E00004C0E5FFF2CF04F0F29E0301FD51E96E36
:1044F000FE51EA6E0501B451EF120F014E8104BE68
:10450000F28EE4CF04F00401262BE4CF03F0E4CFD5
:1045100002F0E4CF01F0E4CF00F01200D9CFE5FFC4
:10452000E1CFD9FF00C0E5FF01C0E5FF02C0E5FF14
:1045300003C0E5FF04C0E5FF05C0E5FF06C0E5FFD9
:1045400007C0E5FF08C0E5FF09C0E5FF0AC0E5FFB9
:10455000020EDBCF00F0030EDBCF01F0040EDBCF49
:1045600002F0050EDBCF03F0060EDBCF04F0070EE2
:10457000DBCF05F0080EDBCF06F0090EDBCF07F02E
:10458000086A045005100610071005E1E968F46890
:10459000F368E86847D0096A0750800BE8440A6E60
:1045A0000A501BE10450042605360636073607502C
:1045B000035C08E10650025C05E10550015C02E184
:1045C0000450005C06E2D89007320632053204320D
:1045D00004D0092A09C008F0DFD70750035C08E1BE
:1045E0000650025C05E10550015C02E10450005CEC
:1045F00008E30450005E0550015A0650025A075065
:10460000035AD890073206320532043208C009F046
:1046100008060950E2E103C0E9FF02C0F4FF01C04F
:10462000F3FF0050E4CF0AF0E4CF09F0E4CF08F044
:10463000E4CF07F0E4CF06F0E4CF05F0E4CF04F0D8
:10464000E4CF03F0E4CF02F0E4CF01F0E4CF00F0D8
:10465000E4CFD9FF120000C0E5FF01C0E5FF02C0B2
:10466000E5FF03C0E5FF04C0E5FF0501A851050112
:10467000A71901E16AD0A8C500F00050016E012819
:10468000006E009E600E0024016E026A000E02227F
:1046900001C0E9FF02C0EAFFEFCFB2F51F0E05012E
:1046A000B217A8C5B1F5B2510501B127B151016EDC
:1046B000020E0124B16FB19FD0EC35F0016E0150B4
:1046C00003E1016A012A01D0016AD0EC35F005014D
:1046D000B26FB2C502F0800E0216B2C503F01F0E13
:1046E000031603C004F003C0B2F5045003E1A7C5EC
:1046F000A8F53ED001501EE0025025E0D0EC35F088
:10470000006E0501B251016E0104B26F0050420A01
:104710001AE000504E0A03E1C0EC32F014D0005011
:10472000460A03E135EC39F00ED00050490A0BE19E
:10473000FF0009D0A8C5B3F5025003E08CEC2FF0C0
:1047400002D042EC28F0B1C5A8F504010C510401D7
:104750000D1906E00501A95103E1C3EC23F008D0CF
:1047600092BC06D00501A95103E172B2E8EC38F021
:10477000E4CF04F0E4CF03F0E4CF02F0E4CF01F0A3
:10478000E4CF00F0120000C0E5FF01C0E5FF02C069
:10479000E5FF03C0E5FF04C0E5FF72A27ED0FEEC9A
:1047A00036F0006E005005E104010D6B04010C6B46
:1047B00074D00DC401F000500126FEEC36F0026EFC
:1047C0000050036E0304006E0250230A1FE1010E25
:1047D000005CD8A060D0FEEC36F0026E690A03E1FE
:1047E00075EC35F058D00250720A03E1E8EC38F06D
:1047F00052D00250730A01E04ED0928C7186A38A87
:10480000A398745074507198718845D00250430A2F
:1048100005E00250420A01E03ED006D000C003F09D
:10482000046A038E0350006E00C0ABF500500F0108
:10483000006F010E0501AC6F04010D51011814E069
:10484000FEEC36F0026E0501AB27000E0501AC252B
:10485000006E036A0F0E032200C0E9FF03C0EAFFE7
:1048600002C0EFFFAC2BE8D7000E0501AC25006EAF
:10487000026A0F0E02220501AB1D036E032A00C05F
:10488000E9FF02C0EAFF03C0EFFF0501AC2BACC596
:10489000A9F50501A36B01C00DF4E4CF04F0E4CF4A
:1048A00003F0E4CF02F0E4CF01F0E4CF00F0120017
:1048B000D9CFE5FFE1CFD9FF00C0E5FF01C0E5FF9B
:1048C00002C0E5FF03C0E5FF04C0E5FF05C0E5FF4A
:1048D00006C0E5FF07C0E5FF020EDBCF00F0030EC8
:1048E000DBCF01F0040EDBCF02F000500B0F036EA4
:1048F000000E0120046E000E0220E56AF46AF66ADA
:10490000F76A03C0E9FF04C0F3FFA9EC38F00050D8
:10491000070F036E000E0120046E000E0220056ECC
:104920000050030F066E000E0120076E000E0220DD
:10493000E56AF46AF66AF76A06C0E9FF07C0F3FFA2
:10494000A9EC38F0E56AF46AF66AF76A03C0E9FF91
:1049500004C0F3FF0550A9EC38F00050010F036EBE
:10496000000E0120046E000E0220056E0050020FA2
:10497000066E000E0120076E000E0220E56A06C0DA
:10498000E9FF07C0F3FF4BEC39F0E56A03C0E9FF2C
:1049900004C0F3FF05504BEC39F0E56A00C0E9FFB5
:1049A00001C0F3FF02504BEC39F0E4CF07F0E4CF45
:1049B00006F0E4CF05F0E4CF04F0E4CF03F0E4CF59
:1049C00002F0E4CF01F0E4CF00F0E4CFD9FF120011
:1049D00025642025640A0000D9CFE5FFE1CFD9FF87
:1049E00000C0E5FF01C0E5FF02C0E5FF03C0E5FF31
:1049F00004C0E5FF05C0E5FF06C0E5FF07C0E5FF11
:104A000008C0E5FF09C0E5FF0AC0E5FF020EDBCFE5
:104A100000F0030EDBCF01F0040EDBCF02F0050E39
:104A2000DBCF03F0060EDBCF04F0070EDBCF05F083
:104A30000038E8441F0B066E076A980E0626050E1E
:104A4000072206C0E9FF07C0EAFFEFCF08F00050D9
:104A5000096E070E0916010E0A6E09500DE006E6F2
:104A6000E86CD8900A36010FFDE306D0D8900ABE54
:104A7000D8800A32010FFBE308500A1206C0E9FF92
:104A800007C0EAFF0AC0EFFF000E0024066E076AA7
:104A9000050E072206C0E9FF07C0EAFF01C0EFFFCD
:104AA000016A280E0026040E0122800E025E070E07
:104AB00002160238F00B036E070E0516055003268A
:104AC00000C0E9FF01C0EAFF03C0EFFFE4CF0AF036
:104AD000E4CF09F0E4CF08F0E4CF07F0E4CF06F02C
:104AE000E4CF05F0E4CF04F0E4CF03F0E4CF02F02C
:104AF000E4CF01F0E4CF00F0E4CFD9FF1200D9CF2A
:104B0000E5FFE1CFD9FF00C0E5FF01C0E5FF02C02E
:104B1000E5FF03C0E5FF04C0E5FF05C0E5FF06C0F3
:104B2000E5FF07C0E5FF08C0E5FF09C0E5FF0AC0D3
:104B3000E5FF0BC0E5FF0CC0E5FF0DC0E5FF020E71
:104B4000DBCF00F0030EDBCF01F0040EDBCF02F071
:104B5000050EDBCF03F0060EDBCF04F0070EDBCF34
:104B600005F0080EDBCF06F0090EDBCF07F0086A70
:104B7000096A0A6A0B6A200E0C6E0350800BE84427
:104B80000D6E005000260136023603360850082606
:104B900009360A360B360D50D8A4088007500B5C36
:104BA00008E106500A5C05E10550095C02E1045089
:104BB000085C09E30450085E0550095A06500A5A79
:104BC00007500B5A00800C040D6E0DC00CF00D50F8
:104BD000D4E103C0E9FF02C0F4FF01C0F3FF0050BD
:104BE000E4CF0DF0E4CF0CF0E4CF0BF0E4CF0AF00B
:104BF000E4CF09F0E4CF08F0E4CF07F0E4CF06F00B
:104C0000E4CF05F0E4CF04F0E4CF03F0E4CF02F00A
:104C1000E4CF01F0E4CF00F0E4CFD9FF120000C0F0
:104C2000E5FF01C0E5FF03C0E5FF04C0E5FF05C0E7
:104C3000E5FF06C0E5FF07C0E5FF08C0E5FF09C0C6
:104C4000E5FF0AC0E5FF0BC0E5FF96C500F097C57C
:104C500001F00501963F01D0972B0050E56EDAEC8C
:104C600038F0E652076E046A056A066A96C500F0D7
:104C700097C501F00501963F01D0972B0050E56ED6
:104C8000DAEC38F0E6520B6A0A6E086A0850041231
:104C900005120A5006120B50071296C500F097C570
:104CA00001F00501963F01D0972B0050E56EDAEC3C
:104CB00038F0E652036E006A03C001F0E86A03BEF2
:104CC000FF0E086E096E00500412015005120850C4
:104CD00006120950071296C500F097C501F00501AC
:104CE000963F01D0972B0050E56EDAEC38F0E65293
:104CF000016A0412015005120612071207C0E9FFEB
:104D000006C0F4FF05C0F3FF0450E4CF0BF0E4CF7E
:104D10000AF0E4CF09F0E4CF08F0E4CF07F0E4CFE5
:104D200006F0E4CF05F0E4CF04F0E4CF03F0E4CFE5
:104D300001F0E4CF00F01200D9CFE5FFE1CFD9FFB9
:104D400000C0E5FF01C0E5FF02C0E5FF03C0E5FFCD
:104D500004C0E5FF05C0E5FF06C0E5FF07C0E5FFAD
:104D6000020EDBCF00F0030EDBCF01F0040EDBCF31
:104D700002F0050EDBCF03F003C004F0056A035018
:104D8000D8B454D000C0E9FF01C0F3FF0250BAEC20
:104D900038F0066E430A08E1010E056E03C006F006
:104DA000076A068E0650036E0406002A02E3014AD3
:104DB000022AA39A7198929CA398A4A8FED7728005
:104DC000736A0000A4A8FED7729003C073FF0000AE
:104DD000A4A8FED7055004E0420E736E032604D04B
:104DE000620E736E620E0326045015E00000A4A844
:104DF000FED700C0E9FF01C0F3FF0250BAEC38F063
:104E0000056E05C073FF055003260406002A02E361
:104E1000014A022AE9D70000A4A8FED7031C736E3A
:104E2000732A0000A4A8FED7E8EC38F0E4CF07F01E
:104E3000E4CF06F0E4CF05F0E4CF04F0E4CF03F0D4
:104E4000E4CF02F0E4CF01F0E4CF00F0E4CFD9FFEB
:104E50001200D9CFE5FFE1CFD9FF00C0E5FF01C0C7
:104E6000E5FF02C0E5FF03C0E5FF04C0E5FF05C0A4
:104E7000E5FF06C0E5FF07C0E5FF08C0E5FF0BC082
:104E8000E5FF0CC0E5FF0DC0E5FF020EDBCF00F033
:104E9000030EDBCF01F0040EDBCF02F0050EDBCFFB
:104EA00003F0060EDBCF04F003C0E5FF04C0F4FFFF
:104EB00000C0E9FF01C0F3FF025012EC39F00050CE
:104EC000020F056E000E0120066E000E0220076E16
:104ED000E86A04BEFF0E086E04500C6E0C260834FF
:104EE0000D6ED8900C360D360344E844FC0B0B6E67
:104EF0000350E844E844030B0C12E56A0BC0F4FFCE
:104F00000CC0F6FF0DC0F7FF05C0E9FF06C0F3FFB8
:104F10000750A9EC38F0080E0026000E01220222EC
:104F2000E56AF46AF66AF76A00C0E9FF01C0F3FFB8
:104F30000250A9EC38F0E4CF0DF0E4CF0CF0E4CF50
:104F40000BF0E4CF08F0E4CF07F0E4CF06F0E4CFB5
:104F500005F0E4CF04F0E4CF03F0E4CF02F0E4CFB7
:104F600001F0E4CF00F0E4CFD9FF1200D9CFE5FF84
:104F7000E1CFD9FF00C0E5FF01C0E5FF02C0E5FFBA
:104F800003C0E5FF04C0E5FF05C0E5FF06C0E5FF7F
:104F900007C0E5FF020EDBCF00F0030EDBCF01F010
:104FA000040EDBCF02F0050EDBCF03F002C006F0EB
:104FB0000650046E800A33E100C0E9FF01C0F3FF30
:104FC000025058EC37F0056EF3CF06F0F4CF07F03F
:104FD00003C0E5FF05C0E9FF06C0F3FF07504BEC37
:104FE00039F000C0E9FF01C0F3FF025058EC37F080
:104FF000056EF3CF06F0F4CF07F0052A02E3064A68
:10500000072A05C0E5FF06C0F4FF07C0F6FF00C091
:10501000E9FF01C0F3FF0250CBEC38F020D004C010
:1050200000F000AA1CD0007A0050046E04E1035086
:1050300088EC39F014D00450010A04E1035002EC6A
:1050400000F00DD004500F0A04E1035044EC35F099
:1050500006D004500E0A03E103509BEC39F0E4CF74
:1050600007F0E4CF06F0E4CF05F0E4CF04F0E4CF9E
:1050700003F0E4CF02F0E4CF01F0E4CF00F0E4CF9E
:10508000D9FF120000C0E5FF01C0E5FF02C0E5FF47
:1050900003C0E5FF05C0E5FFD0EC35F0006E0A0A5D
:1050A0000CE000500B0A34E00050140A01E159D022
:1050B0000050780A01E158D061D0D0EC35F0006A98
:1050C000016ED0EC35F0036A002603500122005037
:1050D000020BE840010BE838E844F46E0F01575129
:1050E000DF0BF410576F0050010B010BE838F46E22
:1050F0005751EF0BF410576FD8900130036E00300A
:10510000026ED8900332023202500F01586F36D02F
:10511000D0EC35F0026A036ED0EC35F0056A02245B
:10512000006E05500320016E0050020BE840010B99
:10513000E838E844F46EBD50DF0BF410BD6E00504B
:10514000010B010BE838F46EBD50EF0BF410BD6E8F
:10515000D89001320032D890013200320050BE6E39
:105160000DD046EC2DF00AD0800EE56E030EE56EF4
:10517000000EE56E49EC0FF0030EE126E4CF05F0DA
:10518000E4CF03F0E4CF02F0E4CF01F0E4CF00F08D
:105190001200D9CFE5FFE1CFD9FF00C0E5FF01C084
:1051A000E5FF02C0E5FF03C0E5FF04C0E5FF05C061
:1051B000E5FF06C0E5FF07C0E5FF020EDBCF00F00C
:1051C000030EDBCF01F0040EDBCF02F0050EDBCFC8
:1051D00003F00DC40EF404010C5104010E5F0E51D6
:1051E000046E04040E6F03C004F0056A030E042667
:1051F000D8B0052A0EC406F0076A0750800FF36E78
:105200000550800FF35C02E10450065C02E2E8689E
:1052100030D0020E035C02E2E86A2BD00350046E29
:105220000404036EE56EBEEC33F0E652046A0350EC
:10523000045C14E204500024056EE86A0120066E46
:10524000E86A022005C0E9FF06C0F3FFBAEC38F0B7
:10525000042AE56EBEEC33F0E652E9D70DC40EF435
:1052600004010C5104010E5F0E51006E00040E6F1C
:10527000E86AE4CF07F0E4CF06F0E4CF05F0E4CF2E
:1052800004F0E4CF03F0E4CF02F0E4CF01F0E4CF88
:1052900000F0E4CFD9FF120000C0E5FF01C0E5FF38
:1052A00002C0E5FF03C0E5FF04C0E5FF006A980EF9
:1052B0000024016E026A050E022201C0E9FF02C04D
:1052C000EAFFEF6A002A020E005CF1E3006A005078
:1052D000020DF450026EF3CF01F0E00E0124036ED4
:1052E000000E0220046E03C0E9FF04C0EAFFEE6A6C
:1052F000EF6A5C0E0124036E040E0220046E03C0EC
:10530000E9FF04C0EAFFEE6AEF6A550E0124036E5E
:10531000030E0220046E03C0E9FF04C0EAFFEE6A38
:10532000EF6A750E0124036E030E0220046E03C0A3
:10533000E9FF04C0EAFFEE6AEF6A950E0126030E4C
:10534000022201C0E9FF02C0EAFFEE687F0EEF6EA5
:10535000280E0024016E026A040E022201C0E9FF39
:1053600002C0EAFFEF68002A100E005CD8A0AFD799
:10537000AF0EC06EC16A010EC26EC282E4CF04F0ED
:10538000E4CF03F0E4CF02F0E4CF01F0E4CF00F08B
:1053900012004320412025642025640A0000D9CF53
:1053A000E5FFE1CFD9FF00C0E5FF01C0E5FF02C086
:1053B000E5FF03C0E5FF04C0E5FF05C0E5FF06C04B
:1053C000E5FF07C0E5FF08C0E5FF09C0E5FF0AC02B
:1053D000E5FF0BC0E5FF0CC0E5FF020EDBCF00F0E0
:1053E000030EDBCF01F0040EDBCF02F0050EDBCFA6
:1053F00003F0060EDBCF04F0070EDBCF05F0080E3E
:10540000DBCF06F0090EDBCF07F002500A6E015029
:10541000096E0050086E06C00BF007C00CF0FF0EBE
:10542000062607220B500C101AE003C0E9FF04C047
:10543000F3FF0550BAEC38F00B6E032A02E3044A7E
:10544000052A0BC0E5FF08C0E9FF09C0F3FF0A50B9
:105450004BEC39F0082ADFE3094A0A2ADCD702C0FC
:10546000F4FF01C0F3FF0050E4CF0CF0E4CF0BF0E9
:10547000E4CF0AF0E4CF09F0E4CF08F0E4CF07F07E
:10548000E4CF06F0E4CF05F0E4CF04F0E4CF03F07E
:10549000E4CF02F0E4CF01F0E4CF00F0E4CFD9FF95
:1054A0001200D9CFE5FFE1CFD9FF00C0E5FF01C071
:1054B000E5FF02C0E5FF03C0E5FF04C0E5FF05C04E
:1054C000E5FF020EDBCF00F0030EDBCF01F0040E90
:1054D000DBCF02F00050020DF450036EF3CF00F06A
:1054E0005C0E0024046E040E0320056E04C0E9FF68
:1054F00005C0EAFF01C0EEFF02C0EFFF550E002419
:10550000046E030E0320056E04C0E9FF05C0EAFF28
:10551000EECF04F0EFCF05F00150045C016E0250B5
:105520000558026EB50E0026030E032200C0E9FFE7
:1055300003C0EAFF01C0EEFF02C0EFFFD88002AE59
:10554000D89004E3021E016CD8B4022A0250800FE6
:10555000800F02E1030E015C02E2016A026A01505F
:10556000021007E100C0E9FF03C0EAFF000EEE6A87
:10557000EF6AE4CF05F0E4CF04F0E4CF03F0E4CF2A
:1055800002F0E4CF01F0E4CF00F0E4CFD9FF120045
:10559000D9CFE5FFE1CFD9FF00C0E5FF01C0E5FFAE
:1055A00002C0E5FF03C0E5FF04C0E5FF05C0E5FF5D
:1055B00006C0E5FF020EDBCF00F0030EDBCF01F0EB
:1055C000040EDBCF02F0050EDBCF03F0D88001AE76
:1055D000D890046A0436045007E0011C066E001CD3
:1055E000056E054A062A04D000C005F001C006F089
:1055F000D88003AED89007E3031C016E021C006E36
:10560000004A012A04D002C000F003C001F001509A
:10561000E56E0050E56E0650E56E0550E56E2FEC28
:105620002FF0006EF3CF01F0040EE12604500AE0E3
:10563000011C036E001C026E024A032A03C0F3FF22
:10564000025003D001C0F3FF0050E4CF06F0E4CFD6
:1056500005F0E4CF04F0E4CF03F0E4CF02F0E4CFB0
:1056600001F0E4CF00F0E4CFD9FF1200D9CFE5FF7D
:10567000E1CFD9FF00C0E5FF01C0E5FF02C0E5FFB3
:1056800003C0E5FF04C0E5FF05C0E5FF020EDBCF68
:1056900000F0030EDBCF01F0040EDBCF02F0050EAD
:1056A000DBCF03F096C504F097C505F00501963FE2
:1056B00001D0972B0350E56E0450E56EBAEC36F03E
:1056C000E652E65296C504F097C505F00501963FEF
:1056D00001D0972B0250056EE56E0450E56EBAECD2
:1056E00036F0E652E65296C504F097C505F005017E
:1056F000963F01D0972B0150E56E0450E56EBAEC51
:1057000036F0E652E65296C504F097C505F005015D
:10571000963F01D0972B0050E56E0450E56EBAEC31
:1057200036F0E652E652E4CF05F0E4CF04F0E4CFE1
:1057300003F0E4CF02F0E4CF01F0E4CF00F0E4CFD7
:10574000D9FF1200D9CFE5FFE1CFD9FF00C0E5FFB7
:1057500001C0E5FF02C0E5FF03C0E5FF04C0E5FFAF
:1057600005C0E5FF06C0E5FF020EDBCF00F0030E2B
:10577000DBCF01F00038E8441F0B026E036A980E7D
:105780000226050E032202C0E9FF03C0EAFFEFCFA5
:1057900004F00050056E070E0516010E066E05504A
:1057A0000DE006E6E86CD8900636010FFDE306D062
:1057B000D89006BED8800632010FFBE304500612D3
:1057C00002C0E9FF03C0EAFF06C0EFFF000E00249D
:1057D000026E036A050E032202C0E9FF03C0EAFF5E
:1057E00001C0EFFF016A280E0026040E012200C04E
:1057F000E9FF01C0EAFFFF0EEF68E4CF06F0E4CF57
:1058000005F0E4CF04F0E4CF03F0E4CF02F0E4CFFE
:1058100001F0E4CF00F0E4CFD9FF1200D9CFE5FFCB
:10582000E1CFD9FF00C0E5FF01C0E5FF02C0E5FF01
:1058300003C0E5FF04C0E5FF05C0E5FF08C0E5FFC4
:1058400009C0E5FF0AC0E5FF020EDBCF00F0030E42
:10585000DBCF01F0040EDBCF02F0050EDBCF03F04F
:10586000060EDBCF04F003C0E5FF04C0F4FF00C068
:10587000E9FF01C0F3FF025012EC39F0020E0026DE
:10588000000E0122022204BEFF0E056E0450096EB6
:10589000092605340A6ED89009360A360344E844CE
:1058A000FC0B086E0350E844E844030B0912E56A58
:1058B00008C0F4FF09C0F6FF0AC0F7FF00C0E9FF07
:1058C00001C0F3FF0250A9EC38F0E4CF0AF0E4CFB6
:1058D00009F0E4CF08F0E4CF05F0E4CF04F0E4CF22
:1058E00003F0E4CF02F0E4CF01F0E4CF00F0E4CF26
:1058F000D9FF1200D9CFE5FFE1CFD9FF00C0E5FF06
:1059000001C0E5FF02C0E5FF03C0E5FF04C0E5FFFD
:1059100005C0E5FF06C0E5FF020EDBCF00F0030E79
:10592000DBCF01F0040EDBCF02F00501A25119E13B
:105930000FEC26F0036EF3CF04F0F4CF05F0E9CFBF
:1059400006F003C0E5FF04C0F4FF05C0F6FF06C083
:10595000F7FF00C0E9FF01C0F3FF0250A9EC38F0E7
:105960001ED00501A251010A1AE100C0E9FF01C0E1
:10597000F3FF0250DEEC36F0006EF3CF01F0F4CF0F
:1059800002F0E9CF03F00350E56E0250E56E0150DE
:10599000E56E0050E56E36EC2BF0040EE126E4CF08
:1059A00006F0E4CF05F0E4CF04F0E4CF03F0E4CF59
:1059B00002F0E4CF01F0E4CF00F0E4CFD9FF120011
:1059C000D9CFE5FFE1CFD9FF00C0E5FF01C0E5FF7A
:1059D00002C0E5FF03C0E5FF04C0E5FF020EDBCF18
:1059E00000F0030EDBCF01F0040EDBCF02F000501D
:1059F000070F036E000E0120046E000E0220E56EFC
:105A00000450E56E0350E56E42EC33F0030EE126E0
:105A10000050230F036E000E0120046E000E0220C2
:105A2000E56E0450E56E0350E56E97EC30F0030E22
:105A3000E1260050330F036E000E0120046E000EAD
:105A40000220E56E0450E56E0350E56E72EC2EF018
:105A5000030EE126440E0026000E0122022202500F
:105A6000E56E0150E56E0050E56E72EC2EF0030E0F
:105A7000E126E4CF04F0E4CF03F0E4CF02F0E4CF7A
:105A800001F0E4CF00F0E4CFD9FF120000C0E5FF41
:105A900001C0E5FF02C0E5FF03C0E5FF04C0E5FF6C
:105AA000D0EC35F0006EFE0A2DE13FEC31F0D0EC89
:105AB00035F0016E080E015CD8B043D00150020DE4
:105AC000F450036EF3CF02F0200E0226050E0322DF
:105AD00002C0E9FF03C0EAFFEECF02F0EFCF03F010
