:020000040000FA
:1000000056EF38F0C96E12000EEF34F0B8EC17F06E
:100010004BEC19F0FDD7120093EF36F0D9CFE5FF86
:10002000E1CFD9FF00C0E5FF01C0E5FF02C0E5FF59
:1000300003C0E5FF04C0E5FF05C0E5FF06C0E5FF1E
:1000400007C0E5FF08C0E5FF09C0E5FF0AC0E5FFFE
:100050000BC0E5FF0CC0E5FF0DC0E5FF0EC0E5FFDE
:100060000FC0E5FF10C0E5FF11C0E5FF12C0E5FFBE
:1000700013C0E5FF14C0E5FF15C0E5FF16C0E5FF9E
:1000800017C0E5FF18C0E5FF19C0E5FF1AC0E5FF7E
:100090001BC0E5FF1CC0E5FF1DC0E5FF1EC0E5FF5E
:1000A0001FC0E5FF20C0E5FF21C0E5FF22C0E5FF3E
:1000B00023C0E5FF24C0E5FF25C0E5FF26C0E5FF1E
:1000C00027C0E5FF020EDBCF00F0030EDBCF01F00F
:1000D000040EDBCF02F00250086E0150076E005094
:1000E000066EE56A100EE56E0850E56E0750E56E87
:1000F0000650E56E800EE56E050EE56E200EE56E8F
:100100009BEC29F0080EE12628C503F029C504F070
:100110002AC505F02BC506F003C007F004C008F09F
:1001200005C009F006C00AF0D8800AAED8900AE3EC
:100130000A1E091E081E076C05E1082A03E1092AA8
:10014000D8B40A2A20C50BF021C50CF0E86A0501D5
:1001500021BFFF0E0D6E0E6ED8902431106E23312C
:100160000F6ED89010320F322551E840E840C00B96
:1001700010122541E8403F0BE8BAC009116E126A1F
:1001800011BE12680F500B5C0F6E10500C58106EA1
:1001900011500D58116E12500E58126ED89012AEAA
:1001A000D880D8A04ED01250800F800F08E1000EEA
:1001B000115C05E1000E105C02E1010E0F5CD8B08D
:1001C00040D00A340A30166E0930156E0830146EAD
:1001D0000730136E2EC517F02FC518F0E86A050119
:1001E0002FBFFF0E196E800FF36E1650800FF35C59
:1001F00008E11550195C05E11450185C02E1135038
:10020000175C1FE30C50156E15260D34166ED89032
:10021000153616360B44E844FC0B146E0B50E844BC
:10022000E844030B15120501226B1450236F15507F
:10023000246F1650256F286B296B2A6B2B6BEBEF05
:1002400004F0D89009300C6E08300B6ED8900C3248
:100250000B32D8900C320B320A50E838E844E00BED
:100260000C120A38E8441F0BE8B8E0090E6A08507F
:10027000076E0950086ED89008320732D8900832BD
:1002800007320A50E840E840C00B08120A40E84034
:100290003F0B0BC009F00CC00AF0E86A0CBEFF0E61
:1002A0000D6E0E6E07C013F008C014F0E86A08BEA9
:1002B000FF0E156EE56E1550E56E1450E56E135089
:1002C000E56E0E50E56E0D50E56E0A50E56E095074
:1002D000E56E36EC1EF0096EF3CF0AF0F4CF0DF0A8
:1002E000E9CF0EF0080EE1262EC513F02FC514F04D
:1002F000E86A05012FBFFF0E156E166EE56E1550EC
:10030000E56E1450E56E1350E56E0E50E56E0D501F
:10031000E56E0A50E56E0950E56E1CEC20F0096EA2
:10032000F3CF0AF0080EE12626C50DF027C50EF022
:10033000E86A050127BFFF0E176E0E501B6E1B26C5
:1003400017341C6ED8901B361C360D44E844FC0B49
:100350001A6E0D50E844E844030B1B12196AD8804A
:1003600006AED890D8B07AD109C00DF00AC00EF010
:10037000E86A0ABEFF0E176E800FF36E1250800FF0
:10038000F35C08E11150175C05E110500E5C02E1CE
:100390000F500D5CD8B03AD10650800FF36E1C5050
:1003A000800FF35C08E11B50055C05E11A50045C0A
:1003B00002E11950035CD8B002D12CC50DF02DC557
:1003C0000EF0E86A05012DBFFF0E176E186E035080
:1003D0000D2604500E2205501722065018220D50EB
:1003E0000501286F0E50296F17502A6F18502B6F78
:1003F0002EC50DF02FC50EF02CC517F02DC518F029
:100400000E50800FF36E1850800FF35C02E117500E
:100410000D5CD8B0B8D028C51DF029C51EF02AC57E
:100420001FF02BC520F0D8901F30226E1E30216E99
:10043000D89022322132D890223221322050E8380E
:10044000E844E00B22122038E8441F0BE8B8E0092A
:10045000246A21500B6E22500C6ED8901F30226EF1
:100460001E30216ED890223221322050E840E840E0
:10047000C00B22122040E8403F0B2150076E225053
:10048000086E0BC021F00CC022F0E86A0CBEFF0E13
:10049000236E246E07C025F008C026F0E86A08BE67
:1004A000FF0E276EE56E2750E56E2650E56E25504F
:1004B000E56E2450E56E2350E56E2250E56E215026
:1004C000E56E36EC1EF0216EF3CF22F0F4CF23F070
:1004D000E9CF24F0080EE1260DC025F00EC026F06D
:1004E000E86A0EBEFF0E276EE56E2750E56E2650B9
:1004F000E56E2550E56E2450E56E2350E56E2250E2
:10050000E56E2150E56E1CEC20F0216EF3CF22F059
:10051000080EE1262150096E22500A6E09C021F012
:100520000AC022F0E86A0ABEFF0E236E246E125043
:10053000800FF36E2450800FF35C08E12350115CB0
:1005400005E12250105C02E121500F5C1CE20D50CD
:10055000175C0D6E0E5018580E6EE86A0EBEFF0E38
:10056000176E186E0D501D5E0E501E5A17501F5AF2
:100570001850205A1D500501286F1E50296F1F501A
:100580002A6F20502B6F1C50800FF36E05012B51EA
:10059000800FF35C08E12A511B5C05E129511A5CCC
:1005A00002E12851195CD8B0EFD119500501286F2C
:1005B0001A50296F1B502A6F1C502B6FE5D11C500D
:1005C000800FF36E0650800FF35C08E105501B5C52
:1005D00005E104501A5C02E10350195CD8B0D4D193
:1005E0001350035C0D6E145004580E6E15500558D0
:1005F000176E16500658186E0D500501286F0E50D4
:10060000296F17502A6F18502B6FBED12CC50DF0D3
:100610002DC50EF0E86A05012DBFFF0E176E186E8E
:1006200013500D2614500E22155017221650182262
:100630000D50035C0D6E0E5004580E6E1750055889
:10064000176E18500658186E0D500501286F0E5081
:10065000296F17502A6F18502B6F96D10A1E096CFC
:10066000D8B40A2A09C00DF00AC00EF0E86A0ABE22
:10067000FF0E176E186E1250800FF36E1850800F19
:10068000F35C08E11750115C05E10E50105C02E1CB
:100690000D500F5CD8B055D11C1C186E1B1C176E6A
:1006A0001A1C0E6E191C0D6E0D2A04E10E2A02E1B1
:1006B000174A182A1850800FF36E0650800FF35C0B
:1006C00008E10550175C05E104500E5C02E103509F
:1006D0000D5CD8B00FD12CC519F02DC51AF0E86A01
:1006E00005012DBFFF0E1B6E1C6E1950035C196EA9
:1006F0001A5004581A6E1B5005581B6E1C50065891
:100700001C6E19500501286F1A50296F1B502A6F53
:100710001C502B6F2EC519F02FC51AF02CC51BF0DD
:100720002DC51CF01A50800FF36E1C50800FF35C27
:1007300002E11B50195CD8B0C1D028C51DF029C5F5
:100740001EF02AC51FF02BC520F0D8901F30226E56
:100750001E30216ED89022322132D890223221329E
:100760002050E838E844E00B22122038E8441F0B00
:10077000E8B8E009236E246A23BE2468241E231EE1
:10078000221E216C05E1222A03E1232AD8B4242A5F
:1007900021500B6E22500C6ED8901F30226E1E30EE
:1007A000216ED890223221322050E840E840C00B20
:1007B00022122040E8403F0B221E216C02E1222A37
:1007C00000E12150076E2250086EE86A0CBEFF0E51
:1007D000216E226EE86A08BEFF0E236EE56E23507E
:1007E000E56E0850E56E0750E56E2250E56E21502B
:1007F000E56E0C50E56E0B50E56E36EC1EF0076EA4
:10080000F3CF08F0F4CF0BF0E9CF0CF0080EE1269F
:1008100019C021F01AC022F0E86A1ABEFF0E236E3A
:10082000E56E2350E56E2250E56E2150E56E0C50CA
:10083000E56E0B50E56E0850E56E0750E56E1CEC5A
:1008400020F0076EF3CF08F0080EE126081E076CB3
:1008500002E1082A00E10750096E08500A6EE86AB2
:100860000ABEFF0E076E800FF36E1250800FF35C0E
:1008700008E11150075C05E110500A5C02E10F50DD
:10088000095C1CE219501B5C196E1A501C581A6E38
:10089000E86A1ABEFF0E076E086E19501D261A5020
:1008A0001E2207501F22085020221D500501286FCC
:1008B0001E50296F1F502A6F20502B6F05012B519E
:1008C000800FF36E1850800FF35C08E117502A5D1B
:1008D00005E10E50295D02E10D50285DD8B054D0DD
:1008E0000D500501286F0E50296F17502A6F1850B0
:1008F0002B6F4AD00650800FF36E1850800FF35CB8
:1009000008E11750055C05E10E50045C02E10D5052
:10091000035CD8B039D013500324076E1450042060
:10092000086E15500520096E165006200A6E0750F5
:100930000501286F0850296F09502A6F0A502B6F44
:1009400023D02CC507F02DC508F0E86A05012DBF9E
:10095000FF0E096E0A6E0750132608501422095024
:1009600015220A5016221350032614500422155043
:1009700005221650062203500501286F0450296FE6
:1009800005502A6F06502B6FD89005012A31046E4E
:100990002931036ED890043203322B51E840E840ED
:1009A000C00B04122B41E8403F0BE8BAC009056EAA
:1009B000066A05BE066822510326235104222451EB
:1009C0000522255106220350226F0450236F055043
:1009D000246F0650256FE56A100EE56E800EE56EF9
:1009E000050EE56E200EE56E0250E56E0150E56ED7
:1009F0000050E56E9BEC29F0080EE126E4CF27F0CD
:100A0000E4CF26F0E4CF25F0E4CF24F0E4CF23F0C8
:100A1000E4CF22F0E4CF21F0E4CF20F0E4CF1FF0C8
:100A2000E4CF1EF0E4CF1DF0E4CF1CF0E4CF1BF0C8
:100A3000E4CF1AF0E4CF19F0E4CF18F0E4CF17F0C8
:100A4000E4CF16F0E4CF15F0E4CF14F0E4CF13F0C8
:100A5000E4CF12F0E4CF11F0E4CF10F0E4CF0FF0C8
:100A6000E4CF0EF0E4CF0DF0E4CF0CF0E4CF0BF0C8
:100A7000E4CF0AF0E4CF09F0E4CF08F0E4CF07F0C8
:100A8000E4CF06F0E4CF05F0E4CF04F0E4CF03F0C8
:100A9000E4CF02F0E4CF01F0E4CF00F0E4CFD9FFDF
:100AA0001200D9CFE5FFE1CFD9FF00C0E5FF01C0BB
:100AB000E5FF02C0E5FF03C0E5FF04C0E5FF05C098
:100AC000E5FF06C0E5FF07C0E5FF08C0E5FF09C078
:100AD000E5FF0AC0E5FF0BC0E5FF0CC0E5FF0DC058
:100AE000E5FF0EC0E5FF0FC0E5FF10C0E5FF11C038
:100AF000E5FF12C0E5FF13C0E5FF14C0E5FF15C018
:100B0000E5FF16C0E5FF17C0E5FF18C0E5FF19C0F7
:100B1000E5FF1AC0E5FF1BC0E5FF1CC0E5FF1DC0D7
:100B2000E5FF1EC0E5FF020EDBCF00F0030EDBCFBA
:100B300001F0040EDBCF02F0050EDBCF03F0060E52
:100B4000DBCF04F0070EDBCF05F0080EDBCF06F09D
:100B5000090EDBCF07F00A0EDBCF08F0096A0A6A3C
:100B600002C00DF00D50800A0DE102500501966F94
:100B70000150956F0050946F050E016E940E006E3B
:100B8000800E026E03C0E9FF04C0F3FF0550A0EC25
:100B900038F00B6E0B50D8B407EF09F00B50250A54
:100BA00002E0EEEF08F00C6A0D6A0E6A0F6A106A36
:100BB0000A0E116E126A136A146A200E156E1668F8
:100BC000176A2B0E186E032A02E3044A052A03C093
:100BD000E9FF04C0F3FF0550A0EC38F0196E250AB8
:100BE00013E11950E56E0250E56E0150E56E0050BC
:100BF000E56E82EC27F0040EE126094A0A2A032A50
:100C000002E3044A052ABED71950300A06E1300E25
:100C1000156E032A02E3044A052A03C0E9FF04C053
:100C2000F3FF0550A0EC38F02D0A06E1010E146E1A
:100C3000032A02E3044A052A03C0E9FF04C0F3FFC4
:100C40000550A0EC38F0200A08E1010E176E200EC6
:100C5000186E032A02E3044A052A03C0E9FF04C010
:100C6000F3FF0550A0EC38F02B0A06E1010E176ED9
:100C7000032A02E3044A052A03C0E9FF04C0F3FF84
:100C80000550A0EC38F0196E310E195C2BE33A0ECA
:100C9000195C28E203C019F004C01AF005C01BF06B
:100CA00019C0E9FF1AC0F3FF1B50A0EC38F01C6E0E
:100CB000300E1C5C11E33A0E1C5C0EE213500A0D60
:100CC000F3CF1DF01C501D26D00E1D24136E192AC3
:100CD00002E31A4A1B2AE4D719C003F01AC004F031
:100CE0001BC005F003C0E9FF04C0F3FF0550A0ECF2
:100CF00038F02E0A2DE1032A02E3044A052A166A77
:100D000003C019F004C01AF005C01BF019C0E9FFB8
:100D10001AC0F3FF1B50A0EC38F01C6E300E1C5CA8
:100D200011E33A0E1C5C0EE216500A0DF3CF1DF0D3
:100D30001C501D26D00E1D24166E192A02E31A4AD5
:100D40001B2AE4D719C003F01AC004F01BC005F039
:100D500003C0E9FF04C0F3FF0550A0EC38F0196EA2
:100D60006C0A07E1010E0C6E032A02E3044A052A0D
:100D700009D01950680A06E1010E0E6E032A02E33B
:100D8000044A052A03C0E9FF04C0F3FF0550A0ECA4
:100D900038F0750A06E1010E106E032A02E3044AD8
:100DA000052A03C0E9FF04C0F3FF0550A0EC38F0AA
:100DB000196E730A05E1010E0D6E200E156E3FD0FF
:100DC0001950780A03E1100E116E39D01950580AE3
:100DD00005E1100E116E010E126E31D01950630A2A
:100DE00002E1116A2CD019506F0A03E1080E116E4E
:100DF00026D01950660A03E1010E0F6E20D019505B
:100E0000640A1DE01950690A1AE0105005E0FF0E4F
:100E100003260422052213D01950E56E0250E56E18
:100E20000150E56E0050E56E82EC27F0040EE126DD
:100E3000094A0A2A032A02E3044A052AA3D60D50C6
:100E400021E00650030F0D6E000E0720196E000EF4
:100E500008201A6E0DC006F019C007F01AC008F07D
:100E6000FD0E0D26FF0E19221A220DC0E9FF19C032
:100E7000F3FF1A5056EC37F00D6EF3CF19F0F4CFA4
:100E80001AF0FDD00F500DE0000E1A6E120E196E02
:100E9000960E0D6E040E0626000E07220822166816
:100EA000EED016680C5023E00650040F0C6E000EB6
:100EB00007200F6E000E08201B6E0CC006F00FC03E
:100EC00007F01BC008F0FC0E0C26FF0E0F221B22A1
:100ED0000CC0E9FF0FC0F3FF1B50DCEC36F00C6ECA
:100EE000F3CF0FF0F4CF1BF0E9CF1CF067D00E501A
:100EF0002FE00650020F0E6E000E07201D6E000E32
:100F000008201E6E0EC006F01DC007F01EC008F0BF
:100F1000FE0E0E26FF0E1D221E220EC0E9FF1DC072
:100F2000F3FF1E5015EC38F00E6E0EC00CF00F6A79
:100F30001B6A1C6A11500A0A03E11050D8B43ED053
:100F40000C500E6E0EC00CF00F6A1B6A1C6A36D075
:100F50000650020F0E6E000E07201D6E000E0820B8
:100F60001E6E0EC006F01DC007F01EC008F0FE0E7B
:100F70000E26FF0E1D221E220EC0E9FF1DC0F3FF2C
:100F80001E5015EC38F00E6EF3CF1DF00EC00CF0B5
:100F90001DC00FF0E86A1DBEFF0E1B6E1C6E1150C7
:100FA0000A0A02E110500AE00C500E6E0F501D6E3E
:100FB0000EC00CF01DC00FF01B6A1C6A050E196EE6
:100FC0004E0E0D6E800E1A6E1150D8B440D01050D7
:100FD00013E01150E56E050EE56E4E0EE56E1C50E9
:100FE000E56E1B50E56E0F50E56E0C50E56E40EC63
:100FF0001FF0070EE12612D01150E56E050EE56ECA
:101000004E0EE56E1C50E56E1B50E56E0F50E56E02
:101010000C50E56E41EC2EF0070EE12617502FE044
:101020000DC0E9FF19C0F3FF1A50A0EC38F02D0AEB
:1010300026E0FF0E0D2619221A2218C0E5FF0DC06A
:10104000E9FF19C0F3FF1A5031EC39F018D00CC089
:10105000E5FF0DC0E9FF19C0F3FF1A5031EC39F07C
:101060000D50010F0C6E000E19200E6E000E1A208E
:10107000E56A0CC0E9FF0EC0F3FF31EC39F00DC09A
:101080000CF019C00EF01AC00FF013C010F0105081
:1010900010E00CC0E9FF0EC0F3FF0F50A0EC38F0D9
:1010A000176E175006E00C2A02E30E4A0F2A1006AC
:1010B000EED710C013F014501EE109C00CF00AC0A6
:1010C0000EF010C00FF00F5010E01550E56E0250FA
:1010D000E56E0150E56E0050E56E82EC27F0040EDF
:1010E000E1260C4A0E2A0F06EED70CC009F00EC0FE
:1010F0000AF00FC013F016C00CF00DC00DF019C0AF
:101100000EF01AC00FF009C010F00AC015F00DC0A3
:10111000E9FF0EC0F3FF0F50A0EC38F0166E16502A
:10112000D8B43ED00CC016F0176A161E171E165003
:10113000171005E00CC016F00C06165031E00DC07B
:10114000E9FF0EC0F3FF0F50A0EC38F0116E125003
:1011500010E01150E56ED2EC37F0166EE6521650E4
:1011600004E0DF0E1114166E02D011C016F016C086
:1011700011F01150E56E0250E56E0150E56E005021
:10118000E56E82EC27F0040EE1260D2A02E30E4AFA
:101190000F2A104A152A1350D8B4B9D71306B7D757
:1011A00010C009F015C00AF014502BE010C00CF06C
:1011B00015C00DF013C00EF00E501FE0200EE56EAE
:1011C0000250E56E0150E56E0050E56E82EC27F0AE
:1011D000040EE1260C4A0D2A0E06EED70B50E56EE2
:1011E0000250E56E0150E56E0050E56E82EC27F08E
:1011F000040EE126094A0A2A04D00CC009F00DC0E9
:101200000AF0032A02E3044A052AC2EF05F00AC0E5
:10121000F3FF0950E4CF1EF0E4CF1DF0E4CF1CF043
:10122000E4CF1BF0E4CF1AF0E4CF19F0E4CF18F0CC
:10123000E4CF17F0E4CF16F0E4CF15F0E4CF14F0CC
:10124000E4CF13F0E4CF12F0E4CF11F0E4CF10F0CC
:10125000E4CF0FF0E4CF0EF0E4CF0DF0E4CF0CF0CC
:10126000E4CF0BF0E4CF0AF0E4CF09F0E4CF08F0CC
:10127000E4CF07F0E4CF06F0E4CF05F0E4CF04F0CC
:10128000E4CF03F0E4CF02F0E4CF01F0E4CF00F0CC
:10129000E4CFD9FF12003C4E4F20464C4F41543E04
:1012A0000000D9CFE5FFE1CFD9FF00C0E5FF01C0C5
:1012B000E5FF02C0E5FF03C0E5FF04C0E5FF05C090
:1012C000E5FF06C0E5FF07C0E5FF08C0E5FF09C070
:1012D000E5FF0AC0E5FF0BC0E5FF0CC0E5FF0DC050
:1012E000E5FF020EDBCF00F0030EDBCF01F0040EB2
:1012F000DBCF02F00050090F066E000E0120076ED2
:10130000000E0220086E0B6E07500A6E0650096E22
:10131000E56A0D0EE56E0B50E56E0A50E56E09505C
:10132000E56E800EE56E040EE56E2A0EE56E9BEC12
:1013300029F0080EE12600C009F001C00AF002C041
:101340000BF0E56AE56E0B50E56E0A50E56E09504C
:10135000E56E800EE56E040EE56E810EE56E9BEC8B
:1013600029F0080EE12681C403F00350010A04E0CD
:101370000350030A01E018D105014851036E495199
:10138000046E04013251056E3351096E0550035C41
:101390000501A16F09500458A26F050148510401CD
:1013A000326F050149510401336F05014A510401AF
:1013B000346F05014B510401356F0501A151A21194
:1013C000D8A47ED07FEC35F0036EF3CF04F0F4CFD9
:1013D00005F0E9CF09F0050140510A6E41510B6E4D
:1013E00042510C6E43510D6E0A50035E0B50045A6D
:1013F0000C50055A0D50095A035005015E6F0450F8
:101400005F6F0550606F7F0E0914616F040136B184
:1014100025D005015F356131046E6031036E0434FF
:1014200004320332000E04BEFF0E096E056E86C440
:101430000AF00B6A0C6A0D6A0D50800FF36E0950AA
:10144000800FF35C08E105500C5C05E104500B5C77
:1014500002E103500A5C02E204013681040136B164
:1014600049D02EC403F02FC404F030C405F031C4B9
:1014700009F005016151800FF36E0950800FF35C94
:1014800008E10550605D05E104505F5D02E1035035
:101490005E5D08E203C05EF504C05FF505C060F55F
:1014A00009C061F505014CA304D0010E036E046A66
:1014B00002D00368046803C0A1F504C0A2F51AD0E5
:1014C0000401369144C55EF545C55FF546C560F536
:1014D00047C561F505015E5104012E6F05015F519D
:1014E00004012F6F050160510401306F0501615146
:1014F0000401316F05016151800F800F08E1000E7A
:10150000605D05E1000E5F5D02E1010E5E5D06E2D9
:101510000501626B636B646B656B46D005015E51C0
:10152000036E5F51046E6051056E6151E56E0550AA
:10153000E56E0450E56E0350E56E010EE56E000E9B
:10154000E56AE56AE56A4BEC25F0036EF3CF04F03B
:10155000F4CF05F0E9CF09F0080EE126A1C50AF0A5
:10156000A2C50BF0E86A0501A2BFFF0E0C6E0D6E5E
:101570000950E56E0550E56E0450E56E0350E56ECA
:101580000D50E56E0C50E56E0B50E56E0A50E56EA1
:1015900036EC1EF00501626FF3CF63F5F4CF64F50E
:1015A000E9CF65F5080EE126020E0401815DD8A0A1
:1015B00045D105014CA142D10050230F036E000E0E
:1015C0000120046E000E0220E56E0450E56E03500B
:1015D000E56E0EEC00F0030EE1260050230F036EC3
:1015E000000E0120046E000E0220056E020E03267E
:1015F000000E0422052203C0E9FF04C0F3FF0550DA
:10160000DCEC36F0F3CF04F0F4CF05F0E9CF09F0CD
:101610000450036E0550046ED89004320332D89003
:10162000043203320950E840E840C00B041209407C
:10163000E8403F0BE8BAC009056E096A05BE0968B3
:1016400005014851035C0501666F050149510458C5
:101650000501676F05014A5105580501686F0501CD
:101660004B5109580501696FD88069AFD89022E3C2
:101670000401831D046E821D036E034A042AE86A76
:1016800004BEFF0E056E096E05016951800FF36EF1
:101690000950800FF35C08E10550685D05E10450D6
:1016A000675D02E10350665D05E30501666B676BEC
:1016B000686B696B05016951800F800F08E1000EAE
:1016C000685D05E1000E675D02E1010E665D1EE3E7
:1016D00082C403F083C404F0E86A040183BFFF0EF0
:1016E000056E800FF36E05016951800FF35C08E110
:1016F0006851055C05E16751045C02E16651035CD9
:1017000005E30501666B676B686B696B04018751C4
:1017100009E0E86CD89005016637673768376937A4
:10172000010FF9E305016951800F800F08E1000EF8
:10173000685D05E1800E675D02E1000E665D07E30E
:10174000050166697F0E676F686B696B14D00501D0
:101750006951800F810F08E1FF0E685D05E1800E81
:10176000675D02E1000E665D06E20501666B800EB4
:10177000676F686969690050330F036E000E0120BE
:10178000046E000E0220056E05016651096E675158
:10179000E56E0950E56E0550E56E0450E56E0350A8
:1017A000E56ED4EC13F0050EE12604018151030A25
:1017B00023E10050330F036E000E0120046E000E73
:1017C0000220056E0B0E0326000E0422052203C024
:1017D000E9FF04C0F3FF0550DCEC36F0F3CF04F072
:1017E000F4CF05F00450036E0550046E035004015D
:1017F0002A6F04502B6F22D00050330F036E000E5F
:101800000120046E000E0220056E0B0E0326000E52
:101810000422052203C0E9FF04C0F3FF0550DCECFD
:1018200036F0F3CF04F0F4CF05F00450036E05500A
:10183000046E035004012C6F04502D6F81C403F01B
:101840000350010A04E00350030A01E07DD02AC4DA
:1018500003F02BC404F0E86A04012BBFFF0E056EF1
:10186000096E05016251035C0501666F0501635154
:1018700004580501676F0501645105580501686F3B
:101880000501655109580501696F800F800F08E156
:10189000000E685D05E1800E675D02E1000E665D89
:1018A00007E3050166697F0E676F686B696B14D08B
:1018B00005016951800F810F08E1FF0E685D05E1A8
:1018C000800E675D02E1000E665D06E20501666B53
:1018D000800E676F686969690050440F036E000EDF
:1018E0000120046E000E0220056E05016651096E8E
:1018F0006751E56E0950E56E0550E56E0450E56EE2
:101900000350E56ED4EC13F0050EE126440E0026DC
:10191000000E012202220B0E0026000E01220222DE
:1019200000C0E9FF01C0F3FF0250DCEC36F0F3CF5A
:1019300001F0F4CF02F00150006E0250016E005031
:1019400004012C6F01502D6F0850086EE56A0D0ED2
:10195000E56E800EE56E040EE56E2A0EE56E08500B
:10196000E56E0750E56E0650E56E9BEC29F0080E1B
:10197000E126E4CF0DF0E4CF0CF0E4CF0BF0E4CFA0
:101980000AF0E4CF09F0E4CF08F0E4CF07F0E4CFA9
:1019900006F0E4CF05F0E4CF04F0E4CF03F0E4CFA9
:1019A00002F0E4CF01F0E4CF00F0E4CFD9FF120061
:1019B00025642025640A0000D9CFE5FFE1CFD9FFD7
:1019C00000C0E5FF01C0E5FF02C0E5FF03C0E5FF81
:1019D00004C0E5FF05C0E5FF06C0E5FF07C0E5FF61
:1019E00008C0E5FF09C0E5FF0AC0E5FF0BC0E5FF41
:1019F0000CC0E5FF020EDBCF00F0030EDBCF01F0E1
:101A0000040EDBCF02F0036A046AA9EC35F0056E20
:101A1000FE0A01E077D018EC31F0A9EC35F0066E43
:101A2000030E065CD8A05AD0060E065CD8B056D07D
:101A3000FD0E0624076EFA6AFB6A0734FA36E834AC
:101A4000FA36FC0B540FE56E1A0EFA22000EFB223A
:101A5000E450F96E30EF0DF042EF0DF05BEF0DF05A
:101A60000050090F076E000E0120086E000E0220C4
:101A700007C0E9FF08C0F3FF15EC38F0036EF3CFA1
:101A800004F02CD00050090F076E000E0120086EE4
:101A9000000E0220096E020E0726000E08220922FF
:101AA00007C0E9FF08C0F3FF095015EC38F0036EDA
:101AB000F3CF04F013D00050070F076E000E012083
:101AC000086E000E022007C0E9FF08C0F3FFA0EC7B
:101AD00038F0010B076E07C003F0046A06C007F078
:101AE0000450E56E0350E56EE56A0750E56E000EA2
:101AF000E56E190EE56EB00EE56EDBEC32F0070E0A
:101B0000E1269AD1080E055CD8B096D1FA6AFB6A34
:101B10000534FA36E834FA36FC0B2A0FE56E1B0E54
:101B2000FA22000EFB22E450F96EA5EF0DF0C0EF93
:101B30000DF0D2EF0DF0E4EF0DF016EF0EF04CEFDC
:101B40000EF06BEF0EF0C8EF0EF00050230F056E95
:101B5000000E0120076E000E0220E56E0750E56EB4
:101B60000550E56E01EC16F0030EE126020EE56E5F
:101B700000C0E9FF01C0F3FF025031EC39F05CD145
:101B80000050330F056E000E0120076E000E02207C
:101B9000E56E0750E56E0550E56ED9EC1BF0030EBF
:101BA000E1264AD10050440F056E000E0120076E59
:101BB000000E0220E56E0750E56E0550E56ED9EC8B
:101BC0001BF0030EE12638D10050090F056E000E00
:101BD0000120076E000E0220086EA9EC35F00C6E95
:101BE0000B6AE56A0CC0F4FF05C0E9FF07C0F3FF0C
:101BF0000850F8EC38F0A9EC35F00A6A0B260A50C8
:101C00000C220BC0E5FF0CC0F4FF05C0E9FF07C0C4
:101C1000F3FF0850F8EC38F0010EE56E00C0E9FF64
:101C200001C0F3FF025031EC39F006D10050090F2A
:101C3000056E000E0120076E000E0220086E020ED7
:101C40000526000E07220822A9EC35F00C6E0B6A5F
:101C5000E56A0CC0F4FF05C0E9FF07C0F3FF0850B8
:101C6000F8EC38F0A9EC35F00A6A0B260A500C2281
:101C70000BC0E5FF0CC0F4FF05C0E9FF07C0F3FF90
:101C80000850F8EC38F0E56A00C0E9FF01C0F3FF46
:101C9000025031EC39F0D0D00050070F056E000E25
:101CA0000120076E000E0220086EA9EC35F0010B32
:101CB000F46E05C0E9FF07C0F3FF0850A0EC38F050
:101CC000FE0BF410E56E05C0E9FF07C0F3FF0850F6
:101CD00031EC39F0B1D0A9EC35F0066E0050160F9A
:101CE000056E000E0120076E000E0220086E0550E2
:101CF0000C0F096E000E07200A6E000E08200B6EF6
:101D00000650D880E866D8900C6A0C360C50D88003
:101D1000E866D8900C6A0C360C50010BF46E09C0C2
:101D2000E9FF0AC0F3FF0B50A0EC38F0FE0BF410F3
:101D3000E56E09C0E9FF0AC0F3FF0B5031EC39F042
:101D40000650010A01E078D0080E0526000E072291
:101D50000822E56AF46AF66AF76A05C0E9FF07C077
:101D6000F3FF08508FEC38F00050230F056E000E83
:101D70000120066E000E0220E56AE56AE56E065057
:101D8000E56E0550E56EF5EC26F0050EE12654D023
:101D9000A9EC35F0046E036AA9EC35F0066A032657
:101DA000065004220050160F056E000E0120066E2C
:101DB000000E0220076E05500C0F086E000E062064
:101DC000096E000E07200A6E08C0E9FF09C0F3FF84
:101DD000A0EC38F0E880E56E08C0E9FF09C0F3FF29
:101DE0000A5031EC39F0080E0526000E06220722B3
:101DF00003C008F004C009F008C0E5FF09C0F4FF03
:101E0000F66AF76A05C0E9FF06C0F3FF07508FECDA
:101E100038F0230E0026000E012202220450E56E47
:101E20000350E56E0250E56E0150E56E0050E56E20
:101E3000DAEC2BF0050EE126E4CF0CF0E4CF0BF04A
:101E4000E4CF0AF0E4CF09F0E4CF08F0E4CF07F0E4
:101E5000E4CF06F0E4CF05F0E4CF04F0E4CF03F0E4
:101E6000E4CF02F0E4CF01F0E4CF00F0E4CFD9FFFB
:101E7000120000C0E5FF01C0E5FF02C0E5FF03C09E
:101E8000E5FF04C0E5FF05C0E5FF06C0E5FF07C0AC
:101E9000E5FF08C0E5FF09C0E5FF0AC0E5FFC2A2F3
:101EA00004D00401185172EF11F004011951D8B493
:101EB0002FD104011851020DF450016EF3CF00F040
:101EC000E00E0026000E012200C0E9FF01C0EAFF7B
:101ED000EECF00F0EFCF01F0000E1825026E036A7E
:101EE000050E032202C0E9FF03C0EAFFEFCF02F0B4
:101EF0000250FF0A01E166D002380F0B036E920E0A
:101F00000324046E056A0F0E0522066A920E03264C
:101F10000F0E062203C0E9FF06C0EAFFEFCF03F071
:101F20000250066E070E0616010E076E06500DE0F3
:101F300006E6E86CD8900736010FFDE306D0D8908E
:101F400007BED8800732010FFBE3071C066E035063
:101F5000061604C0E9FF05C0EAFF06C0EFFF02381D
:101F60000F0B036E890E0324046E056A0F0E052203
:101F7000066A890E03260F0E062203C0E9FF06C07B
:101F8000EAFFEFCF03F00250066E070E0616010EB1
:101F9000076E06500DE006E6E86CD8900736010F94
:101FA000FDE306D0D89007BED8800732010FFBE3CF
:101FB000071C066E0350061604C0E9FF05C0EAFFC1
:101FC00006C0EFFF04011851020DF450046EF3CF68
:101FD00003F0E00E0326000E042201340130066EE9
:101FE0000030056E063406320532063406320532FC
:101FF0000550005C056E06500158066EC3CF07F011
:10200000086A0750052608500622C4CF07F0086A60
:1020100007500A6E096A095005260A50062203C0B5
:10202000E9FF04C0EAFF05C0EEFF06C0EFFF0401B0
:102030001451010A01E06AD004011851020DF45054
:10204000046EF3CF03F0E00E0324056E000E0420AF
:10205000066E05C0E9FF06C0EAFFEECF00F0EFCF45
:1020600001F0750E0326030E042203C0E9FF04C02D
:10207000EAFFEECF05F0EFCF06F09C0E0526D8A0C4
:1020800006060150800FF36E0650800FF35C02E1EC
:102090000550005C0EE20050640F056E000E01203A
:1020A000066E03C0E9FF04C0EAFF05C0EEFF06C0EC
:1020B000EFFF04011851020DF450046EF3CF03F04A
:1020C000950E0326030E042203C0E9FF04C0EAFFB5
:1020D000EECF05F0EFCF06F0640E0526D8B0062A45
:1020E0000650800FF36E0150800FF35C02E1005048
:1020F000055C0CE29C0E0026D8A0010603C0E9FF97
:1021000004C0EAFF00C0EEFF01C0EFFF0401196B3D
:102110000401182B100E185D01E3186B0401183927
:10212000E8441F0B006E016A9D0E0026050E012279
:1021300000C0E9FF01C0EAFFEFCF00F018C401F0D2
:10214000070E0116010E036E000E046E015006E02C
:10215000E86CD89003360436010FFCE3056A0050A2
:1021600003160550041603500410D880E866D89072
:10217000036A03360350D8A4B3D0100E0401182507
:10218000006E016A050E012200C0E9FF01C0EAFFEE
:10219000EFCF00F00044E844FC0B016E0128C26E52
:1021A000000E1825006E016A050E012200C0E9FF2D
:1021B00001C0EAFFEFCF02F00250FF0A01E18CD02C
:1021C00002380F0B006E920E0024016E036A0F0E90
:1021D0000322046A920E00260F0E042200C0E9FFBB
:1021E00004C0EAFFEFCF00F00250046E070E0416A1
:1021F000010E056E04500DE006E6E86CD890053639
:10220000010FFDE306D0D89005BED8800532010F3E
:10221000FBE30050051201C0E9FF03C0EAFF05C05F
:10222000EFFF380E006E0F0E016E02380F0B036EBB
:10223000046A0350002604500122380E056E0F0E6A
:10224000066E055003260650042203C0E9FF04C0B1
:10225000EAFFEFCF03F0070E0216010E046E0250E4
:102260000DE006E6E86CD8900436010FFDE306D0D9
:10227000D89004BED8800432010FFBE3035004124F
:1022800000C0E9FF01C0EAFF04C0EFFF0F01458372
:102290000000000045930F0144930BC0E5FFF2CF0F
:1022A0000BF0F29E448100000000000000000000DE
:1022B000000000000000000000000000000000001E
:1022C0000000000000000000000000000000449139
:1022D0000BBEF28EE4CF0BF0C282010E0401196F27
:1022E00004011851E4CF0AF0E4CF09F0E4CF08F07C
:1022F000E4CF07F0E4CF06F0E4CF05F0E4CF04F03C
:10230000E4CF03F0E4CF02F0E4CF01F0E4CF00F03B
:10231000120000C0E5FF01C0E5FF02C0E5FF03C0F9
:10232000E5FF04C0E5FF05C0E5FF06C0E5FF07C007
:10233000E5FF08C0E5FF09C0E5FF0AC0E5FF0BC0E7
:10234000E5FF0CC0E5FF006A016A026A040E025C48
:10235000D8B0ECD101C003F0012A100E035CD8B054
:10236000E5D104011A2B100E1A5D01E31A6B04016A
:102370001A39E8441F0B036E046A9D0E0326050EEE
:10238000042203C0E9FF04C0EAFFEFCF03F01AC440
:1023900004F0070E0416010E056E000E066E0450C2
:1023A00006E0E86CD89005360636010FFCE3076AB4
:1023B000035005160750061605500610D880E8662B
:1023C000D890056A05360550D8A4C0D704011A5123
:1023D000020DF450046EF3CF03F0E00E0324056EFB
:1023E000000E0420066E05C0E9FF06C0EAFFEECF2E
:1023F00005F0EFCF06F017C407F007A09DD0750ECB
:102400000324076E030E0420086E07C0E9FF08C00E
:10241000EAFFEECF07F0EFCF08F00650800FF36E23
:102420000850800FF35C02E10750055C03E2056A87
:10243000066A60D0950E0326030E042203C0E9FF4E
:1024400004C0EAFFEECF03F0EFCF04F00450800F9A
:10245000F36E0650800FF35C02E10550035C04E26A
:1024600005683F0E066E46D00750055C096E0850A1
:1024700006580A6EE86A0ABEFF0E0B6EE56E0B5038
:10248000E56E0A50E56E0950E56EE56AE56A400EB4
:10249000E56E000EE56A36EC1EF0096EF3CF0AF029
:1024A000F4CF0BF0E9CF0CF0080EE1260750035CE7
:1024B000076E08500458086EE86A08BEFF0E036EE7
:1024C000E56E0350E56E0850E56E0750E56E0C5062
:1024D000E56E0B50E56E0A50E56E0950E56E4BEC6B
:1024E00025F0036EF3CF04F0080EE1260350056ECD
:1024F0000450066E04011651800FF36E0650800FD3
:10250000F35C02E10550155D03E3056A066A14D029
:1025100004011551FF08036E3F0E1655046E065058
:10252000800FF36E0450800FF35C02E10350055CF2
:1025300003E305683F0E066E04011A51020DF450C4
:10254000046EF3CF03F0550E0326030E042203C0DE
:10255000E9FF04C0EAFFEECF03F0EFCF04F0035031
:10256000055C036E04500658046ED88004AED89003
:1025700004E3041E036CD8B4042A022A0401165191
:10258000800FF36E0450800FF35C02E10350155D81
:10259000D8B0DCD604011A51020DF450086EF3CF06
:1025A00007F0550E0726030E082207C0E9FF08C0F2
:1025B000EAFF05C0EEFF06C0EFFF17C407F007A44F
:1025C00059D01A51020DF450086EF3CF07F0B50E32
:1025D0000724096E030E08200A6E09C0E9FF0AC02D
:1025E000EAFFEECF0BF0EFCF0CF00B500C10D8B48D
:1025F00041D05C0E0726040E082207C0E9FF08C080
:10260000EAFFEECF07F0EFCF08F00750055C036E4E
:1026100008500658046E03101CE00450800F800F11
:1026200002E1010E035C076A07360C50800F800F31
:1026300002E1010E0B5C0B6A0B3607500B1809E127
:1026400009C0E9FF0AC0EAFF03C0EEFF04C0EFFFC4
:102650007DD604011A51020DF450046EF3CF03F03D
:10266000B50E0326030E042203C0E9FF04C0EAFFEF
:10267000EE6AEF6A17C403F003A244D000500EE1E3
:1026800000C003F0002A046A1B0E0326040E042275
:1026900003C0E9FF04C0EAFF420EEF6E00C003F082
:1026A000002A046A1B0E0326040E042204011A5198
:1026B000076E640E072603C0E9FF04C0EAFF07C0E7
:1026C000EFFF00C003F0002A046A1B0E0326040E6D
:1026D00004220650076E03C0E9FF04C0EAFF07C0EA
:1026E000EFFF00C003F0002A046A1B0E0326040E4D
:1026F00004220550076E03C0E9FF04C0EAFF07C0CB
:10270000EFFF24D61AC403F00650E56E0550E56EBF
:10271000E56A0350E56E000EE56E530EE56E2A0E77
:10272000E56EDBEC32F0070EE12610D602C001F0B8
:1027300000501EE017C402F002A21AD000C002F03E
:10274000002A036A1B0E0226040E032202C0E9FFC0
:1027500003C0EAFF0A0EEF6E0050E56E800EE56ED4
:10276000040EE56E1B0EE56E95EC28F0040EE126D6
:102770000150E4CF0CF0E4CF0BF0E4CF0AF0E4CF4B
:1027800009F0E4CF08F0E4CF07F0E4CF06F0E4CF9F
:1027900005F0E4CF04F0E4CF03F0E4CF02F0E4CF9F
:1027A00001F0E4CF00F01200D9CFE5FFE1CFD9FF6F
:1027B00000C0E5FF01C0E5FF02C0E5FF03C0E5FF83
:1027C00004C0E5FF05C0E5FF06C0E5FF07C0E5FF63
:1027D00008C0E5FF09C0E5FF0AC0E5FF0BC0E5FF43
:1027E000020EDBCF00F0030EDBCF01F0040EDBCFD7
:1027F00002F0050EDBCF03F0060EDBCF04F0025033
:102800000A6E0150096E0050086EE56A110EE56E01
:102810000A50E56E0950E56E0850E56E800EE56ED3
:102820000F0EE56E230EE56E9BEC29F0080EE126F7
:1028300032CF05F033CF06F0E86A0F0133BFFF0E49
:10284000076E0501716F0650706F05506F6F6E6BEC
:1028500003C005F004C006F0E86A04BEFF0E076E70
:10286000086E23CF09F0E56AE56AE56A0950E56E6E
:102870000850E56E0750E56E0650E56E0550E56EB2
:1028800036EC1EF005016A6FF3CF6BF5F4CF6CF5F3
:10289000E9CF6DF5080EE1260F012451D8B4AFD071
:1028A0000450800F800F02E1010E035C25E30F014D
:1028B0002951800F7C0F08E1000E285D05E1000E14
:1028C000275D02E1000E265D17E20F013151800FF6
:1028D000F36E05017151800FF35C0DE170510F0132
:1028E000305D09E105016F510F012F5D04E1050124
:1028F0006E510F012E5D33E3D88004AED890D8A07E
:1029000043D00F012951800F840F08E1000E285D8C
:1029100005E1000E275D02E1010E265D35E30501AC
:10292000711D0A6E701D096E6F1D046E6E1D036EA3
:10293000032A04E1042A02E1094A0A2A0A50800F04
:10294000F36E0F013151800FF35C08E13051095CE7
:1029500005E12F51045C02E12E51035C15E20550A4
:102960000F012625036E06502721046E07502821EB
:10297000096E085029210A6E0350266F0450276FF4
:102980000950286F0A50296F0F0126390F0B036E6B
:102990002739046EF00B041A03262851E838F00B8F
:1029A000041228390F0B096E29390A6EF00B0A1A26
:1029B0000926F00E0AB60A2624CF0BF0E56AE56A6E
:1029C000E56A0B50E56E0A50E56E0950E56E04505D
:1029D000E56E0350E56E36EC1EF0036EF3CF04F0A7
:1029E000F4CF09F0E9CF0AF0080EE1260350050103
:1029F0006A2704506B2309506C230A506D230F0182
:102A00002551D8B465D02A51055C0501726F0F01BC
:102A10002B5106580501736F0F012C510758050102
:102A2000746F0F012D5108580501756F800F800FCD
:102A300008E1010E745D05E1000E735D02E1000E18
:102A4000725D06E3050172697369746B756B13D06F
:102A500005017551800F810F08E1FF0E745D05E1DE
:102A6000000E735D02E1000E725D05E20501726BFE
:102A7000736B74697569050172517225036E733544
:102A8000046E7435096E75350A6E25CF0BF0E56A54
:102A9000E56AE56A0B50E56E0A50E56E0950E56E91
:102AA0000450E56E0350E56E36EC1EF0036EF3CF76
:102AB00004F0F4CF09F0E9CF0AF0080EE126035044
:102AC00005016A2704506B2309506C230A506D23BB
:102AD00005500F012A6F06502B6F07502C6F0850BE
:102AE0002D6F05017151800FF36E05016D51800F3F
:102AF000F35C0DE16C510501705D09E105016B515D
:102B000005016F5D04E105016A5105016E5D11E289
:102B100005016E510F012E6F05016F510F012F6FCF
:102B2000050170510F01306F050171510F01316FB7
:102B30003AD00501711D066E701D056E6F1D046E85
:102B40006E1D036E032A04E1042A02E1054A062AE7
:102B500005016D51800FF36E0650800FF35C08E1A4
:102B600005506C5D05E104506B5D02E103506A5D48
:102B70000AE203500F012E6F04502F6F0550306F83
:102B80000650316F10D005016A510F012E6F0501FB
:102B90006B510F012F6F05016C510F01306F050153
:102BA0006D510F01316FE56A110EE56E800EE56E15
:102BB0000F0EE56E230EE56E0250E56E0150E56ED8
:102BC0000050E56E9BEC29F0080EE126E4CF0BF0F7
:102BD000E4CF0AF0E4CF09F0E4CF08F0E4CF07F047
:102BE000E4CF06F0E4CF05F0E4CF04F0E4CF03F047
:102BF000E4CF02F0E4CF01F0E4CF00F0E4CFD9FF5E
:102C00001200D9CFE5FFE1CFD9FF00C0E5FF01C039
:102C1000E5FF02C0E5FF03C0E5FF04C0E5FF05C016
:102C2000E5FF06C0E5FF07C0E5FF08C0E5FF09C0F6
:102C3000E5FF0AC0E5FF0BC0E5FF020EDBCF00F0A9
:102C4000030EDBCF01F0040EDBCF02F0036A046A4F
:102C5000A9EC35F0056EFE0A01E094D018EC31F0D5
:102C6000A9EC35F0066E06500EE00650010A1DE094
:102C70000650020A2CE006500A0A3BE006500B0AF6
:102C800001E142D06DD00050060F076E000E01200A
:102C9000086E000E022007C0E9FF08C0F3FF15EC24
:102CA00038F0036EF3CF04F05BD000500C0F076ECA
:102CB000000E0120086E000E022007C0E9FF08C0C8
:102CC000F3FF15EC38F0036EF3CF04F049D0005059
:102CD0000E0F076E000E0120086E000E022007C0C6
:102CE000E9FF08C0F3FF15EC38F0036EF3CF04F0F2
:102CF00037D000C0E9FF01C0F3FF025015EC38F0F7
:102D0000036EF3CF04F02CD00050020F076E000EBC
:102D10000120086E000E0220096E07C0E9FF08C0FE
:102D2000F3FF0950DCEC36F0F3CF08F0F4CF09F0F4
:102D3000E9CF0AF00850076E0950086ED8900832A3
:102D40000732D890083207320A50E840E840C00BFA
:102D500008120A40E8403F0B0750036E0850046E0B
:102D60000450E56E0350E56EE56A0650E56E000E10
:102D7000E56E620EE56E280EE56EDBEC32F0070EB6
:102D8000E126DBD0055014E00550010A3AE0055079
:102D9000020A01E15FD005500A0A01E184D0055022
:102DA0000B0A01E199D005500C0A01E1AED0C5D063
:102DB0000050060F056E000E0120066E000E022068
:102DC000076EA9EC35F00B6E0A6AE56A0BC0F4FFDA
:102DD00005C0E9FF06C0F3FF0750F8EC38F0A9EC96
:102DE00035F0096A0A2609500B220AC0E5FF0BC01C
:102DF000F4FF05C0E9FF06C0F3FF0750F8EC38F018
:102E00009CD000500C0F056E000E0120066E000EC7
:102E10000220076EA9EC35F00B6E0A6AE56A0BC05A
:102E2000F4FF05C0E9FF06C0F3FF0750F8EC38F0E7
:102E3000A9EC35F0096A0A2609500B220AC0E5FF01
:102E40000BC0F4FF05C0E9FF06C0F3FF0750F8EC24
:102E500038F073D000500E0F056E000E0120066E84
:102E6000000E0220076EA9EC35F00B6E0A6AE56AC7
:102E70000BC0F4FF05C0E9FF06C0F3FF0750F8ECF4
:102E800038F0A9EC35F0096A0A2609500B220AC06D
:102E9000E5FF0BC0F4FF05C0E9FF06C0F3FF0750D4
:102EA000F8EC38F04AD0A9EC35F0046E036AA9ECCE
:102EB00035F0066A0326065004220450E56E0350DE
:102EC000E56E0250E56E0150E56E0050E56E82EC55
:102ED00034F0050EE12631D0A9EC35F0046E036A1A
:102EE000A9EC35F0066A0326065004220450E56E6C
:102EF0000350E56E0250E56E0150E56E0050E56E40
:102F0000F5EC26F0050EE12618D0A9EC35F0046E9C
:102F1000036AA9EC35F0066A032606500422045021
:102F2000E56E0350E56E0250E56E0150E56E00500F
:102F3000E56EDAEC2BF0050EE126E4CF0BF0E4CFE2
:102F40000AF0E4CF09F0E4CF08F0E4CF07F0E4CFD3
:102F500006F0E4CF05F0E4CF04F0E4CF03F0E4CFD3
:102F600002F0E4CF01F0E4CF00F0E4CFD9FF12008B
:102F700000C0E5FF01C0E5FF02C0E5FF03C0E5FFBB
:102F800005C0E5FF69EC39F0929E899E7FEC35F033
:102F9000F3CF01F0F4CF02F0E9CF03F0880F040182
:102FA0007C6F130E01207D6F000E02207E6F000EDD
:102FB00003207F6F18EC29F017EC30F08B9A949A6D
:102FC000200EE56E800EE56E0F0EE56E8B0EE56E43
:102FD000000EE56ADEEC2DF0050EE12689988A9A4E
:102FE0008A86040189839298939A93960401929316
:102FF0009486820E006E0F0E016E0F0E036E380E59
:103000000026035001220F0E036E800E005E035057
:10301000015A820E026E0F0E036E0F0E056E380EF1
:103020000226055003220F0E056E800E025E05502B
:10303000035A02C0E9FF03C0EAFFEFCF02F0029695
:1030400000C0E9FF01C0EAFF02C0EFFF928A800ED4
:10305000006E0F0E016E0F0E036E380E0026035029
:103060000122800E026E0F0E036E800E005E035072
:10307000015A0F0E056E380E0226055003220F0E60
:10308000056E800E025E0550035A02C0E9FF03C0C0
:10309000EAFFEFCF02F0029A00C0E9FF01C0EAFFA9
:1030A00002C0EFFF9283800E006E040E016E0F0EC1
:1030B000036E380E0026035001220F0E036E800EA1
:1030C000005E0350015A800E026E040E036E0F0E56
:1030D000056E380E0226055003220F0E056E800E77
:1030E000025E0550035A02C0E9FF03C0EAFFEFCFBA
:1030F00002F0029200C0E9FF01C0EAFF02C0EFFF48
:103100000C0E0F01546F0F01549B54990F01556B16
:103110000301006B020E016F026B0A0E036F046B5A
:10312000100E056F070E066F07910783800EE56E80
:10313000030EE56E230EE56EC5EC30F0030EE126BE
:10314000800EE56E030EE56E440EE56E24EC24F071
:10315000030EE126800EE56E030EE56E330EE56E7E
:1031600024EC24F0030EE12603011E6B1F6B206B81
:10317000216B22912295096B0A6B0B6B0C6B116B07
:10318000126B136B146B9486820E006E0F0E016E21
:103190000F0E036E380E0026035001220F0E036E31
:1031A000800E005E0350015A820E026E0F0E036EF7
:1031B0000F0E056E380E0226055003220F0E056E07
:1031C000800E025E0550035A02C0E9FF03C0EAFF09
:1031D000EFCF02F0029600C0E9FF01C0EAFF02C093
:1031E000EFFF9488820E006E0F0E016E0F0E036EBD
:1031F000380E0026035001220F0E036E800E005E73
:103200000350015A820E026E0F0E036E0F0E056EF2
:10321000380E0226055003220F0E056E800E025E48
:103220000550035A02C0E9FF03C0EAFFEFCF02F0E6
:10323000029800C0E9FF01C0EAFF02C0EFFF8A88E0
:10324000939893900C0E0F01576F9392B96AB984BB
:10325000BD6E0F01579B57990F01586BBD9ABD98D2
:10326000BE6A03010783016B026B960E036F046B4A
:10327000090E066F50EC39F0330ECD6E9D809F80A5
:10328000E4CF05F0E4CF03F0E4CF02F0E4CF01F0A7
:10329000E4CF00F0120000C0E5FF01C0E5FF02C06E
:1032A000E5FF03C0E5FFF7EC22F039EC0FF0ADECE1
:1032B00021F07FEC35F0006EF3CF01F0F4CF02F097
:1032C000E9CF03F004017C51005E7D51015A7E512B
:1032D000025A7F51035A039E3F0E035C08E1FF0E22
:1032E000025C05E1FF0E015C02E1FF0E005CD8B05C
:1032F00016D17FEC35F0F3CF01F0F4CF02F0E9CF37
:1033000003F0100F04017C6F270E01207D6F000E6B
:1033100002207E6F000E03207F6F89EC11F0F7EC26
:1033200022F06EEC36F004C0E5FFF2CF04F0F29E1E
:10333000030116510501406F030117510501416F4B
:10334000030118510501426F030119510501436F33
:1033500003011A510501446F03011B510501456F1B
:1033600003011C510501466F03011D510501476F03
:1033700003011E510501486F03011F510501496FEB
:103380000301205105014A6F0301215105014B6FD3
:103390000301225105014C6F03011A6B1B6B1C6B5F
:1033A0001D6B04BEF28EE4CF04F0800EE56E030EBA
:1033B000E56E000EE56E51EC09F0030EE1260BC33D
:1033C000A3F50CC3A4F50501A451800F7C0F02E105
:1033D000000EA35D04E30501A369030EA46F0501BC
:1033E000A451800F840F02E1010EA35D05E2010EDE
:1033F0000501A36FFC0EA46F0501A451800F800F7F
:1034000002E1010EA35D10E30501A451800FF36EEC
:1034100003010451800FF35C03E103510501A35D37
:1034200003E20501A36BA46BD8800501A4AFD8907B
:1034300015E30301041D016E031D006E004A012AFD
:103440000150800FF36E0501A451800FF35C02E17F
:10345000A351005C03E20501A36BA46B030107A366
:1034600009D022A507D0D8800501A4AFD89002E3E7
:10347000A36BA46BD8800501A4AFD89007E3A35138
:10348000FF0F006E030EA421016E04D0A3C500F04F
:10349000A4C501F000C0A5F501C0A6F50501A55120
:1034A000020BE840010BE838E844F46E0F01545178
:1034B000DF0BF410546F0501A551010B010BE83827
:1034C000F46E0F015451EF0BF410546F0501A63543
:1034D000A631016EA531006E013401320032005078
:1034E0000F01556FD8800501A4AFD89002E38A8AF6
:1034F00001D08A9AD8800501A4AFD89003E30301D4
:10350000229302D00301228337C400F00401372B39
:103510000B0E005C04E346EC2CF00401376BE4CFA7
:1035200003F0E4CF02F0E4CF01F0E4CF00F01200AA
:10353000800EE56E030EE56E950EE56E6AEC31F0D9
:10354000030EE126800EE56E030EE56E750EE56E48
:103550006AEC31F0030EE126800EE56E030EE56E97
:10356000970EE56E6AEC31F0030EE126800EE56EF3
:10357000030EE56E770EE56E6AEC31F0030EE12680
:10358000800EE56E030EE56E990EE56E6AEC31F085
:10359000030EE126800EE56E030EE56E790EE56EF4
:1035A0006AEC31F0030EE126800EE56E030EE56E47
:1035B0009B0EE56E6AEC31F0030EE126800EE56E9F
:1035C000030EE56E7B0EE56E6AEC31F0030EE1262C
:1035D000800EE56E030EE56E9D0EE56E6AEC31F031
:1035E000030EE126800EE56E030EE56E7D0EE56EA0
:1035F0006AEC31F0030EE126800EE56E030EE56EF7
:103600009F0EE56E6AEC31F0030EE126800EE56E4A
:10361000030EE56E7F0EE56E6AEC31F0030EE126D7
:10362000800EE56E030EE56EA10EE56E6AEC31F0DC
:10363000030EE126800EE56E030EE56E810EE56E4B
:103640006AEC31F0030EE126800EE56E030EE56EA6
:10365000A30EE56E6AEC31F0030EE126800EE56EF6
:10366000030EE56E830EE56E6AEC31F0030EE12683
:10367000800EE56E030EE56EA50EE56E6AEC31F088
:10368000030EE126800EE56E030EE56E850EE56EF7
:103690006AEC31F0030EE126800EE56E030EE56E56
:1036A000A70EE56E6AEC31F0030EE126800EE56EA2
:1036B000030EE56E870EE56E6AEC31F0030EE1262F
:1036C000800EE56E030EE56EA90EE56E6AEC31F034
:1036D000030EE126800EE56E030EE56E890EE56EA3
:1036E0006AEC31F0030EE126800EE56E030EE56E06
:1036F000AB0EE56E6AEC31F0030EE126800EE56E4E
:10370000030EE56E8B0EE56E6AEC31F0030EE126DA
:10371000800EE56E030EE56EAD0EE56E6AEC31F0DF
:10372000030EE126800EE56E030EE56E8D0EE56E4E
:103730006AEC31F0030EE126800EE56E030EE56EB5
:10374000AF0EE56E6AEC31F0030EE126800EE56EF9
:10375000030EE56E8F0EE56E6AEC31F0030EE12686
:10376000800EE56E030EE56EB10EE56E6AEC31F08B
:10377000030EE126800EE56E030EE56E910EE56EFA
:103780006AEC31F0030EE126800EE56E030EE56E65
:10379000B30EE56E6AEC31F0030EE126800EE56EA5
:1037A000030EE56E930EE56E6AEC31F0030EE12632
:1037B0001200D9CFE5FFE1CFD9FF00C0E5FF01C07E
:1037C000E5FF02C0E5FF03C0E5FF04C0E5FF05C05B
:1037D000E5FF06C0E5FF07C0E5FF08C0E5FF020EF4
:1037E000DBCF00F0030EDBCF01F0040EDBCF02F0E5
:1037F000036A046AA9EC35F0056EFE0A01E075D093
:1038000018EC31F0A9EC35F0066E040E065CD8B069
:103810005AD0FA6AFB6A0634FA36E834FA36FC0BF8
:10382000300FE56E380EFA22000EFB22E450F96EDE
:1038300020EF1CF02CEF1CF03FEF1CF052EF1CF0BF
:1038400000C0E9FF01C0F3FF0250A0EC38F0076EA2
:1038500007C003F0046A37D00050010F076E000E56
:103860000120086E000E022007C0E9FF08C0F3FF28
:10387000A0EC38F0076E07C003F0046A24D00050B3
:10388000020F076E000E0120086E000E022007C016
:10389000E9FF08C0F3FFA0EC38F0076E07C003F0A3
:1038A000046A11D000500F0F076E000E0120086E41
:1038B000000E022007C0E9FF08C0F3FF15EC38F046
:1038C000036EF3CF04F00450E56E0350E56EE56A35
:1038D0000650E56E000EE56E490EE56E680EE56E6B
:1038E000DBEC32F0070EE1268DD0040E055CD8B07B
:1038F00089D0FA6AFB6A0534FA36E834FA36FC0BEA
:10390000100FE56E390EFA22000EFB22E450F96E1C
:1039100090EF1CF09DEF1CF0C8EF1CF0DEEF1CF0E8
:10392000A9EC35F0036E03C0E5FF00C0E9FF01C05C
:10393000F3FF025031EC39F065D00050010F036EF7
:10394000000E0120046E000E0220056EA9EC35F079
:10395000066E06C0E5FF03C0E9FF04C0F3FF055093
:1039600031EC39F00650D8A44DD00050030F036E4F
:10397000000E0120046E000E0220E56AF46AF66A69
:10398000F76A03C0E9FF04C0F3FF8FEC38F03AD0C8
:103990000050020F036E000E0120046E000E022084
:1039A000056EA9EC35F0066E06C0E5FF03C0E9FF21
:1039B00004C0F3FF055031EC39F024D00F0E00267F
:1039C000000E01220222A9EC35F0066E056AE56AB6
:1039D00006C0F4FF00C0E9FF01C0F3FF0250F8EC9D
:1039E00038F0A9EC35F0046A05260450062205C01B
:1039F000E5FF06C0F4FF00C0E9FF01C0F3FF02507D
:103A0000F8EC38F0E4CF08F0E4CF07F0E4CF06F0AC
:103A1000E4CF05F0E4CF04F0E4CF03F0E4CF02F00C
:103A2000E4CF01F0E4CF00F0E4CFD9FF120000C0F2
:103A3000E5FF01C0E5FF02C0E5FF03C0E5FF0401AB
:103A40001151D8B40AD1A3A81DD0A4A81BD0050138
:103A5000B1510501AE1905E1CEEC38F00501AE6BB0
:103A6000FCD0000E0501B125006E016A0F0E012287
:103A700000C0E9FF01C0EAFFEFCFAAF5B12BAAC54C
:103A800073FFEBD0A4AAE9D071A205D00501AF81E4
:103A9000CEEC38F0E2D071A405D00501AF83CEECB6
:103AA00038F0DBD071A048D074CFAAF512C400F072
:103AB000016A008EAAC502F0036A0250001803E1F1
:103AC0000350011801E004D00501AF897196C5D0FB
:103AD0000501AA5104E0AA510401121929E10501C6
:103AE000AF9971960501AA5103E00501AF9702D085
:103AF0000501AF87AAC5B3F5ACC5B4F50501AC5156
:103B0000006E00040501B56F600E0501B425006E5E
:103B1000016A000E012200C0E9FF01C0EAFFAAC548
:103B2000EFFFB42BB451800A02E10501B46B95D0CC
:103B30000501AF99718691D074CFAAF50501AFA99F
:103B400021D012C400F0016A008EAAC502F0036AF7
:103B50000250001803E10350011801E011D0929CBB
:103B6000A39A71980501AE5104E1736ACEEC38F066
:103B700007D000CF73FF010E0501B16FA3886DD090
:103B800071866BD00501AA510501B3270501B45117
:103B90000501B5191BE10501B3510CE1B4C5ACF544
:103BA0000501AFB712D0929CA39A7198736ACEECBC
:103BB00038F00BD00501AF85AFB707D0929CA39A20
:103BC0007198010E736ECEEC38F047D00501B451F8
:103BD0000501AD1908E10501AD510501AC1903E07E
:103BE000CEEC38F03AD0ACC500F0016A004A012AA8
:103BF000E56A800EE56E0150E56E0050E56E94ECCE
:103C00002AF0006E040EE12600500501AB6F05019D
:103C1000B4190FE1AAC500F01F0E00140501B56F1D
:103C2000006E020E0024B56F0501AC510501B527E9
:103C3000B59FB4C500F00501B42B016A600E0026E3
:103C4000000E012200C0E9FF01C0EAFFAAC5EFFF94
:103C5000B451800A02E10501B46BE4CF03F0E4CF74
:103C600002F0E4CF01F0E4CF00F01200D9CFE5FF7D
:103C7000E1CFD9FF00C0E5FF01C0E5FF02C0E5FFCD
:103C800003C0E5FF04C0E5FF05C0E5FF06C0E5FF92
:103C900007C0E5FF020EDBCF00F0030EDBCF01F023
:103CA000040EDBCF02F0050EDBCF03F0060EDBCFF8
:103CB00004F0070EDBCF05F0080EDBCF06F0090E8F
:103CC000DBCF07F0005005017A6F01507B6F025087
:103CD0007C6F03507D6F045005017E6F05507F6F30
:103CE0000650806F0750816F05017A5105018003EE
:103CF000F4CF01F0F3CF00F000500501846F0150C4
:103D0000856F05017A5105017E03F4CF01F0F3CFF1
:103D100000F000500501826F0150836F05017D5155
:103D200005017E03F3CF00F0050185510026005008
:103D3000856F05017C5105017F03F3CF01F0015030
:103D4000002600500501856F05017C5105017E03A9
:103D5000F4CF01F0F3CF00F0050184510026855126
:103D600001220050846F0150856F05017B510501D0
:103D70007F03F4CF03F0F3CF02F00250002603508C
:103D8000012200500501846F0150856F05017B51B0
:103D900005018003F3CF00F000500501896F050194
:103DA0007B5105017E03F4CF01F0F3CF00F000500A
:103DB0000501876F0150886F05017A510501810364
:103DC000F3CF00F0005005018D6F05017A51050118
:103DD0007F03F4CF01F0F3CF00F0005005018B6FAB
:103DE00001508C6F0501866B05018A6B05018651B8
:103DF00005018225006E0501875105018321016EB1
:103E00000501885105018421026E050189510501D2
:103E10008521036E0050826F0150836F0250846FC2
:103E20000350856F05018A5105018225006E050149
:103E30008B5105018321016E05018C5105018421FF
:103E4000026E05018D5105018521036E03C0E9FF56
:103E500002C0F4FF01C0F3FF0050E4CF07F0E4CF4D
:103E600006F0E4CF05F0E4CF04F0E4CF03F0E4CFB4
:103E700002F0E4CF01F0E4CF00F0E4CFD9FF12006C
:103E8000D9CFE5FFE1CFD9FF00C0E5FF01C0E5FFD5
:103E900002C0E5FF03C0E5FF04C0E5FF05C0E5FF84
:103EA00006C0E5FF07C0E5FF08C0E5FF09C0E5FF64
:103EB0000AC0E5FF0BC0E5FF0CC0E5FF0DC0E5FF44
:103EC0000EC0E5FF0FC0E5FF020EDBCF00F0030ED2
:103ED000DBCF01F0040EDBCF02F0050EDBCF03F0E9
:103EE000060EDBCF04F0070EDBCF05F0080EDBCFAC
:103EF00006F0200E076E086A06C009F00A6A0B6A0F
:103F00000C6AE56AE56AE56A0950E56E0350E56EFC
:103F10000250E56E0150E56E0050E56E5AEC22F05D
:103F20000D6E080EE126300E0D263A0E0D5C05E3EF
:103F30000D500E6E270E0E240D6EFF0E0726082262
:103F4000D50E07240E6E030E08200F6E0EC0E9FF7B
:103F50000FC0EAFF0DC0EFFF0C50E56E0B50E56E91
:103F60000A50E56E0950E56E0350E56E0250E56EAD
:103F70000150E56E0050E56E4BEC25F0006EF3CF7E
:103F800001F0F4CF02F0E9CF03F0080EE126005073
:103F9000011002100310D8A4AFD707C000F008C06A
:103FA00001F004C002F005C003F000C004F001C03D
:103FB00005F0004A012AD50E0426030E052204C08E
:103FC000E9FF05C0EAFFEFCF04F002C0E9FF03C03C
:103FD000EAFF04C0EFFF024A032A000E015C02E17F
:103FE000200E005CE2E302C0E9FF03C0EAFF000E1E
:103FF000EF6AE4CF0FF0E4CF0EF0E4CF0DF0E4CFA2
:104000000CF0E4CF0BF0E4CF0AF0E4CF09F0E4CFFA
:1040100008F0E4CF07F0E4CF06F0E4CF05F0E4CFFA
:1040200004F0E4CF03F0E4CF02F0E4CF01F0E4CFFA
:1040300000F0E4CFD9FF1200D9CFE5FFE1CFD9FFDF
:1040400000C0E5FF01C0E5FF02C0E5FF03C0E5FFDA
:1040500004C0E5FF05C0E5FF06C0E5FF07C0E5FFBA
:1040600008C0E5FF09C0E5FF0AC0E5FF0BC0E5FF9A
:104070000CC0E5FF0DC0E5FF020EDBCF00F0030E24
:10408000DBCF01F0040EDBCF02F0050EDBCF03F037
:10409000060EDBCF04F0070EDBCF05F0080EDBCFFA
:1040A00006F0090EDBCF07F0D88003AED890086A7F
:1040B000083608500FE0031C0C6E021C0B6E011C2E
:1040C0000A6E001C096E092A0DE10A2A0BE10B4A4F
:1040D0000C2A08D000C009F001C00AF002C00BF0A1
:1040E00003C00CF0D88007AED890006A00360050AC
:1040F0000FE0071C0D6E061C036E051C026E041CEF
:10410000016E012A0DE1022A0BE1034A0D2A08D0B3
:1041100004C001F005C002F006C003F007C00DF0B6
:104120000D50E56E0350E56E0250E56E0150E56EF0
:104130000C50E56E0B50E56E0A50E56E0950E56EC9
:104140004BEC25F0016EF3CF02F0F4CF03F0E9CF92
:1041500004F0080EE1260050081A085016E0041C6E
:10416000076E031C066E021C056E011C006E002A01
:1041700004E1052A02E1064A072A07C0E9FF06C052
:10418000F4FF05C0F3FF005007D004C0E9FF03C0EF
:10419000F4FF02C0F3FF0150E4CF0DF0E4CF0CF0C8
:1041A000E4CF0BF0E4CF0AF0E4CF09F0E4CF08F05D
:1041B000E4CF07F0E4CF06F0E4CF05F0E4CF04F05D
:1041C000E4CF03F0E4CF02F0E4CF01F0E4CF00F05D
:1041D000E4CFD9FF120000C0E5FF01C0E5FF02C037
:1041E000E5FF03C0E5FF9EA0AAD0006A80BA002ABE
:1041F0000050010BF46E03010851FE0BF410086F20
:10420000006A82B6002A0050010A08E103011E6B11
:104210001F6B206B216B2281228502D00301229526
:10422000006A030108B1002A016A08B5012A00509A
:10423000011801E180D0006A030108B1002A005092
:10424000010BE844E844F46E0851FB0BF410086FCE
:1042500016511A5D006E17511B59016E18511C59E9
:10426000026E19511D59036E00501A6F01501B6FD9
:1042700002501C6F03501D6F0F0134510301166F64
:104280000F0135510301176F0F0136510301186FEC
:104290000F0137510301196F0F01345100263551B9
:1042A00001223651022237510322005003011A6FB6
:1042B00001501B6F02501C6F03501D6F006A0401F8
:1042C00080B3002A0050010BE844F46E030108514A
:1042D000FD0BF410086F22A318D01EC300F01FC3FB
:1042E00001F020C302F021C303F0002A04E3012AF5
:1042F00002E3024A032A005003011E6F01501F6FA0
:104300000250206F0350216F16D01EC300F01FC350
:1043100001F020C302F021C303F0FF0E00260122AA
:1043200002220322005003011E6F01501F6F025032
:10433000206F0350216FCF689B0ECE6E9E90DCECF9
:1043400038F0E4CF03F0E4CF02F0E4CF01F0E4CFA3
:1043500000F0120043002563000000C0E5FF01C02B
:10436000E5FF02C0E5FF03C0E5FF7FEC35F0006E1E
:10437000F3CF01F0F4CF02F0E9CF03F0050176515D
:10438000005E7751015A7851025A7951035A039EBF
:104390003F0E035C08E1FF0E025C05E1FF0E015CCD
:1043A00002E1FF0E005C16E27EEC39F07FEC35F0A6
:1043B000F3CF01F0F4CF02F0E9CF03F0500F050185
:1043C000766F460E0120776F000E0220786F000E88
:1043D0000320796F080E0401285DD8B062D00F0168
:1043E0004EB15FD004012851020DF450016EF3CF9D
:1043F00000F0300E0026050E012200C0E9FF01C0CA
:10440000EAFFEECF02F0EFCF03F00250031002E11B
:10441000282B47D004012851030DF450036EF3CF2D
:1044200002F0E80E0226040E032202C0E9FF03C0D8
:10443000EAFFEECFFDF3EECFFEF3EFCFFFF38A0EF0
:104440002825026E036A040E032202C0E9FF03C09E
:10445000EAFFEFCFB9F500C0E9FF01C0EAFFEECFF8
:1044600000F0EFCF01F0001E011E01500F01506F50
:1044700000500F014F6F7E9204C0E5FFF2CF04F0B1
:10448000F29E0301FD51E96EFE51EA6E0501B9513C
:10449000EF120F014E8104BEF28EE4CF04F004014E
:1044A000282BE4CF03F0E4CF02F0E4CF01F0E4CF17
:1044B00000F01200D9CFE5FFE1CFD9FF00C0E5FF42
:1044C00001C0E5FF02C0E5FF03C0E5FF04C0E5FF52
:1044D00005C0E5FF06C0E5FF07C0E5FF08C0E5FF32
:1044E00009C0E5FF0AC0E5FF020EDBCF00F0030EB6
:1044F000DBCF01F0040EDBCF02F0050EDBCF03F0C3
:10450000060EDBCF04F0070EDBCF05F0080EDBCF85
:1045100006F0090EDBCF07F0086A045005100610FC
:10452000071005E1E968F468F368E86847D0096AAC
:104530000750800BE8440A6E0A501BE10450042621
:104540000536063607360750035C08E10650025C64
:1045500005E10550015C02E10450005C06E2D890E0
:10456000073206320532043204D0092A09C008F0A5
:10457000DFD70750035C08E10650025C05E10550F7
:10458000015C02E10450005C08E30450005E055049
:10459000015A0650025A0750035AD8900732063281
:1045A0000532043208C009F008060950E2E103C0F0
:1045B000E9FF02C0F4FF01C0F3FF0050E4CF0AF0AE
:1045C000E4CF09F0E4CF08F0E4CF07F0E4CF06F041
:1045D000E4CF05F0E4CF04F0E4CF03F0E4CF02F041
:1045E000E4CF01F0E4CF00F0E4CFD9FF120000C027
:1045F000E5FF01C0E5FF02C0E5FF03C0E5FF04C021
:10460000E5FF0501AD510501AC1901E16AD0ADC569
:1046100000F00050016E0128006E009E600E002424
:10462000016E026A000E022201C0E9FF02C0EAFF29
:10463000EFCFB7F51F0E0501B717ADC5B6F5B751EA
:104640000501B627B651016E020E0124B66FB69F62
:10465000A9EC35F0016E015003E1016A012A01D095
:10466000016AA9EC35F00501B76FB7C502F0800EFD
:104670000216B7C503F01F0E031603C004F003C0F3
:10468000B7F5045003E1ACC5ADF53ED001501EE0D6
:10469000025025E0A9EC35F0006E0501B751016E1E
:1046A0000104B76F0050420A1AE000504E0A03E1BD
:1046B00099EC32F014D00050460A03E11BEC39F0BB
:1046C0000ED00050490A0BE1FF0009D0ADC5B8F586
:1046D000025003E0BEEC2FF002D00EEC28F0B6C57D
:1046E000ADF504010E5104010F1906E00501AE51AC
:1046F00003E18FEC23F008D092BC06D00501AE5147
:1047000003E172B2CEEC38F0E4CF04F0E4CF03F072
:10471000E4CF02F0E4CF01F0E4CF00F0120000C0DB
:10472000E5FF01C0E5FF02C0E5FF03C0E5FF04C0EF
:10473000E5FF72A27ED0FCEC36F0006E005005E181
:1047400004010F6B04010E6B74D00FC401F0005014
:104750000126FCEC36F0026E0050036E0304006E7E
:104760000250230A1FE1010E005CD8A060D0FCECCF
:1047700036F0026E690A03E14EEC35F058D0025073
:10478000720A03E1CEEC38F052D00250730A01E015
:104790004ED0928C7186A38AA398745074507198ED
:1047A000718845D00250430A05E00250420A01E0F8
:1047B0003ED006D000C003F0046A038E0350006EA2
:1047C00000C0B0F500500F01006F010E0501B16F80
:1047D00004010F51011814E0FCEC36F0026E0501E3
:1047E000B027000E0501B125006E036A0F0E0322EB
:1047F00000C0E9FF03C0EAFF02C0EFFFB12BE8D71A
:10480000000E0501B125006E026A0F0E022205019D
:10481000B01D036E032A00C0E9FF02C0EAFF03C017
:10482000EFFF0501B12BB1C5AEF50501A86B01C0C5
:104830000FF4E4CF04F0E4CF03F0E4CF02F0E4CFD0
:1048400001F0E4CF00F01200D9CFE5FFE1CFD9FFAE
:1048500000C0E5FF01C0E5FF02C0E5FF03C0E5FFC2
:1048600004C0E5FF05C0E5FF06C0E5FF07C0E5FFA2
:10487000020EDBCF00F0030EDBCF01F0040EDBCF26
:1048800002F000500B0F036E000E0120046E000EAC
:104890000220E56AF46AF66AF76A03C0E9FF04C019
:1048A000F3FF8FEC38F00050070F036E000E01206D
:1048B000046E000E0220056E0050030F066E000EFF
:1048C0000120076E000E0220E56AF46AF66AF76AB4
:1048D00006C0E9FF07C0F3FF8FEC38F0E56AF46A21
:1048E000F66AF76A03C0E9FF04C0F3FF05508FECD6
:1048F00038F00050010F036E000E0120046E000E10
:104900000220056E0050020F066E000E0120076E99
:10491000000E0220E56A06C0E9FF07C0F3FF31EC94
:1049200039F0E56A03C0E9FF04C0F3FF055031EC3C
:1049300039F0E56A00C0E9FF01C0F3FF025031EC35
:1049400039F0E4CF07F0E4CF06F0E4CF05F0E4CF90
:1049500004F0E4CF03F0E4CF02F0E4CF01F0E4CFC1
:1049600000F0E4CFD9FF120025642025640A00007E
:10497000D9CFE5FFE1CFD9FF00C0E5FF01C0E5FFDA
:1049800002C0E5FF03C0E5FF04C0E5FF05C0E5FF89
:1049900006C0E5FF07C0E5FF08C0E5FF09C0E5FF69
:1049A0000AC0E5FF020EDBCF00F0030EDBCF01F003
:1049B000040EDBCF02F0050EDBCF03F0060EDBCFDB
:1049C00004F0070EDBCF05F00038E8441F0B066E3D
:1049D000076A9D0E0626050E072206C0E9FF07C0DE
:1049E000EAFFEFCF08F00050096E070E0916010E1E
:1049F0000A6E09500DE006E6E86CD8900A36010F01
:104A0000FDE306D0D8900ABED8800A32010FFBE33E
:104A100008500A1206C0E9FF07C0EAFF0AC0EFFF0C
:104A2000100E0024066E076A050E072206C0E9FF75
:104A300007C0EAFF01C0EFFF016A000E0026050E65
:104A40000122800E025E070E02160238F00B036E82
:104A5000070E05160550032600C0E9FF01C0EAFF56
:104A600003C0EFFFE4CF0AF0E4CF09F0E4CF08F091
:104A7000E4CF07F0E4CF06F0E4CF05F0E4CF04F094
:104A8000E4CF03F0E4CF02F0E4CF01F0E4CF00F094
:104A9000E4CFD9FF1200D9CFE5FFE1CFD9FF00C0A5
:104AA000E5FF01C0E5FF02C0E5FF03C0E5FF04C06C
:104AB000E5FF05C0E5FF06C0E5FF07C0E5FF08C04C
:104AC000E5FF09C0E5FF0AC0E5FF0BC0E5FF0CC02C
:104AD000E5FF0DC0E5FF020EDBCF00F0030EDBCFDC
:104AE00001F0040EDBCF02F0050EDBCF03F0060E63
:104AF000DBCF04F0070EDBCF05F0080EDBCF06F0AE
:104B0000090EDBCF07F0086A096A0A6A0B6A200EF1
:104B10000C6E0350800BE8440D6E005000260136E9
:104B2000023603360850082609360A360B360D5071
:104B3000D8A4088007500B5C08E106500A5C05E128
:104B40000550095C02E10450085C09E30450085E6A
:104B50000550095A06500A5A07500B5A00800C0497
:104B60000D6E0DC00CF00D50D4E103C0E9FF02C082
:104B7000F4FF01C0F3FF0050E4CF0DF0E4CF0CF0E0
:104B8000E4CF0BF0E4CF0AF0E4CF09F0E4CF08F073
:104B9000E4CF07F0E4CF06F0E4CF05F0E4CF04F073
:104BA000E4CF03F0E4CF02F0E4CF01F0E4CF00F073
:104BB000E4CFD9FF120000C0E5FF01C0E5FF03C04C
:104BC000E5FF04C0E5FF05C0E5FF06C0E5FF07C03F
:104BD000E5FF08C0E5FF09C0E5FF0AC0E5FF0BC01F
:104BE000E5FF9BC500F09CC501F005019B3F01D08E
:104BF0009C2B0050E56EC0EC38F0E652076E046A5C
:104C0000056A066A9BC500F09CC501F005019B3F43
:104C100001D09C2B0050E56EC0EC38F0E6520B6AD8
:104C20000A6E086A0850041205120A5006120B5048
:104C300007129BC500F09CC501F005019B3F01D008
:104C40009C2B0050E56EC0EC38F0E652036E006A13
:104C500003C001F0E86A03BEFF0E086E096E005043
:104C600004120150051208500612095007129BC584
:104C700000F09CC501F005019B3F01D09C2B00502A
:104C8000E56EC0EC38F0E652016A041201500512DC
:104C90000612071207C0E9FF06C0F4FF05C0F3FFC4
:104CA0000450E4CF0BF0E4CF0AF0E4CF09F0E4CFF6
:104CB00008F0E4CF07F0E4CF06F0E4CF05F0E4CF4E
:104CC00004F0E4CF03F0E4CF01F0E4CF00F01200F1
:104CD000D9CFE5FFE1CFD9FF00C0E5FF01C0E5FF77
:104CE00002C0E5FF03C0E5FF04C0E5FF05C0E5FF26
:104CF00006C0E5FF07C0E5FF020EDBCF00F0030EA4
:104D0000DBCF01F0040EDBCF02F0050EDBCF03F0AA
:104D100003C004F0056A0350D8B454D000C0E9FFC2
:104D200001C0F3FF0250A0EC38F0066E430A08E120
:104D3000010E056E03C006F0076A068E0650036E6C
:104D40000406002A02E3014A022A929CA39A71985F
:104D5000A398A4A8FED77280736A0000A4A8FED707
:104D6000729003C073FF0000A4A8FED7055004E0B2
:104D7000420E736E032604D0620E736E620E03261B
:104D8000045015E00000A4A8FED700C0E9FF01C050
:104D9000F3FF0250A0EC38F0056E05C073FF05501C
:104DA00003260406002A02E3014A022AE9D700008A
:104DB000A4A8FED7031C736E732A0000A4A8FED714
:104DC000CEEC38F0E4CF07F0E4CF06F0E4CF05F006
:104DD000E4CF04F0E4CF03F0E4CF02F0E4CF01F03D
:104DE000E4CF00F0E4CFD9FF1200D9CFE5FFE1CF47
:104DF000D9FF00C0E5FF01C0E5FF02C0E5FF03C029
:104E0000E5FF04C0E5FF05C0E5FF06C0E5FF07C0FC
:104E1000E5FF08C0E5FF0BC0E5FF0CC0E5FF0DC0D6
:104E2000E5FF020EDBCF00F0030EDBCF01F0040E36
:104E3000DBCF02F0050EDBCF03F0060EDBCF04F074
:104E400003C0E5FF04C0F4FF00C0E9FF01C0F3FFA9
:104E50000250F8EC38F00050020F056E000E0120F1
:104E6000066E000E0220076EE86A04BEFF0E086E92
:104E700004500C6E0C2608340D6ED8900C360D368E
:104E80000344E844FC0B0B6E0350E844E844030B76
:104E90000C12E56A0BC0F4FF0CC0F6FF0DC0F7FF63
:104EA00005C0E9FF06C0F3FF07508FEC38F0080E8D
:104EB0000026000E01220222E56AF46AF66AF76A09
:104EC00000C0E9FF01C0F3FF02508FEC38F0E4CFDF
:104ED0000DF0E4CF0CF0E4CF0BF0E4CF08F0E4CF1A
:104EE00007F0E4CF06F0E4CF05F0E4CF04F0E4CF20
:104EF00003F0E4CF02F0E4CF01F0E4CF00F0E4CF20
:104F0000D9FF1200D9CFE5FFE1CFD9FF00C0E5FFFF
:104F100001C0E5FF02C0E5FF03C0E5FF04C0E5FFF7
:104F200005C0E5FF06C0E5FF07C0E5FF020EDBCFC9
:104F300000F0030EDBCF01F0040EDBCF02F0050E14
:104F4000DBCF03F002C006F00650046E800A33E1A6
:104F500000C0E9FF01C0F3FF025056EC37F0056EC8
:104F6000F3CF06F0F4CF07F003C0E5FF05C0E9FF7B
:104F700006C0F3FF075031EC39F000C0E9FF01C073
:104F8000F3FF025056EC37F0056EF3CF06F0F4CF86
:104F900007F0052A02E3064A072A05C0E5FF06C016
:104FA000F4FF07C0F6FF00C0E9FF01C0F3FF0250A5
:104FB000B1EC38F020D004C000F000AA1CD0007A78
:104FC0000050046E04E103506EEC39F014D004502C
:104FD000010A04E1035002EC00F00DD004500F0A66
:104FE00004E103501DEC35F006D004500E0A03E135
:104FF000035081EC39F0E4CF07F0E4CF06F0E4CFC2
:1050000005F0E4CF04F0E4CF03F0E4CF02F0E4CF06
:1050100001F0E4CF00F0E4CFD9FF120000C0E5FFBB
:1050200001C0E5FF02C0E5FF03C0E5FF05C0E5FFE5
:10503000A9EC35F0006E0A0A0CE000500B0A34E0CF
:105040000050140A01E159D00050780A01E158D00B
:1050500061D0A9EC35F0006A016EA9EC35F0036A65
:105060000026035001220050020BE840010BE838F3
:10507000E844F46E0F015751DF0BF410576F0050E6
:10508000010B010BE838F46E5751EF0BF410576F1A
:10509000D8900130036E0030026ED8900332023295
:1050A00002500F01586F36D0A9EC35F0026A036E3A
:1050B000A9EC35F0056A0224006E05500320016E4C
:1050C0000050020BE840010BE838E844F46EBD5094
:1050D000DF0BF410BD6E0050010B010BE838F46ECD
:1050E000BD50EF0BF410BD6ED89001320032D89055
:1050F000013200320050BE6E0DD078EC2DF00AD097
:10510000800EE56E030EE56E000EE56EDCEC0CF035
:10511000030EE126E4CF05F0E4CF03F0E4CF02F084
:10512000E4CF01F0E4CF00F01200D9CFE5FFE1CFEA
:10513000D9FF00C0E5FF01C0E5FF02C0E5FF03C0E5
:10514000E5FF04C0E5FF05C0E5FF06C0E5FF07C0B9
:10515000E5FF020EDBCF00F0030EDBCF01F0040E03
:10516000DBCF02F0050EDBCF03F00FC410F4040117
:105170000E510401105F1051046E0404106F03C03F
:1051800004F0056A030E0426D8B0052A10C406F000
:10519000076A0750800FF36E0550800FF35C02E141
:1051A0000450065C02E2E86830D0020E035C02E2C2
:1051B000E86A2BD00350046E0404036EE56E97EC8E
:1051C00033F0E652046A0350045C14E204500024F5
:1051D000056EE86A0120066EE86A022005C0E9FF54
:1051E00006C0F3FFA0EC38F0042AE56E97EC33F02C
:1051F000E652E9D70FC410F404010E510401105F08
:105200001051006E0004106FE86AE4CF07F0E4CF9D
:1052100006F0E4CF05F0E4CF04F0E4CF03F0E4CFF0
:1052200002F0E4CF01F0E4CF00F0E4CFD9FF1200A8
:1052300000C0E5FF01C0E5FF02C0E5FF03C0E5FFD8
:1052400004C0E5FF006A9D0E0024016E026A050E8F
:10525000022201C0E9FF02C0EAFFEF6A002A020E43
:10526000005CF1E3006A0050020DF450026EF3CFCF
:1052700001F0E00E0124036E000E0220046E03C054
:10528000E9FF04C0EAFFEE6AEF6A5C0E0124036ED8
:10529000040E0220046E03C0E9FF04C0EAFFEE6AB8
:1052A000EF6A550E0124036E030E0220046E03C044
:1052B000E9FF04C0EAFFEE6AEF6A750E0124036E8F
:1052C000030E0220046E03C0E9FF04C0EAFFEE6A89
:1052D000EF6A950E0126030E022201C0E9FF02C00B
:1052E000EAFFEE687F0EEF6E000E0024016E026A88
:1052F000050E022201C0E9FF02C0EAFFEF68002AA2
:10530000100E005CD8A0AFD7AF0EC06EC16A010E00
:10531000C26EC282E4CF04F0E4CF03F0E4CF02F027
:10532000E4CF01F0E4CF00F01200432041202564D7
:105330002025640A0000D9CFE5FFE1CFD9FF00C0E6
:10534000E5FF01C0E5FF02C0E5FF03C0E5FF04C0C3
:10535000E5FF05C0E5FF06C0E5FF07C0E5FF08C0A3
:10536000E5FF09C0E5FF0AC0E5FF0BC0E5FF0CC083
:10537000E5FF020EDBCF00F0030EDBCF01F0040EE1
:10538000DBCF02F0050EDBCF03F0060EDBCF04F01F
:10539000070EDBCF05F0080EDBCF06F0090EDBCFE2
:1053A00007F002500A6E0150096E0050086E06C0E8
:1053B0000BF007C00CF0FF0E062607220B500C1056
:1053C0001AE003C0E9FF04C0F3FF0550A0EC38F079
:1053D0000B6E032A02E3044A052A0BC0E5FF08C04E
:1053E000E9FF09C0F3FF0A5031EC39F0082ADFE386
:1053F000094A0A2ADCD702C0F4FF01C0F3FF0050BB
:10540000E4CF0CF0E4CF0BF0E4CF0AF0E4CF09F0E6
:10541000E4CF08F0E4CF07F0E4CF06F0E4CF05F0E6
:10542000E4CF04F0E4CF03F0E4CF02F0E4CF01F0E6
:10543000E4CF00F0E4CFD9FF1200D9CFE5FFE1CFF0
:10544000D9FF00C0E5FF01C0E5FF02C0E5FF03C0D2
:10545000E5FF04C0E5FF05C0E5FF020EDBCF00F06D
:10546000030EDBCF01F0040EDBCF02F00050020D83
:10547000F450036EF3CF00F05C0E0024046E040EB3
:105480000320056E04C0E9FF05C0EAFF01C0EEFF7E
:1054900002C0EFFF550E0024046E030E0320056EBC
:1054A00004C0E9FF05C0EAFFEECF04F0EFCF05F03E
:1054B0000150045C016E02500558026EB50E0026C4
:1054C000030E032200C0E9FF03C0EAFF01C0EEFFA4
:1054D00002C0EFFFD88002AED89004E3021E016C38
:1054E000D8B4022A0250800F800F02E1030E015C43
:1054F00002E2016A026A0150021007E100C0E9FFFE
:1055000003C0EAFF000EEE6AEF6AE4CF05F0E4CFD5
:1055100004F0E4CF03F0E4CF02F0E4CF01F0E4CFF5
:1055200000F0E4CFD9FF1200D9CFE5FFE1CFD9FFDA
:1055300000C0E5FF01C0E5FF02C0E5FF03C0E5FFD5
:1055400004C0E5FF05C0E5FF06C0E5FF020EDBCFA6
:1055500000F0030EDBCF01F0040EDBCF02F0050EEE
:10556000DBCF03F0D88001AED890046A0436045033
:1055700007E0011C066E001C056E054A062A04D0D1
:1055800000C005F001C006F0D88003AED89007E354
:10559000031C016E021C006E004A012A04D002C0E6
:1055A00000F003C001F00150E56E0050E56E0650BA
:1055B000E56E0550E56E61EC2FF0006EF3CF01F063
:1055C000040EE12604500AE0011C036E001C026E6A
:1055D000024A032A03C0F3FF025003D001C0F3FFC5
:1055E0000050E4CF06F0E4CF05F0E4CF04F0E4CFC0
:1055F00003F0E4CF02F0E4CF01F0E4CF00F0E4CF19
:10560000D9FF1200D9CFE5FFE1CFD9FF00C0E5FFF8
:1056100001C0E5FF02C0E5FF03C0E5FF04C0E5FFF0
:1056200005C0E5FF020EDBCF00F0030EDBCF01F07B
:10563000040EDBCF02F0050EDBCF03F09BC504F0B8
:105640009CC505F005019B3F01D09C2B0350E56EE6
:105650000450E56EB8EC36F0E652E6529BC504F015
:105660009CC505F005019B3F01D09C2B0250056EA7
:10567000E56E0450E56EB8EC36F0E652E6529BC596
:1056800004F09CC505F005019B3F01D09C2B015007
:10569000E56E0450E56EB8EC36F0E652E6529BC576
:1056A00004F09CC505F005019B3F01D09C2B0050E8
:1056B000E56E0450E56EB8EC36F0E652E652E4CF03
:1056C00005F0E4CF04F0E4CF03F0E4CF02F0E4CF40
:1056D00001F0E4CF00F0E4CFD9FF1200D9CFE5FF0D
:1056E000E1CFD9FF00C0E5FF01C0E5FF02C0E5FF43
:1056F00003C0E5FF04C0E5FF05C0E5FF06C0E5FF08
:10570000020EDBCF00F0030EDBCF01F00038E844DF
:105710001F0B026E036A9D0E0226050E032202C0B5
:10572000E9FF03C0EAFFEFCF04F00050056E070E5B
:105730000516010E066E05500DE006E6E86CD890E1
:105740000636010FFDE306D0D89006BED88006329B
:10575000010FFBE30450061202C0E9FF03C0EAFF99
:1057600006C0EFFF100E0024026E036A050E03222E
:1057700002C0E9FF03C0EAFF01C0EFFF016A000EAB
:105780000026050E012200C0E9FF01C0EAFFFF0E5E
:10579000EF68E4CF06F0E4CF05F0E4CF04F0E4CF07
:1057A00003F0E4CF02F0E4CF01F0E4CF00F0E4CF67
:1057B000D9FF1200D9CFE5FFE1CFD9FF00C0E5FF47
:1057C00001C0E5FF02C0E5FF03C0E5FF04C0E5FF3F
:1057D00005C0E5FF08C0E5FF09C0E5FF0AC0E5FF19
:1057E000020EDBCF00F0030EDBCF01F0040EDBCFA7
:1057F00002F0050EDBCF03F0060EDBCF04F003C092
:10580000E5FF04C0F4FF00C0E9FF01C0F3FF025050
:10581000F8EC38F0020E0026000E0122022204BE2F
:10582000FF0E056E0450096E092605340A6ED890E5
:1058300009360A360344E844FC0B086E0350E8447A
:10584000E844030B0912E56A08C0F4FF09C0F6FF3B
:105850000AC0F7FF00C0E9FF01C0F3FF02508FEC60
:1058600038F0E4CF0AF0E4CF09F0E4CF08F0E4CF59
:1058700005F0E4CF04F0E4CF03F0E4CF02F0E4CF8E
:1058800001F0E4CF00F0E4CFD9FF120000C0E5FF43
:1058900001C0E5FF03011F51006E016A00500401C1
:1058A000026F03011E510401036F006A82B6002AD1
:1058B000005003E1006A002A01D0006A0050040190
:1058C000046F006A82B8002A005003E1006A002ACF
:1058D00001D0006A00500401056F03010C51006EF5
:1058E000016A00500401066F03010B510401076FA8
:1058F000D89003012731016E2631006ED890013215
:1059000000322851E840E840C00B01122841E8402D
:105910003F0B00500501976F0150986F0401086F0D
:10592000050197510401096F0B0E0501996F9A6BE0
:105930000A0E04010A6F0B0EE56E800EE56E040E72
:10594000E56E000EE56E95EC28F0040EE126E4CF3E
:1059500001F0E4CF00F01200D9CFE5FFE1CFD9FF8D
:1059600000C0E5FF01C0E5FF02C0E5FF03C0E5FFA1
:1059700004C0E5FF05C0E5FF06C0E5FF020EDBCF72
:1059800000F0030EDBCF01F0040EDBCF02F00501C7
:10599000A75119E1DBEC25F0036EF3CF04F0F4CF4F
:1059A00005F0E9CF06F003C0E5FF04C0F4FF05C031
:1059B000F6FF06C0F7FF00C0E9FF01C0F3FF025089
:1059C0008FEC38F01ED00501A751010A1AE100C082
:1059D000E9FF01C0F3FF0250DCEC36F0006EF3CFBC
:1059E00001F0F4CF02F0E9CF03F00350E56E02506E
:1059F000E56E0150E56E0050E56E02EC2BF0040EF2
:105A0000E126E4CF06F0E4CF05F0E4CF04F0E4CFE4
:105A100003F0E4CF02F0E4CF01F0E4CF00F0E4CFF4
:105A2000D9FF1200D9CFE5FFE1CFD9FF00C0E5FFD4
:105A300001C0E5FF02C0E5FF03C0E5FF04C0E5FFCC
:105A4000020EDBCF00F0030EDBCF01F0040EDBCF44
:105A500002F00050070F036E000E0120046E000ECE
:105A60000220E56E0450E56E0350E56E1BEC33F04A
:105A7000030EE1260050230F036E000E0120046E7A
:105A8000000E0220E56E0450E56E0350E56E70ECEA
:105A900030F0030EE1260050330F036E000E01209C
:105AA000046E000E0220E56E0450E56E0350E56EB4
:105AB000A4EC2EF0030EE126440E0026000E012277
:105AC00002220250E56E0150E56E0050E56EA4EC36
:105AD0002EF0030EE126E4CF04F0E4CF03F0E4CF90
