:020000040000FA
:1000000065EF21F0C96E1200DDEF1DF07EEC08F007
:10001000DFEC19F0FDD712009AEF1FF0D9CFE5FF02
:10002000E1CFD9FF00C0E5FF01C0E5FF02C0E5FF59
:1000300003C0E5FF04C0E5FF05C0E5FF06C0E5FF1E
:1000400007C0E5FF08C0E5FF09C0E5FF0AC0E5FFFE
:100050000BC0E5FF0CC0E5FF0DC0E5FF0EC0E5FFDE
:100060000FC0E5FF10C0E5FF11C0E5FF12C0E5FFBE
:1000700013C0E5FF14C0E5FF15C0E5FF16C0E5FF9E
:1000800017C0E5FF18C0E5FF19C0E5FF1AC0E5FF7E
:100090001BC0E5FF1CC0E5FF1DC0E5FF1EC0E5FF5E
:1000A000020EDBCF00F0030EDBCF01F0040EDBCF3E
:1000B00002F0050EDBCF03F0060EDBCF04F0070ED7
:1000C000DBCF05F0080EDBCF06F0090EDBCF07F023
:1000D0000A0EDBCF08F0096A0A6A02C00DF00D5063
:1000E000800A0DE102500301596F0150586F005012
:1000F000576F030E016E570E006E800E026E03C026
:10010000E9FF04C0F3FF0550AFEC21F00B6E0B507C
:10011000D8B4C4EF03F00B50250A02E0ABEF03F0B4
:100120000C6A0D6A0E6A0F6A106A0A0E116E126A64
:10013000136A146A200E156E1668176A2B0E186E55
:10014000032A02E3044A052A03C0E9FF04C0F3FFBF
:100150000550AFEC21F0196E250A13E11950E56E38
:100160000250E56E0150E56E0050E56E38EC13F07C
:10017000040EE126094A0A2A032A02E3044A052A50
:10018000BED71950300A06E1300E156E032A02E37D
:10019000044A052A03C0E9FF04C0F3FF0550AFEC91
:1001A00021F02D0A06E1010E146E032A02E3044A2F
:1001B000052A03C0E9FF04C0F3FF0550AFEC21F0AE
:1001C000200A08E1010E176E200E186E032A02E3C2
:1001D000044A052A03C0E9FF04C0F3FF0550AFEC51
:1001E00021F02B0A06E1010E176E032A02E3044AEE
:1001F000052A03C0E9FF04C0F3FF0550AFEC21F06E
:10020000196E310E195C2BE33A0E195C28E203C01B
:1002100019F004C01AF005C01BF019C0E9FF1AC09C
:10022000F3FF1B50AFEC21F01C6E300E1C5C11E391
:100230003A0E1C5C0EE213500A0DF3CF1DF01C5059
:100240001D26D00E1D24136E192A02E31A4A1B2AFA
:10025000E4D719C003F01AC004F01BC005F003C0B6
:10026000E9FF04C0F3FF0550AFEC21F02E0A2DE1A9
:10027000032A02E3044A052A166A03C019F004C0DF
:100280001AF005C01BF019C0E9FF1AC0F3FF1B509C
:10029000AFEC21F01C6E300E1C5C11E33A0E1C5CBE
:1002A0000EE216500A0DF3CF1DF01C501D26D00E85
:1002B0001D24166E192A02E31A4A1B2AE4D719C014
:1002C00003F01AC004F01BC005F003C0E9FF04C02E
:1002D000F3FF0550AFEC21F0196E6C0A07E1010E37
:1002E0000C6E032A02E3044A052A09D01950680A51
:1002F00006E1010E0E6E032A02E3044A052A03C03A
:10030000E9FF04C0F3FF0550AFEC21F0750A06E1E8
:10031000010E106E032A02E3044A052A03C0E9FF16
:1003200004C0F3FF0550AFEC21F0196E730A05E12C
:10033000010E0D6E200E156E3FD01950780A03E1A4
:10034000100E116E39D01950580A05E1100E116EB9
:10035000010E126E31D01950630A02E1116A2CD0DD
:1003600019506F0A03E1080E116E26D01950660A63
:1003700003E1010E0F6E20D01950640A1DE01950E0
:10038000690A1AE0105005E0FF0E03260422052238
:1003900013D01950E56E0250E56E0150E56E005025
:1003A000E56E38EC13F0040EE126094A0A2A032A06
:1003B00002E3044A052AA3D60D5021E00650030F9C
:1003C0000D6E000E0720196E000E08201A6E0DC06B
:1003D00006F019C007F01AC008F0FD0E0D26FF0E3A
:1003E00019221A220DC0E9FF19C0F3FF1A507AEC46
:1003F00020F00D6EF3CF19F0F4CF1AF0FDD00F50AE
:100400000DE0000E1A6E080E196E100E0D6E040E21
:100410000626000E072208221668EED016680C5039
:1004200023E00650040F0C6E000E07200F6E000E26
:1004300008201B6E0CC006F00FC007F01BC008F0B0
:10044000FC0E0C26FF0E0F221B220CC0E9FF0FC072
:10045000F3FF1B50E3EC1FF00C6EF3CF0FF0F4CF63
:100460001BF0E9CF1CF067D00E502FE00650020FB2
:100470000E6E000E07201D6E000E08201E6E0EC0B0
:1004800006F01DC007F01EC008F0FE0E0E26FF0E7F
:100490001D221E220EC0E9FF1DC0F3FF1E5039ECC5
:1004A00021F00E6E0EC00CF00F6A1B6A1C6A115010
:1004B0000A0A03E11050D8B43ED00C500E6E0EC0A4
:1004C0000CF00F6A1B6A1C6A36D00650020F0E6EC3
:1004D000000E07201D6E000E08201E6E0EC006F0D6
:1004E0001DC007F01EC008F0FE0E0E26FF0E1D22D6
:1004F0001E220EC0E9FF1DC0F3FF1E5039EC21F093
:100500000E6EF3CF1DF00EC00CF01DC00FF0E86AA8
:100510001DBEFF0E1B6E1C6E11500A0A02E1105028
:100520000AE00C500E6E0F501D6E0EC00CF01DC078
:100530000FF01B6A1C6A040E196EF40E0D6E800E0D
:100540001A6E1150D8B440D0105013E01150E56E1F
:10055000040EE56EF40EE56E1C50E56E1B50E56E64
:100560000F50E56E0C50E56E75EC0FF0070EE126AE
:1005700012D01150E56E040EE56EF40EE56E1C50BF
:10058000E56E1B50E56E0F50E56E0C50E56E74EC99
:1005900018F0070EE12617502FE00DC0E9FF19C033
:1005A000F3FF1A50AFEC21F02D0A26E0FF0E0D26C6
:1005B00019221A2218C0E5FF0DC0E9FF19C0F3FF88
:1005C0001A5037EC22F018D00CC0E5FF0DC0E9FF3F
:1005D00019C0F3FF1A5037EC22F00D50010F0C6ECA
:1005E000000E19200E6E000E1A20E56A0CC0E9FFFD
:1005F0000EC0F3FF37EC22F00DC00CF019C00EF066
:100600001AC00FF013C010F0105010E00CC0E9FF3A
:100610000EC0F3FF0F50AFEC21F0176E175006E03D
:100620000C2A02E30E4A0F2A1006EED710C013F070
:1006300014501EE109C00CF00AC00EF010C00FF0FB
:100640000F5010E01550E56E0250E56E0150E56E5A
:100650000050E56E38EC13F0040EE1260C4A0E2A29
:100660000F06EED70CC009F00EC00AF00FC013F051
:1006700016C00CF00DC00DF019C00EF01AC00FF02E
:1006800009C010F00AC015F00DC0E9FF0EC0F3FF5D
:100690000F50AFEC21F0166E1650D8B43ED00CC0FF
:1006A00016F0176A161E171E1650171005E00CC01C
:1006B00016F00C06165031E00DC0E9FF0EC0F3FF36
:1006C0000F50AFEC21F0116E125010E01150E56E9A
:1006D000F6EC20F0166EE652165004E0DF0E111410
:1006E000166E02D011C016F016C011F01150E56E52
:1006F0000250E56E0150E56E0050E56E38EC13F0E7
:10070000040EE1260D2A02E30E4A0F2A104A152A8A
:100710001350D8B4B9D71306B7D710C009F015C015
:100720000AF014502BE010C00CF015C00DF013C0EF
:100730000EF00E501FE0200EE56E0250E56E0150E7
:10074000E56E0050E56E38EC13F0040EE1260C4A1D
:100750000D2A0E06EED70B50E56E0250E56E0150E5
:10076000E56E0050E56E38EC13F0040EE126094A00
:100770000A2A04D00CC009F00DC00AF0032A02E3D3
:10078000044A052A7FEF00F00AC0F3FF0950E4CFC6
:100790001EF0E4CF1DF0E4CF1CF0E4CF1BF0E4CF5B
:1007A0001AF0E4CF19F0E4CF18F0E4CF17F0E4CF5B
:1007B00016F0E4CF15F0E4CF14F0E4CF13F0E4CF5B
:1007C00012F0E4CF11F0E4CF10F0E4CF0FF0E4CF5B
:1007D0000EF0E4CF0DF0E4CF0CF0E4CF0BF0E4CF5B
:1007E0000AF0E4CF09F0E4CF08F0E4CF07F0E4CF5B
:1007F00006F0E4CF05F0E4CF04F0E4CF03F0E4CF5B
:1008000002F0E4CF01F0E4CF00F0E4CFD9FF120012
:100810003C4E4F20464C4F41543E000000C0E5FF87
:1008200001C0E5FF02C0E5FF03C0E5FF04C0E5FF2E
:1008300005C0E5FF06C0E5FF07C0E5FF08C0E5FF0E
:1008400009C0E5FF0AC0E5FF0BC0E5FF0CC0E5FFEE
:10085000006A016A026A040E025CD8B0E8D101C0E5
:1008600003F0012A100E035CD8B0E1D10001F02B97
:10087000100EF05D01E3F06B0001F039E8441F0B4E
:10088000036E046A5C0E0326030E042203C0E9FF14
:1008900004C0EAFFEFCF03F0070EF015046E010E5F
:1008A000056E000E066E045006E0E86CD890053622
:1008B0000636010FFCE3076A0350051607500616BB
:1008C00005500610D880E866D890056A05360550B0
:1008D000D8A4C1D70001F051020DF450046EF3CF3B
:1008E00003F0390E0324056E040E0420066E05C0C5
:1008F000E9FF06C0EAFFEECF05F0EFCF06F00001FA
:10090000EDA19DD0B30E0324076E040E0420086EE3
:1009100007C0E9FF08C0EAFFEECF07F0EFCF08F00D
:100920000650800FF36E0850800FF35C02E1075011
:10093000055C03E2056A066A60D0D30E0326040E46
:10094000042203C0E9FF04C0EAFFEECF03F0EFCFBB
:1009500004F00450800FF36E0650800FF35C02E148
:100960000550035C04E205683F0E066E46D0075052
:10097000055C096E085006580A6EE86A0ABEFF0E4A
:100980000B6EE56E0B50E56E0A50E56E0950E56E94
:10099000E56AE56A400EE56E000EE56A9EEC0BF036
:1009A000096EF3CF0AF0F4CF0BF0E9CF0CF0080E8C
:1009B000E1260750035C076E08500458086EE86A89
:1009C00008BEFF0E036EE56E0350E56E0850E56E3F
:1009D0000750E56E0C50E56E0B50E56E0A50E56E63
:1009E0000950E56E8EEC11F0036EF3CF04F0080EA3
:1009F000E1260350056E0450066E0001EC51800F95
:100A0000F36E0650800FF35C02E10550EB5D03E3EB
:100A1000056A066A14D00001EB51FF08036E3F0E11
:100A2000EC55046E0650800FF36E0450800FF35C9B
:100A300002E10350055C03E305683F0E066E00010A
:100A4000F051020DF450046EF3CF03F0930E032621
:100A5000040E042203C0E9FF04C0EAFFEECF03F056
:100A6000EFCF04F00350055C036E04500658046E8B
:100A7000D88004AED89004E3041E036CD8B4042AD2
:100A8000022A0001EC51800FF36E0450800FF35CDA
:100A900002E10350EB5DD8B0DED60001F051020D4B
:100AA000F450086EF3CF07F0930E0726040E0822C9
:100AB00007C0E9FF08C0EAFF05C0EEFF06C0EFFF70
:100AC0000001EDA55AD00001F051020DF450086E5E
:100AD000F3CF07F0000E0724096E030E08200A6EFC
:100AE00009C0E9FF0AC0EAFFEECF0BF0EFCF0CF030
:100AF0000B500C10D8B441D0590E0726040E082212
:100B000007C0E9FF08C0EAFFEECF07F0EFCF08F01B
:100B10000750055C036E08500658046E03101CE075
:100B20000450800F800F02E1010E035C076A073654
:100B30000C50800F800F02E1010E0B5C0B6A0B362C
:100B400007500B1809E109C0E9FF0AC0EAFF03C01A
:100B5000EEFF04C0EFFF7FD60001F051020DF4500C
:100B6000046EF3CF03F0000E0326030E042203C02D
:100B7000E9FF04C0EAFFEE6AEF6A0001EDA343D08B
:100B800000500EE100C003F0002A046AF10E0326B3
:100B9000000E042203C0E9FF04C0EAFF420EEF6E1C
:100BA00000C003F0002A046AF10E0326000E04229E
:100BB000640E0001F025076E03C0E9FF04C0EAFFE0
:100BC00007C0EFFF00C003F0002A046AF10E0326FD
:100BD000000E04220650076E03C0E9FF04C0EAFFBE
:100BE00007C0EFFF00C003F0002A046AF10E0326DD
:100BF000000E04220550076E03C0E9FF04C0EAFF9F
:100C000007C0EFFF28D6F0C003F00650E56E055090
:100C1000E56EE56A0350E56E000EE56E2B0EE56E9F
:100C2000B00EE56E70EC1CF0070EE12614D602C083
:100C300001F000501DE00001EDA31AD000C002F049
:100C4000002A036AF10E0226000E032202C0E9FF09
:100C500003C0EAFF0A0EEF6E0050E56E800EE56EEF
:100C6000000EE56EF10EE56EDEEC15F0040EE126E9
:100C70000150E4CF0CF0E4CF0BF0E4CF0AF0E4CF66
:100C800009F0E4CF08F0E4CF07F0E4CF06F0E4CFBA
:100C900005F0E4CF04F0E4CF03F0E4CF02F0E4CFBA
:100CA00001F0E4CF00F0120000C0E5FF01C0E5FF55
:100CB00002C0E5FF03C0E5FF04C0E5FF05C0E5FF96
:100CC00006C0E5FF07C0E5FF08C0E5FF09C0E5FF76
:100CD0000AC0E5FFC2A204D00001EE5167EF08F0A0
:100CE0000001EF51D8B41BD10001EE51020DF450B8
:100CF000016EF3CF00F0390E0026040E012200C071
:100D0000E9FF01C0EAFFEECF00F0EFCF01F0230EC4
:100D1000EE25026E036A040E032202C0E9FF03C03F
:100D2000EAFFEFCF02F00250FF0A01E152D0023891
:100D30000F0B036E920E0324046E056A0F0E05223C
:100D4000066A920E03260F0E062203C0E9FF06C0B4
:100D5000EAFFEFCF03F0070E0214066E010E076ED6
:100D6000065005E0E86CD8900736010FFDE3071C3C
:100D7000066E031604C0E9FF05C0EAFF03C0EFFFDB
:100D800002380F0B036E890E0324046E056A0F0EE2
:100D90000522066A890E03260F0E062203C0E9FF0C
:100DA00006C0EAFFEFCF03F0070E0214066E010E35
:100DB000076E065005E0E86CD8900736010FFDE39A
:100DC000071C066E031604C0E9FF05C0EAFF03C056
:100DD000EFFF0001EE51020DF450046EF3CF03F06B
:100DE000390E0326040E042201340130066E003051
:100DF000056E0634063205320634063205320550D9
:100E0000005C056E06500158066EC3CF07F0086AF5
:100E10000750052608500622C4CF07F0086A07507D
:100E20000A6E096A095005260A50062203C0E9FF26
:100E300004C0EAFF05C0EEFF06C0EFFF0001EA5163
:100E4000010A01E06AD00001EE51020DF450046E77
:100E5000F3CF03F0390E0324056E040E0420066E52
:100E600005C0E9FF06C0EAFFEECF00F0EFCF01F0CA
:100E7000B30E0326040E042203C0E9FF04C0EAFFF8
:100E8000EECF05F0EFCF06F09C0E0526D8A00606A3
:100E90000150800FF36E0650800FF35C02E10550A5
:100EA000005C0EE20050640F056E000E0120066E1D
:100EB00003C0E9FF04C0EAFF05C0EEFF06C0EFFF74
:100EC0000001EE51020DF450046EF3CF03F0D30E87
:100ED0000326040E042203C0E9FF04C0EAFFEECF9C
:100EE00005F0EFCF06F0640E0526D8B0062A0650AE
:100EF000800FF36E0150800FF35C02E10050055C3F
:100F00000CE29C0E0026D8A0010603C0E9FF04C035
:100F1000EAFF00C0EEFF01C0EFFF0001EF6B000130
:100F2000EE2B100EEE5D01E3EE6B0001EE39E844AE
:100F30001F0B006E016A5C0E0026030E012200C02A
:100F4000E9FF01C0EAFFEFCF00F0070EEE15016EDA
:100F5000010E036E000E046E015006E0E86CD8909E
:100F600003360436010FFCE3056A005003160550F2
:100F7000041603500410D880E866D890036A03363C
:100F80000350D8A4A2D0230E0001EE25006E016A02
:100F90000F0E012200C0E9FF01C0EAFFEFCF00F011
:100FA0000044E844FC0B016E0128C26E230EEE25BE
:100FB000006E016A040E012200C0E9FF01C0EAFFD1
:100FC000EFCF02F00250FF0A01E17BD002380F0B95
:100FD000006E920E0024016E036A0F0E0322046A53
:100FE000920E00260F0E042200C0E9FF04C0EAFFA3
:100FF000EFCF00F0070E0214046E010E056E0450D0
:1010000005E0E86CD8900536010FFDE305500012AD
:1010100001C0E9FF03C0EAFF00C0EFFF380E006E19
:101020000F0E016E02380F0B036E046A0350002688
:1010300004500122380E056E0F0E066E0550032671
:101040000650042203C0E9FF04C0EAFFEFCF03F01B
:10105000070E0216010E046E025005E0E86CD890EF
:101060000436010FFDE30450031200C0E9FF01C084
:10107000EAFF03C0EFFF0F01458300000000459326
:101080000F0144930BC0E5FFF2CF0BF0F29E4481B9
:101090000000000000000000000000000000000050
:1010A0000000000000000000000000000000000040
:1010B000000000000000000044910BBEF28EE4CF5F
:1010C0000BF0C282010E0001EF6F0001EE51E4CF80
:1010D0000AF0E4CF09F0E4CF08F0E4CF07F0E4CF62
:1010E00006F0E4CF05F0E4CF04F0E4CF03F0E4CF62
:1010F00002F0E4CF01F0E4CF00F0120000C0E5FF01
:1011000001C0E5FF02C0E5FF03C0E5FF04C0E5FF45
:101110006FEC22F0ABEC1EF0F3CF01F0F4CF02F055
:10112000E9CF03F0880F0401336F130E0120346FF1
:10113000000E0220356F000E0320366F5BEC15F0B9
:10114000928A800E006E0F0E016E0F0E036E380E27
:10115000002603500122800E026E0F0E036E800ED9
:10116000005E0350015A0F0E046E380E0226045022
:1011700003220F0E046E800E025E0450035A02C05A
:10118000E9FF03C0EAFFEFCF02F0028A00C0E9FFE7
:1011900001C0EAFF02C0EFFF040EE56E000EE56A33
:1011A00011EC18F0E652E6529486820E006E0F0E95
:1011B000016E0F0E036E380E0026035001220F0E33
:1011C000036E800E005E0350015A820E026E0F0EF7
:1011D000036E0F0E046E380E0226045003220F0E0B
:1011E000046E800E025E0450035A02C0E9FF03C081
:1011F000EAFFEFCF02F0028600C0E9FF01C0EAFF7C
:1012000002C0EFFF0F0EE56E010EE56E11EC18F057
:10121000E652E6529488820E006E0F0E016E0F0E9B
:10122000036E380E0026035001220F0E036E800E4F
:10123000005E0350015A820E026E0F0E036E0F0EF7
:10124000046E380E0226045003220F0E046E800E28
:10125000025E0450035A02C0E9FF03C0EAFFEFCF69
:1012600002F0028800C0E9FF01C0EAFF02C0EFFF00
:10127000100EE56E020EE56E11EC18F0E652E65225
:10128000948A820E006E0F0E016E0F0E036E380EE2
:101290000026035001220F0E036E800E005E0350E5
:1012A000015A820E026E0F0E036E0F0E046E380E80
:1012B0000226045003220F0E046E800E025E0450BC
:1012C000035A02C0E9FF03C0EAFFEFCF02F0028A2F
:1012D00000C0E9FF01C0EAFF02C0EFFF110EE56E9A
:1012E000030EE56E11EC18F0E652E65263EC1BF0CB
:1012F000948C820E006E0F0E016E0F0E036E380E70
:101300000026035001220F0E036E800E005E035074
:10131000015A820E026E0F0E036E0F0E046E380E0F
:101320000226045003220F0E046E800E025E04504B
:10133000035A02C0E9FF03C0EAFFEFCF02F0029CAC
:1013400000C0E9FF01C0EAFF02C0EFFF060EE56E34
:10135000800EE56E0F0EE56E820EE56E000EE56AFC
:10136000AAEC1BF0050EE126948E820E006E0F0E85
:10137000016E0F0E036E380E0026035001220F0E71
:10138000036E800E005E0350015A820E026E0F0E35
:10139000036E0F0E046E380E0226045003220F0E49
:1013A000046E800E025E0450035A02C0E9FF03C0BF
:1013B000EAFFEFCF02F0029E00C0E9FF01C0EAFFA2
:1013C00002C0EFFF070EE56E800EE56E0F0EE56EB4
:1013D000820EE56E010EE56EAAEC1BF0050EE1260D
:1013E0009384810E006E0F0E016E0F0E036E380E89
:1013F0000026035001220F0E036E800E005E035084
:10140000015A810E026E0F0E036E0F0E046E380E1F
:101410000226045003220F0E046E800E025E04505A
:10142000035A02C0E9FF03C0EAFFEFCF02F00294C3
:1014300000C0E9FF01C0EAFF02C0EFFF020EE56E47
:10144000800EE56E0F0EE56E810EE56E020EE56E06
:10145000AAEC1BF0050EE12693968A8693988A885B
:1014600092980C0E0F01546F939A636A6382666EB2
:1014700093900F01576F9392B96AB984BD6E0F01B3
:10148000549B54990F01556B669A6698676A0F01D1
:10149000579B57990F01586BBD9ABD98BE6AE4CF10
:1014A00004F0E4CF03F0E4CF02F0E4CF01F0E4CFA6
:1014B00000F01200430025630000800EE56E040E6C
:1014C000E56ED30EE56E30EC1AF0030EE126800EC9
:1014D000E56E040EE56EB30EE56E30EC1AF0030E09
:1014E000E126800EE56E040EE56ED50EE56E30EC5D
:1014F0001AF0030EE126800EE56E040EE56EB50EC1
:10150000E56E30EC1AF0030EE126800EE56E040E57
:10151000E56ED70EE56E30EC1AF0030EE126800E74
:10152000E56E040EE56EB70EE56E30EC1AF0030EB4
:10153000E126800EE56E040EE56ED90EE56E30EC08
:101540001AF0030EE126800EE56E040EE56EB90E6C
:10155000E56E30EC1AF0030EE126800EE56E040E07
:10156000E56EDB0EE56E30EC1AF0030EE126800E20
:10157000E56E040EE56EBB0EE56E30EC1AF0030E60
:10158000E126800EE56E040EE56EDD0EE56E30ECB4
:101590001AF0030EE126800EE56E040EE56EBD0E18
:1015A000E56E30EC1AF0030EE126800EE56E040EB7
:1015B000E56EDF0EE56E30EC1AF0030EE126800ECC
:1015C000E56E040EE56EBF0EE56E30EC1AF0030E0C
:1015D000E126800EE56E040EE56EE10EE56E30EC60
:1015E0001AF0030EE126800EE56E040EE56EC10EC4
:1015F000E56E30EC1AF0030EE126800EE56E040E67
:10160000E56EE30EE56E30EC1AF0030EE126800E77
:10161000E56E040EE56EC30EE56E30EC1AF0030EB7
:10162000E126800EE56E040EE56EE50EE56E30EC0B
:101630001AF0030EE126800EE56E040EE56EC50E6F
:10164000E56E30EC1AF0030EE126800EE56E040E16
:10165000E56EE70EE56E30EC1AF0030EE126800E23
:10166000E56E040EE56EC70EE56E30EC1AF0030E63
:10167000E126800EE56E040EE56EE90EE56E30ECB7
:101680001AF0030EE126800EE56E040EE56EC90E1B
:10169000E56E30EC1AF0030EE126800EE56E040EC6
:1016A000E56EEB0EE56E30EC1AF0030EE126800ECF
:1016B000E56E040EE56ECB0EE56E30EC1AF0030E0F
:1016C000E126800EE56E040EE56EED0EE56E30EC63
:1016D0001AF0030EE126800EE56E040EE56ECD0EC7
:1016E000E56E30EC1AF0030EE126800EE56E040E76
:1016F000E56EEF0EE56E30EC1AF0030EE126800E7B
:10170000E56E040EE56ECF0EE56E30EC1AF0030EBA
:10171000E126800EE56E040EE56EF10EE56E30EC0E
:101720001AF0030EE126800EE56E040EE56ED10E72
:10173000E56E30EC1AF0030EE1261200D9CFE5FF7A
:10174000E1CFD9FF00C0E5FF01C0E5FF02C0E5FF22
:1017500003C0E5FF04C0E5FF05C0E5FF06C0E5FFE7
:1017600007C0E5FF020EDBCF00F0030EDBCF01F078
:10177000040EDBCF02F0050EDBCF03F0060EDBCF4D
:1017800004F0070EDBCF05F0080EDBCF06F0090EE4
:10179000DBCF07F000500401816F0150826F0250CF
:1017A000836F0350846F04500401856F0550866F6A
:1017B0000650876F0750886F040181510401870329
:1017C000F4CF01F0F3CF00F0005004018C6F015012
:1017D0008D6F0401815104018503F4CF01F0F3CF33
:1017E00000F0005004018A6F01508B6F0401845196
:1017F00004018503F3CF00F004018D510026005051
:101800008D6F0401835104018603F3CF01F0015071
:101810000026005004018D6F0401835104018503EB
:10182000F4CF01F0F3CF00F004018C5100268D516C
:10183000012200508C6F01508D6F04018251040110
:101840008603F4CF03F0F3CF02F0025000260350DA
:101850000122005004018C6F01508D6F04018251F0
:1018600004018703F3CF00F000500401916F0401DD
:10187000825104018503F4CF01F0F3CF00F0005052
:1018800004018F6F0150906F04018151040188039E
:10189000F3CF00F000500301536F040181510401A4
:1018A0008603F4CF01F0F3CF00F000500301516F35
:1018B0000150526F04018E6B0301506B04018E5175
:1018C00004018A25006E04018F5104018B21016EF1
:1018D0000401905104018C21026E04019151040114
:1018E0008D21036E00508A6F01508B6F02508C6FF8
:1018F00003508D6F0301505104018A25006E0301CE
:10190000515104018B21016E0301525104018C21BC
:10191000026E0301535104018D21036E03C0E9FFE0
:1019200002C0F4FF01C0F3FF0050E4CF07F0E4CFA2
:1019300006F0E4CF05F0E4CF04F0E4CF03F0E4CF09
:1019400002F0E4CF01F0E4CF00F0E4CFD9FF1200C1
:1019500000C0E5FF01C0E5FF0001E751D8B4F5D0B4
:10196000A3A81DD0A4A81BD003016B5103016819C3
:1019700005E1EDEC21F00301686BE7D0000E0301F7
:101980006B25006E016A040E012200C0E9FF01C050
:10199000EAFFEFCF64F36B2B64C373FFD6D0A4AA26
:1019A000D4D071A205D003016981EDEC21F0CDD036
:1019B00071A405D003016983EDEC21F0C6D071A0BC
:1019C0003ED074CF64F3800E0001E8110301641966
:1019D00004E1030169897196B8D00301645104E000
:1019E00064510001E81927E1030169997196030127
:1019F000645103E00301699702D00301698764C35E
:101A00006DF366C36EF30301660503016F6F600E2D
:101A100003016E25006E016A000E012200C0E9FF7D
:101A200001C0EAFF64C3EFFF6E2B6E51800A02E132
:101A300003016E6B8AD003016999718686D074CFD9
:101A400064F3030169A919D0800E0001E8110301B4
:101A5000641911E1929CA39A71980301685104E101
:101A6000736AEDEC21F007D000C473FF010E03018F
:101A70006B6FA3886AD0718668D00301645103013B
:101A80006D2703016E5103016F191BE103016D51B5
:101A90000CE16EC366F3030169B712D0929CA39A5E
:101AA0007198736AEDEC21F00BD00301698569B779
:101AB00007D0929CA39A7198010E736EEDEC21F001
:101AC00044D003016E510301671908E10301675116
:101AD0000301661903E0EDEC21F037D066C300F096
:101AE000016A004A012AE56A800EE56E0150E56E42
:101AF0000050E56ED0EC16F0006E040EE1260050AA
:101B00000301656F03016E190CE11F0E03016415DB
:101B100003016F6F6F2B6F2B0301665103016F275A
:101B20006F9F6EC300F003016E2B016A600E0026EA
:101B3000000E012200C0E9FF01C0EAFF64C3EFFF0D
:101B40006E51800A02E103016E6BE4CF01F0E4CF35
:101B500000F0120000C0E5FF01C0E5FF02C0E5FF94
:101B600003C0E5FF04C0E5FF05C0E5FF06C0E5FFD3
:101B700007C0E5FF08C0E5FF09C0E5FF0AC0E5FFB3
:101B8000006A016A040E015CD8B0B3D0400E0001B7
:101B9000FE25026E036A030E032202C0E9FF03C0A2
:101BA000EAFFEFCF02F00250FF0A01E19BD00001F3
:101BB000FE39E8441F0B026E600E0224036E046AB5
:101BC000030E042203C0E9FF04C0EAFFEFCF03F0D5
:101BD000070EFE15046E010E056E000E066E045013
:101BE00006E0E86CD89005360636010FFCE3076A7C
:101BF000055003160650071603500710D880E866F4
:101C0000D890036A03360350D880E866D890036AF8
:101C10000336076A5E0E0226030E072202C0E9FFA2
:101C200007C0EAFFEFCF08F008C009F00A6A0950C0
:101C300005160A50061605500610D880E866D8909A
:101C4000056A05360550D880E866D890056A0536DD
:101C50000350051801E146D0035012E0010E056E55
:101C6000045005E0E86CD8900536010FFDE30550FF
:101C7000081202C0E9FF07C0EAFF08C0EFFF17D053
:101C800002C0E9FF07C0EAFFEFCF05F0010E066EC4
:101C9000045005E0E86CD8900636010FFDE3061C01
:101CA000051602C0E9FF07C0EAFF05C0EFFF0350B9
:101CB00003E1036A032A01D0036AFEC004F0E56A67
:101CC0000350E56EE56A0450E56E000EE56E370ED2
:101CD000E56E480EE56E70EC1CF0070EE126012A59
:101CE00001C000F00001FE2B100EFE5DD8A04AD707
:101CF000FE6B0050E4CF0AF0E4CF09F0E4CF08F027
:101D0000E4CF07F0E4CF06F0E4CF05F0E4CF04F031
:101D1000E4CF03F0E4CF02F0E4CF01F0E4CF00F031
:101D2000120000C0E5FF01C0E5FF02C0E5FF03C0EF
:101D3000E5FF04C0E5FFD5EC1EF0006E0A0E005C66
:101D4000D8A0C8D00E0E005CD8B0C4D0F60E0026C5
:101D5000FA6AFB6A0034FA36E834FA36FC0B6E0F86
:101D6000E56E1D0EFA22000EFB22E450F96EBFEF65
:101D70000EF0EAEF0EF015EF0FF042EF0FF0D5EC9A
:101D80001EF0006A016ED5EC1EF0036A00260350B7
:101D900001220050020BE840010BE838E844F46EE1
:101DA0000F015451DF0BF410546F0050010B010B65
:101DB000E838F46E5451EF0BF410546FD8900130A2
:101DC000036E0030026ED8900332023202500F01CF
:101DD000556F80D0D5EC1EF0026A036ED5EC1EF074
:101DE000046A0224006E04500320016E0050020BAE
:101DF000E840010BE838E844F46E6650DF0BF4105D
:101E0000666E0050010B010BE838F46E6650EF0B64
:101E1000F410666ED8900130036E0030026ED890D8
:101E2000033202320250676E55D0D5EC1EF0026AC2
:101E3000036ED5EC1EF0046A0224006E04500320E9
:101E4000016E0050020BE840010BE838E844F46EE4
:101E50000F015751DF0BF410576F0050010B010BAE
:101E6000E838F46E5751EF0BF410576FD8900130EB
:101E7000036E0030026ED8900332023202500F011E
:101E8000586F28D0D5EC1EF0026A036ED5EC1EF018
:101E9000046A0224006E04500320016E0050020BFD
:101EA000E840010BE838E844F46EBD50DF0BF41055
:101EB000BD6E0050010B010BE838F46EBD50EF0B06
:101EC000F410BD6ED89001320032D8900132003249
:101ED0000050BE6EE4CF04F0E4CF03F0E4CF02F094
:101EE000E4CF01F0E4CF00F01200D9CFE5FFE1CF5D
:101EF000D9FF00C0E5FF01C0E5FF02C0E5FF03C058
:101F0000E5FF04C0E5FF05C0E5FF06C0E5FF07C02B
:101F1000E5FF08C0E5FF09C0E5FF0AC0E5FF0BC00B
:101F2000E5FF0CC0E5FF0DC0E5FF0EC0E5FF0FC0EB
:101F3000E5FF020EDBCF00F0030EDBCF01F0040E55
:101F4000DBCF02F0050EDBCF03F0060EDBCF04F093
:101F5000070EDBCF05F0080EDBCF06F0200E076E74
:101F6000086A06C009F00A6A0B6A0C6AE56AE56A43
:101F7000E56A0950E56E0350E56E0250E56E0150CA
:101F8000E56E0050E56EF1EC10F00D6E080EE126E6
:101F9000300E0D263A0E0D5C05E30D500E6E270E29
:101FA0000E240D6EFF0E07260822200E07240E6E4B
:101FB000030E08200F6E0EC0E9FF0FC0EAFF0DC030
:101FC000EFFF0C50E56E0B50E56E0A50E56E0950C0
:101FD000E56E0350E56E0250E56E0150E56E00506F
:101FE000E56E8EEC11F0006EF3CF01F0F4CF02F04D
:101FF000E9CF03F0080EE126005001100210031093
:10200000D8A4AFD707C000F008C001F004C002F0A8
:1020100005C003F000C004F001C005F0004A012A29
:10202000200E0426030E052204C0E9FF05C0EAFFC6
:10203000EFCF04F002C0E9FF03C0EAFF04C0EFFFE6
:10204000024A032A000E015C02E1200E005CE2E37A
:1020500002C0E9FF03C0EAFF000EEF6AE4CF0FF011
:10206000E4CF0EF0E4CF0DF0E4CF0CF0E4CF0BF0B2
:10207000E4CF0AF0E4CF09F0E4CF08F0E4CF07F0B2
:10208000E4CF06F0E4CF05F0E4CF04F0E4CF03F0B2
:10209000E4CF02F0E4CF01F0E4CF00F0E4CFD9FFC9
:1020A000120000C0E5FF01C0E5FF02C0E5FF03C06C
:1020B000E5FF04C0E5FF05C0E5FF006A400E00240F
:1020C000016E026A030E022201C0E9FF02C0EAFFAC
:1020D000EFCF01F00150FF0A01E171D001380F0B81
:1020E000026E036A800E02260F0E032202C0E9FF71
:1020F00003C0EAFFEFCF02F0070E0116010E036ED8
:10210000000E046E015006E0E86CD89003360436E9
:10211000010FFCE3056A0250031605500416035034
:102120000410D880E866D890036A0336035024E18F
:102130000038E8441F0B016E026A600E0126030E90
:10214000022201C0E9FF02C0EAFFEFCF03F0070E51
:102150000014046E010E056E045005E0E86CD89082
:102160000536010FFDE30550031201C0E9FF02C06F
:10217000EAFF03C0EFFF23D00038E8441F0B016ED5
:10218000026A600E0126030E022201C0E9FF02C0AE
:10219000EAFFEFCF03F0070E0014046E010E056E88
:1021A000045005E0E86CD8900536010FFDE3051CEE
:1021B000031601C0E9FF02C0EAFF03C0EFFF002AD7
:1021C000100E005CD8A07AD7E4CF05F0E4CF04F07D
:1021D000E4CF03F0E4CF02F0E4CF01F0E4CF00F06D
:1021E0001200D9CFE5FFE1CFD9FF00C0E5FF01C064
:1021F000E5FF02C0E5FF03C0E5FF04C0E5FF05C041
:10220000E5FF06C0E5FF07C0E5FF08C0E5FF09C020
:10221000E5FF0AC0E5FF020EDBCF00F0030EDBCFC7
:1022200001F0040EDBCF02F0050EDBCF03F0060E4B
:10223000DBCF04F0070EDBCF05F0080EDBCF06F096
:10224000090EDBCF07F0086A0450051006100710CE
:1022500005E1E968F468F368E86847D0096A07505F
:10226000800BE8440A6E0A501BE104500426053630
:10227000063607360750035C08E10650025C05E1AC
:102280000550015C02E10450005C06E2D890073280
:1022900006320532043204D0092A09C008F0DFD71B
:1022A0000750035C08E10650025C05E10550015C43
:1022B00002E10450005C08E30450005E0550015A3E
:1022C0000650025A0750035AD89007320632053298
:1022D000043208C009F008060950E2E103C0E9FF32
:1022E00002C0F4FF01C0F3FF0050E4CF0AF0E4CFD6
:1022F00009F0E4CF08F0E4CF07F0E4CF06F0E4CF34
:1023000005F0E4CF04F0E4CF03F0E4CF02F0E4CF33
:1023100001F0E4CF00F0E4CFD9FF1200D9CFE5FF00
:10232000E1CFD9FF00C0E5FF01C0E5FF02C0E5FF36
:1023300003C0E5FF04C0E5FF05C0E5FF06C0E5FFFB
:1023400007C0E5FF08C0E5FF09C0E5FF0AC0E5FFDB
:102350000BC0E5FF0CC0E5FF0DC0E5FF020EDBCFB3
:1023600000F0030EDBCF01F0040EDBCF02F0050E10
:10237000DBCF03F0060EDBCF04F0070EDBCF05F05A
:10238000080EDBCF06F0090EDBCF07F0086A096AFA
:102390000A6A0B6A200E0C6E0350800BE8440D6E27
:1023A000005000260136023603360850082609364A
:1023B0000A360B360D50D8A4088007500B5C08E194
:1023C00006500A5C05E10550095C02E10450085C16
:1023D00009E30450085E0550095A06500A5A07508E
:1023E0000B5A00800C040D6E0DC00CF00D50D4E1A2
:1023F00003C0E9FF02C0F4FF01C0F3FF0050E4CFC7
:102400000DF0E4CF0CF0E4CF0BF0E4CF0AF0E4CF12
:1024100009F0E4CF08F0E4CF07F0E4CF06F0E4CF12
:1024200005F0E4CF04F0E4CF03F0E4CF02F0E4CF12
:1024300001F0E4CF00F0E4CFD9FF120000C0E5FFC7
:1024400001C0E5FF03C0E5FF04C0E5FF05C0E5FFEF
:1024500006C0E5FF07C0E5FF08C0E5FF09C0E5FFCE
:102460000AC0E5FF0BC0E5FF5AC300F05BC301F0F3
:1024700003015A3F01D05B2B0050E56EDFEC21F0E9
:10248000E652076E046A056A066A5AC300F05BC327
:1024900001F003015A3F01D05B2B0050E56EDFECE9
:1024A00021F0E6520B6A0A6E086A085004120512FF
:1024B0000A5006120B5007125AC300F05BC301F01A
:1024C00003015A3F01D05B2B0050E56EDFEC21F099
:1024D000E652036E006A03C001F0E86A03BEFF0E15
:1024E000086E096E005004120150051208500612C1
:1024F000095007125AC300F05BC301F003015A3FB1
:1025000001D05B2B0050E56EDFEC21F0E652016A52
:102510000412015005120612071207C0E9FF06C097
:10252000F4FF05C0F3FF0450E4CF0BF0E4CF0AF052
:10253000E4CF09F0E4CF08F0E4CF07F0E4CF06F0F1
:10254000E4CF05F0E4CF04F0E4CF03F0E4CF01F0F2
:10255000E4CF00F0120000C0E5FF01C0E5FF02C0BB
:10256000E5FF03C0E5FF04C0E5FF03016751030178
:10257000661901E15FD067C300F0002A009E600E7B
:102580000024016E026A000E022201C0E9FF02C0AF
:10259000EAFFEFCF71F31F0E0301711767C370F3EA
:1025A000715103017027702B702B709FD5EC1EF0BA
:1025B000016E015003E1016A012A01D0016AD5ECE4
:1025C0001EF00301716F800E7115026E1F0E7115E2
:1025D000036E03C004F003C071F3045003E166C34B
:1025E00067F33BD001501BE0025022E0D5EC1EF017
:1025F000006E030171070050420A1AE000504E0AB3
:1026000003E1EEEC1BF014D00050460A03E121EC8C
:1026100022F00ED00050490A0BE1FF0009D067C339
:1026200072F3025003E034EC19F002D091EC0EF09A
:1026300070C367F30001E4510001E51906E00301EE
:10264000685103E14EEC14F008D092BC06D00301AF
:10265000685103E172B2EDEC21F0E4CF04F0E4CF75
:1026600003F0E4CF02F0E4CF01F0E4CF00F0120079
:10267000D9CFE5FFE1CFD9FF00C0E5FF01C0E5FFFD
:1026800002C0E5FF03C0E5FF04C0E5FF05C0E5FFAC
:1026900006C0E5FF07C0E5FF020EDBCF00F0030E2A
:1026A000DBCF01F0040EDBCF02F0050EDBCF03F031
:1026B00002C006F00650046E800A33E100C0E9FF54
:1026C00001C0F3FF02507AEC20F0056EF3CF06F064
:1026D000F4CF07F003C0E5FF05C0E9FF06C0F3FF34
:1026E000075037EC22F000C0E9FF01C0F3FF0250B1
:1026F0007AEC20F0056EF3CF06F0F4CF07F0052A50
:1027000002E3064A072A05C0E5FF06C0F4FF07C03A
:10271000F6FF00C0E9FF01C0F3FF0250D0EC21F04A
:1027200020D004C000F000AA1CD0007A0050046E33
:1027300004E1035074EC22F014D00450010A04E1C7
:10274000035002EC00F00DD004500F0A04E10350D6
:1027500049EC1EF006D004500E0A03E1035084EC4D
:1027600022F0E4CF07F0E4CF06F0E4CF05F0E4CFA9
:1027700004F0E4CF03F0E4CF02F0E4CF01F0E4CFC3
:1027800000F0E4CFD9FF1200D9CFE5FFE1CFD9FFA8
:1027900000C0E5FF01C0E5FF02C0E5FF03C0E5FFA3
:1027A00004C0E5FF05C0E5FF06C0E5FF07C0E5FF83
:1027B00008C0E5FF09C0E5FF0AC0E5FF020EDBCF58
:1027C00000F0030EDBCF01F0040EDBCF02F0050EAC
:1027D000DBCF03F0060EDBCF04F0070EDBCF05F0F6
:1027E0000038E8441F0B066E076A5C0E0626030ECF
:1027F000072206C0E9FF07C0EAFFEFCF08F0070E87
:102800000014096E010E0A6E095005E0E86CD890BC
:102810000A36010FFDE30A50081206C0E9FF07C09F
:10282000EAFF08C0EFFF230E0024066E076A0F0EB2
:10283000072206C0E9FF07C0EAFF01C0EFFF016AF7
:10284000230E0026040E0122800E025E070E0216E1
:102850000238F00B036E070E05160550032600C064
:10286000E9FF01C0EAFF03C0EFFFE4CF0AF0E4CFC5
:1028700009F0E4CF08F0E4CF07F0E4CF06F0E4CFAE
:1028800005F0E4CF04F0E4CF03F0E4CF02F0E4CFAE
:1028900001F0E4CF00F0E4CFD9FF120000C0E5FF63
:1028A00001C0E5FF02C0E5FF03C0E5FF72A276D0DC
:1028B00003EC20F0006E005005E10001E56B000123
:1028C000E46B6CD0E5C001F00050012603EC20F071
:1028D000026E00060250230A1FE1010E005CD8A020
:1028E0005BD003EC20F0026E690A03E17AEC1EF083
:1028F00053D00250720A03E1EDEC21F04DD00250AA
:10290000730A01E049D0928C7186A38AA39874500F
:1029100074507198718840D00250430A05E002500B
:10292000420A01E039D001D0008E00C06AF30050A5
:102930000401006F010E03016B6F0001E5510118E6
:1029400014E003EC20F0026E03016A27000E03017D
:102950006B25006E036A040E032200C0E9FF03C06A
:10296000EAFF02C0EFFF6B2BE8D7000E03016B25D7
:10297000006E026A040E022203016A1D036E032A1E
:1029800000C0E9FF02C0EAFF03C0EFFF03016B2BA9
:102990006BC368F30301626B01C0E5F0E4CF03F0A1
:1029A000E4CF02F0E4CF01F0E4CF00F01200D9CF81
:1029B000E5FFE1CFD9FF00C0E5FF01C0E5FF02C0A0
:1029C000E5FF03C0E5FF04C0E5FF05C0E5FF06C065
:1029D000E5FF020EDBCF00F0030EDBCF01F0040EAB
:1029E000DBCF02F0050EDBCF03F003C004F0056A75
:1029F0000350D8B44FD000C0E9FF01C0F3FF02502C
:102A0000AFEC21F0066E430A03E1010E056E038E62
:102A10000406002A02E3014A022A929CA39A7198B2
:102A2000A398A4A8FED77280736A0000A4A8FED75A
:102A3000729003C073FF0000A4A8FED7055004E005
:102A4000420E736E032604D0620E736E620E03266E
:102A5000045015E00000A4A8FED700C0E9FF01C0A3
:102A6000F3FF0250AFEC21F0056E05C073FF055077
:102A700003260406002A02E3014A022AE9D70000DD
:102A8000A4A8FED7031C736E732A0000A4A8FED767
:102A9000EDEC21F0E4CF06F0E4CF05F0E4CF04F054
:102AA000E4CF03F0E4CF02F0E4CF01F0E4CF00F094
:102AB000E4CFD9FF120000C0E5FF01C0E5FF02C06E
:102AC000E5FF03C0E5FF04C0E5FF006A5C0E0024DB
:102AD000016E026A030E022201C0E9FF02C0EAFF92
:102AE000EF6A002A020E005CF1E3006A0050020D5A
:102AF000F450026EF3CF01F0390E0124036E040E80
:102B00000220046E03C0E9FF04C0EAFFEE6AEF6A28
:102B1000590E0124036E040E0220046E03C0E9FF67
:102B200004C0EAFFEE6AEF6A930E0124036E040EFE
:102B30000220046E03C0E9FF04C0EAFFEE6AEF6AF8
:102B4000B30E0124036E040E0220046E03C0E9FFDD
:102B500004C0EAFFEE6AEF6AD30E0126040E0222D9
:102B600001C0E9FF02C0EAFFEE687F0EEF6E230EA0
:102B70000024016E026A040E022201C0E9FF02C0B5
:102B8000EAFFEF68002A100E005CD8A0AFD7AF0EA6
:102B9000C06EC16A010EC26EC282E4CF04F0E4CFFF
:102BA00003F0E4CF02F0E4CF01F0E4CF00F0120034
:102BB0004320412025642025640A0000D9CFE5FF89
:102BC000E1CFD9FF00C0E5FF01C0E5FF02C0E5FF8E
:102BD00003C0E5FF04C0E5FF05C0E5FF06C0E5FF53
:102BE00007C0E5FF020EDBCF00F0030EDBCF01F0E4
:102BF000040EDBCF02F0050EDBCF03F0E5C0E6F0FC
:102C00000001E4510001E65FE60703C004F0056A35
:102C1000030E0426D8B0052AE6C006F0076A07505E
:102C2000800FF36E0550800FF35C02E10450065CE8
:102C300002E2E8682BD0020E035C02E2E86A26D0CA
:102C400003060350E56E2CEC1DF0E652046A0350B7
:102C5000045C14E204500024056EE86A0120066E4C
:102C6000E86A022005C0E9FF06C0F3FFAFEC21F0DF
:102C7000042AE56E2CEC1DF0E652E9D7E5C0E6F03B
:102C80000001E4510001E65FE607E86AE4CF07F0DF
:102C9000E4CF06F0E4CF05F0E4CF04F0E4CF03F096
:102CA000E4CF02F0E4CF01F0E4CF00F0E4CFD9FFAD
:102CB0001200D9CFE5FFE1CFD9FF00C0E5FF01C089
:102CC000E5FF02C0E5FF03C0E5FF04C0E5FF05C066
:102CD000E5FF020EDBCF00F0030EDBCF01F0040EA8
:102CE000DBCF02F00050020DF450036EF3CF00F082
:102CF000590E0024046E040E0320056E04C0E9FF83
:102D000005C0EAFF01C0EEFF02C0EFFF930E0024F2
:102D1000046E040E0320056E04C0E9FF05C0EAFF3F
:102D2000EECF04F0EFCF05F00150045C016E0250CD
:102D30000558026E000E0026030E032200C0E9FFB4
:102D400003C0EAFF01C0EEFF02C0EFFFD88002AE71
:102D5000D89004E3021E016CD8B4022A0250800FFE
:102D6000800F02E1030E015C02E2016A026A015077
:102D7000021007E100C0E9FF03C0EAFF000EEE6A9F
:102D8000EF6AE4CF05F0E4CF04F0E4CF03F0E4CF42
:102D900002F0E4CF01F0E4CF00F0E4CFD9FF12005D
:102DA000D9CFE5FFE1CFD9FF00C0E5FF01C0E5FFC6
:102DB00002C0E5FF03C0E5FF04C0E5FF05C0E5FF75
:102DC00006C0E5FF020EDBCF00F0030EDBCF01F003
:102DD000040EDBCF02F0050EDBCF03F0D88001AE8E
:102DE000D890046A0436045007E0011C066E001CEB
:102DF000056E054A062A04D000C005F001C006F0A1
:102E0000D88003AED89007E3031C016E021C006E4D
:102E1000004A012A04D002C000F003C001F00150B2
:102E2000E56E0050E56E0650E56E0550E56ED7EC98
:102E300018F0006EF3CF01F0040EE12604500AE012
:102E4000011C036E001C026E024A032A03C0F3FF3A
:102E5000025003D001C0F3FF0050E4CF06F0E4CFEE
:102E600005F0E4CF04F0E4CF03F0E4CF02F0E4CFC8
:102E700001F0E4CF00F0E4CFD9FF1200D9CFE5FF95
:102E8000E1CFD9FF00C0E5FF01C0E5FF02C0E5FFCB
:102E900003C0E5FF04C0E5FF05C0E5FF020EDBCF80
:102EA00000F0030EDBCF01F0040EDBCF02F0050EC5
:102EB000DBCF03F05AC304F05BC305F003015A3FB4
:102EC00001D05B2B0350E56E0450E56EBFEC1FF0A4
:102ED000E652E6525AC304F05BC305F003015A3FC1
:102EE00001D05B2B0250056EE56E0450E56EBFEC21
:102EF0001FF0E652E6525AC304F05BC305F003012B
:102F00005A3F01D05B2B0150056EE56E0450E56E13
:102F1000BFEC1FF0E652E6525AC304F05BC305F063
:102F200003015A3F01D05B2B0050E56E0450E56E63
:102F3000BFEC1FF0E652E652E4CF05F0E4CF04F018
:102F4000E4CF03F0E4CF02F0E4CF01F0E4CF00F0EF
:102F5000E4CFD9FF1200D9CFE5FFE1CFD9FF00C000
:102F6000E5FF01C0E5FF02C0E5FF03C0E5FF04C0C7
:102F7000E5FF05C0E5FF06C0E5FF020EDBCF00F070
:102F8000030EDBCF01F0040EDBCF02F0040137515A
:102F900019E11EEC12F0036EF3CF04F0F4CF05F04C
:102FA000E9CF06F003C0E5FF04C0F4FF05C0F6FF5B
:102FB00006C0F7FF00C0E9FF01C0F3FF02509EEC1E
:102FC00021F01ED004013751010A1AE100C0E9FFC7
:102FD00001C0F3FF0250E3EC1FF0006EF3CF01F0ED
:102FE000F4CF02F0E9CF03F00350E56E0250E56E36
:102FF0000150E56E0050E56E3EEC17F0040EE12640
:10300000E4CF06F0E4CF05F0E4CF04F0E4CF03F022
:10301000E4CF02F0E4CF01F0E4CF00F0E4CFD9FF39
:103020001200D9CFE5FFE1CFD9FF00C0E5FF01C015
:10303000E5FF02C0E5FF03C0E5FF04C0E5FF05C0F2
:10304000E5FF06C0E5FF020EDBCF00F0030EDBCF8D
:1030500001F00038E8441F0B026E036A5C0E022682
:10306000030E032202C0E9FF03C0EAFFEFCF04F022
:10307000070E0014056E010E066E055005E0E86CA3
:10308000D8900636010FFDE30650041202C0E9FF96
:1030900003C0EAFF04C0EFFF230E0024026E036AA0
:1030A0000F0E032202C0E9FF03C0EAFF01C0EFFFD9
:1030B000016A230E0026040E012200C0E9FF01C0B0
:1030C000EAFFFF0EEF68E4CF06F0E4CF05F0E4CFAF
:1030D00004F0E4CF03F0E4CF02F0E4CF01F0E4CF5A
:1030E00000F0E4CFD9FF1200D9CFE5FFE1CFD9FF3F
:1030F00000C0E5FF01C0E5FF02C0E5FF03C0E5FF3A
:1031000004C0E5FF05C0E5FF06C0E5FF020EDBCF0A
:1031100000F0030EDBCF01F0040EDBCF02F0050E52
:10312000DBCF03F0060EDBCF04F0070EDBCF05F09C
:10313000080EDBCF06F0D88003AED89015E306501A
:103140000A0A12E104C0E9FF05C0EAFF2D0EEF6E86
:10315000044A052A031E021E011E006C05E1012A15
:1031600003E1022AD8B4032A0650E56E0550E56E45
:103170000450E56E0350E56E0250E56E0150E56EB9
:103180000050E56E75EC0FF0070EE126E4CF06F077
:10319000E4CF05F0E4CF04F0E4CF03F0E4CF02F095
:1031A000E4CF01F0E4CF00F0E4CFD9FF1200D9CF93
:1031B000E5FFE1CFD9FF00C0E5FF01C0E5FF02C098
:1031C000E5FF03C0E5FF04C0E5FF05C0E5FF06C05D
:1031D000E5FF020EDBCF00F0030EDBCF01F0040EA3
:1031E000DBCF02F0050EDBCF03F0046A056A035063
:1031F000800BE844066E065011E1025002260336A9
:103200000350015C02E10250005C04E2D8900332FA
:10321000023204D0052A05C004F0E9D70350015C4E
:1032200002E10250005C04E30250005E0350015AC8
:10323000D8900332023204C005F004060550EEE1D6
:1032400001C0F3FF0050E4CF06F0E4CF05F0E4CF77
:1032500004F0E4CF03F0E4CF02F0E4CF01F0E4CFD8
:1032600000F0E4CFD9FF120000C0E5FF01C0E5FF88
:1032700002C0E5FFD5EC1EF0006E4C0A08E1D5EC6B
:103280001EF0300A02E0898E41D0899E3FD0005066
:10329000450A27E1000EE56E140EE56EB40EE56EEC
:1032A00070EC1CF0030EE1267EEC22F0006E00C0F4
:1032B00001F001C002F0010602500FE0D5EC1EF053
:1032C000E56AE56E000EE56E140EE56EB60EE56E6F
:1032D00070EC1CF0050EE126ECD70A0E49EC1EF04E
:1032E00015D00050570A12E1D5EC1EF0520A0EE13B
:1032F000D5EC1EF0490A0AE1D5EC1EF0540A06E1AD
:10330000D5EC1EF0450A02E142EC22F0E4CF02F0D7
:10331000E4CF01F0E4CF00F0120000C0E5FF01C0EF
:10332000E5FF02C0E5FF03C0E5FF67C300F0016AE7
:1033300072C302F0036A0250005E0350015AE56A4C
:10334000800EE56E0150E56E0050E56ED0EC16F093
:10335000006E040EE126000672C301F0430E49EC34
:103360001EF0200E49EC1EF0005020E0600E0124FB
:10337000026E036A000E032202C0E9FF03C0EAFFE7
:10338000EFCF02F0E56A0250E56E000EE56E430EE7
:10339000E56EF20EE56E70EC1CF0050EE126012ADA
:1033A0000150800A01E1016A0006DED7E4CF03F094
:1033B000E4CF02F0E4CF01F0E4CF00F0120000C04F
:1033C000E5FF01C0E5FF02C0E5FF03C0E5FFABEC90
:1033D00012F054EC06F051EC10F0ABEC1EF0006E65
:1033E000F3CF01F0F4CF02F0E9CF03F00401335141
:1033F000005E3451015A3551025A3651035A039E28
:103400003F0E035C08E1FF0E025C05E1FF0E015C6C
:1034100002E1FF0E005C1BE2ABEC1EF0F3CF01F00B
:10342000F4CF02F0E9CF03F0100F0401336F270E41
:103430000120346F000E0220356F000E0320366F1E
:10344000AAEC0DF0006E0050D8B40EEC04F0E4CFFE
:1034500003F0E4CF02F0E4CF01F0E4CF00F012007B
:10346000D9CFE5FFE1CFD9FF00C0E5FF01C0E5FFFF
:1034700002C0E5FF03C0E5FF04C0E5FF020EDBCF9D
:1034800000F0030EDBCF01F0040EDBCF02F00401ED
:10349000375111E115EC1EF0036EF3CF04F003C0B9
:1034A000E5FF04C0F4FF00C0E9FF01C0F3FF0250D4
:1034B00009EC22F016D004013751010A12E100C0D4
:1034C000E9FF01C0F3FF025039EC21F0006EF3CFA9
:1034D00001F00150E56E0050E56EEFEC1CF0E65295
:1034E000E652E4CF04F0E4CF03F0E4CF02F0E4CFFF
:1034F00001F0E4CF00F0E4CFD9FF1200D9CFE5FF0F
:10350000E1CFD9FF00C0E5FF01C0E5FF02C0E5FF44
:1035100003C0E5FF04C0E5FF020EDBCF00F000387A
:10352000E8441F0B016E026A600E0126030E0222A0
:1035300001C0E9FF02C0EAFFEFCF01F0070E00165D
:10354000010E026E000E036E005006E0E86CD8908B
:1035500002360336010FFCE3046A015002160450E0
:10356000031602500310D880E866D890026A02362B
:103570000250D880E866D890026A02360250E4CF42
:1035800004F0E4CF03F0E4CF02F0E4CF01F0E4CFA5
:1035900000F0E4CFD9FF1200D00EF66E440EF76EA5
:1035A000000EF86E0900F550056E0900F550066E24
:1035B00004E1056702D019EF1BF00900F550006E19
:1035C0000900F550016E0900F550026E090009006E
:1035D000F550E96E0900F550EA6E0900090009008E
:1035E000F550036E0900F550046E09000900F6CF8E
:1035F00007F0F7CF08F0F8CF09F000C0F6FF01C0E0
:10360000F7FF02C0F8FF035002E1045007E0090091
:10361000F550EE6E0306F8E20406F9D707C0F6FF90
:1036200008C0F7FF09C0F8FF050601E20606D8EF5B
:103630001AF01200D9CFE5FFE1CFD9FF00C0E5FFB6
:1036400001C0E5FF02C0E5FF03C0E5FF04C0E5FFE0
:1036500005C0E5FF020EDBCF00F00050010A22E1B9
:10366000016A0150020DF450036EF3CF02F0B30E65
:103670000224046E040E0320056E04C0E9FF05C099
:10368000EAFFEE687F0EEF6ED30E0226040E0322D1
:1036900002C0E9FF03C0EAFFEE6AEF6A012A100EDA
:1036A000015CDFE300C0EAF0E4CF05F0E4CF04F012
:1036B000E4CF03F0E4CF02F0E4CF01F0E4CF00F078
:1036C000E4CFD9FF120000C0E5FF01C0E5FF02C052
:1036D000E5FF03C0E5FF04C0E5FF006A5E0E0024BD
:1036E000016E026A030E0222600E0024036E046A59
:1036F000030E042203C0E9FF04C0EAFF010EEF6ECF
:1037000001C0E9FF02C0EAFFEF6E002A020E005C72
:10371000E5E3006A400E0024016E026A030E0222F5
:1037200001C0E9FF02C0EAFFEF68002A100E005C4A
:10373000F1E3E4CF04F0E4CF03F0E4CF02F0E4CF10
:1037400001F0E4CF00F0120043207320256420250F
:10375000640A0000D9CFE5FFE1CFD9FF00C0E5FF43
:1037600001C0E5FF02C0E5FF03C0E5FF04C0E5FFBF
:1037700005C0E5FF020EDBCF00F0030EDBCF01F04A
:10378000040EDBCF02F0050EDBCF03F0060EDBCF1D
:1037900004F0056A400E0026030E0522800E015E2D
:1037A000070E01160138F00B026E070E04160450C6
:1037B000022600C0E9FF05C0EAFF02C0EFFFE4CF28
:1037C00005F0E4CF04F0E4CF03F0E4CF02F0E4CF5F
:1037D00001F0E4CF00F0E4CFD9FF120000C0E5FF14
:1037E00001C0E5FF02C0E5FFD5EC1EF0006ED5EC90
:1037F0001EF0016E0050026ED00E0224006E0A0E02
:10380000005C05E30050026EF90E0224006E0150C8
:10381000026ED00E0224016E0A0E015C05E3015017
:10382000026EF90E0224016E080E005C12E2100E08
:10383000015CD8B00ED00038F00B0124006EA3EC70
:103840001DF0016E015005E10050E56EAFEC20F077
:10385000E652E4CF02F0E4CF01F0E4CF00F0120032
:10386000D9CFE5FFE1CFD9FF00C0E5FF01C0E5FFFB
:1038700002C0E5FF03C0E5FF04C0E5FF020EDBCF99
:1038800000F00038E8441F0B016E026A5C0E01264E
:10389000030E022201C0E9FF02C0EAFFEFCF03F0EE
:1038A000070E0016010E046E005005E0E86CD8907B
:1038B0000436010FFDE3041C031601C0E9FF02C03A
:1038C000EAFF03C0EFFFE4CF04F0E4CF03F0E4CF5E
:1038D00002F0E4CF01F0E4CF00F0E4CFD9FF120012
:1038E000D9CFE5FFE1CFD9FF00C0E5FF01C0E5FF7B
:1038F00002C0E5FF020ED924006E000EDA20016E30
:10390000800E026E030E0026000E012202220250DB
:10391000E56E0150E56E0050E56E040EDBCFE5FF6D
:10392000030EDBCFE5FF020EDBCFE5FF04017F5185
:10393000E56E7E51E56E7D51E56E0EEC00F0006E99
:10394000F3CF01F0090EE12601C0F3FF0050E4CFF0
:1039500002F0E4CF01F0E4CF00F0E4CFD9FF120091
:10396000D9CFE5FFE1CFD9FF00C0E5FF01C0E5FFFA
:1039700002C0E5FF03C0E5FF020EDBCF00F0030E3F
:10398000DBCF01F0040EDBCF02F0040137510DE173
:103990000DEC21F0036E03C0E5FF00C0E9FF01C09C
:1039A000F3FF025037EC22F00FD004013751010A27
:1039B0000BE100C0E9FF01C0F3FF0250AFEC21F0C2
:1039C000E56E74EC1FF0E652E4CF03F0E4CF02F0B2
:1039D000E4CF01F0E4CF00F0E4CFD9FF1200D9CF5B
:1039E000E5FFE1CFD9FF00C0E5FF01C0E5FF02C060
:1039F000E5FF03C0E5FF020EDBCF00F0030EDBCFD7
:103A000001F05AC302F05BC303F003015A3F01D037
:103A10005B2B0150E56E0250E56EBFEC1FF0E652E5
:103A2000E6525AC302F05BC303F003015A3F01D0D0
:103A30005B2B0050E56E0250E56EBFEC1FF0E652C6
:103A4000E652E4CF03F0E4CF02F0E4CF01F0E4CF9C
:103A500000F0E4CFD9FF1200D9CFE5FFE1CFD9FFC5
:103A600000C0E5FF01C0E5FF02C0E5FF03C0E5FFC0
:103A700004C0E5FF020EDBCF00F0E4C001F0026AF3
:103A8000014A022AE5C003F0046A0150031803E169
:103A90000250041801E001D00ED0000E0001E42510
:103AA000016E026A010E022201C0E9FF02C0EAFFB4
:103AB00000C0EFFFE42BE4CF04F0E4CF03F0E4CF49
:103AC00002F0E4CF01F0E4CF00F0E4CFD9FF120020
:103AD000D9CFE5FFE1CFD9FF00C0E5FF01C0E5FF89
:103AE00002C0E5FF03C0E5FF020EDBCF00F0016A74
:103AF00072C302F0036A0250002603500122E56AF5
:103B0000800EE56E0150E56E0050E56ED0EC16F0CB
:103B1000006EF3CF01F0040EE126600E0026000EC9
:103B2000012200C0E9FF01C0EAFFEFCF00F0005022
:103B3000E4CF03F0E4CF02F0E4CF01F0E4CF00F0F3
:103B4000E4CFD9FF120000C0E5FF01C0E5FF02C0CD
:103B5000E5FF010E006ED5EC1EF0016E01C002F013
:103B6000015023E00050E56EDFEC21F0016EE652DB
:103B7000015010E10A0E005C0BE20A0E006EE56EC9
:103B8000DFEC21F0016EE652015004E1E8680ED04E
:103B9000E8680CD00150021802E0E86807D0002A5B
:103BA0001B0E005CD8E3E86801D0E86AE4CF02F0BD
:103BB000E4CF01F0E4CF00F01200F3CFE5FFF4CF43
:103BC000E5FFE9CFE5FFEACFE5FFFACFE5FFFBCF61
:103BD000E5FF0001E2510F01356F0001E3510F01D4
:103BE000366FD650336FD750346FF2A411D0000126
:103BF000E23F01D0E32BF2940001E2510F01356F57
:103C00000001E3510F01366FD650336FD750346F38
:103C1000E4CFFBFFE4CFFAFFE4CFEAFFE4CFE9FF14
:103C2000E4CFF4FFE4CFF3FF110000C0E5FF01C0D3
:103C3000E5FF02C0E5FF03C0E5FF5AC300F05BC328
:103C400001F003015A3F01D05B2B0050E56EDFEC21
:103C500021F0E652036E026A5AC300F05BC301F022
:103C600003015A3F01D05B2B0050E56EDFEC21F0E1
:103C7000E652016A02120150031203C0F3FF025020
:103C8000E4CF03F0E4CF02F0E4CF01F0E4CF00F0A2
:103C9000120000C0E5FF01C0E5FF02C0E5FF006EB5
:103CA000000E0001E925016E026A0F0E022201C01A
:103CB000E9FF02C0EAFF00C0EFFF220EE95D01E26A
:103CC000E92B00500A0A0FE10001E951E56E800E70
:103CD000E56E0F0EE56E000EE56EDEEC15F0040EDF
:103CE000E1260001E96BE4CF02F0E4CF01F0E4CF7C
:103CF00000F012000001E46B0001E56B0001E669D1
:103D0000928C899C928C766A3F0E756E7086728A50
:103D10007284728C7290718C718E0301696B0301D5
:103D2000636B0301666B0301676B0301686B000E35
:103D3000E56ADFEC21F00001E86FE652A598A59A4C
:103D4000010E0001E76F04017D6B7E6B2F0E7F6F0C
:103D5000EDEC21F012000001E25104017B6F000143
:103D6000E35104017C6FD650796FD7507A6F7B5145
:103D70000001E21905E104017C510001E3190CE0A6
:103D80000001E25104017B6F0001E35104017C6FEB
:103D9000D650796FD7507A6F7CC4E9FF7BC4F4FFAB
:103DA0007AC4F3FF04017951120000C0E5FF01C09D
:103DB000E5FF030167510301701905E00301675135
:103DC0000301661902E1E86A15D067C300F0030138
:103DD000672B016A600E0026000E012200C0E9FF79
:103DE00001C0EAFFEFCF00F06751800A02E1030152
:103DF000676B0050E4CF01F0E4CF00F0120000C088
:103E0000E5FF78EC22F00401896B806B8983006AFE
:103E100089B3002A0050010BE844F46E8051FD0B79
:103E2000F410806FD58ED59CD59AD588D596D5942B
:103E3000D582D580F28AF184D08EF28EF28CBA804F
:103E4000FF0EBB68BA84E4CF00F01200D9CFE5FFC3
:103E5000E1CFD9FF00C0E5FF01C0E5FF020EDBCFD7
:103E600000F00050020DF450016EF3CF00F0000E90
:103E70000026030E012200C0E9FF01C0EAFFEECFD9
:103E800000F0EFCF01F001C0F3FF0050E4CF01F0EC
:103E9000E4CF00F0E4CFD9FF1200D9CFE5FFE1CFA6
:103EA000D9FF00C0E5FF01C0E5FF020EDBCF00F047
:103EB0000050020DF450016EF3CF00F0390E0026D1
:103EC000040E012200C0E9FF01C0EAFFEECF00F0BE
:103ED000EFCF01F001C0F3FF0050E4CF01F0E4CFD9
:103EE00000F0E4CFD9FF1200D9CFE5FFE1CFD9FF31
:103EF00000C0E5FF01C0E5FF02C0E5FF020EDBCF19
:103F000000F05AC301F05BC302F003015A3F01D035
:103F10005B2B0050E56E0150E56EBFEC1FF0E652E2
:103F2000E652E4CF02F0E4CF01F0E4CF00F0E4CFBA
:103F3000D9FF1200D8CFE5FFE0CFE5FFE56EF3CF64
:103F4000E5FFF4CFE5FFE9CFE5FFEACFE5FFFACFE4
:103F5000E5FFFBCFE5FFA8EC0CF0E4CFFBFFE4CFDF
:103F6000FAFFE4CFEAFFE4CFE9FFE4CFF4FFE4CFC8
:103F7000F3FFE450E4CFE0FFE4CFD8FF1000D9CF47
:103F8000E5FFE1CFD9FF00C0E5FF020EDBCF00F077
:103F9000030EDBCFA8FF00C0A9FFA69EA69CA684A7
:103FA000F29EF29C550EA76EAA0EA76EA682A6A23E
:103FB00002D00000FCD7A694F28EF28CE4CF00F081
:103FC000E4CFD9FF1200E8AE0AD0F3CFEAFFEE50FB
:103FD000EECFF3FFEECFF4FFEECFE9FF1200E8BC27
:103FE0008BEF22F0E9CFF6FFF3CFF7FFF86E090071
:103FF000F5500900F5CFF3FF0900F5CFF4FF0900F4
:10400000F5CFE9FF120000C0E5FF01C0E5FF0001A8
:10401000E4510001E51902E1E86A0FD0000E000149
:10402000E525006E016A010E012200C0E9FF01C012
:10403000EAFFEFCF00F0E52B0050E4CF01F0E4CF32
:1040400000F01200F2CFEAFFF29EA69EA69CA68484
:10405000E9CFA9FFF3CFAAFFE4CFA8FF5FEC22F0DE
:10406000F4CFA8FF5FEC22F0F6CFA8FF5FEC22F0C0
:10407000F7CFA8FF5FEC22F0A694EABEF28E120002
:10408000D9CFE5FFE1CFD9FF00C0E5FF01C0E5FFD3
:10409000020EDBCF00F0016A400E0026030E012263
:1040A00000C0E9FF01C0EAFFFF0EEF68E4CF01F0B6
:1040B000E4CF00F0E4CFD9FF1200F2CFF6FFF29E7A
:1040C000A69EA69CE9CFA9FFF3CFAAFFA680A85081
:1040D000A94AAA2AA680A8CFF3FFA94AAA2AA6809D
:1040E000A8CFF4FFA94AAA2AA680A8CFEAFFF6BE65
:1040F000F28E1200E8AE08D0F3CFEAFFEE50EECF1A
:10410000F3FFEECFF4FF1200E8BC93EF22F0E9CF0B
:10411000F6FFF3CFF7FFF86E0900F5500900F5CF71
:10412000F3FF0900F5CFF4FF1200F2CFEAFFF29E91
:10413000A69EA69CA684E9CFA9FFF3CFAAFFE4CF51
:10414000A8FF5FEC22F0F4CFA8FF5FEC22F0F6CFDF
:10415000A8FF5FEC22F0A694EABEF28E1200D9CF3F
:10416000E5FFE1CFD9FF00C0E5FF020EDBCF00F095
:1041700000C0E8F00050E56E000EE56ABFEC1FF0ED
:10418000E652E652E4CF00F0E4CFD9FF1200F2CFBE
:10419000F6FFF29EA69EA69CE9CFA9FFF3CFAAFF49
:1041A000A680A850A94AAA2AA680A8CFF3FFA94AA8
:1041B000AA2AA680A8CFF4FFF6BEF28E120000C095
:1041C000E5FF01C0E5FF600E03016725006E016A8F
:1041D000000E012200C0E9FF01C0EAFFEFCF00F0AE
:1041E0000050E4CF01F0E4CF00F01200D9CFE5FF9A
:1041F000E1CFD9FF00C0E5FF020EDBCF00F0610E7A
:10420000005C05E37B0E005C02E2010E01D0E86A6F
:10421000E4CF00F0E4CFD9FF120000C0E5FF01C0F9
:10422000E5FF5AC300F05BC301F003015A3F01D020
:104230005B2B0050E56EDFEC21F0E652E4CF01F09D
:10424000E4CF00F01200D9CFE5FFE1CFD9FF00C0E5
:10425000E5FF020EDBCF00F000C0E7F0005004E104
:10426000EDEC21F0A39AA398E4CF00F0E4CFD9FFBE
:104270001200E8AE06D0F3CFEAFFEE50EECFF3FF28
:104280001200E8BC89EF22F0E9CFF6FFF3CFF7FF89
:10429000F86E0900F5500900F5CFF3FF1200F2CFD8
:1042A000EAFFF29EA69EA69CA684E9CFA9FFF3CFC3
:1042B000AAFFE4CFA8FF5FEC22F0F4CFA8FF5FECE9
:1042C00022F0A694EABEF28E120012EEFFF022EE69
:1042D000FFF0F86AA68EA69CE9680E0EEA6E0068EA
:1042E000000EED6A0050FDE1CCEC1AF006EC00F097
:1042F000FFD7F2CFF6FFF29EA69EA69CE9CFA9FFBC
:10430000F3CFAAFFA680A850A94AAA2AA680A8CFC0
:10431000F3FFF6BEF28E1200F2CFEAFFF29EA69EE7
:10432000A69CA684E9CFA9FFF3CFAAFFE4CFA8FFFC
:104330005FEC22F0A694EABEF28E1200E8AE0BD03B
:10434000F3CFEAFFE4CFEEFFF4CFEEFFF6CFEEFFC0
:10435000F7CFEEFF1200E8BC8DEF22F01200E8AEBE
:1043600004D0F3CFEAFFEE501200E8BC87EF22F052
:10437000E9CFF6FFF3CFF7FFF86E0900F550120012
:10438000000000000000FF00000000070002000025
:1043900000420000000000000000000000000000DB
:1043A000E8AE09D0F3CFEAFFE4CFEEFFF4CFEEFFA3
:1043B000F6CFEEFF1200E8BC95EF22F01200D9CF45
:1043C000E5FFE1CFD9FF020EDBCFA9FFA69CA69E99
:1043D000A680A850E4CFD9FF120072A2FED7928C1B
:1043E000745000007450719871887186A38AA398E4
:1043F000120025642000F2CFF6FFF29EA69EA69C36
:10440000E9CFA9FFF3CFAAFFA680A850F6BEF28E8F
:104410001200E8AE07D0F3CFEAFFE4CFEEFFF4CF0F
:10442000EEFF1200E8BC91EF22F01200700ED36E86
:104430009B8CFF0E9268936894689668626AF19EFE
:10444000120000C0E5FFA3EC1DF0006E005001E17A
:10445000FF00E4CF00F012000F01456B900E0F013A
:10446000446F030E0F01436F0F01458F1200E8AE3A
:1044700005D0F3CFEAFFE4CFEEFF1200E8BC8FEFE8
:1044800022F01200010E0401376F1C0E03015A6F57
:104490005B6B97EC22F01200D9CFE5FFE1CFD9FF9B
:1044A000020EDBCFEDF0E4CFD9FF12000401376B31
:1044B0001C0E03015A6F5B6B97EC22F01200550E35
:1044C000A76EAA0EA76EA682A6B2FED7A94AAA2AEE
:1044D000010080430000E000000020000000FFEC2D
:1044E0001EF07AEC1EF01200ACA2FED7AD6E1200E8
:1044F00016EC22F012000301675112000301715102
:1045000012000001E7511200E8CF7FFF1200FBEF1D
:1045100021F079EF21F05DEF20F022EF20F08CEF19
:1045200021F04FEF21F0C7EF20F095EF20F01200BF
:020000040030CA
:010006008574
:00000001FF
